{"contracts/NeutralHeart.sol":{"NeutralHeart":{"abi":[{"inputs":[{"internalType":"string","name":"name_","type":"string"},{"internalType":"string","name":"symbol_","type":"string"},{"internalType":"uint256","name":"maxPublicSupply_","type":"uint256"},{"internalType":"uint256","name":"priceWei_","type":"uint256"}],"stateMutability":"nonpayable","type":"constructor"},{"inputs":[],"name":"ECDSAInvalidSignature","type":"error"},{"inputs":[{"internalType":"uint256","name":"length","type":"uint256"}],"name":"ECDSAInvalidSignatureLength","type":"error"},{"inputs":[{"internalType":"bytes32","name":"s","type":"bytes32"}],"name":"ECDSAInvalidSignatureS","type":"error"},{"inputs":[{"internalType":"address","name":"sender","type":"address"},{"internalType":"uint256","name":"tokenId","type":"uint256"},{"internalType":"address","name":"owner","type":"address"}],"name":"ERC721IncorrectOwner","type":"error"},{"inputs":[{"internalType":"address","name":"operator","type":"address"},{"internalType":"uint256","name":"tokenId","type":"uint256"}],"name":"ERC721InsufficientApproval","type":"error"},{"inputs":[{"internalType":"address","name":"approver","type":"address"}],"name":"ERC721InvalidApprover","type":"error"},{"inputs":[{"internalType":"address","name":"operator","type":"address"}],"name":"ERC721InvalidOperator","type":"error"},{"inputs":[{"internalType":"address","name":"owner","type":"address"}],"name":"ERC721InvalidOwner","type":"error"},{"inputs":[{"internalType":"address","name":"receiver","type":"address"}],"name":"ERC721InvalidReceiver","type":"error"},{"inputs":[{"internalType":"address","name":"sender","type":"address"}],"name":"ERC721InvalidSender","type":"error"},{"inputs":[{"internalType":"uint256","name":"tokenId","type":"uint256"}],"name":"ERC721NonexistentToken","type":"error"},{"inputs":[{"internalType":"address","name":"owner","type":"address"}],"name":"OwnableInvalidOwner","type":"error"},{"inputs":[{"internalType":"address","name":"account","type":"address"}],"name":"OwnableUnauthorizedAccount","type":"error"},{"anonymous":false,"inputs":[{"indexed":true,"internalType":"address","name":"owner","type":"address"},{"indexed":true,"internalType":"address","name":"approved","type":"address"},{"indexed":true,"internalType":"uint256","name":"tokenId","type":"uint256"}],"name":"Approval","type":"event"},{"anonymous":false,"inputs":[{"indexed":true,"internalType":"address","name":"owner","type":"address"},{"indexed":true,"internalType":"address","name":"operator","type":"address"},{"indexed":false,"internalType":"bool","name":"approved","type":"bool"}],"name":"ApprovalForAll","type":"event"},{"anonymous":false,"inputs":[{"indexed":true,"internalType":"address","name":"previousOwner","type":"address"},{"indexed":true,"internalType":"address","name":"newOwner","type":"address"}],"name":"OwnershipTransferred","type":"event"},{"anonymous":false,"inputs":[{"indexed":true,"internalType":"address","name":"to","type":"address"},{"indexed":true,"internalType":"uint256","name":"tokenId","type":"uint256"}],"name":"PublicMint","type":"event"},{"anonymous":false,"inputs":[{"indexed":true,"internalType":"address","name":"to","type":"address"},{"indexed":true,"internalType":"uint256","name":"tokenId","type":"uint256"}],"name":"SubscriberClaim","type":"event"},{"anonymous":false,"inputs":[{"indexed":true,"internalType":"address","name":"from","type":"address"},{"indexed":true,"internalType":"address","name":"to","type":"address"},{"indexed":true,"internalType":"uint256","name":"tokenId","type":"uint256"}],"name":"Transfer","type":"event"},{"anonymous":false,"inputs":[{"indexed":true,"internalType":"address","name":"owner","type":"address"},{"indexed":true,"internalType":"uint256","name":"burnedId","type":"uint256"},{"indexed":true,"internalType":"uint256","name":"newId","type":"uint256"},{"indexed":false,"internalType":"uint8","name":"variant","type":"uint8"}],"name":"Transform","type":"event"},{"inputs":[{"internalType":"address","name":"to","type":"address"},{"internalType":"uint256","name":"tokenId","type":"uint256"}],"name":"approve","outputs":[],"stateMutability":"nonpayable","type":"function"},{"inputs":[{"internalType":"address","name":"owner","type":"address"}],"name":"balanceOf","outputs":[{"internalType":"uint256","name":"","type":"uint256"}],"stateMutability":"view","type":"function"},{"inputs":[{"internalType":"bytes","name":"signature","type":"bytes"}],"name":"claimForSubscriber","outputs":[],"stateMutability":"nonpayable","type":"function"},{"inputs":[],"name":"currentId","outputs":[{"internalType":"uint256","name":"","type":"uint256"}],"stateMutability":"view","type":"function"},{"inputs":[{"internalType":"uint256","name":"tokenId","type":"uint256"}],"name":"getApproved","outputs":[{"internalType":"address","name":"","type":"address"}],"stateMutability":"view","type":"function"},{"inputs":[{"internalType":"address","name":"","type":"address"}],"name":"hasClaimedOnChain","outputs":[{"internalType":"bool","name":"","type":"bool"}],"stateMutability":"view","type":"function"},{"inputs":[{"internalType":"address","name":"owner","type":"address"},{"internalType":"address","name":"operator","type":"address"}],"name":"isApprovedForAll","outputs":[{"internalType":"bool","name":"","type":"bool"}],"stateMutability":"view","type":"function"},{"inputs":[],"name":"maxPublicSupply","outputs":[{"internalType":"uint256","name":"","type":"uint256"}],"stateMutability":"view","type":"function"},{"inputs":[],"name":"name","outputs":[{"internalType":"string","name":"","type":"string"}],"stateMutability":"view","type":"function"},{"inputs":[],"name":"owner","outputs":[{"internalType":"address","name":"","type":"address"}],"stateMutability":"view","type":"function"},{"inputs":[{"internalType":"uint256","name":"tokenId","type":"uint256"}],"name":"ownerOf","outputs":[{"internalType":"address","name":"","type":"address"}],"stateMutability":"view","type":"function"},{"inputs":[],"name":"priceWei","outputs":[{"internalType":"uint256","name":"","type":"uint256"}],"stateMutability":"view","type":"function"},{"inputs":[{"internalType":"uint256","name":"qty","type":"uint256"}],"name":"publicMint","outputs":[],"stateMutability":"payable","type":"function"},{"inputs":[],"name":"publicMinted","outputs":[{"internalType":"uint256","name":"","type":"uint256"}],"stateMutability":"view","type":"function"},{"inputs":[],"name":"renounceOwnership","outputs":[],"stateMutability":"nonpayable","type":"function"},{"inputs":[{"internalType":"address","name":"from","type":"address"},{"internalType":"address","name":"to","type":"address"},{"internalType":"uint256","name":"tokenId","type":"uint256"}],"name":"safeTransferFrom","outputs":[],"stateMutability":"nonpayable","type":"function"},{"inputs":[{"internalType":"address","name":"from","type":"address"},{"internalType":"address","name":"to","type":"address"},{"internalType":"uint256","name":"tokenId","type":"uint256"},{"internalType":"bytes","name":"data","type":"bytes"}],"name":"safeTransferFrom","outputs":[],"stateMutability":"nonpayable","type":"function"},{"inputs":[{"internalType":"address","name":"operator","type":"address"},{"internalType":"bool","name":"approved","type":"bool"}],"name":"setApprovalForAll","outputs":[],"stateMutability":"nonpayable","type":"function"},{"inputs":[{"internalType":"string","name":"b","type":"string"}],"name":"setBaseURI","outputs":[],"stateMutability":"nonpayable","type":"function"},{"inputs":[{"internalType":"address","name":"s","type":"address"}],"name":"setTrustedSigner","outputs":[],"stateMutability":"nonpayable","type":"function"},{"inputs":[{"internalType":"bytes4","name":"interfaceId","type":"bytes4"}],"name":"supportsInterface","outputs":[{"internalType":"bool","name":"","type":"bool"}],"stateMutability":"view","type":"function"},{"inputs":[],"name":"symbol","outputs":[{"internalType":"string","name":"","type":"string"}],"stateMutability":"view","type":"function"},{"inputs":[{"internalType":"uint256","name":"tokenId","type":"uint256"}],"name":"tokenURI","outputs":[{"internalType":"string","name":"","type":"string"}],"stateMutability":"view","type":"function"},{"inputs":[{"internalType":"uint256","name":"","type":"uint256"}],"name":"tokenVariant","outputs":[{"internalType":"uint8","name":"","type":"uint8"}],"stateMutability":"view","type":"function"},{"inputs":[{"internalType":"address","name":"from","type":"address"},{"internalType":"address","name":"to","type":"address"},{"internalType":"uint256","name":"tokenId","type":"uint256"}],"name":"transferFrom","outputs":[],"stateMutability":"nonpayable","type":"function"},{"inputs":[{"internalType":"address","name":"newOwner","type":"address"}],"name":"transferOwnership","outputs":[],"stateMutability":"nonpayable","type":"function"},{"inputs":[{"internalType":"uint256","name":"tokenId","type":"uint256"},{"internalType":"uint8","name":"variant","type":"uint8"}],"name":"transform","outputs":[],"stateMutability":"nonpayable","type":"function"},{"inputs":[],"name":"trustedSigner","outputs":[{"internalType":"address","name":"","type":"address"}],"stateMutability":"view","type":"function"},{"inputs":[{"internalType":"address payable","name":"to","type":"address"}],"name":"withdraw","outputs":[],"stateMutability":"nonpayable","type":"function"}],"evm":{"bytecode":{"linkReferences":{},"object":"60806040523480156200001157600080fd5b50604051620043693803806200436983398181016040528101906200003791906200039b565b33848481600090816200004b91906200068c565b5080600190816200005d91906200068c565b505050600073ffffffffffffffffffffffffffffffffffffffff168173ffffffffffffffffffffffffffffffffffffffff1603620000d55760006040517f1e4fbdf7000000000000000000000000000000000000000000000000000000008152600401620000cc9190620007b8565b60405180910390fd5b620000e6816200010760201b60201c565b508160088190555080600a81905550600160078190555050505050620007d5565b6000600660009054906101000a900473ffffffffffffffffffffffffffffffffffffffff16905081600660006101000a81548173ffffffffffffffffffffffffffffffffffffffff021916908373ffffffffffffffffffffffffffffffffffffffff1602179055508173ffffffffffffffffffffffffffffffffffffffff168173ffffffffffffffffffffffffffffffffffffffff167f8be0079c531659141344cd1fd0a4f28419497f9722a3daafe3b4186f6b6457e060405160405180910390a35050565b6000604051905090565b600080fd5b600080fd5b600080fd5b600080fd5b6000601f19601f8301169050919050565b7f4e487b7100000000000000000000000000000000000000000000000000000000600052604160045260246000fd5b6200023682620001eb565b810181811067ffffffffffffffff82111715620002585762000257620001fc565b5b80604052505050565b60006200026d620001cd565b90506200027b82826200022b565b919050565b600067ffffffffffffffff8211156200029e576200029d620001fc565b5b620002a982620001eb565b9050602081019050919050565b60005b83811015620002d6578082015181840152602081019050620002b9565b60008484015250505050565b6000620002f9620002f38462000280565b62000261565b905082815260208101848484011115620003185762000317620001e6565b5b62000325848285620002b6565b509392505050565b600082601f830112620003455762000344620001e1565b5b815162000357848260208601620002e2565b91505092915050565b6000819050919050565b620003758162000360565b81146200038157600080fd5b50565b60008151905062000395816200036a565b92915050565b60008060008060808587031215620003b857620003b7620001d7565b5b600085015167ffffffffffffffff811115620003d957620003d8620001dc565b5b620003e7878288016200032d565b945050602085015167ffffffffffffffff8111156200040b576200040a620001dc565b5b62000419878288016200032d565b93505060406200042c8782880162000384565b92505060606200043f8782880162000384565b91505092959194509250565b600081519050919050565b7f4e487b7100000000000000000000000000000000000000000000000000000000600052602260045260246000fd5b600060028204905060018216806200049e57607f821691505b602082108103620004b457620004b362000456565b5b50919050565b60008190508160005260206000209050919050565b60006020601f8301049050919050565b600082821b905092915050565b6000600883026200051e7fffffffffffffffffffffffffffffffffffffffffffffffffffffffffffffffff82620004df565b6200052a8683620004df565b95508019841693508086168417925050509392505050565b6000819050919050565b60006200056d62000567620005618462000360565b62000542565b62000360565b9050919050565b6000819050919050565b62000589836200054c565b620005a1620005988262000574565b848454620004ec565b825550505050565b600090565b620005b8620005a9565b620005c58184846200057e565b505050565b5b81811015620005ed57620005e1600082620005ae565b600181019050620005cb565b5050565b601f8211156200063c576200060681620004ba565b6200061184620004cf565b8101602085101562000621578190505b620006396200063085620004cf565b830182620005ca565b50505b505050565b600082821c905092915050565b6000620006616000198460080262000641565b1980831691505092915050565b60006200067c83836200064e565b9150826002028217905092915050565b62000697826200044b565b67ffffffffffffffff811115620006b357620006b2620001fc565b5b620006bf825462000485565b620006cc828285620005f1565b600060209050601f831160018114620007045760008415620006ef578287015190505b620006fb85826200066e565b8655506200076b565b601f1984166200071486620004ba565b60005b828110156200073e5784890151825560018201915060208501945060208101905062000717565b868310156200075e57848901516200075a601f8916826200064e565b8355505b6001600288020188555050505b505050505050565b600073ffffffffffffffffffffffffffffffffffffffff82169050919050565b6000620007a08262000773565b9050919050565b620007b28162000793565b82525050565b6000602082019050620007cf6000830184620007a7565b92915050565b613b8480620007e56000396000f3fe6080604052600436106101c25760003560e01c8063715018a6116100f7578063bcea0fec11610095578063e985e9c511610064578063e985e9c514610643578063f2fde38b14610680578063f74d5480146106a9578063f78f647c146106d4576101c2565b8063bcea0fec14610575578063c87b56dd1461059e578063dd46edb8146105db578063e00dd16114610618576101c2565b8063a22cb465116100d1578063a22cb465146104cd578063a4f4f8af146104f6578063b7ec208614610521578063b88d4fde1461054c576101c2565b8063715018a6146104605780638da5cb5b1461047757806395d89b41146104a2576101c2565b80632db115441161016457806355f804b31161013e57806355f804b31461039457806356a1c701146103bd5780636352211e146103e657806370a0823114610423576101c2565b80632db115441461032657806342842e0e1461034257806351cff8d91461036b576101c2565b8063095ea7b3116101a0578063095ea7b31461026c5780631a02b69e1461029557806323b872dd146102d257806326a74d8e146102fb576101c2565b806301ffc9a7146101c757806306fdde0314610204578063081812fc1461022f575b600080fd5b3480156101d357600080fd5b506101ee60048036038101906101e991906127d5565b6106fd565b6040516101fb919061281d565b60405180910390f35b34801561021057600080fd5b506102196107df565b60405161022691906128c8565b60405180910390f35b34801561023b57600080fd5b5061025660048036038101906102519190612920565b610871565b604051610263919061298e565b60405180910390f35b34801561027857600080fd5b50610293600480360381019061028e91906129d5565b61088d565b005b3480156102a157600080fd5b506102bc60048036038101906102b79190612a15565b6108a3565b6040516102c9919061281d565b60405180910390f35b3480156102de57600080fd5b506102f960048036038101906102f49190612a42565b6108c3565b005b34801561030757600080fd5b506103106109c5565b60405161031d9190612aa4565b60405180910390f35b610340600480360381019061033b9190612920565b6109cb565b005b34801561034e57600080fd5b5061036960048036038101906103649190612a42565b610b8e565b005b34801561037757600080fd5b50610392600480360381019061038d9190612afd565b610bae565b005b3480156103a057600080fd5b506103bb60048036038101906103b69190612c5f565b610cb8565b005b3480156103c957600080fd5b506103e460048036038101906103df9190612a15565b610cd3565b005b3480156103f257600080fd5b5061040d60048036038101906104089190612920565b610d1f565b60405161041a919061298e565b60405180910390f35b34801561042f57600080fd5b5061044a60048036038101906104459190612a15565b610d31565b6040516104579190612aa4565b60405180910390f35b34801561046c57600080fd5b50610475610deb565b005b34801561048357600080fd5b5061048c610dff565b604051610499919061298e565b60405180910390f35b3480156104ae57600080fd5b506104b7610e29565b6040516104c491906128c8565b60405180910390f35b3480156104d957600080fd5b506104f460048036038101906104ef9190612cd4565b610ebb565b005b34801561050257600080fd5b5061050b610ed1565b6040516105189190612aa4565b60405180910390f35b34801561052d57600080fd5b50610536610ed7565b6040516105439190612aa4565b60405180910390f35b34801561055857600080fd5b50610573600480360381019061056e9190612db5565b610edd565b005b34801561058157600080fd5b5061059c60048036038101906105979190612e98565b610f02565b005b3480156105aa57600080fd5b506105c560048036038101906105c09190612920565b611234565b6040516105d291906128c8565b60405180910390f35b3480156105e757600080fd5b5061060260048036038101906105fd9190612920565b611364565b60405161060f9190612f01565b60405180910390f35b34801561062457600080fd5b5061062d611384565b60405161063a9190612aa4565b60405180910390f35b34801561064f57600080fd5b5061066a60048036038101906106659190612f1c565b61138a565b604051610677919061281d565b60405180910390f35b34801561068c57600080fd5b506106a760048036038101906106a29190612a15565b61141e565b005b3480156106b557600080fd5b506106be6114a4565b6040516106cb919061298e565b60405180910390f35b3480156106e057600080fd5b506106fb60048036038101906106f69190612f88565b6114ca565b005b60007f80ac58cd000000000000000000000000000000000000000000000000000000007bffffffffffffffffffffffffffffffffffffffffffffffffffffffff1916827bffffffffffffffffffffffffffffffffffffffffffffffffffffffff191614806107c857507f5b5e139f000000000000000000000000000000000000000000000000000000007bffffffffffffffffffffffffffffffffffffffffffffffffffffffff1916827bffffffffffffffffffffffffffffffffffffffffffffffffffffffff1916145b806107d857506107d7826116a9565b5b9050919050565b6060600080546107ee90612ff7565b80601f016020809104026020016040519081016040528092919081815260200182805461081a90612ff7565b80156108675780601f1061083c57610100808354040283529160200191610867565b820191906000526020600020905b81548152906001019060200180831161084a57829003601f168201915b5050505050905090565b600061087c82611713565b506108868261179b565b9050919050565b61089f828261089a6117d8565b6117e0565b5050565b600c6020528060005260406000206000915054906101000a900460ff1681565b600073ffffffffffffffffffffffffffffffffffffffff168273ffffffffffffffffffffffffffffffffffffffff16036109355760006040517f64a0ae9200000000000000000000000000000000000000000000000000000000815260040161092c919061298e565b60405180910390fd5b600061094983836109446117d8565b6117f2565b90508373ffffffffffffffffffffffffffffffffffffffff168173ffffffffffffffffffffffffffffffffffffffff16146109bf578382826040517f64283d7b0000000000000000000000000000000000000000000000000000000081526004016109b693929190613028565b60405180910390fd5b50505050565b60085481565b6000811180156109dc5750600a8111155b610a1b576040517f08c379a0000000000000000000000000000000000000000000000000000000008152600401610a12906130ab565b60405180910390fd5b60085481600954610a2c91906130fa565b1115610a6d576040517f08c379a0000000000000000000000000000000000000000000000000000000008152600401610a649061317a565b60405180910390fd5b80600a54610a7b919061319a565b3414610abc576040517f08c379a0000000000000000000000000000000000000000000000000000000008152600401610ab390613228565b60405180910390fd5b60005b81811015610b7157600060076000815480929190610adc90613248565b919050559050610aec3382611a0c565b6000600d600083815260200190815260200160002060006101000a81548160ff021916908360ff160217905550803373ffffffffffffffffffffffffffffffffffffffff167f748a2986091c2034d6e93b6f44f771a79f0e1d6acd8a60c68c17d4e1e2feaed260405160405180910390a3508080610b6990613248565b915050610abf565b508060096000828254610b8491906130fa565b9250508190555050565b610ba983838360405180602001604052806000815250610edd565b505050565b610bb6611a2a565b600073ffffffffffffffffffffffffffffffffffffffff168173ffffffffffffffffffffffffffffffffffffffff1603610c25576040517f08c379a0000000000000000000000000000000000000000000000000000000008152600401610c1c906132dc565b60405180910390fd5b600047905060008111610c6d576040517f08c379a0000000000000000000000000000000000000000000000000000000008152600401610c6490613348565b60405180910390fd5b8173ffffffffffffffffffffffffffffffffffffffff166108fc829081150290604051600060405180830381858888f19350505050158015610cb3573d6000803e3d6000fd5b505050565b610cc0611a2a565b80600e9081610ccf9190613514565b5050565b610cdb611a2a565b80600b60006101000a81548173ffffffffffffffffffffffffffffffffffffffff021916908373ffffffffffffffffffffffffffffffffffffffff16021790555050565b6000610d2a82611713565b9050919050565b60008073ffffffffffffffffffffffffffffffffffffffff168273ffffffffffffffffffffffffffffffffffffffff1603610da45760006040517f89c62b64000000000000000000000000000000000000000000000000000000008152600401610d9b919061298e565b60405180910390fd5b600360008373ffffffffffffffffffffffffffffffffffffffff1673ffffffffffffffffffffffffffffffffffffffff168152602001908152602001600020549050919050565b610df3611a2a565b610dfd6000611ab1565b565b6000600660009054906101000a900473ffffffffffffffffffffffffffffffffffffffff16905090565b606060018054610e3890612ff7565b80601f0160208091040260200160405190810160405280929190818152602001828054610e6490612ff7565b8015610eb15780601f10610e8657610100808354040283529160200191610eb1565b820191906000526020600020905b815481529060010190602001808311610e9457829003601f168201915b5050505050905090565b610ecd610ec66117d8565b8383611b77565b5050565b60095481565b600a5481565b610ee88484846108c3565b610efc610ef36117d8565b85858585611ce6565b50505050565b600073ffffffffffffffffffffffffffffffffffffffff16600b60009054906101000a900473ffffffffffffffffffffffffffffffffffffffff1673ffffffffffffffffffffffffffffffffffffffff1603610f93576040517f08c379a0000000000000000000000000000000000000000000000000000000008152600401610f8a90613632565b60405180910390fd5b600c60003373ffffffffffffffffffffffffffffffffffffffff1673ffffffffffffffffffffffffffffffffffffffff16815260200190815260200160002060009054906101000a900460ff1615611020576040517f08c379a00000000000000000000000000000000000000000000000000000000081526004016110179061369e565b60405180910390fd5b600030463360405160200161103793929190613727565b604051602081830303815290604052805190602001209050600061105a82611e97565b905060006110ac8286868080601f016020809104026020016040519081016040528093929190818152602001838380828437600081840152601f19601f82011690508083019250505050505050611ecd565b9050600b60009054906101000a900473ffffffffffffffffffffffffffffffffffffffff1673ffffffffffffffffffffffffffffffffffffffff168173ffffffffffffffffffffffffffffffffffffffff161461113e576040517f08c379a0000000000000000000000000000000000000000000000000000000008152600401611135906137b0565b60405180910390fd5b6001600c60003373ffffffffffffffffffffffffffffffffffffffff1673ffffffffffffffffffffffffffffffffffffffff16815260200190815260200160002060006101000a81548160ff0219169083151502179055506000600760008154809291906111ab90613248565b9190505590506111bb3382611a0c565b6000600d600083815260200190815260200160002060006101000a81548160ff021916908360ff160217905550803373ffffffffffffffffffffffffffffffffffffffff167fe9a10c23ea49d40011e019f115185f0bc29740208a504d35f951dca74ba37eac60405160405180910390a3505050505050565b606061123f82611713565b50600061124a611ef9565b90506000600d600085815260200190815260200160002060009054906101000a900460ff16905060006040518060400160405280600c81526020017f6e65757472616c2e6a736f6e0000000000000000000000000000000000000000815250905060018260ff16036112f3576040518060400160405280600a81526020017f616e67656c2e6a736f6e000000000000000000000000000000000000000000008152509050611338565b60028260ff1603611337576040518060400160405280600a81526020017f646576696c2e6a736f6e0000000000000000000000000000000000000000000081525090505b5b828160405160200161134b92919061380c565b6040516020818303038152906040529350505050919050565b600d6020528060005260406000206000915054906101000a900460ff1681565b60075481565b6000600560008473ffffffffffffffffffffffffffffffffffffffff1673ffffffffffffffffffffffffffffffffffffffff16815260200190815260200160002060008373ffffffffffffffffffffffffffffffffffffffff1673ffffffffffffffffffffffffffffffffffffffff16815260200190815260200160002060009054906101000a900460ff16905092915050565b611426611a2a565b600073ffffffffffffffffffffffffffffffffffffffff168173ffffffffffffffffffffffffffffffffffffffff16036114985760006040517f1e4fbdf700000000000000000000000000000000000000000000000000000000815260040161148f919061298e565b60405180910390fd5b6114a181611ab1565b50565b600b60009054906101000a900473ffffffffffffffffffffffffffffffffffffffff1681565b60018160ff1614806114df575060028160ff16145b61151e576040517f08c379a00000000000000000000000000000000000000000000000000000000081526004016115159061387c565b60405180910390fd5b3373ffffffffffffffffffffffffffffffffffffffff1661153e83610d1f565b73ffffffffffffffffffffffffffffffffffffffff1614611594576040517f08c379a000000000000000000000000000000000000000000000000000000000815260040161158b906138e8565b60405180910390fd5b6000600d600084815260200190815260200160002060009054906101000a900460ff1660ff16146115fa576040517f08c379a00000000000000000000000000000000000000000000000000000000081526004016115f19061397a565b60405180910390fd5b61160382611f8b565b60006007600081548092919061161890613248565b9190505590506116283382611a0c565b81600d600083815260200190815260200160002060006101000a81548160ff021916908360ff16021790555080833373ffffffffffffffffffffffffffffffffffffffff167f598067bc48ef38b7785eda047c375b2d45f2b845404b58dcdfccf40e7f38d8698560405161169c9190612f01565b60405180910390a4505050565b60007f01ffc9a7000000000000000000000000000000000000000000000000000000007bffffffffffffffffffffffffffffffffffffffffffffffffffffffff1916827bffffffffffffffffffffffffffffffffffffffffffffffffffffffff1916149050919050565b60008061171f83612011565b9050600073ffffffffffffffffffffffffffffffffffffffff168173ffffffffffffffffffffffffffffffffffffffff160361179257826040517f7e2732890000000000000000000000000000000000000000000000000000000081526004016117899190612aa4565b60405180910390fd5b80915050919050565b60006004600083815260200190815260200160002060009054906101000a900473ffffffffffffffffffffffffffffffffffffffff169050919050565b600033905090565b6117ed838383600161204e565b505050565b6000806117fe84612011565b9050600073ffffffffffffffffffffffffffffffffffffffff168373ffffffffffffffffffffffffffffffffffffffff16146118405761183f818486612213565b5b600073ffffffffffffffffffffffffffffffffffffffff168173ffffffffffffffffffffffffffffffffffffffff16146118d15761188260008560008061204e565b6001600360008373ffffffffffffffffffffffffffffffffffffffff1673ffffffffffffffffffffffffffffffffffffffff168152602001908152602001600020600082825403925050819055505b600073ffffffffffffffffffffffffffffffffffffffff168573ffffffffffffffffffffffffffffffffffffffff1614611954576001600360008773ffffffffffffffffffffffffffffffffffffffff1673ffffffffffffffffffffffffffffffffffffffff168152602001908152602001600020600082825401925050819055505b846002600086815260200190815260200160002060006101000a81548173ffffffffffffffffffffffffffffffffffffffff021916908373ffffffffffffffffffffffffffffffffffffffff160217905550838573ffffffffffffffffffffffffffffffffffffffff168273ffffffffffffffffffffffffffffffffffffffff167fddf252ad1be2c89b69c2b068fc378daa952ba7f163c4a11628f55a4df523b3ef60405160405180910390a4809150509392505050565b611a268282604051806020016040528060008152506122d7565b5050565b611a326117d8565b73ffffffffffffffffffffffffffffffffffffffff16611a50610dff565b73ffffffffffffffffffffffffffffffffffffffff1614611aaf57611a736117d8565b6040517f118cdaa7000000000000000000000000000000000000000000000000000000008152600401611aa6919061298e565b60405180910390fd5b565b6000600660009054906101000a900473ffffffffffffffffffffffffffffffffffffffff16905081600660006101000a81548173ffffffffffffffffffffffffffffffffffffffff021916908373ffffffffffffffffffffffffffffffffffffffff1602179055508173ffffffffffffffffffffffffffffffffffffffff168173ffffffffffffffffffffffffffffffffffffffff167f8be0079c531659141344cd1fd0a4f28419497f9722a3daafe3b4186f6b6457e060405160405180910390a35050565b600073ffffffffffffffffffffffffffffffffffffffff168273ffffffffffffffffffffffffffffffffffffffff1603611be857816040517f5b08ba18000000000000000000000000000000000000000000000000000000008152600401611bdf919061298e565b60405180910390fd5b80600560008573ffffffffffffffffffffffffffffffffffffffff1673ffffffffffffffffffffffffffffffffffffffff16815260200190815260200160002060008473ffffffffffffffffffffffffffffffffffffffff1673ffffffffffffffffffffffffffffffffffffffff16815260200190815260200160002060006101000a81548160ff0219169083151502179055508173ffffffffffffffffffffffffffffffffffffffff168373ffffffffffffffffffffffffffffffffffffffff167f17307eab39ab6107e8899845ad3d59bd9653f200f220920489ca2b5937696c3183604051611cd9919061281d565b60405180910390a3505050565b60008373ffffffffffffffffffffffffffffffffffffffff163b1115611e90578273ffffffffffffffffffffffffffffffffffffffff1663150b7a02868685856040518563ffffffff1660e01b8152600401611d4594939291906139ef565b6020604051808303816000875af1925050508015611d8157506040513d601f19601f82011682018060405250810190611d7e9190613a50565b60015b611e05573d8060008114611db1576040519150601f19603f3d011682016040523d82523d6000602084013e611db6565b606091505b506000815103611dfd57836040517f64a0ae92000000000000000000000000000000000000000000000000000000008152600401611df4919061298e565b60405180910390fd5b805160208201fd5b63150b7a0260e01b7bffffffffffffffffffffffffffffffffffffffffffffffffffffffff1916817bffffffffffffffffffffffffffffffffffffffffffffffffffffffff191614611e8e57836040517f64a0ae92000000000000000000000000000000000000000000000000000000008152600401611e85919061298e565b60405180910390fd5b505b5050505050565b60007f19457468657265756d205369676e6564204d6573736167653a0a33320000000060005281601c52603c6000209050919050565b600080600080611edd86866122fb565b925092509250611eed8282612357565b82935050505092915050565b6060600e8054611f0890612ff7565b80601f0160208091040260200160405190810160405280929190818152602001828054611f3490612ff7565b8015611f815780601f10611f5657610100808354040283529160200191611f81565b820191906000526020600020905b815481529060010190602001808311611f6457829003601f168201915b5050505050905090565b6000611f9a60008360006117f2565b9050600073ffffffffffffffffffffffffffffffffffffffff168173ffffffffffffffffffffffffffffffffffffffff160361200d57816040517f7e2732890000000000000000000000000000000000000000000000000000000081526004016120049190612aa4565b60405180910390fd5b5050565b60006002600083815260200190815260200160002060009054906101000a900473ffffffffffffffffffffffffffffffffffffffff169050919050565b80806120875750600073ffffffffffffffffffffffffffffffffffffffff168273ffffffffffffffffffffffffffffffffffffffff1614155b156121bb57600061209784611713565b9050600073ffffffffffffffffffffffffffffffffffffffff168373ffffffffffffffffffffffffffffffffffffffff161415801561210257508273ffffffffffffffffffffffffffffffffffffffff168173ffffffffffffffffffffffffffffffffffffffff1614155b80156121155750612113818461138a565b155b1561215757826040517fa9fbf51f00000000000000000000000000000000000000000000000000000000815260040161214e919061298e565b60405180910390fd5b81156121b957838573ffffffffffffffffffffffffffffffffffffffff168273ffffffffffffffffffffffffffffffffffffffff167f8c5be1e5ebec7d5bd14f71427d1e84f3dd0314c0f7b2291e5b200ac8c7c3b92560405160405180910390a45b505b836004600085815260200190815260200160002060006101000a81548173ffffffffffffffffffffffffffffffffffffffff021916908373ffffffffffffffffffffffffffffffffffffffff16021790555050505050565b61221e8383836124bb565b6122d257600073ffffffffffffffffffffffffffffffffffffffff168373ffffffffffffffffffffffffffffffffffffffff160361229357806040517f7e27328900000000000000000000000000000000000000000000000000000000815260040161228a9190612aa4565b60405180910390fd5b81816040517f177e802f0000000000000000000000000000000000000000000000000000000081526004016122c9929190613a7d565b60405180910390fd5b505050565b6122e1838361257c565b6122f66122ec6117d8565b6000858585611ce6565b505050565b600080600060418451036123405760008060006020870151925060408701519150606087015160001a905061233288828585612675565b955095509550505050612350565b60006002855160001b9250925092505b9250925092565b6000600381111561236b5761236a613aa6565b5b82600381111561237e5761237d613aa6565b5b03156124b7576001600381111561239857612397613aa6565b5b8260038111156123ab576123aa613aa6565b5b036123e2576040517ff645eedf00000000000000000000000000000000000000000000000000000000815260040160405180910390fd5b600260038111156123f6576123f5613aa6565b5b82600381111561240957612408613aa6565b5b0361244e578060001c6040517ffce698f70000000000000000000000000000000000000000000000000000000081526004016124459190612aa4565b60405180910390fd5b60038081111561246157612460613aa6565b5b82600381111561247457612473613aa6565b5b036124b657806040517fd78bce0c0000000000000000000000000000000000000000000000000000000081526004016124ad9190613aee565b60405180910390fd5b5b5050565b60008073ffffffffffffffffffffffffffffffffffffffff168373ffffffffffffffffffffffffffffffffffffffff161415801561257357508273ffffffffffffffffffffffffffffffffffffffff168473ffffffffffffffffffffffffffffffffffffffff1614806125345750612533848461138a565b5b8061257257508273ffffffffffffffffffffffffffffffffffffffff1661255a8361179b565b73ffffffffffffffffffffffffffffffffffffffff16145b5b90509392505050565b600073ffffffffffffffffffffffffffffffffffffffff168273ffffffffffffffffffffffffffffffffffffffff16036125ee5760006040517f64a0ae920000000000000000000000000000000000000000000000000000000081526004016125e5919061298e565b60405180910390fd5b60006125fc838360006117f2565b9050600073ffffffffffffffffffffffffffffffffffffffff168173ffffffffffffffffffffffffffffffffffffffff16146126705760006040517f73c6ac6e000000000000000000000000000000000000000000000000000000008152600401612667919061298e565b60405180910390fd5b505050565b60008060007f7fffffffffffffffffffffffffffffff5d576e7357a4501ddfe92f46681b20a08460001c11156126b557600060038592509250925061275f565b6000600188888888604051600081526020016040526040516126da9493929190613b09565b6020604051602081039080840390855afa1580156126fc573d6000803e3d6000fd5b505050602060405103519050600073ffffffffffffffffffffffffffffffffffffffff168173ffffffffffffffffffffffffffffffffffffffff160361275057600060016000801b9350935093505061275f565b8060008060001b935093509350505b9450945094915050565b6000604051905090565b600080fd5b600080fd5b60007fffffffff0000000000000000000000000000000000000000000000000000000082169050919050565b6127b28161277d565b81146127bd57600080fd5b50565b6000813590506127cf816127a9565b92915050565b6000602082840312156127eb576127ea612773565b5b60006127f9848285016127c0565b91505092915050565b60008115159050919050565b61281781612802565b82525050565b6000602082019050612832600083018461280e565b92915050565b600081519050919050565b600082825260208201905092915050565b60005b83811015612872578082015181840152602081019050612857565b60008484015250505050565b6000601f19601f8301169050919050565b600061289a82612838565b6128a48185612843565b93506128b4818560208601612854565b6128bd8161287e565b840191505092915050565b600060208201905081810360008301526128e2818461288f565b905092915050565b6000819050919050565b6128fd816128ea565b811461290857600080fd5b50565b60008135905061291a816128f4565b92915050565b60006020828403121561293657612935612773565b5b60006129448482850161290b565b91505092915050565b600073ffffffffffffffffffffffffffffffffffffffff82169050919050565b60006129788261294d565b9050919050565b6129888161296d565b82525050565b60006020820190506129a3600083018461297f565b92915050565b6129b28161296d565b81146129bd57600080fd5b50565b6000813590506129cf816129a9565b92915050565b600080604083850312156129ec576129eb612773565b5b60006129fa858286016129c0565b9250506020612a0b8582860161290b565b9150509250929050565b600060208284031215612a2b57612a2a612773565b5b6000612a39848285016129c0565b91505092915050565b600080600060608486031215612a5b57612a5a612773565b5b6000612a69868287016129c0565b9350506020612a7a868287016129c0565b9250506040612a8b8682870161290b565b9150509250925092565b612a9e816128ea565b82525050565b6000602082019050612ab96000830184612a95565b92915050565b6000612aca8261294d565b9050919050565b612ada81612abf565b8114612ae557600080fd5b50565b600081359050612af781612ad1565b92915050565b600060208284031215612b1357612b12612773565b5b6000612b2184828501612ae8565b91505092915050565b600080fd5b600080fd5b7f4e487b7100000000000000000000000000000000000000000000000000000000600052604160045260246000fd5b612b6c8261287e565b810181811067ffffffffffffffff82111715612b8b57612b8a612b34565b5b80604052505050565b6000612b9e612769565b9050612baa8282612b63565b919050565b600067ffffffffffffffff821115612bca57612bc9612b34565b5b612bd38261287e565b9050602081019050919050565b82818337600083830152505050565b6000612c02612bfd84612baf565b612b94565b905082815260208101848484011115612c1e57612c1d612b2f565b5b612c29848285612be0565b509392505050565b600082601f830112612c4657612c45612b2a565b5b8135612c56848260208601612bef565b91505092915050565b600060208284031215612c7557612c74612773565b5b600082013567ffffffffffffffff811115612c9357612c92612778565b5b612c9f84828501612c31565b91505092915050565b612cb181612802565b8114612cbc57600080fd5b50565b600081359050612cce81612ca8565b92915050565b60008060408385031215612ceb57612cea612773565b5b6000612cf9858286016129c0565b9250506020612d0a85828601612cbf565b9150509250929050565b600067ffffffffffffffff821115612d2f57612d2e612b34565b5b612d388261287e565b9050602081019050919050565b6000612d58612d5384612d14565b612b94565b905082815260208101848484011115612d7457612d73612b2f565b5b612d7f848285612be0565b509392505050565b600082601f830112612d9c57612d9b612b2a565b5b8135612dac848260208601612d45565b91505092915050565b60008060008060808587031215612dcf57612dce612773565b5b6000612ddd878288016129c0565b9450506020612dee878288016129c0565b9350506040612dff8782880161290b565b925050606085013567ffffffffffffffff811115612e2057612e1f612778565b5b612e2c87828801612d87565b91505092959194509250565b600080fd5b600080fd5b60008083601f840112612e5857612e57612b2a565b5b8235905067ffffffffffffffff811115612e7557612e74612e38565b5b602083019150836001820283011115612e9157612e90612e3d565b5b9250929050565b60008060208385031215612eaf57612eae612773565b5b600083013567ffffffffffffffff811115612ecd57612ecc612778565b5b612ed985828601612e42565b92509250509250929050565b600060ff82169050919050565b612efb81612ee5565b82525050565b6000602082019050612f166000830184612ef2565b92915050565b60008060408385031215612f3357612f32612773565b5b6000612f41858286016129c0565b9250506020612f52858286016129c0565b9150509250929050565b612f6581612ee5565b8114612f7057600080fd5b50565b600081359050612f8281612f5c565b92915050565b60008060408385031215612f9f57612f9e612773565b5b6000612fad8582860161290b565b9250506020612fbe85828601612f73565b9150509250929050565b7f4e487b7100000000000000000000000000000000000000000000000000000000600052602260045260246000fd5b6000600282049050600182168061300f57607f821691505b60208210810361302257613021612fc8565b5b50919050565b600060608201905061303d600083018661297f565b61304a6020830185612a95565b613057604083018461297f565b949350505050565b7f696e76616c696420717479000000000000000000000000000000000000000000600082015250565b6000613095600b83612843565b91506130a08261305f565b602082019050919050565b600060208201905081810360008301526130c481613088565b9050919050565b7f4e487b7100000000000000000000000000000000000000000000000000000000600052601160045260246000fd5b6000613105826128ea565b9150613110836128ea565b9250828201905080821115613128576131276130cb565b5b92915050565b7f7075626c696320736f6c64206f75740000000000000000000000000000000000600082015250565b6000613164600f83612843565b915061316f8261312e565b602082019050919050565b6000602082019050818103600083015261319381613157565b9050919050565b60006131a5826128ea565b91506131b0836128ea565b92508282026131be816128ea565b915082820484148315176131d5576131d46130cb565b5b5092915050565b7f696e636f7272656374207061796d656e74000000000000000000000000000000600082015250565b6000613212601183612843565b915061321d826131dc565b602082019050919050565b6000602082019050818103600083015261324181613205565b9050919050565b6000613253826128ea565b91507fffffffffffffffffffffffffffffffffffffffffffffffffffffffffffffffff8203613285576132846130cb565b5b600182019050919050565b7f696e76616c696420616464726573730000000000000000000000000000000000600082015250565b60006132c6600f83612843565b91506132d182613290565b602082019050919050565b600060208201905081810360008301526132f5816132b9565b9050919050565b7f6e6f2066756e6473000000000000000000000000000000000000000000000000600082015250565b6000613332600883612843565b915061333d826132fc565b602082019050919050565b6000602082019050818103600083015261336181613325565b9050919050565b60008190508160005260206000209050919050565b60006020601f8301049050919050565b600082821b905092915050565b6000600883026133ca7fffffffffffffffffffffffffffffffffffffffffffffffffffffffffffffffff8261338d565b6133d4868361338d565b95508019841693508086168417925050509392505050565b6000819050919050565b600061341161340c613407846128ea565b6133ec565b6128ea565b9050919050565b6000819050919050565b61342b836133f6565b61343f61343782613418565b84845461339a565b825550505050565b600090565b613454613447565b61345f818484613422565b505050565b5b818110156134835761347860008261344c565b600181019050613465565b5050565b601f8211156134c85761349981613368565b6134a28461337d565b810160208510156134b1578190505b6134c56134bd8561337d565b830182613464565b50505b505050565b600082821c905092915050565b60006134eb600019846008026134cd565b1980831691505092915050565b600061350483836134da565b9150826002028217905092915050565b61351d82612838565b67ffffffffffffffff81111561353657613535612b34565b5b6135408254612ff7565b61354b828285613487565b600060209050601f83116001811461357e576000841561356c578287015190505b61357685826134f8565b8655506135de565b601f19841661358c86613368565b60005b828110156135b45784890151825560018201915060208501945060208101905061358f565b868310156135d157848901516135cd601f8916826134da565b8355505b6001600288020188555050505b505050505050565b7f74727573746564207369676e6572206e6f742073657400000000000000000000600082015250565b600061361c601683612843565b9150613627826135e6565b602082019050919050565b6000602082019050818103600083015261364b8161360f565b9050919050565b7f616c726561647920636c61696d6564206f6e2d636861696e0000000000000000600082015250565b6000613688601883612843565b915061369382613652565b602082019050919050565b600060208201905081810360008301526136b78161367b565b9050919050565b60008160601b9050919050565b60006136d6826136be565b9050919050565b60006136e8826136cb565b9050919050565b6137006136fb8261296d565b6136dd565b82525050565b6000819050919050565b61372161371c826128ea565b613706565b82525050565b600061373382866136ef565b6014820191506137438285613710565b60208201915061375382846136ef565b601482019150819050949350505050565b7f696e76616c6964207369676e6174757265000000000000000000000000000000600082015250565b600061379a601183612843565b91506137a582613764565b602082019050919050565b600060208201905081810360008301526137c98161378d565b9050919050565b600081905092915050565b60006137e682612838565b6137f081856137d0565b9350613800818560208601612854565b80840191505092915050565b600061381882856137db565b915061382482846137db565b91508190509392505050565b7f696e76616c69642076617269616e740000000000000000000000000000000000600082015250565b6000613866600f83612843565b915061387182613830565b602082019050919050565b6000602082019050818103600083015261389581613859565b9050919050565b7f6e6f74206f776e65720000000000000000000000000000000000000000000000600082015250565b60006138d2600983612843565b91506138dd8261389c565b602082019050919050565b60006020820190508181036000830152613901816138c5565b9050919050565b7f6f6e6c79206e65757472616c20746f6b656e732063616e206265207472616e7360008201527f666f726d65640000000000000000000000000000000000000000000000000000602082015250565b6000613964602683612843565b915061396f82613908565b604082019050919050565b6000602082019050818103600083015261399381613957565b9050919050565b600081519050919050565b600082825260208201905092915050565b60006139c18261399a565b6139cb81856139a5565b93506139db818560208601612854565b6139e48161287e565b840191505092915050565b6000608082019050613a04600083018761297f565b613a11602083018661297f565b613a1e6040830185612a95565b8181036060830152613a3081846139b6565b905095945050505050565b600081519050613a4a816127a9565b92915050565b600060208284031215613a6657613a65612773565b5b6000613a7484828501613a3b565b91505092915050565b6000604082019050613a92600083018561297f565b613a9f6020830184612a95565b9392505050565b7f4e487b7100000000000000000000000000000000000000000000000000000000600052602160045260246000fd5b6000819050919050565b613ae881613ad5565b82525050565b6000602082019050613b036000830184613adf565b92915050565b6000608082019050613b1e6000830187613adf565b613b2b6020830186612ef2565b613b386040830185613adf565b613b456060830184613adf565b9594505050505056fea2646970667358221220010b4afe7d5218fc83b2dae60f9b5fe21de5c1618621f0a253dfc39b9a9eee8f64736f6c63430008140033","opcodes":"PUSH1 0x80 PUSH1 0x40 MSTORE CALLVALUE DUP1 ISZERO PUSH3 0x11 JUMPI PUSH1 0x0 DUP1 REVERT JUMPDEST POP PUSH1 0x40 MLOAD PUSH3 0x4369 CODESIZE SUB DUP1 PUSH3 0x4369 DUP4 CODECOPY DUP2 DUP2 ADD PUSH1 0x40 MSTORE DUP2 ADD SWAP1 PUSH3 0x37 SWAP2 SWAP1 PUSH3 0x39B JUMP JUMPDEST CALLER DUP5 DUP5 DUP2 PUSH1 0x0 SWAP1 DUP2 PUSH3 0x4B SWAP2 SWAP1 PUSH3 0x68C JUMP JUMPDEST POP DUP1 PUSH1 0x1 SWAP1 DUP2 PUSH3 0x5D SWAP2 SWAP1 PUSH3 0x68C JUMP JUMPDEST POP POP POP PUSH1 0x0 PUSH20 0xFFFFFFFFFFFFFFFFFFFFFFFFFFFFFFFFFFFFFFFF AND DUP2 PUSH20 0xFFFFFFFFFFFFFFFFFFFFFFFFFFFFFFFFFFFFFFFF AND SUB PUSH3 0xD5 JUMPI PUSH1 0x0 PUSH1 0x40 MLOAD PUSH32 0x1E4FBDF700000000000000000000000000000000000000000000000000000000 DUP2 MSTORE PUSH1 0x4 ADD PUSH3 0xCC SWAP2 SWAP1 PUSH3 0x7B8 JUMP JUMPDEST PUSH1 0x40 MLOAD DUP1 SWAP2 SUB SWAP1 REVERT JUMPDEST PUSH3 0xE6 DUP2 PUSH3 0x107 PUSH1 0x20 SHL PUSH1 0x20 SHR JUMP JUMPDEST POP DUP2 PUSH1 0x8 DUP2 SWAP1 SSTORE POP DUP1 PUSH1 0xA DUP2 SWAP1 SSTORE POP PUSH1 0x1 PUSH1 0x7 DUP2 SWAP1 SSTORE POP POP POP POP POP PUSH3 0x7D5 JUMP JUMPDEST PUSH1 0x0 PUSH1 0x6 PUSH1 0x0 SWAP1 SLOAD SWAP1 PUSH2 0x100 EXP SWAP1 DIV PUSH20 0xFFFFFFFFFFFFFFFFFFFFFFFFFFFFFFFFFFFFFFFF AND SWAP1 POP DUP2 PUSH1 0x6 PUSH1 0x0 PUSH2 0x100 EXP DUP2 SLOAD DUP2 PUSH20 0xFFFFFFFFFFFFFFFFFFFFFFFFFFFFFFFFFFFFFFFF MUL NOT AND SWAP1 DUP4 PUSH20 0xFFFFFFFFFFFFFFFFFFFFFFFFFFFFFFFFFFFFFFFF AND MUL OR SWAP1 SSTORE POP DUP2 PUSH20 0xFFFFFFFFFFFFFFFFFFFFFFFFFFFFFFFFFFFFFFFF AND DUP2 PUSH20 0xFFFFFFFFFFFFFFFFFFFFFFFFFFFFFFFFFFFFFFFF AND PUSH32 0x8BE0079C531659141344CD1FD0A4F28419497F9722A3DAAFE3B4186F6B6457E0 PUSH1 0x40 MLOAD PUSH1 0x40 MLOAD DUP1 SWAP2 SUB SWAP1 LOG3 POP POP JUMP JUMPDEST PUSH1 0x0 PUSH1 0x40 MLOAD SWAP1 POP SWAP1 JUMP JUMPDEST PUSH1 0x0 DUP1 REVERT JUMPDEST PUSH1 0x0 DUP1 REVERT JUMPDEST PUSH1 0x0 DUP1 REVERT JUMPDEST PUSH1 0x0 DUP1 REVERT JUMPDEST PUSH1 0x0 PUSH1 0x1F NOT PUSH1 0x1F DUP4 ADD AND SWAP1 POP SWAP2 SWAP1 POP JUMP JUMPDEST PUSH32 0x4E487B7100000000000000000000000000000000000000000000000000000000 PUSH1 0x0 MSTORE PUSH1 0x41 PUSH1 0x4 MSTORE PUSH1 0x24 PUSH1 0x0 REVERT JUMPDEST PUSH3 0x236 DUP3 PUSH3 0x1EB JUMP JUMPDEST DUP2 ADD DUP2 DUP2 LT PUSH8 0xFFFFFFFFFFFFFFFF DUP3 GT OR ISZERO PUSH3 0x258 JUMPI PUSH3 0x257 PUSH3 0x1FC JUMP JUMPDEST JUMPDEST DUP1 PUSH1 0x40 MSTORE POP POP POP JUMP JUMPDEST PUSH1 0x0 PUSH3 0x26D PUSH3 0x1CD JUMP JUMPDEST SWAP1 POP PUSH3 0x27B DUP3 DUP3 PUSH3 0x22B JUMP JUMPDEST SWAP2 SWAP1 POP JUMP JUMPDEST PUSH1 0x0 PUSH8 0xFFFFFFFFFFFFFFFF DUP3 GT ISZERO PUSH3 0x29E JUMPI PUSH3 0x29D PUSH3 0x1FC JUMP JUMPDEST JUMPDEST PUSH3 0x2A9 DUP3 PUSH3 0x1EB JUMP JUMPDEST SWAP1 POP PUSH1 0x20 DUP2 ADD SWAP1 POP SWAP2 SWAP1 POP JUMP JUMPDEST PUSH1 0x0 JUMPDEST DUP4 DUP2 LT ISZERO PUSH3 0x2D6 JUMPI DUP1 DUP3 ADD MLOAD DUP2 DUP5 ADD MSTORE PUSH1 0x20 DUP2 ADD SWAP1 POP PUSH3 0x2B9 JUMP JUMPDEST PUSH1 0x0 DUP5 DUP5 ADD MSTORE POP POP POP POP JUMP JUMPDEST PUSH1 0x0 PUSH3 0x2F9 PUSH3 0x2F3 DUP5 PUSH3 0x280 JUMP JUMPDEST PUSH3 0x261 JUMP JUMPDEST SWAP1 POP DUP3 DUP2 MSTORE PUSH1 0x20 DUP2 ADD DUP5 DUP5 DUP5 ADD GT ISZERO PUSH3 0x318 JUMPI PUSH3 0x317 PUSH3 0x1E6 JUMP JUMPDEST JUMPDEST PUSH3 0x325 DUP5 DUP3 DUP6 PUSH3 0x2B6 JUMP JUMPDEST POP SWAP4 SWAP3 POP POP POP JUMP JUMPDEST PUSH1 0x0 DUP3 PUSH1 0x1F DUP4 ADD SLT PUSH3 0x345 JUMPI PUSH3 0x344 PUSH3 0x1E1 JUMP JUMPDEST JUMPDEST DUP2 MLOAD PUSH3 0x357 DUP5 DUP3 PUSH1 0x20 DUP7 ADD PUSH3 0x2E2 JUMP JUMPDEST SWAP2 POP POP SWAP3 SWAP2 POP POP JUMP JUMPDEST PUSH1 0x0 DUP2 SWAP1 POP SWAP2 SWAP1 POP JUMP JUMPDEST PUSH3 0x375 DUP2 PUSH3 0x360 JUMP JUMPDEST DUP2 EQ PUSH3 0x381 JUMPI PUSH1 0x0 DUP1 REVERT JUMPDEST POP JUMP JUMPDEST PUSH1 0x0 DUP2 MLOAD SWAP1 POP PUSH3 0x395 DUP2 PUSH3 0x36A JUMP JUMPDEST SWAP3 SWAP2 POP POP JUMP JUMPDEST PUSH1 0x0 DUP1 PUSH1 0x0 DUP1 PUSH1 0x80 DUP6 DUP8 SUB SLT ISZERO PUSH3 0x3B8 JUMPI PUSH3 0x3B7 PUSH3 0x1D7 JUMP JUMPDEST JUMPDEST PUSH1 0x0 DUP6 ADD MLOAD PUSH8 0xFFFFFFFFFFFFFFFF DUP2 GT ISZERO PUSH3 0x3D9 JUMPI PUSH3 0x3D8 PUSH3 0x1DC JUMP JUMPDEST JUMPDEST PUSH3 0x3E7 DUP8 DUP3 DUP9 ADD PUSH3 0x32D JUMP JUMPDEST SWAP5 POP POP PUSH1 0x20 DUP6 ADD MLOAD PUSH8 0xFFFFFFFFFFFFFFFF DUP2 GT ISZERO PUSH3 0x40B JUMPI PUSH3 0x40A PUSH3 0x1DC JUMP JUMPDEST JUMPDEST PUSH3 0x419 DUP8 DUP3 DUP9 ADD PUSH3 0x32D JUMP JUMPDEST SWAP4 POP POP PUSH1 0x40 PUSH3 0x42C DUP8 DUP3 DUP9 ADD PUSH3 0x384 JUMP JUMPDEST SWAP3 POP POP PUSH1 0x60 PUSH3 0x43F DUP8 DUP3 DUP9 ADD PUSH3 0x384 JUMP JUMPDEST SWAP2 POP POP SWAP3 SWAP6 SWAP2 SWAP5 POP SWAP3 POP JUMP JUMPDEST PUSH1 0x0 DUP2 MLOAD SWAP1 POP SWAP2 SWAP1 POP JUMP JUMPDEST PUSH32 0x4E487B7100000000000000000000000000000000000000000000000000000000 PUSH1 0x0 MSTORE PUSH1 0x22 PUSH1 0x4 MSTORE PUSH1 0x24 PUSH1 0x0 REVERT JUMPDEST PUSH1 0x0 PUSH1 0x2 DUP3 DIV SWAP1 POP PUSH1 0x1 DUP3 AND DUP1 PUSH3 0x49E JUMPI PUSH1 0x7F DUP3 AND SWAP2 POP JUMPDEST PUSH1 0x20 DUP3 LT DUP2 SUB PUSH3 0x4B4 JUMPI PUSH3 0x4B3 PUSH3 0x456 JUMP JUMPDEST JUMPDEST POP SWAP2 SWAP1 POP JUMP JUMPDEST PUSH1 0x0 DUP2 SWAP1 POP DUP2 PUSH1 0x0 MSTORE PUSH1 0x20 PUSH1 0x0 KECCAK256 SWAP1 POP SWAP2 SWAP1 POP JUMP JUMPDEST PUSH1 0x0 PUSH1 0x20 PUSH1 0x1F DUP4 ADD DIV SWAP1 POP SWAP2 SWAP1 POP JUMP JUMPDEST PUSH1 0x0 DUP3 DUP3 SHL SWAP1 POP SWAP3 SWAP2 POP POP JUMP JUMPDEST PUSH1 0x0 PUSH1 0x8 DUP4 MUL PUSH3 0x51E PUSH32 0xFFFFFFFFFFFFFFFFFFFFFFFFFFFFFFFFFFFFFFFFFFFFFFFFFFFFFFFFFFFFFFFF DUP3 PUSH3 0x4DF JUMP JUMPDEST PUSH3 0x52A DUP7 DUP4 PUSH3 0x4DF JUMP JUMPDEST SWAP6 POP DUP1 NOT DUP5 AND SWAP4 POP DUP1 DUP7 AND DUP5 OR SWAP3 POP POP POP SWAP4 SWAP3 POP POP POP JUMP JUMPDEST PUSH1 0x0 DUP2 SWAP1 POP SWAP2 SWAP1 POP JUMP JUMPDEST PUSH1 0x0 PUSH3 0x56D PUSH3 0x567 PUSH3 0x561 DUP5 PUSH3 0x360 JUMP JUMPDEST PUSH3 0x542 JUMP JUMPDEST PUSH3 0x360 JUMP JUMPDEST SWAP1 POP SWAP2 SWAP1 POP JUMP JUMPDEST PUSH1 0x0 DUP2 SWAP1 POP SWAP2 SWAP1 POP JUMP JUMPDEST PUSH3 0x589 DUP4 PUSH3 0x54C JUMP JUMPDEST PUSH3 0x5A1 PUSH3 0x598 DUP3 PUSH3 0x574 JUMP JUMPDEST DUP5 DUP5 SLOAD PUSH3 0x4EC JUMP JUMPDEST DUP3 SSTORE POP POP POP POP JUMP JUMPDEST PUSH1 0x0 SWAP1 JUMP JUMPDEST PUSH3 0x5B8 PUSH3 0x5A9 JUMP JUMPDEST PUSH3 0x5C5 DUP2 DUP5 DUP5 PUSH3 0x57E JUMP JUMPDEST POP POP POP JUMP JUMPDEST JUMPDEST DUP2 DUP2 LT ISZERO PUSH3 0x5ED JUMPI PUSH3 0x5E1 PUSH1 0x0 DUP3 PUSH3 0x5AE JUMP JUMPDEST PUSH1 0x1 DUP2 ADD SWAP1 POP PUSH3 0x5CB JUMP JUMPDEST POP POP JUMP JUMPDEST PUSH1 0x1F DUP3 GT ISZERO PUSH3 0x63C JUMPI PUSH3 0x606 DUP2 PUSH3 0x4BA JUMP JUMPDEST PUSH3 0x611 DUP5 PUSH3 0x4CF JUMP JUMPDEST DUP2 ADD PUSH1 0x20 DUP6 LT ISZERO PUSH3 0x621 JUMPI DUP2 SWAP1 POP JUMPDEST PUSH3 0x639 PUSH3 0x630 DUP6 PUSH3 0x4CF JUMP JUMPDEST DUP4 ADD DUP3 PUSH3 0x5CA JUMP JUMPDEST POP POP JUMPDEST POP POP POP JUMP JUMPDEST PUSH1 0x0 DUP3 DUP3 SHR SWAP1 POP SWAP3 SWAP2 POP POP JUMP JUMPDEST PUSH1 0x0 PUSH3 0x661 PUSH1 0x0 NOT DUP5 PUSH1 0x8 MUL PUSH3 0x641 JUMP JUMPDEST NOT DUP1 DUP4 AND SWAP2 POP POP SWAP3 SWAP2 POP POP JUMP JUMPDEST PUSH1 0x0 PUSH3 0x67C DUP4 DUP4 PUSH3 0x64E JUMP JUMPDEST SWAP2 POP DUP3 PUSH1 0x2 MUL DUP3 OR SWAP1 POP SWAP3 SWAP2 POP POP JUMP JUMPDEST PUSH3 0x697 DUP3 PUSH3 0x44B JUMP JUMPDEST PUSH8 0xFFFFFFFFFFFFFFFF DUP2 GT ISZERO PUSH3 0x6B3 JUMPI PUSH3 0x6B2 PUSH3 0x1FC JUMP JUMPDEST JUMPDEST PUSH3 0x6BF DUP3 SLOAD PUSH3 0x485 JUMP JUMPDEST PUSH3 0x6CC DUP3 DUP3 DUP6 PUSH3 0x5F1 JUMP JUMPDEST PUSH1 0x0 PUSH1 0x20 SWAP1 POP PUSH1 0x1F DUP4 GT PUSH1 0x1 DUP2 EQ PUSH3 0x704 JUMPI PUSH1 0x0 DUP5 ISZERO PUSH3 0x6EF JUMPI DUP3 DUP8 ADD MLOAD SWAP1 POP JUMPDEST PUSH3 0x6FB DUP6 DUP3 PUSH3 0x66E JUMP JUMPDEST DUP7 SSTORE POP PUSH3 0x76B JUMP JUMPDEST PUSH1 0x1F NOT DUP5 AND PUSH3 0x714 DUP7 PUSH3 0x4BA JUMP JUMPDEST PUSH1 0x0 JUMPDEST DUP3 DUP2 LT ISZERO PUSH3 0x73E JUMPI DUP5 DUP10 ADD MLOAD DUP3 SSTORE PUSH1 0x1 DUP3 ADD SWAP2 POP PUSH1 0x20 DUP6 ADD SWAP5 POP PUSH1 0x20 DUP2 ADD SWAP1 POP PUSH3 0x717 JUMP JUMPDEST DUP7 DUP4 LT ISZERO PUSH3 0x75E JUMPI DUP5 DUP10 ADD MLOAD PUSH3 0x75A PUSH1 0x1F DUP10 AND DUP3 PUSH3 0x64E JUMP JUMPDEST DUP4 SSTORE POP JUMPDEST PUSH1 0x1 PUSH1 0x2 DUP9 MUL ADD DUP9 SSTORE POP POP POP JUMPDEST POP POP POP POP POP POP JUMP JUMPDEST PUSH1 0x0 PUSH20 0xFFFFFFFFFFFFFFFFFFFFFFFFFFFFFFFFFFFFFFFF DUP3 AND SWAP1 POP SWAP2 SWAP1 POP JUMP JUMPDEST PUSH1 0x0 PUSH3 0x7A0 DUP3 PUSH3 0x773 JUMP JUMPDEST SWAP1 POP SWAP2 SWAP1 POP JUMP JUMPDEST PUSH3 0x7B2 DUP2 PUSH3 0x793 JUMP JUMPDEST DUP3 MSTORE POP POP JUMP JUMPDEST PUSH1 0x0 PUSH1 0x20 DUP3 ADD SWAP1 POP PUSH3 0x7CF PUSH1 0x0 DUP4 ADD DUP5 PUSH3 0x7A7 JUMP JUMPDEST SWAP3 SWAP2 POP POP JUMP JUMPDEST PUSH2 0x3B84 DUP1 PUSH3 0x7E5 PUSH1 0x0 CODECOPY PUSH1 0x0 RETURN INVALID PUSH1 0x80 PUSH1 0x40 MSTORE PUSH1 0x4 CALLDATASIZE LT PUSH2 0x1C2 JUMPI PUSH1 0x0 CALLDATALOAD PUSH1 0xE0 SHR DUP1 PUSH4 0x715018A6 GT PUSH2 0xF7 JUMPI DUP1 PUSH4 0xBCEA0FEC GT PUSH2 0x95 JUMPI DUP1 PUSH4 0xE985E9C5 GT PUSH2 0x64 JUMPI DUP1 PUSH4 0xE985E9C5 EQ PUSH2 0x643 JUMPI DUP1 PUSH4 0xF2FDE38B EQ PUSH2 0x680 JUMPI DUP1 PUSH4 0xF74D5480 EQ PUSH2 0x6A9 JUMPI DUP1 PUSH4 0xF78F647C EQ PUSH2 0x6D4 JUMPI PUSH2 0x1C2 JUMP JUMPDEST DUP1 PUSH4 0xBCEA0FEC EQ PUSH2 0x575 JUMPI DUP1 PUSH4 0xC87B56DD EQ PUSH2 0x59E JUMPI DUP1 PUSH4 0xDD46EDB8 EQ PUSH2 0x5DB JUMPI DUP1 PUSH4 0xE00DD161 EQ PUSH2 0x618 JUMPI PUSH2 0x1C2 JUMP JUMPDEST DUP1 PUSH4 0xA22CB465 GT PUSH2 0xD1 JUMPI DUP1 PUSH4 0xA22CB465 EQ PUSH2 0x4CD JUMPI DUP1 PUSH4 0xA4F4F8AF EQ PUSH2 0x4F6 JUMPI DUP1 PUSH4 0xB7EC2086 EQ PUSH2 0x521 JUMPI DUP1 PUSH4 0xB88D4FDE EQ PUSH2 0x54C JUMPI PUSH2 0x1C2 JUMP JUMPDEST DUP1 PUSH4 0x715018A6 EQ PUSH2 0x460 JUMPI DUP1 PUSH4 0x8DA5CB5B EQ PUSH2 0x477 JUMPI DUP1 PUSH4 0x95D89B41 EQ PUSH2 0x4A2 JUMPI PUSH2 0x1C2 JUMP JUMPDEST DUP1 PUSH4 0x2DB11544 GT PUSH2 0x164 JUMPI DUP1 PUSH4 0x55F804B3 GT PUSH2 0x13E JUMPI DUP1 PUSH4 0x55F804B3 EQ PUSH2 0x394 JUMPI DUP1 PUSH4 0x56A1C701 EQ PUSH2 0x3BD JUMPI DUP1 PUSH4 0x6352211E EQ PUSH2 0x3E6 JUMPI DUP1 PUSH4 0x70A08231 EQ PUSH2 0x423 JUMPI PUSH2 0x1C2 JUMP JUMPDEST DUP1 PUSH4 0x2DB11544 EQ PUSH2 0x326 JUMPI DUP1 PUSH4 0x42842E0E EQ PUSH2 0x342 JUMPI DUP1 PUSH4 0x51CFF8D9 EQ PUSH2 0x36B JUMPI PUSH2 0x1C2 JUMP JUMPDEST DUP1 PUSH4 0x95EA7B3 GT PUSH2 0x1A0 JUMPI DUP1 PUSH4 0x95EA7B3 EQ PUSH2 0x26C JUMPI DUP1 PUSH4 0x1A02B69E EQ PUSH2 0x295 JUMPI DUP1 PUSH4 0x23B872DD EQ PUSH2 0x2D2 JUMPI DUP1 PUSH4 0x26A74D8E EQ PUSH2 0x2FB JUMPI PUSH2 0x1C2 JUMP JUMPDEST DUP1 PUSH4 0x1FFC9A7 EQ PUSH2 0x1C7 JUMPI DUP1 PUSH4 0x6FDDE03 EQ PUSH2 0x204 JUMPI DUP1 PUSH4 0x81812FC EQ PUSH2 0x22F JUMPI JUMPDEST PUSH1 0x0 DUP1 REVERT JUMPDEST CALLVALUE DUP1 ISZERO PUSH2 0x1D3 JUMPI PUSH1 0x0 DUP1 REVERT JUMPDEST POP PUSH2 0x1EE PUSH1 0x4 DUP1 CALLDATASIZE SUB DUP2 ADD SWAP1 PUSH2 0x1E9 SWAP2 SWAP1 PUSH2 0x27D5 JUMP JUMPDEST PUSH2 0x6FD JUMP JUMPDEST PUSH1 0x40 MLOAD PUSH2 0x1FB SWAP2 SWAP1 PUSH2 0x281D JUMP JUMPDEST PUSH1 0x40 MLOAD DUP1 SWAP2 SUB SWAP1 RETURN JUMPDEST CALLVALUE DUP1 ISZERO PUSH2 0x210 JUMPI PUSH1 0x0 DUP1 REVERT JUMPDEST POP PUSH2 0x219 PUSH2 0x7DF JUMP JUMPDEST PUSH1 0x40 MLOAD PUSH2 0x226 SWAP2 SWAP1 PUSH2 0x28C8 JUMP JUMPDEST PUSH1 0x40 MLOAD DUP1 SWAP2 SUB SWAP1 RETURN JUMPDEST CALLVALUE DUP1 ISZERO PUSH2 0x23B JUMPI PUSH1 0x0 DUP1 REVERT JUMPDEST POP PUSH2 0x256 PUSH1 0x4 DUP1 CALLDATASIZE SUB DUP2 ADD SWAP1 PUSH2 0x251 SWAP2 SWAP1 PUSH2 0x2920 JUMP JUMPDEST PUSH2 0x871 JUMP JUMPDEST PUSH1 0x40 MLOAD PUSH2 0x263 SWAP2 SWAP1 PUSH2 0x298E JUMP JUMPDEST PUSH1 0x40 MLOAD DUP1 SWAP2 SUB SWAP1 RETURN JUMPDEST CALLVALUE DUP1 ISZERO PUSH2 0x278 JUMPI PUSH1 0x0 DUP1 REVERT JUMPDEST POP PUSH2 0x293 PUSH1 0x4 DUP1 CALLDATASIZE SUB DUP2 ADD SWAP1 PUSH2 0x28E SWAP2 SWAP1 PUSH2 0x29D5 JUMP JUMPDEST PUSH2 0x88D JUMP JUMPDEST STOP JUMPDEST CALLVALUE DUP1 ISZERO PUSH2 0x2A1 JUMPI PUSH1 0x0 DUP1 REVERT JUMPDEST POP PUSH2 0x2BC PUSH1 0x4 DUP1 CALLDATASIZE SUB DUP2 ADD SWAP1 PUSH2 0x2B7 SWAP2 SWAP1 PUSH2 0x2A15 JUMP JUMPDEST PUSH2 0x8A3 JUMP JUMPDEST PUSH1 0x40 MLOAD PUSH2 0x2C9 SWAP2 SWAP1 PUSH2 0x281D JUMP JUMPDEST PUSH1 0x40 MLOAD DUP1 SWAP2 SUB SWAP1 RETURN JUMPDEST CALLVALUE DUP1 ISZERO PUSH2 0x2DE JUMPI PUSH1 0x0 DUP1 REVERT JUMPDEST POP PUSH2 0x2F9 PUSH1 0x4 DUP1 CALLDATASIZE SUB DUP2 ADD SWAP1 PUSH2 0x2F4 SWAP2 SWAP1 PUSH2 0x2A42 JUMP JUMPDEST PUSH2 0x8C3 JUMP JUMPDEST STOP JUMPDEST CALLVALUE DUP1 ISZERO PUSH2 0x307 JUMPI PUSH1 0x0 DUP1 REVERT JUMPDEST POP PUSH2 0x310 PUSH2 0x9C5 JUMP JUMPDEST PUSH1 0x40 MLOAD PUSH2 0x31D SWAP2 SWAP1 PUSH2 0x2AA4 JUMP JUMPDEST PUSH1 0x40 MLOAD DUP1 SWAP2 SUB SWAP1 RETURN JUMPDEST PUSH2 0x340 PUSH1 0x4 DUP1 CALLDATASIZE SUB DUP2 ADD SWAP1 PUSH2 0x33B SWAP2 SWAP1 PUSH2 0x2920 JUMP JUMPDEST PUSH2 0x9CB JUMP JUMPDEST STOP JUMPDEST CALLVALUE DUP1 ISZERO PUSH2 0x34E JUMPI PUSH1 0x0 DUP1 REVERT JUMPDEST POP PUSH2 0x369 PUSH1 0x4 DUP1 CALLDATASIZE SUB DUP2 ADD SWAP1 PUSH2 0x364 SWAP2 SWAP1 PUSH2 0x2A42 JUMP JUMPDEST PUSH2 0xB8E JUMP JUMPDEST STOP JUMPDEST CALLVALUE DUP1 ISZERO PUSH2 0x377 JUMPI PUSH1 0x0 DUP1 REVERT JUMPDEST POP PUSH2 0x392 PUSH1 0x4 DUP1 CALLDATASIZE SUB DUP2 ADD SWAP1 PUSH2 0x38D SWAP2 SWAP1 PUSH2 0x2AFD JUMP JUMPDEST PUSH2 0xBAE JUMP JUMPDEST STOP JUMPDEST CALLVALUE DUP1 ISZERO PUSH2 0x3A0 JUMPI PUSH1 0x0 DUP1 REVERT JUMPDEST POP PUSH2 0x3BB PUSH1 0x4 DUP1 CALLDATASIZE SUB DUP2 ADD SWAP1 PUSH2 0x3B6 SWAP2 SWAP1 PUSH2 0x2C5F JUMP JUMPDEST PUSH2 0xCB8 JUMP JUMPDEST STOP JUMPDEST CALLVALUE DUP1 ISZERO PUSH2 0x3C9 JUMPI PUSH1 0x0 DUP1 REVERT JUMPDEST POP PUSH2 0x3E4 PUSH1 0x4 DUP1 CALLDATASIZE SUB DUP2 ADD SWAP1 PUSH2 0x3DF SWAP2 SWAP1 PUSH2 0x2A15 JUMP JUMPDEST PUSH2 0xCD3 JUMP JUMPDEST STOP JUMPDEST CALLVALUE DUP1 ISZERO PUSH2 0x3F2 JUMPI PUSH1 0x0 DUP1 REVERT JUMPDEST POP PUSH2 0x40D PUSH1 0x4 DUP1 CALLDATASIZE SUB DUP2 ADD SWAP1 PUSH2 0x408 SWAP2 SWAP1 PUSH2 0x2920 JUMP JUMPDEST PUSH2 0xD1F JUMP JUMPDEST PUSH1 0x40 MLOAD PUSH2 0x41A SWAP2 SWAP1 PUSH2 0x298E JUMP JUMPDEST PUSH1 0x40 MLOAD DUP1 SWAP2 SUB SWAP1 RETURN JUMPDEST CALLVALUE DUP1 ISZERO PUSH2 0x42F JUMPI PUSH1 0x0 DUP1 REVERT JUMPDEST POP PUSH2 0x44A PUSH1 0x4 DUP1 CALLDATASIZE SUB DUP2 ADD SWAP1 PUSH2 0x445 SWAP2 SWAP1 PUSH2 0x2A15 JUMP JUMPDEST PUSH2 0xD31 JUMP JUMPDEST PUSH1 0x40 MLOAD PUSH2 0x457 SWAP2 SWAP1 PUSH2 0x2AA4 JUMP JUMPDEST PUSH1 0x40 MLOAD DUP1 SWAP2 SUB SWAP1 RETURN JUMPDEST CALLVALUE DUP1 ISZERO PUSH2 0x46C JUMPI PUSH1 0x0 DUP1 REVERT JUMPDEST POP PUSH2 0x475 PUSH2 0xDEB JUMP JUMPDEST STOP JUMPDEST CALLVALUE DUP1 ISZERO PUSH2 0x483 JUMPI PUSH1 0x0 DUP1 REVERT JUMPDEST POP PUSH2 0x48C PUSH2 0xDFF JUMP JUMPDEST PUSH1 0x40 MLOAD PUSH2 0x499 SWAP2 SWAP1 PUSH2 0x298E JUMP JUMPDEST PUSH1 0x40 MLOAD DUP1 SWAP2 SUB SWAP1 RETURN JUMPDEST CALLVALUE DUP1 ISZERO PUSH2 0x4AE JUMPI PUSH1 0x0 DUP1 REVERT JUMPDEST POP PUSH2 0x4B7 PUSH2 0xE29 JUMP JUMPDEST PUSH1 0x40 MLOAD PUSH2 0x4C4 SWAP2 SWAP1 PUSH2 0x28C8 JUMP JUMPDEST PUSH1 0x40 MLOAD DUP1 SWAP2 SUB SWAP1 RETURN JUMPDEST CALLVALUE DUP1 ISZERO PUSH2 0x4D9 JUMPI PUSH1 0x0 DUP1 REVERT JUMPDEST POP PUSH2 0x4F4 PUSH1 0x4 DUP1 CALLDATASIZE SUB DUP2 ADD SWAP1 PUSH2 0x4EF SWAP2 SWAP1 PUSH2 0x2CD4 JUMP JUMPDEST PUSH2 0xEBB JUMP JUMPDEST STOP JUMPDEST CALLVALUE DUP1 ISZERO PUSH2 0x502 JUMPI PUSH1 0x0 DUP1 REVERT JUMPDEST POP PUSH2 0x50B PUSH2 0xED1 JUMP JUMPDEST PUSH1 0x40 MLOAD PUSH2 0x518 SWAP2 SWAP1 PUSH2 0x2AA4 JUMP JUMPDEST PUSH1 0x40 MLOAD DUP1 SWAP2 SUB SWAP1 RETURN JUMPDEST CALLVALUE DUP1 ISZERO PUSH2 0x52D JUMPI PUSH1 0x0 DUP1 REVERT JUMPDEST POP PUSH2 0x536 PUSH2 0xED7 JUMP JUMPDEST PUSH1 0x40 MLOAD PUSH2 0x543 SWAP2 SWAP1 PUSH2 0x2AA4 JUMP JUMPDEST PUSH1 0x40 MLOAD DUP1 SWAP2 SUB SWAP1 RETURN JUMPDEST CALLVALUE DUP1 ISZERO PUSH2 0x558 JUMPI PUSH1 0x0 DUP1 REVERT JUMPDEST POP PUSH2 0x573 PUSH1 0x4 DUP1 CALLDATASIZE SUB DUP2 ADD SWAP1 PUSH2 0x56E SWAP2 SWAP1 PUSH2 0x2DB5 JUMP JUMPDEST PUSH2 0xEDD JUMP JUMPDEST STOP JUMPDEST CALLVALUE DUP1 ISZERO PUSH2 0x581 JUMPI PUSH1 0x0 DUP1 REVERT JUMPDEST POP PUSH2 0x59C PUSH1 0x4 DUP1 CALLDATASIZE SUB DUP2 ADD SWAP1 PUSH2 0x597 SWAP2 SWAP1 PUSH2 0x2E98 JUMP JUMPDEST PUSH2 0xF02 JUMP JUMPDEST STOP JUMPDEST CALLVALUE DUP1 ISZERO PUSH2 0x5AA JUMPI PUSH1 0x0 DUP1 REVERT JUMPDEST POP PUSH2 0x5C5 PUSH1 0x4 DUP1 CALLDATASIZE SUB DUP2 ADD SWAP1 PUSH2 0x5C0 SWAP2 SWAP1 PUSH2 0x2920 JUMP JUMPDEST PUSH2 0x1234 JUMP JUMPDEST PUSH1 0x40 MLOAD PUSH2 0x5D2 SWAP2 SWAP1 PUSH2 0x28C8 JUMP JUMPDEST PUSH1 0x40 MLOAD DUP1 SWAP2 SUB SWAP1 RETURN JUMPDEST CALLVALUE DUP1 ISZERO PUSH2 0x5E7 JUMPI PUSH1 0x0 DUP1 REVERT JUMPDEST POP PUSH2 0x602 PUSH1 0x4 DUP1 CALLDATASIZE SUB DUP2 ADD SWAP1 PUSH2 0x5FD SWAP2 SWAP1 PUSH2 0x2920 JUMP JUMPDEST PUSH2 0x1364 JUMP JUMPDEST PUSH1 0x40 MLOAD PUSH2 0x60F SWAP2 SWAP1 PUSH2 0x2F01 JUMP JUMPDEST PUSH1 0x40 MLOAD DUP1 SWAP2 SUB SWAP1 RETURN JUMPDEST CALLVALUE DUP1 ISZERO PUSH2 0x624 JUMPI PUSH1 0x0 DUP1 REVERT JUMPDEST POP PUSH2 0x62D PUSH2 0x1384 JUMP JUMPDEST PUSH1 0x40 MLOAD PUSH2 0x63A SWAP2 SWAP1 PUSH2 0x2AA4 JUMP JUMPDEST PUSH1 0x40 MLOAD DUP1 SWAP2 SUB SWAP1 RETURN JUMPDEST CALLVALUE DUP1 ISZERO PUSH2 0x64F JUMPI PUSH1 0x0 DUP1 REVERT JUMPDEST POP PUSH2 0x66A PUSH1 0x4 DUP1 CALLDATASIZE SUB DUP2 ADD SWAP1 PUSH2 0x665 SWAP2 SWAP1 PUSH2 0x2F1C JUMP JUMPDEST PUSH2 0x138A JUMP JUMPDEST PUSH1 0x40 MLOAD PUSH2 0x677 SWAP2 SWAP1 PUSH2 0x281D JUMP JUMPDEST PUSH1 0x40 MLOAD DUP1 SWAP2 SUB SWAP1 RETURN JUMPDEST CALLVALUE DUP1 ISZERO PUSH2 0x68C JUMPI PUSH1 0x0 DUP1 REVERT JUMPDEST POP PUSH2 0x6A7 PUSH1 0x4 DUP1 CALLDATASIZE SUB DUP2 ADD SWAP1 PUSH2 0x6A2 SWAP2 SWAP1 PUSH2 0x2A15 JUMP JUMPDEST PUSH2 0x141E JUMP JUMPDEST STOP JUMPDEST CALLVALUE DUP1 ISZERO PUSH2 0x6B5 JUMPI PUSH1 0x0 DUP1 REVERT JUMPDEST POP PUSH2 0x6BE PUSH2 0x14A4 JUMP JUMPDEST PUSH1 0x40 MLOAD PUSH2 0x6CB SWAP2 SWAP1 PUSH2 0x298E JUMP JUMPDEST PUSH1 0x40 MLOAD DUP1 SWAP2 SUB SWAP1 RETURN JUMPDEST CALLVALUE DUP1 ISZERO PUSH2 0x6E0 JUMPI PUSH1 0x0 DUP1 REVERT JUMPDEST POP PUSH2 0x6FB PUSH1 0x4 DUP1 CALLDATASIZE SUB DUP2 ADD SWAP1 PUSH2 0x6F6 SWAP2 SWAP1 PUSH2 0x2F88 JUMP JUMPDEST PUSH2 0x14CA JUMP JUMPDEST STOP JUMPDEST PUSH1 0x0 PUSH32 0x80AC58CD00000000000000000000000000000000000000000000000000000000 PUSH28 0xFFFFFFFFFFFFFFFFFFFFFFFFFFFFFFFFFFFFFFFFFFFFFFFFFFFFFFFF NOT AND DUP3 PUSH28 0xFFFFFFFFFFFFFFFFFFFFFFFFFFFFFFFFFFFFFFFFFFFFFFFFFFFFFFFF NOT AND EQ DUP1 PUSH2 0x7C8 JUMPI POP PUSH32 0x5B5E139F00000000000000000000000000000000000000000000000000000000 PUSH28 0xFFFFFFFFFFFFFFFFFFFFFFFFFFFFFFFFFFFFFFFFFFFFFFFFFFFFFFFF NOT AND DUP3 PUSH28 0xFFFFFFFFFFFFFFFFFFFFFFFFFFFFFFFFFFFFFFFFFFFFFFFFFFFFFFFF NOT AND EQ JUMPDEST DUP1 PUSH2 0x7D8 JUMPI POP PUSH2 0x7D7 DUP3 PUSH2 0x16A9 JUMP JUMPDEST JUMPDEST SWAP1 POP SWAP2 SWAP1 POP JUMP JUMPDEST PUSH1 0x60 PUSH1 0x0 DUP1 SLOAD PUSH2 0x7EE SWAP1 PUSH2 0x2FF7 JUMP JUMPDEST DUP1 PUSH1 0x1F ADD PUSH1 0x20 DUP1 SWAP2 DIV MUL PUSH1 0x20 ADD PUSH1 0x40 MLOAD SWAP1 DUP2 ADD PUSH1 0x40 MSTORE DUP1 SWAP3 SWAP2 SWAP1 DUP2 DUP2 MSTORE PUSH1 0x20 ADD DUP3 DUP1 SLOAD PUSH2 0x81A SWAP1 PUSH2 0x2FF7 JUMP JUMPDEST DUP1 ISZERO PUSH2 0x867 JUMPI DUP1 PUSH1 0x1F LT PUSH2 0x83C JUMPI PUSH2 0x100 DUP1 DUP4 SLOAD DIV MUL DUP4 MSTORE SWAP2 PUSH1 0x20 ADD SWAP2 PUSH2 0x867 JUMP JUMPDEST DUP3 ADD SWAP2 SWAP1 PUSH1 0x0 MSTORE PUSH1 0x20 PUSH1 0x0 KECCAK256 SWAP1 JUMPDEST DUP2 SLOAD DUP2 MSTORE SWAP1 PUSH1 0x1 ADD SWAP1 PUSH1 0x20 ADD DUP1 DUP4 GT PUSH2 0x84A JUMPI DUP3 SWAP1 SUB PUSH1 0x1F AND DUP3 ADD SWAP2 JUMPDEST POP POP POP POP POP SWAP1 POP SWAP1 JUMP JUMPDEST PUSH1 0x0 PUSH2 0x87C DUP3 PUSH2 0x1713 JUMP JUMPDEST POP PUSH2 0x886 DUP3 PUSH2 0x179B JUMP JUMPDEST SWAP1 POP SWAP2 SWAP1 POP JUMP JUMPDEST PUSH2 0x89F DUP3 DUP3 PUSH2 0x89A PUSH2 0x17D8 JUMP JUMPDEST PUSH2 0x17E0 JUMP JUMPDEST POP POP JUMP JUMPDEST PUSH1 0xC PUSH1 0x20 MSTORE DUP1 PUSH1 0x0 MSTORE PUSH1 0x40 PUSH1 0x0 KECCAK256 PUSH1 0x0 SWAP2 POP SLOAD SWAP1 PUSH2 0x100 EXP SWAP1 DIV PUSH1 0xFF AND DUP2 JUMP JUMPDEST PUSH1 0x0 PUSH20 0xFFFFFFFFFFFFFFFFFFFFFFFFFFFFFFFFFFFFFFFF AND DUP3 PUSH20 0xFFFFFFFFFFFFFFFFFFFFFFFFFFFFFFFFFFFFFFFF AND SUB PUSH2 0x935 JUMPI PUSH1 0x0 PUSH1 0x40 MLOAD PUSH32 0x64A0AE9200000000000000000000000000000000000000000000000000000000 DUP2 MSTORE PUSH1 0x4 ADD PUSH2 0x92C SWAP2 SWAP1 PUSH2 0x298E JUMP JUMPDEST PUSH1 0x40 MLOAD DUP1 SWAP2 SUB SWAP1 REVERT JUMPDEST PUSH1 0x0 PUSH2 0x949 DUP4 DUP4 PUSH2 0x944 PUSH2 0x17D8 JUMP JUMPDEST PUSH2 0x17F2 JUMP JUMPDEST SWAP1 POP DUP4 PUSH20 0xFFFFFFFFFFFFFFFFFFFFFFFFFFFFFFFFFFFFFFFF AND DUP2 PUSH20 0xFFFFFFFFFFFFFFFFFFFFFFFFFFFFFFFFFFFFFFFF AND EQ PUSH2 0x9BF JUMPI DUP4 DUP3 DUP3 PUSH1 0x40 MLOAD PUSH32 0x64283D7B00000000000000000000000000000000000000000000000000000000 DUP2 MSTORE PUSH1 0x4 ADD PUSH2 0x9B6 SWAP4 SWAP3 SWAP2 SWAP1 PUSH2 0x3028 JUMP JUMPDEST PUSH1 0x40 MLOAD DUP1 SWAP2 SUB SWAP1 REVERT JUMPDEST POP POP POP POP JUMP JUMPDEST PUSH1 0x8 SLOAD DUP2 JUMP JUMPDEST PUSH1 0x0 DUP2 GT DUP1 ISZERO PUSH2 0x9DC JUMPI POP PUSH1 0xA DUP2 GT ISZERO JUMPDEST PUSH2 0xA1B JUMPI PUSH1 0x40 MLOAD PUSH32 0x8C379A000000000000000000000000000000000000000000000000000000000 DUP2 MSTORE PUSH1 0x4 ADD PUSH2 0xA12 SWAP1 PUSH2 0x30AB JUMP JUMPDEST PUSH1 0x40 MLOAD DUP1 SWAP2 SUB SWAP1 REVERT JUMPDEST PUSH1 0x8 SLOAD DUP2 PUSH1 0x9 SLOAD PUSH2 0xA2C SWAP2 SWAP1 PUSH2 0x30FA JUMP JUMPDEST GT ISZERO PUSH2 0xA6D JUMPI PUSH1 0x40 MLOAD PUSH32 0x8C379A000000000000000000000000000000000000000000000000000000000 DUP2 MSTORE PUSH1 0x4 ADD PUSH2 0xA64 SWAP1 PUSH2 0x317A JUMP JUMPDEST PUSH1 0x40 MLOAD DUP1 SWAP2 SUB SWAP1 REVERT JUMPDEST DUP1 PUSH1 0xA SLOAD PUSH2 0xA7B SWAP2 SWAP1 PUSH2 0x319A JUMP JUMPDEST CALLVALUE EQ PUSH2 0xABC JUMPI PUSH1 0x40 MLOAD PUSH32 0x8C379A000000000000000000000000000000000000000000000000000000000 DUP2 MSTORE PUSH1 0x4 ADD PUSH2 0xAB3 SWAP1 PUSH2 0x3228 JUMP JUMPDEST PUSH1 0x40 MLOAD DUP1 SWAP2 SUB SWAP1 REVERT JUMPDEST PUSH1 0x0 JUMPDEST DUP2 DUP2 LT ISZERO PUSH2 0xB71 JUMPI PUSH1 0x0 PUSH1 0x7 PUSH1 0x0 DUP2 SLOAD DUP1 SWAP3 SWAP2 SWAP1 PUSH2 0xADC SWAP1 PUSH2 0x3248 JUMP JUMPDEST SWAP2 SWAP1 POP SSTORE SWAP1 POP PUSH2 0xAEC CALLER DUP3 PUSH2 0x1A0C JUMP JUMPDEST PUSH1 0x0 PUSH1 0xD PUSH1 0x0 DUP4 DUP2 MSTORE PUSH1 0x20 ADD SWAP1 DUP2 MSTORE PUSH1 0x20 ADD PUSH1 0x0 KECCAK256 PUSH1 0x0 PUSH2 0x100 EXP DUP2 SLOAD DUP2 PUSH1 0xFF MUL NOT AND SWAP1 DUP4 PUSH1 0xFF AND MUL OR SWAP1 SSTORE POP DUP1 CALLER PUSH20 0xFFFFFFFFFFFFFFFFFFFFFFFFFFFFFFFFFFFFFFFF AND PUSH32 0x748A2986091C2034D6E93B6F44F771A79F0E1D6ACD8A60C68C17D4E1E2FEAED2 PUSH1 0x40 MLOAD PUSH1 0x40 MLOAD DUP1 SWAP2 SUB SWAP1 LOG3 POP DUP1 DUP1 PUSH2 0xB69 SWAP1 PUSH2 0x3248 JUMP JUMPDEST SWAP2 POP POP PUSH2 0xABF JUMP JUMPDEST POP DUP1 PUSH1 0x9 PUSH1 0x0 DUP3 DUP3 SLOAD PUSH2 0xB84 SWAP2 SWAP1 PUSH2 0x30FA JUMP JUMPDEST SWAP3 POP POP DUP2 SWAP1 SSTORE POP POP JUMP JUMPDEST PUSH2 0xBA9 DUP4 DUP4 DUP4 PUSH1 0x40 MLOAD DUP1 PUSH1 0x20 ADD PUSH1 0x40 MSTORE DUP1 PUSH1 0x0 DUP2 MSTORE POP PUSH2 0xEDD JUMP JUMPDEST POP POP POP JUMP JUMPDEST PUSH2 0xBB6 PUSH2 0x1A2A JUMP JUMPDEST PUSH1 0x0 PUSH20 0xFFFFFFFFFFFFFFFFFFFFFFFFFFFFFFFFFFFFFFFF AND DUP2 PUSH20 0xFFFFFFFFFFFFFFFFFFFFFFFFFFFFFFFFFFFFFFFF AND SUB PUSH2 0xC25 JUMPI PUSH1 0x40 MLOAD PUSH32 0x8C379A000000000000000000000000000000000000000000000000000000000 DUP2 MSTORE PUSH1 0x4 ADD PUSH2 0xC1C SWAP1 PUSH2 0x32DC JUMP JUMPDEST PUSH1 0x40 MLOAD DUP1 SWAP2 SUB SWAP1 REVERT JUMPDEST PUSH1 0x0 SELFBALANCE SWAP1 POP PUSH1 0x0 DUP2 GT PUSH2 0xC6D JUMPI PUSH1 0x40 MLOAD PUSH32 0x8C379A000000000000000000000000000000000000000000000000000000000 DUP2 MSTORE PUSH1 0x4 ADD PUSH2 0xC64 SWAP1 PUSH2 0x3348 JUMP JUMPDEST PUSH1 0x40 MLOAD DUP1 SWAP2 SUB SWAP1 REVERT JUMPDEST DUP2 PUSH20 0xFFFFFFFFFFFFFFFFFFFFFFFFFFFFFFFFFFFFFFFF AND PUSH2 0x8FC DUP3 SWAP1 DUP2 ISZERO MUL SWAP1 PUSH1 0x40 MLOAD PUSH1 0x0 PUSH1 0x40 MLOAD DUP1 DUP4 SUB DUP2 DUP6 DUP9 DUP9 CALL SWAP4 POP POP POP POP ISZERO DUP1 ISZERO PUSH2 0xCB3 JUMPI RETURNDATASIZE PUSH1 0x0 DUP1 RETURNDATACOPY RETURNDATASIZE PUSH1 0x0 REVERT JUMPDEST POP POP POP JUMP JUMPDEST PUSH2 0xCC0 PUSH2 0x1A2A JUMP JUMPDEST DUP1 PUSH1 0xE SWAP1 DUP2 PUSH2 0xCCF SWAP2 SWAP1 PUSH2 0x3514 JUMP JUMPDEST POP POP JUMP JUMPDEST PUSH2 0xCDB PUSH2 0x1A2A JUMP JUMPDEST DUP1 PUSH1 0xB PUSH1 0x0 PUSH2 0x100 EXP DUP2 SLOAD DUP2 PUSH20 0xFFFFFFFFFFFFFFFFFFFFFFFFFFFFFFFFFFFFFFFF MUL NOT AND SWAP1 DUP4 PUSH20 0xFFFFFFFFFFFFFFFFFFFFFFFFFFFFFFFFFFFFFFFF AND MUL OR SWAP1 SSTORE POP POP JUMP JUMPDEST PUSH1 0x0 PUSH2 0xD2A DUP3 PUSH2 0x1713 JUMP JUMPDEST SWAP1 POP SWAP2 SWAP1 POP JUMP JUMPDEST PUSH1 0x0 DUP1 PUSH20 0xFFFFFFFFFFFFFFFFFFFFFFFFFFFFFFFFFFFFFFFF AND DUP3 PUSH20 0xFFFFFFFFFFFFFFFFFFFFFFFFFFFFFFFFFFFFFFFF AND SUB PUSH2 0xDA4 JUMPI PUSH1 0x0 PUSH1 0x40 MLOAD PUSH32 0x89C62B6400000000000000000000000000000000000000000000000000000000 DUP2 MSTORE PUSH1 0x4 ADD PUSH2 0xD9B SWAP2 SWAP1 PUSH2 0x298E JUMP JUMPDEST PUSH1 0x40 MLOAD DUP1 SWAP2 SUB SWAP1 REVERT JUMPDEST PUSH1 0x3 PUSH1 0x0 DUP4 PUSH20 0xFFFFFFFFFFFFFFFFFFFFFFFFFFFFFFFFFFFFFFFF AND PUSH20 0xFFFFFFFFFFFFFFFFFFFFFFFFFFFFFFFFFFFFFFFF AND DUP2 MSTORE PUSH1 0x20 ADD SWAP1 DUP2 MSTORE PUSH1 0x20 ADD PUSH1 0x0 KECCAK256 SLOAD SWAP1 POP SWAP2 SWAP1 POP JUMP JUMPDEST PUSH2 0xDF3 PUSH2 0x1A2A JUMP JUMPDEST PUSH2 0xDFD PUSH1 0x0 PUSH2 0x1AB1 JUMP JUMPDEST JUMP JUMPDEST PUSH1 0x0 PUSH1 0x6 PUSH1 0x0 SWAP1 SLOAD SWAP1 PUSH2 0x100 EXP SWAP1 DIV PUSH20 0xFFFFFFFFFFFFFFFFFFFFFFFFFFFFFFFFFFFFFFFF AND SWAP1 POP SWAP1 JUMP JUMPDEST PUSH1 0x60 PUSH1 0x1 DUP1 SLOAD PUSH2 0xE38 SWAP1 PUSH2 0x2FF7 JUMP JUMPDEST DUP1 PUSH1 0x1F ADD PUSH1 0x20 DUP1 SWAP2 DIV MUL PUSH1 0x20 ADD PUSH1 0x40 MLOAD SWAP1 DUP2 ADD PUSH1 0x40 MSTORE DUP1 SWAP3 SWAP2 SWAP1 DUP2 DUP2 MSTORE PUSH1 0x20 ADD DUP3 DUP1 SLOAD PUSH2 0xE64 SWAP1 PUSH2 0x2FF7 JUMP JUMPDEST DUP1 ISZERO PUSH2 0xEB1 JUMPI DUP1 PUSH1 0x1F LT PUSH2 0xE86 JUMPI PUSH2 0x100 DUP1 DUP4 SLOAD DIV MUL DUP4 MSTORE SWAP2 PUSH1 0x20 ADD SWAP2 PUSH2 0xEB1 JUMP JUMPDEST DUP3 ADD SWAP2 SWAP1 PUSH1 0x0 MSTORE PUSH1 0x20 PUSH1 0x0 KECCAK256 SWAP1 JUMPDEST DUP2 SLOAD DUP2 MSTORE SWAP1 PUSH1 0x1 ADD SWAP1 PUSH1 0x20 ADD DUP1 DUP4 GT PUSH2 0xE94 JUMPI DUP3 SWAP1 SUB PUSH1 0x1F AND DUP3 ADD SWAP2 JUMPDEST POP POP POP POP POP SWAP1 POP SWAP1 JUMP JUMPDEST PUSH2 0xECD PUSH2 0xEC6 PUSH2 0x17D8 JUMP JUMPDEST DUP4 DUP4 PUSH2 0x1B77 JUMP JUMPDEST POP POP JUMP JUMPDEST PUSH1 0x9 SLOAD DUP2 JUMP JUMPDEST PUSH1 0xA SLOAD DUP2 JUMP JUMPDEST PUSH2 0xEE8 DUP5 DUP5 DUP5 PUSH2 0x8C3 JUMP JUMPDEST PUSH2 0xEFC PUSH2 0xEF3 PUSH2 0x17D8 JUMP JUMPDEST DUP6 DUP6 DUP6 DUP6 PUSH2 0x1CE6 JUMP JUMPDEST POP POP POP POP JUMP JUMPDEST PUSH1 0x0 PUSH20 0xFFFFFFFFFFFFFFFFFFFFFFFFFFFFFFFFFFFFFFFF AND PUSH1 0xB PUSH1 0x0 SWAP1 SLOAD SWAP1 PUSH2 0x100 EXP SWAP1 DIV PUSH20 0xFFFFFFFFFFFFFFFFFFFFFFFFFFFFFFFFFFFFFFFF AND PUSH20 0xFFFFFFFFFFFFFFFFFFFFFFFFFFFFFFFFFFFFFFFF AND SUB PUSH2 0xF93 JUMPI PUSH1 0x40 MLOAD PUSH32 0x8C379A000000000000000000000000000000000000000000000000000000000 DUP2 MSTORE PUSH1 0x4 ADD PUSH2 0xF8A SWAP1 PUSH2 0x3632 JUMP JUMPDEST PUSH1 0x40 MLOAD DUP1 SWAP2 SUB SWAP1 REVERT JUMPDEST PUSH1 0xC PUSH1 0x0 CALLER PUSH20 0xFFFFFFFFFFFFFFFFFFFFFFFFFFFFFFFFFFFFFFFF AND PUSH20 0xFFFFFFFFFFFFFFFFFFFFFFFFFFFFFFFFFFFFFFFF AND DUP2 MSTORE PUSH1 0x20 ADD SWAP1 DUP2 MSTORE PUSH1 0x20 ADD PUSH1 0x0 KECCAK256 PUSH1 0x0 SWAP1 SLOAD SWAP1 PUSH2 0x100 EXP SWAP1 DIV PUSH1 0xFF AND ISZERO PUSH2 0x1020 JUMPI PUSH1 0x40 MLOAD PUSH32 0x8C379A000000000000000000000000000000000000000000000000000000000 DUP2 MSTORE PUSH1 0x4 ADD PUSH2 0x1017 SWAP1 PUSH2 0x369E JUMP JUMPDEST PUSH1 0x40 MLOAD DUP1 SWAP2 SUB SWAP1 REVERT JUMPDEST PUSH1 0x0 ADDRESS CHAINID CALLER PUSH1 0x40 MLOAD PUSH1 0x20 ADD PUSH2 0x1037 SWAP4 SWAP3 SWAP2 SWAP1 PUSH2 0x3727 JUMP JUMPDEST PUSH1 0x40 MLOAD PUSH1 0x20 DUP2 DUP4 SUB SUB DUP2 MSTORE SWAP1 PUSH1 0x40 MSTORE DUP1 MLOAD SWAP1 PUSH1 0x20 ADD KECCAK256 SWAP1 POP PUSH1 0x0 PUSH2 0x105A DUP3 PUSH2 0x1E97 JUMP JUMPDEST SWAP1 POP PUSH1 0x0 PUSH2 0x10AC DUP3 DUP7 DUP7 DUP1 DUP1 PUSH1 0x1F ADD PUSH1 0x20 DUP1 SWAP2 DIV MUL PUSH1 0x20 ADD PUSH1 0x40 MLOAD SWAP1 DUP2 ADD PUSH1 0x40 MSTORE DUP1 SWAP4 SWAP3 SWAP2 SWAP1 DUP2 DUP2 MSTORE PUSH1 0x20 ADD DUP4 DUP4 DUP1 DUP3 DUP5 CALLDATACOPY PUSH1 0x0 DUP2 DUP5 ADD MSTORE PUSH1 0x1F NOT PUSH1 0x1F DUP3 ADD AND SWAP1 POP DUP1 DUP4 ADD SWAP3 POP POP POP POP POP POP POP PUSH2 0x1ECD JUMP JUMPDEST SWAP1 POP PUSH1 0xB PUSH1 0x0 SWAP1 SLOAD SWAP1 PUSH2 0x100 EXP SWAP1 DIV PUSH20 0xFFFFFFFFFFFFFFFFFFFFFFFFFFFFFFFFFFFFFFFF AND PUSH20 0xFFFFFFFFFFFFFFFFFFFFFFFFFFFFFFFFFFFFFFFF AND DUP2 PUSH20 0xFFFFFFFFFFFFFFFFFFFFFFFFFFFFFFFFFFFFFFFF AND EQ PUSH2 0x113E JUMPI PUSH1 0x40 MLOAD PUSH32 0x8C379A000000000000000000000000000000000000000000000000000000000 DUP2 MSTORE PUSH1 0x4 ADD PUSH2 0x1135 SWAP1 PUSH2 0x37B0 JUMP JUMPDEST PUSH1 0x40 MLOAD DUP1 SWAP2 SUB SWAP1 REVERT JUMPDEST PUSH1 0x1 PUSH1 0xC PUSH1 0x0 CALLER PUSH20 0xFFFFFFFFFFFFFFFFFFFFFFFFFFFFFFFFFFFFFFFF AND PUSH20 0xFFFFFFFFFFFFFFFFFFFFFFFFFFFFFFFFFFFFFFFF AND DUP2 MSTORE PUSH1 0x20 ADD SWAP1 DUP2 MSTORE PUSH1 0x20 ADD PUSH1 0x0 KECCAK256 PUSH1 0x0 PUSH2 0x100 EXP DUP2 SLOAD DUP2 PUSH1 0xFF MUL NOT AND SWAP1 DUP4 ISZERO ISZERO MUL OR SWAP1 SSTORE POP PUSH1 0x0 PUSH1 0x7 PUSH1 0x0 DUP2 SLOAD DUP1 SWAP3 SWAP2 SWAP1 PUSH2 0x11AB SWAP1 PUSH2 0x3248 JUMP JUMPDEST SWAP2 SWAP1 POP SSTORE SWAP1 POP PUSH2 0x11BB CALLER DUP3 PUSH2 0x1A0C JUMP JUMPDEST PUSH1 0x0 PUSH1 0xD PUSH1 0x0 DUP4 DUP2 MSTORE PUSH1 0x20 ADD SWAP1 DUP2 MSTORE PUSH1 0x20 ADD PUSH1 0x0 KECCAK256 PUSH1 0x0 PUSH2 0x100 EXP DUP2 SLOAD DUP2 PUSH1 0xFF MUL NOT AND SWAP1 DUP4 PUSH1 0xFF AND MUL OR SWAP1 SSTORE POP DUP1 CALLER PUSH20 0xFFFFFFFFFFFFFFFFFFFFFFFFFFFFFFFFFFFFFFFF AND PUSH32 0xE9A10C23EA49D40011E019F115185F0BC29740208A504D35F951DCA74BA37EAC PUSH1 0x40 MLOAD PUSH1 0x40 MLOAD DUP1 SWAP2 SUB SWAP1 LOG3 POP POP POP POP POP POP JUMP JUMPDEST PUSH1 0x60 PUSH2 0x123F DUP3 PUSH2 0x1713 JUMP JUMPDEST POP PUSH1 0x0 PUSH2 0x124A PUSH2 0x1EF9 JUMP JUMPDEST SWAP1 POP PUSH1 0x0 PUSH1 0xD PUSH1 0x0 DUP6 DUP2 MSTORE PUSH1 0x20 ADD SWAP1 DUP2 MSTORE PUSH1 0x20 ADD PUSH1 0x0 KECCAK256 PUSH1 0x0 SWAP1 SLOAD SWAP1 PUSH2 0x100 EXP SWAP1 DIV PUSH1 0xFF AND SWAP1 POP PUSH1 0x0 PUSH1 0x40 MLOAD DUP1 PUSH1 0x40 ADD PUSH1 0x40 MSTORE DUP1 PUSH1 0xC DUP2 MSTORE PUSH1 0x20 ADD PUSH32 0x6E65757472616C2E6A736F6E0000000000000000000000000000000000000000 DUP2 MSTORE POP SWAP1 POP PUSH1 0x1 DUP3 PUSH1 0xFF AND SUB PUSH2 0x12F3 JUMPI PUSH1 0x40 MLOAD DUP1 PUSH1 0x40 ADD PUSH1 0x40 MSTORE DUP1 PUSH1 0xA DUP2 MSTORE PUSH1 0x20 ADD PUSH32 0x616E67656C2E6A736F6E00000000000000000000000000000000000000000000 DUP2 MSTORE POP SWAP1 POP PUSH2 0x1338 JUMP JUMPDEST PUSH1 0x2 DUP3 PUSH1 0xFF AND SUB PUSH2 0x1337 JUMPI PUSH1 0x40 MLOAD DUP1 PUSH1 0x40 ADD PUSH1 0x40 MSTORE DUP1 PUSH1 0xA DUP2 MSTORE PUSH1 0x20 ADD PUSH32 0x646576696C2E6A736F6E00000000000000000000000000000000000000000000 DUP2 MSTORE POP SWAP1 POP JUMPDEST JUMPDEST DUP3 DUP2 PUSH1 0x40 MLOAD PUSH1 0x20 ADD PUSH2 0x134B SWAP3 SWAP2 SWAP1 PUSH2 0x380C JUMP JUMPDEST PUSH1 0x40 MLOAD PUSH1 0x20 DUP2 DUP4 SUB SUB DUP2 MSTORE SWAP1 PUSH1 0x40 MSTORE SWAP4 POP POP POP POP SWAP2 SWAP1 POP JUMP JUMPDEST PUSH1 0xD PUSH1 0x20 MSTORE DUP1 PUSH1 0x0 MSTORE PUSH1 0x40 PUSH1 0x0 KECCAK256 PUSH1 0x0 SWAP2 POP SLOAD SWAP1 PUSH2 0x100 EXP SWAP1 DIV PUSH1 0xFF AND DUP2 JUMP JUMPDEST PUSH1 0x7 SLOAD DUP2 JUMP JUMPDEST PUSH1 0x0 PUSH1 0x5 PUSH1 0x0 DUP5 PUSH20 0xFFFFFFFFFFFFFFFFFFFFFFFFFFFFFFFFFFFFFFFF AND PUSH20 0xFFFFFFFFFFFFFFFFFFFFFFFFFFFFFFFFFFFFFFFF AND DUP2 MSTORE PUSH1 0x20 ADD SWAP1 DUP2 MSTORE PUSH1 0x20 ADD PUSH1 0x0 KECCAK256 PUSH1 0x0 DUP4 PUSH20 0xFFFFFFFFFFFFFFFFFFFFFFFFFFFFFFFFFFFFFFFF AND PUSH20 0xFFFFFFFFFFFFFFFFFFFFFFFFFFFFFFFFFFFFFFFF AND DUP2 MSTORE PUSH1 0x20 ADD SWAP1 DUP2 MSTORE PUSH1 0x20 ADD PUSH1 0x0 KECCAK256 PUSH1 0x0 SWAP1 SLOAD SWAP1 PUSH2 0x100 EXP SWAP1 DIV PUSH1 0xFF AND SWAP1 POP SWAP3 SWAP2 POP POP JUMP JUMPDEST PUSH2 0x1426 PUSH2 0x1A2A JUMP JUMPDEST PUSH1 0x0 PUSH20 0xFFFFFFFFFFFFFFFFFFFFFFFFFFFFFFFFFFFFFFFF AND DUP2 PUSH20 0xFFFFFFFFFFFFFFFFFFFFFFFFFFFFFFFFFFFFFFFF AND SUB PUSH2 0x1498 JUMPI PUSH1 0x0 PUSH1 0x40 MLOAD PUSH32 0x1E4FBDF700000000000000000000000000000000000000000000000000000000 DUP2 MSTORE PUSH1 0x4 ADD PUSH2 0x148F SWAP2 SWAP1 PUSH2 0x298E JUMP JUMPDEST PUSH1 0x40 MLOAD DUP1 SWAP2 SUB SWAP1 REVERT JUMPDEST PUSH2 0x14A1 DUP2 PUSH2 0x1AB1 JUMP JUMPDEST POP JUMP JUMPDEST PUSH1 0xB PUSH1 0x0 SWAP1 SLOAD SWAP1 PUSH2 0x100 EXP SWAP1 DIV PUSH20 0xFFFFFFFFFFFFFFFFFFFFFFFFFFFFFFFFFFFFFFFF AND DUP2 JUMP JUMPDEST PUSH1 0x1 DUP2 PUSH1 0xFF AND EQ DUP1 PUSH2 0x14DF JUMPI POP PUSH1 0x2 DUP2 PUSH1 0xFF AND EQ JUMPDEST PUSH2 0x151E JUMPI PUSH1 0x40 MLOAD PUSH32 0x8C379A000000000000000000000000000000000000000000000000000000000 DUP2 MSTORE PUSH1 0x4 ADD PUSH2 0x1515 SWAP1 PUSH2 0x387C JUMP JUMPDEST PUSH1 0x40 MLOAD DUP1 SWAP2 SUB SWAP1 REVERT JUMPDEST CALLER PUSH20 0xFFFFFFFFFFFFFFFFFFFFFFFFFFFFFFFFFFFFFFFF AND PUSH2 0x153E DUP4 PUSH2 0xD1F JUMP JUMPDEST PUSH20 0xFFFFFFFFFFFFFFFFFFFFFFFFFFFFFFFFFFFFFFFF AND EQ PUSH2 0x1594 JUMPI PUSH1 0x40 MLOAD PUSH32 0x8C379A000000000000000000000000000000000000000000000000000000000 DUP2 MSTORE PUSH1 0x4 ADD PUSH2 0x158B SWAP1 PUSH2 0x38E8 JUMP JUMPDEST PUSH1 0x40 MLOAD DUP1 SWAP2 SUB SWAP1 REVERT JUMPDEST PUSH1 0x0 PUSH1 0xD PUSH1 0x0 DUP5 DUP2 MSTORE PUSH1 0x20 ADD SWAP1 DUP2 MSTORE PUSH1 0x20 ADD PUSH1 0x0 KECCAK256 PUSH1 0x0 SWAP1 SLOAD SWAP1 PUSH2 0x100 EXP SWAP1 DIV PUSH1 0xFF AND PUSH1 0xFF AND EQ PUSH2 0x15FA JUMPI PUSH1 0x40 MLOAD PUSH32 0x8C379A000000000000000000000000000000000000000000000000000000000 DUP2 MSTORE PUSH1 0x4 ADD PUSH2 0x15F1 SWAP1 PUSH2 0x397A JUMP JUMPDEST PUSH1 0x40 MLOAD DUP1 SWAP2 SUB SWAP1 REVERT JUMPDEST PUSH2 0x1603 DUP3 PUSH2 0x1F8B JUMP JUMPDEST PUSH1 0x0 PUSH1 0x7 PUSH1 0x0 DUP2 SLOAD DUP1 SWAP3 SWAP2 SWAP1 PUSH2 0x1618 SWAP1 PUSH2 0x3248 JUMP JUMPDEST SWAP2 SWAP1 POP SSTORE SWAP1 POP PUSH2 0x1628 CALLER DUP3 PUSH2 0x1A0C JUMP JUMPDEST DUP2 PUSH1 0xD PUSH1 0x0 DUP4 DUP2 MSTORE PUSH1 0x20 ADD SWAP1 DUP2 MSTORE PUSH1 0x20 ADD PUSH1 0x0 KECCAK256 PUSH1 0x0 PUSH2 0x100 EXP DUP2 SLOAD DUP2 PUSH1 0xFF MUL NOT AND SWAP1 DUP4 PUSH1 0xFF AND MUL OR SWAP1 SSTORE POP DUP1 DUP4 CALLER PUSH20 0xFFFFFFFFFFFFFFFFFFFFFFFFFFFFFFFFFFFFFFFF AND PUSH32 0x598067BC48EF38B7785EDA047C375B2D45F2B845404B58DCDFCCF40E7F38D869 DUP6 PUSH1 0x40 MLOAD PUSH2 0x169C SWAP2 SWAP1 PUSH2 0x2F01 JUMP JUMPDEST PUSH1 0x40 MLOAD DUP1 SWAP2 SUB SWAP1 LOG4 POP POP POP JUMP JUMPDEST PUSH1 0x0 PUSH32 0x1FFC9A700000000000000000000000000000000000000000000000000000000 PUSH28 0xFFFFFFFFFFFFFFFFFFFFFFFFFFFFFFFFFFFFFFFFFFFFFFFFFFFFFFFF NOT AND DUP3 PUSH28 0xFFFFFFFFFFFFFFFFFFFFFFFFFFFFFFFFFFFFFFFFFFFFFFFFFFFFFFFF NOT AND EQ SWAP1 POP SWAP2 SWAP1 POP JUMP JUMPDEST PUSH1 0x0 DUP1 PUSH2 0x171F DUP4 PUSH2 0x2011 JUMP JUMPDEST SWAP1 POP PUSH1 0x0 PUSH20 0xFFFFFFFFFFFFFFFFFFFFFFFFFFFFFFFFFFFFFFFF AND DUP2 PUSH20 0xFFFFFFFFFFFFFFFFFFFFFFFFFFFFFFFFFFFFFFFF AND SUB PUSH2 0x1792 JUMPI DUP3 PUSH1 0x40 MLOAD PUSH32 0x7E27328900000000000000000000000000000000000000000000000000000000 DUP2 MSTORE PUSH1 0x4 ADD PUSH2 0x1789 SWAP2 SWAP1 PUSH2 0x2AA4 JUMP JUMPDEST PUSH1 0x40 MLOAD DUP1 SWAP2 SUB SWAP1 REVERT JUMPDEST DUP1 SWAP2 POP POP SWAP2 SWAP1 POP JUMP JUMPDEST PUSH1 0x0 PUSH1 0x4 PUSH1 0x0 DUP4 DUP2 MSTORE PUSH1 0x20 ADD SWAP1 DUP2 MSTORE PUSH1 0x20 ADD PUSH1 0x0 KECCAK256 PUSH1 0x0 SWAP1 SLOAD SWAP1 PUSH2 0x100 EXP SWAP1 DIV PUSH20 0xFFFFFFFFFFFFFFFFFFFFFFFFFFFFFFFFFFFFFFFF AND SWAP1 POP SWAP2 SWAP1 POP JUMP JUMPDEST PUSH1 0x0 CALLER SWAP1 POP SWAP1 JUMP JUMPDEST PUSH2 0x17ED DUP4 DUP4 DUP4 PUSH1 0x1 PUSH2 0x204E JUMP JUMPDEST POP POP POP JUMP JUMPDEST PUSH1 0x0 DUP1 PUSH2 0x17FE DUP5 PUSH2 0x2011 JUMP JUMPDEST SWAP1 POP PUSH1 0x0 PUSH20 0xFFFFFFFFFFFFFFFFFFFFFFFFFFFFFFFFFFFFFFFF AND DUP4 PUSH20 0xFFFFFFFFFFFFFFFFFFFFFFFFFFFFFFFFFFFFFFFF AND EQ PUSH2 0x1840 JUMPI PUSH2 0x183F DUP2 DUP5 DUP7 PUSH2 0x2213 JUMP JUMPDEST JUMPDEST PUSH1 0x0 PUSH20 0xFFFFFFFFFFFFFFFFFFFFFFFFFFFFFFFFFFFFFFFF AND DUP2 PUSH20 0xFFFFFFFFFFFFFFFFFFFFFFFFFFFFFFFFFFFFFFFF AND EQ PUSH2 0x18D1 JUMPI PUSH2 0x1882 PUSH1 0x0 DUP6 PUSH1 0x0 DUP1 PUSH2 0x204E JUMP JUMPDEST PUSH1 0x1 PUSH1 0x3 PUSH1 0x0 DUP4 PUSH20 0xFFFFFFFFFFFFFFFFFFFFFFFFFFFFFFFFFFFFFFFF AND PUSH20 0xFFFFFFFFFFFFFFFFFFFFFFFFFFFFFFFFFFFFFFFF AND DUP2 MSTORE PUSH1 0x20 ADD SWAP1 DUP2 MSTORE PUSH1 0x20 ADD PUSH1 0x0 KECCAK256 PUSH1 0x0 DUP3 DUP3 SLOAD SUB SWAP3 POP POP DUP2 SWAP1 SSTORE POP JUMPDEST PUSH1 0x0 PUSH20 0xFFFFFFFFFFFFFFFFFFFFFFFFFFFFFFFFFFFFFFFF AND DUP6 PUSH20 0xFFFFFFFFFFFFFFFFFFFFFFFFFFFFFFFFFFFFFFFF AND EQ PUSH2 0x1954 JUMPI PUSH1 0x1 PUSH1 0x3 PUSH1 0x0 DUP8 PUSH20 0xFFFFFFFFFFFFFFFFFFFFFFFFFFFFFFFFFFFFFFFF AND PUSH20 0xFFFFFFFFFFFFFFFFFFFFFFFFFFFFFFFFFFFFFFFF AND DUP2 MSTORE PUSH1 0x20 ADD SWAP1 DUP2 MSTORE PUSH1 0x20 ADD PUSH1 0x0 KECCAK256 PUSH1 0x0 DUP3 DUP3 SLOAD ADD SWAP3 POP POP DUP2 SWAP1 SSTORE POP JUMPDEST DUP5 PUSH1 0x2 PUSH1 0x0 DUP7 DUP2 MSTORE PUSH1 0x20 ADD SWAP1 DUP2 MSTORE PUSH1 0x20 ADD PUSH1 0x0 KECCAK256 PUSH1 0x0 PUSH2 0x100 EXP DUP2 SLOAD DUP2 PUSH20 0xFFFFFFFFFFFFFFFFFFFFFFFFFFFFFFFFFFFFFFFF MUL NOT AND SWAP1 DUP4 PUSH20 0xFFFFFFFFFFFFFFFFFFFFFFFFFFFFFFFFFFFFFFFF AND MUL OR SWAP1 SSTORE POP DUP4 DUP6 PUSH20 0xFFFFFFFFFFFFFFFFFFFFFFFFFFFFFFFFFFFFFFFF AND DUP3 PUSH20 0xFFFFFFFFFFFFFFFFFFFFFFFFFFFFFFFFFFFFFFFF AND PUSH32 0xDDF252AD1BE2C89B69C2B068FC378DAA952BA7F163C4A11628F55A4DF523B3EF PUSH1 0x40 MLOAD PUSH1 0x40 MLOAD DUP1 SWAP2 SUB SWAP1 LOG4 DUP1 SWAP2 POP POP SWAP4 SWAP3 POP POP POP JUMP JUMPDEST PUSH2 0x1A26 DUP3 DUP3 PUSH1 0x40 MLOAD DUP1 PUSH1 0x20 ADD PUSH1 0x40 MSTORE DUP1 PUSH1 0x0 DUP2 MSTORE POP PUSH2 0x22D7 JUMP JUMPDEST POP POP JUMP JUMPDEST PUSH2 0x1A32 PUSH2 0x17D8 JUMP JUMPDEST PUSH20 0xFFFFFFFFFFFFFFFFFFFFFFFFFFFFFFFFFFFFFFFF AND PUSH2 0x1A50 PUSH2 0xDFF JUMP JUMPDEST PUSH20 0xFFFFFFFFFFFFFFFFFFFFFFFFFFFFFFFFFFFFFFFF AND EQ PUSH2 0x1AAF JUMPI PUSH2 0x1A73 PUSH2 0x17D8 JUMP JUMPDEST PUSH1 0x40 MLOAD PUSH32 0x118CDAA700000000000000000000000000000000000000000000000000000000 DUP2 MSTORE PUSH1 0x4 ADD PUSH2 0x1AA6 SWAP2 SWAP1 PUSH2 0x298E JUMP JUMPDEST PUSH1 0x40 MLOAD DUP1 SWAP2 SUB SWAP1 REVERT JUMPDEST JUMP JUMPDEST PUSH1 0x0 PUSH1 0x6 PUSH1 0x0 SWAP1 SLOAD SWAP1 PUSH2 0x100 EXP SWAP1 DIV PUSH20 0xFFFFFFFFFFFFFFFFFFFFFFFFFFFFFFFFFFFFFFFF AND SWAP1 POP DUP2 PUSH1 0x6 PUSH1 0x0 PUSH2 0x100 EXP DUP2 SLOAD DUP2 PUSH20 0xFFFFFFFFFFFFFFFFFFFFFFFFFFFFFFFFFFFFFFFF MUL NOT AND SWAP1 DUP4 PUSH20 0xFFFFFFFFFFFFFFFFFFFFFFFFFFFFFFFFFFFFFFFF AND MUL OR SWAP1 SSTORE POP DUP2 PUSH20 0xFFFFFFFFFFFFFFFFFFFFFFFFFFFFFFFFFFFFFFFF AND DUP2 PUSH20 0xFFFFFFFFFFFFFFFFFFFFFFFFFFFFFFFFFFFFFFFF AND PUSH32 0x8BE0079C531659141344CD1FD0A4F28419497F9722A3DAAFE3B4186F6B6457E0 PUSH1 0x40 MLOAD PUSH1 0x40 MLOAD DUP1 SWAP2 SUB SWAP1 LOG3 POP POP JUMP JUMPDEST PUSH1 0x0 PUSH20 0xFFFFFFFFFFFFFFFFFFFFFFFFFFFFFFFFFFFFFFFF AND DUP3 PUSH20 0xFFFFFFFFFFFFFFFFFFFFFFFFFFFFFFFFFFFFFFFF AND SUB PUSH2 0x1BE8 JUMPI DUP2 PUSH1 0x40 MLOAD PUSH32 0x5B08BA1800000000000000000000000000000000000000000000000000000000 DUP2 MSTORE PUSH1 0x4 ADD PUSH2 0x1BDF SWAP2 SWAP1 PUSH2 0x298E JUMP JUMPDEST PUSH1 0x40 MLOAD DUP1 SWAP2 SUB SWAP1 REVERT JUMPDEST DUP1 PUSH1 0x5 PUSH1 0x0 DUP6 PUSH20 0xFFFFFFFFFFFFFFFFFFFFFFFFFFFFFFFFFFFFFFFF AND PUSH20 0xFFFFFFFFFFFFFFFFFFFFFFFFFFFFFFFFFFFFFFFF AND DUP2 MSTORE PUSH1 0x20 ADD SWAP1 DUP2 MSTORE PUSH1 0x20 ADD PUSH1 0x0 KECCAK256 PUSH1 0x0 DUP5 PUSH20 0xFFFFFFFFFFFFFFFFFFFFFFFFFFFFFFFFFFFFFFFF AND PUSH20 0xFFFFFFFFFFFFFFFFFFFFFFFFFFFFFFFFFFFFFFFF AND DUP2 MSTORE PUSH1 0x20 ADD SWAP1 DUP2 MSTORE PUSH1 0x20 ADD PUSH1 0x0 KECCAK256 PUSH1 0x0 PUSH2 0x100 EXP DUP2 SLOAD DUP2 PUSH1 0xFF MUL NOT AND SWAP1 DUP4 ISZERO ISZERO MUL OR SWAP1 SSTORE POP DUP2 PUSH20 0xFFFFFFFFFFFFFFFFFFFFFFFFFFFFFFFFFFFFFFFF AND DUP4 PUSH20 0xFFFFFFFFFFFFFFFFFFFFFFFFFFFFFFFFFFFFFFFF AND PUSH32 0x17307EAB39AB6107E8899845AD3D59BD9653F200F220920489CA2B5937696C31 DUP4 PUSH1 0x40 MLOAD PUSH2 0x1CD9 SWAP2 SWAP1 PUSH2 0x281D JUMP JUMPDEST PUSH1 0x40 MLOAD DUP1 SWAP2 SUB SWAP1 LOG3 POP POP POP JUMP JUMPDEST PUSH1 0x0 DUP4 PUSH20 0xFFFFFFFFFFFFFFFFFFFFFFFFFFFFFFFFFFFFFFFF AND EXTCODESIZE GT ISZERO PUSH2 0x1E90 JUMPI DUP3 PUSH20 0xFFFFFFFFFFFFFFFFFFFFFFFFFFFFFFFFFFFFFFFF AND PUSH4 0x150B7A02 DUP7 DUP7 DUP6 DUP6 PUSH1 0x40 MLOAD DUP6 PUSH4 0xFFFFFFFF AND PUSH1 0xE0 SHL DUP2 MSTORE PUSH1 0x4 ADD PUSH2 0x1D45 SWAP5 SWAP4 SWAP3 SWAP2 SWAP1 PUSH2 0x39EF JUMP JUMPDEST PUSH1 0x20 PUSH1 0x40 MLOAD DUP1 DUP4 SUB DUP2 PUSH1 0x0 DUP8 GAS CALL SWAP3 POP POP POP DUP1 ISZERO PUSH2 0x1D81 JUMPI POP PUSH1 0x40 MLOAD RETURNDATASIZE PUSH1 0x1F NOT PUSH1 0x1F DUP3 ADD AND DUP3 ADD DUP1 PUSH1 0x40 MSTORE POP DUP2 ADD SWAP1 PUSH2 0x1D7E SWAP2 SWAP1 PUSH2 0x3A50 JUMP JUMPDEST PUSH1 0x1 JUMPDEST PUSH2 0x1E05 JUMPI RETURNDATASIZE DUP1 PUSH1 0x0 DUP2 EQ PUSH2 0x1DB1 JUMPI PUSH1 0x40 MLOAD SWAP2 POP PUSH1 0x1F NOT PUSH1 0x3F RETURNDATASIZE ADD AND DUP3 ADD PUSH1 0x40 MSTORE RETURNDATASIZE DUP3 MSTORE RETURNDATASIZE PUSH1 0x0 PUSH1 0x20 DUP5 ADD RETURNDATACOPY PUSH2 0x1DB6 JUMP JUMPDEST PUSH1 0x60 SWAP2 POP JUMPDEST POP PUSH1 0x0 DUP2 MLOAD SUB PUSH2 0x1DFD JUMPI DUP4 PUSH1 0x40 MLOAD PUSH32 0x64A0AE9200000000000000000000000000000000000000000000000000000000 DUP2 MSTORE PUSH1 0x4 ADD PUSH2 0x1DF4 SWAP2 SWAP1 PUSH2 0x298E JUMP JUMPDEST PUSH1 0x40 MLOAD DUP1 SWAP2 SUB SWAP1 REVERT JUMPDEST DUP1 MLOAD PUSH1 0x20 DUP3 ADD REVERT JUMPDEST PUSH4 0x150B7A02 PUSH1 0xE0 SHL PUSH28 0xFFFFFFFFFFFFFFFFFFFFFFFFFFFFFFFFFFFFFFFFFFFFFFFFFFFFFFFF NOT AND DUP2 PUSH28 0xFFFFFFFFFFFFFFFFFFFFFFFFFFFFFFFFFFFFFFFFFFFFFFFFFFFFFFFF NOT AND EQ PUSH2 0x1E8E JUMPI DUP4 PUSH1 0x40 MLOAD PUSH32 0x64A0AE9200000000000000000000000000000000000000000000000000000000 DUP2 MSTORE PUSH1 0x4 ADD PUSH2 0x1E85 SWAP2 SWAP1 PUSH2 0x298E JUMP JUMPDEST PUSH1 0x40 MLOAD DUP1 SWAP2 SUB SWAP1 REVERT JUMPDEST POP JUMPDEST POP POP POP POP POP JUMP JUMPDEST PUSH1 0x0 PUSH32 0x19457468657265756D205369676E6564204D6573736167653A0A333200000000 PUSH1 0x0 MSTORE DUP2 PUSH1 0x1C MSTORE PUSH1 0x3C PUSH1 0x0 KECCAK256 SWAP1 POP SWAP2 SWAP1 POP JUMP JUMPDEST PUSH1 0x0 DUP1 PUSH1 0x0 DUP1 PUSH2 0x1EDD DUP7 DUP7 PUSH2 0x22FB JUMP JUMPDEST SWAP3 POP SWAP3 POP SWAP3 POP PUSH2 0x1EED DUP3 DUP3 PUSH2 0x2357 JUMP JUMPDEST DUP3 SWAP4 POP POP POP POP SWAP3 SWAP2 POP POP JUMP JUMPDEST PUSH1 0x60 PUSH1 0xE DUP1 SLOAD PUSH2 0x1F08 SWAP1 PUSH2 0x2FF7 JUMP JUMPDEST DUP1 PUSH1 0x1F ADD PUSH1 0x20 DUP1 SWAP2 DIV MUL PUSH1 0x20 ADD PUSH1 0x40 MLOAD SWAP1 DUP2 ADD PUSH1 0x40 MSTORE DUP1 SWAP3 SWAP2 SWAP1 DUP2 DUP2 MSTORE PUSH1 0x20 ADD DUP3 DUP1 SLOAD PUSH2 0x1F34 SWAP1 PUSH2 0x2FF7 JUMP JUMPDEST DUP1 ISZERO PUSH2 0x1F81 JUMPI DUP1 PUSH1 0x1F LT PUSH2 0x1F56 JUMPI PUSH2 0x100 DUP1 DUP4 SLOAD DIV MUL DUP4 MSTORE SWAP2 PUSH1 0x20 ADD SWAP2 PUSH2 0x1F81 JUMP JUMPDEST DUP3 ADD SWAP2 SWAP1 PUSH1 0x0 MSTORE PUSH1 0x20 PUSH1 0x0 KECCAK256 SWAP1 JUMPDEST DUP2 SLOAD DUP2 MSTORE SWAP1 PUSH1 0x1 ADD SWAP1 PUSH1 0x20 ADD DUP1 DUP4 GT PUSH2 0x1F64 JUMPI DUP3 SWAP1 SUB PUSH1 0x1F AND DUP3 ADD SWAP2 JUMPDEST POP POP POP POP POP SWAP1 POP SWAP1 JUMP JUMPDEST PUSH1 0x0 PUSH2 0x1F9A PUSH1 0x0 DUP4 PUSH1 0x0 PUSH2 0x17F2 JUMP JUMPDEST SWAP1 POP PUSH1 0x0 PUSH20 0xFFFFFFFFFFFFFFFFFFFFFFFFFFFFFFFFFFFFFFFF AND DUP2 PUSH20 0xFFFFFFFFFFFFFFFFFFFFFFFFFFFFFFFFFFFFFFFF AND SUB PUSH2 0x200D JUMPI DUP2 PUSH1 0x40 MLOAD PUSH32 0x7E27328900000000000000000000000000000000000000000000000000000000 DUP2 MSTORE PUSH1 0x4 ADD PUSH2 0x2004 SWAP2 SWAP1 PUSH2 0x2AA4 JUMP JUMPDEST PUSH1 0x40 MLOAD DUP1 SWAP2 SUB SWAP1 REVERT JUMPDEST POP POP JUMP JUMPDEST PUSH1 0x0 PUSH1 0x2 PUSH1 0x0 DUP4 DUP2 MSTORE PUSH1 0x20 ADD SWAP1 DUP2 MSTORE PUSH1 0x20 ADD PUSH1 0x0 KECCAK256 PUSH1 0x0 SWAP1 SLOAD SWAP1 PUSH2 0x100 EXP SWAP1 DIV PUSH20 0xFFFFFFFFFFFFFFFFFFFFFFFFFFFFFFFFFFFFFFFF AND SWAP1 POP SWAP2 SWAP1 POP JUMP JUMPDEST DUP1 DUP1 PUSH2 0x2087 JUMPI POP PUSH1 0x0 PUSH20 0xFFFFFFFFFFFFFFFFFFFFFFFFFFFFFFFFFFFFFFFF AND DUP3 PUSH20 0xFFFFFFFFFFFFFFFFFFFFFFFFFFFFFFFFFFFFFFFF AND EQ ISZERO JUMPDEST ISZERO PUSH2 0x21BB JUMPI PUSH1 0x0 PUSH2 0x2097 DUP5 PUSH2 0x1713 JUMP JUMPDEST SWAP1 POP PUSH1 0x0 PUSH20 0xFFFFFFFFFFFFFFFFFFFFFFFFFFFFFFFFFFFFFFFF AND DUP4 PUSH20 0xFFFFFFFFFFFFFFFFFFFFFFFFFFFFFFFFFFFFFFFF AND EQ ISZERO DUP1 ISZERO PUSH2 0x2102 JUMPI POP DUP3 PUSH20 0xFFFFFFFFFFFFFFFFFFFFFFFFFFFFFFFFFFFFFFFF AND DUP2 PUSH20 0xFFFFFFFFFFFFFFFFFFFFFFFFFFFFFFFFFFFFFFFF AND EQ ISZERO JUMPDEST DUP1 ISZERO PUSH2 0x2115 JUMPI POP PUSH2 0x2113 DUP2 DUP5 PUSH2 0x138A JUMP JUMPDEST ISZERO JUMPDEST ISZERO PUSH2 0x2157 JUMPI DUP3 PUSH1 0x40 MLOAD PUSH32 0xA9FBF51F00000000000000000000000000000000000000000000000000000000 DUP2 MSTORE PUSH1 0x4 ADD PUSH2 0x214E SWAP2 SWAP1 PUSH2 0x298E JUMP JUMPDEST PUSH1 0x40 MLOAD DUP1 SWAP2 SUB SWAP1 REVERT JUMPDEST DUP2 ISZERO PUSH2 0x21B9 JUMPI DUP4 DUP6 PUSH20 0xFFFFFFFFFFFFFFFFFFFFFFFFFFFFFFFFFFFFFFFF AND DUP3 PUSH20 0xFFFFFFFFFFFFFFFFFFFFFFFFFFFFFFFFFFFFFFFF AND PUSH32 0x8C5BE1E5EBEC7D5BD14F71427D1E84F3DD0314C0F7B2291E5B200AC8C7C3B925 PUSH1 0x40 MLOAD PUSH1 0x40 MLOAD DUP1 SWAP2 SUB SWAP1 LOG4 JUMPDEST POP JUMPDEST DUP4 PUSH1 0x4 PUSH1 0x0 DUP6 DUP2 MSTORE PUSH1 0x20 ADD SWAP1 DUP2 MSTORE PUSH1 0x20 ADD PUSH1 0x0 KECCAK256 PUSH1 0x0 PUSH2 0x100 EXP DUP2 SLOAD DUP2 PUSH20 0xFFFFFFFFFFFFFFFFFFFFFFFFFFFFFFFFFFFFFFFF MUL NOT AND SWAP1 DUP4 PUSH20 0xFFFFFFFFFFFFFFFFFFFFFFFFFFFFFFFFFFFFFFFF AND MUL OR SWAP1 SSTORE POP POP POP POP POP JUMP JUMPDEST PUSH2 0x221E DUP4 DUP4 DUP4 PUSH2 0x24BB JUMP JUMPDEST PUSH2 0x22D2 JUMPI PUSH1 0x0 PUSH20 0xFFFFFFFFFFFFFFFFFFFFFFFFFFFFFFFFFFFFFFFF AND DUP4 PUSH20 0xFFFFFFFFFFFFFFFFFFFFFFFFFFFFFFFFFFFFFFFF AND SUB PUSH2 0x2293 JUMPI DUP1 PUSH1 0x40 MLOAD PUSH32 0x7E27328900000000000000000000000000000000000000000000000000000000 DUP2 MSTORE PUSH1 0x4 ADD PUSH2 0x228A SWAP2 SWAP1 PUSH2 0x2AA4 JUMP JUMPDEST PUSH1 0x40 MLOAD DUP1 SWAP2 SUB SWAP1 REVERT JUMPDEST DUP2 DUP2 PUSH1 0x40 MLOAD PUSH32 0x177E802F00000000000000000000000000000000000000000000000000000000 DUP2 MSTORE PUSH1 0x4 ADD PUSH2 0x22C9 SWAP3 SWAP2 SWAP1 PUSH2 0x3A7D JUMP JUMPDEST PUSH1 0x40 MLOAD DUP1 SWAP2 SUB SWAP1 REVERT JUMPDEST POP POP POP JUMP JUMPDEST PUSH2 0x22E1 DUP4 DUP4 PUSH2 0x257C JUMP JUMPDEST PUSH2 0x22F6 PUSH2 0x22EC PUSH2 0x17D8 JUMP JUMPDEST PUSH1 0x0 DUP6 DUP6 DUP6 PUSH2 0x1CE6 JUMP JUMPDEST POP POP POP JUMP JUMPDEST PUSH1 0x0 DUP1 PUSH1 0x0 PUSH1 0x41 DUP5 MLOAD SUB PUSH2 0x2340 JUMPI PUSH1 0x0 DUP1 PUSH1 0x0 PUSH1 0x20 DUP8 ADD MLOAD SWAP3 POP PUSH1 0x40 DUP8 ADD MLOAD SWAP2 POP PUSH1 0x60 DUP8 ADD MLOAD PUSH1 0x0 BYTE SWAP1 POP PUSH2 0x2332 DUP9 DUP3 DUP6 DUP6 PUSH2 0x2675 JUMP JUMPDEST SWAP6 POP SWAP6 POP SWAP6 POP POP POP POP PUSH2 0x2350 JUMP JUMPDEST PUSH1 0x0 PUSH1 0x2 DUP6 MLOAD PUSH1 0x0 SHL SWAP3 POP SWAP3 POP SWAP3 POP JUMPDEST SWAP3 POP SWAP3 POP SWAP3 JUMP JUMPDEST PUSH1 0x0 PUSH1 0x3 DUP2 GT ISZERO PUSH2 0x236B JUMPI PUSH2 0x236A PUSH2 0x3AA6 JUMP JUMPDEST JUMPDEST DUP3 PUSH1 0x3 DUP2 GT ISZERO PUSH2 0x237E JUMPI PUSH2 0x237D PUSH2 0x3AA6 JUMP JUMPDEST JUMPDEST SUB ISZERO PUSH2 0x24B7 JUMPI PUSH1 0x1 PUSH1 0x3 DUP2 GT ISZERO PUSH2 0x2398 JUMPI PUSH2 0x2397 PUSH2 0x3AA6 JUMP JUMPDEST JUMPDEST DUP3 PUSH1 0x3 DUP2 GT ISZERO PUSH2 0x23AB JUMPI PUSH2 0x23AA PUSH2 0x3AA6 JUMP JUMPDEST JUMPDEST SUB PUSH2 0x23E2 JUMPI PUSH1 0x40 MLOAD PUSH32 0xF645EEDF00000000000000000000000000000000000000000000000000000000 DUP2 MSTORE PUSH1 0x4 ADD PUSH1 0x40 MLOAD DUP1 SWAP2 SUB SWAP1 REVERT JUMPDEST PUSH1 0x2 PUSH1 0x3 DUP2 GT ISZERO PUSH2 0x23F6 JUMPI PUSH2 0x23F5 PUSH2 0x3AA6 JUMP JUMPDEST JUMPDEST DUP3 PUSH1 0x3 DUP2 GT ISZERO PUSH2 0x2409 JUMPI PUSH2 0x2408 PUSH2 0x3AA6 JUMP JUMPDEST JUMPDEST SUB PUSH2 0x244E JUMPI DUP1 PUSH1 0x0 SHR PUSH1 0x40 MLOAD PUSH32 0xFCE698F700000000000000000000000000000000000000000000000000000000 DUP2 MSTORE PUSH1 0x4 ADD PUSH2 0x2445 SWAP2 SWAP1 PUSH2 0x2AA4 JUMP JUMPDEST PUSH1 0x40 MLOAD DUP1 SWAP2 SUB SWAP1 REVERT JUMPDEST PUSH1 0x3 DUP1 DUP2 GT ISZERO PUSH2 0x2461 JUMPI PUSH2 0x2460 PUSH2 0x3AA6 JUMP JUMPDEST JUMPDEST DUP3 PUSH1 0x3 DUP2 GT ISZERO PUSH2 0x2474 JUMPI PUSH2 0x2473 PUSH2 0x3AA6 JUMP JUMPDEST JUMPDEST SUB PUSH2 0x24B6 JUMPI DUP1 PUSH1 0x40 MLOAD PUSH32 0xD78BCE0C00000000000000000000000000000000000000000000000000000000 DUP2 MSTORE PUSH1 0x4 ADD PUSH2 0x24AD SWAP2 SWAP1 PUSH2 0x3AEE JUMP JUMPDEST PUSH1 0x40 MLOAD DUP1 SWAP2 SUB SWAP1 REVERT JUMPDEST JUMPDEST POP POP JUMP JUMPDEST PUSH1 0x0 DUP1 PUSH20 0xFFFFFFFFFFFFFFFFFFFFFFFFFFFFFFFFFFFFFFFF AND DUP4 PUSH20 0xFFFFFFFFFFFFFFFFFFFFFFFFFFFFFFFFFFFFFFFF AND EQ ISZERO DUP1 ISZERO PUSH2 0x2573 JUMPI POP DUP3 PUSH20 0xFFFFFFFFFFFFFFFFFFFFFFFFFFFFFFFFFFFFFFFF AND DUP5 PUSH20 0xFFFFFFFFFFFFFFFFFFFFFFFFFFFFFFFFFFFFFFFF AND EQ DUP1 PUSH2 0x2534 JUMPI POP PUSH2 0x2533 DUP5 DUP5 PUSH2 0x138A JUMP JUMPDEST JUMPDEST DUP1 PUSH2 0x2572 JUMPI POP DUP3 PUSH20 0xFFFFFFFFFFFFFFFFFFFFFFFFFFFFFFFFFFFFFFFF AND PUSH2 0x255A DUP4 PUSH2 0x179B JUMP JUMPDEST PUSH20 0xFFFFFFFFFFFFFFFFFFFFFFFFFFFFFFFFFFFFFFFF AND EQ JUMPDEST JUMPDEST SWAP1 POP SWAP4 SWAP3 POP POP POP JUMP JUMPDEST PUSH1 0x0 PUSH20 0xFFFFFFFFFFFFFFFFFFFFFFFFFFFFFFFFFFFFFFFF AND DUP3 PUSH20 0xFFFFFFFFFFFFFFFFFFFFFFFFFFFFFFFFFFFFFFFF AND SUB PUSH2 0x25EE JUMPI PUSH1 0x0 PUSH1 0x40 MLOAD PUSH32 0x64A0AE9200000000000000000000000000000000000000000000000000000000 DUP2 MSTORE PUSH1 0x4 ADD PUSH2 0x25E5 SWAP2 SWAP1 PUSH2 0x298E JUMP JUMPDEST PUSH1 0x40 MLOAD DUP1 SWAP2 SUB SWAP1 REVERT JUMPDEST PUSH1 0x0 PUSH2 0x25FC DUP4 DUP4 PUSH1 0x0 PUSH2 0x17F2 JUMP JUMPDEST SWAP1 POP PUSH1 0x0 PUSH20 0xFFFFFFFFFFFFFFFFFFFFFFFFFFFFFFFFFFFFFFFF AND DUP2 PUSH20 0xFFFFFFFFFFFFFFFFFFFFFFFFFFFFFFFFFFFFFFFF AND EQ PUSH2 0x2670 JUMPI PUSH1 0x0 PUSH1 0x40 MLOAD PUSH32 0x73C6AC6E00000000000000000000000000000000000000000000000000000000 DUP2 MSTORE PUSH1 0x4 ADD PUSH2 0x2667 SWAP2 SWAP1 PUSH2 0x298E JUMP JUMPDEST PUSH1 0x40 MLOAD DUP1 SWAP2 SUB SWAP1 REVERT JUMPDEST POP POP POP JUMP JUMPDEST PUSH1 0x0 DUP1 PUSH1 0x0 PUSH32 0x7FFFFFFFFFFFFFFFFFFFFFFFFFFFFFFF5D576E7357A4501DDFE92F46681B20A0 DUP5 PUSH1 0x0 SHR GT ISZERO PUSH2 0x26B5 JUMPI PUSH1 0x0 PUSH1 0x3 DUP6 SWAP3 POP SWAP3 POP SWAP3 POP PUSH2 0x275F JUMP JUMPDEST PUSH1 0x0 PUSH1 0x1 DUP9 DUP9 DUP9 DUP9 PUSH1 0x40 MLOAD PUSH1 0x0 DUP2 MSTORE PUSH1 0x20 ADD PUSH1 0x40 MSTORE PUSH1 0x40 MLOAD PUSH2 0x26DA SWAP5 SWAP4 SWAP3 SWAP2 SWAP1 PUSH2 0x3B09 JUMP JUMPDEST PUSH1 0x20 PUSH1 0x40 MLOAD PUSH1 0x20 DUP2 SUB SWAP1 DUP1 DUP5 SUB SWAP1 DUP6 GAS STATICCALL ISZERO DUP1 ISZERO PUSH2 0x26FC JUMPI RETURNDATASIZE PUSH1 0x0 DUP1 RETURNDATACOPY RETURNDATASIZE PUSH1 0x0 REVERT JUMPDEST POP POP POP PUSH1 0x20 PUSH1 0x40 MLOAD SUB MLOAD SWAP1 POP PUSH1 0x0 PUSH20 0xFFFFFFFFFFFFFFFFFFFFFFFFFFFFFFFFFFFFFFFF AND DUP2 PUSH20 0xFFFFFFFFFFFFFFFFFFFFFFFFFFFFFFFFFFFFFFFF AND SUB PUSH2 0x2750 JUMPI PUSH1 0x0 PUSH1 0x1 PUSH1 0x0 DUP1 SHL SWAP4 POP SWAP4 POP SWAP4 POP POP PUSH2 0x275F JUMP JUMPDEST DUP1 PUSH1 0x0 DUP1 PUSH1 0x0 SHL SWAP4 POP SWAP4 POP SWAP4 POP POP JUMPDEST SWAP5 POP SWAP5 POP SWAP5 SWAP2 POP POP JUMP JUMPDEST PUSH1 0x0 PUSH1 0x40 MLOAD SWAP1 POP SWAP1 JUMP JUMPDEST PUSH1 0x0 DUP1 REVERT JUMPDEST PUSH1 0x0 DUP1 REVERT JUMPDEST PUSH1 0x0 PUSH32 0xFFFFFFFF00000000000000000000000000000000000000000000000000000000 DUP3 AND SWAP1 POP SWAP2 SWAP1 POP JUMP JUMPDEST PUSH2 0x27B2 DUP2 PUSH2 0x277D JUMP JUMPDEST DUP2 EQ PUSH2 0x27BD JUMPI PUSH1 0x0 DUP1 REVERT JUMPDEST POP JUMP JUMPDEST PUSH1 0x0 DUP2 CALLDATALOAD SWAP1 POP PUSH2 0x27CF DUP2 PUSH2 0x27A9 JUMP JUMPDEST SWAP3 SWAP2 POP POP JUMP JUMPDEST PUSH1 0x0 PUSH1 0x20 DUP3 DUP5 SUB SLT ISZERO PUSH2 0x27EB JUMPI PUSH2 0x27EA PUSH2 0x2773 JUMP JUMPDEST JUMPDEST PUSH1 0x0 PUSH2 0x27F9 DUP5 DUP3 DUP6 ADD PUSH2 0x27C0 JUMP JUMPDEST SWAP2 POP POP SWAP3 SWAP2 POP POP JUMP JUMPDEST PUSH1 0x0 DUP2 ISZERO ISZERO SWAP1 POP SWAP2 SWAP1 POP JUMP JUMPDEST PUSH2 0x2817 DUP2 PUSH2 0x2802 JUMP JUMPDEST DUP3 MSTORE POP POP JUMP JUMPDEST PUSH1 0x0 PUSH1 0x20 DUP3 ADD SWAP1 POP PUSH2 0x2832 PUSH1 0x0 DUP4 ADD DUP5 PUSH2 0x280E JUMP JUMPDEST SWAP3 SWAP2 POP POP JUMP JUMPDEST PUSH1 0x0 DUP2 MLOAD SWAP1 POP SWAP2 SWAP1 POP JUMP JUMPDEST PUSH1 0x0 DUP3 DUP3 MSTORE PUSH1 0x20 DUP3 ADD SWAP1 POP SWAP3 SWAP2 POP POP JUMP JUMPDEST PUSH1 0x0 JUMPDEST DUP4 DUP2 LT ISZERO PUSH2 0x2872 JUMPI DUP1 DUP3 ADD MLOAD DUP2 DUP5 ADD MSTORE PUSH1 0x20 DUP2 ADD SWAP1 POP PUSH2 0x2857 JUMP JUMPDEST PUSH1 0x0 DUP5 DUP5 ADD MSTORE POP POP POP POP JUMP JUMPDEST PUSH1 0x0 PUSH1 0x1F NOT PUSH1 0x1F DUP4 ADD AND SWAP1 POP SWAP2 SWAP1 POP JUMP JUMPDEST PUSH1 0x0 PUSH2 0x289A DUP3 PUSH2 0x2838 JUMP JUMPDEST PUSH2 0x28A4 DUP2 DUP6 PUSH2 0x2843 JUMP JUMPDEST SWAP4 POP PUSH2 0x28B4 DUP2 DUP6 PUSH1 0x20 DUP7 ADD PUSH2 0x2854 JUMP JUMPDEST PUSH2 0x28BD DUP2 PUSH2 0x287E JUMP JUMPDEST DUP5 ADD SWAP2 POP POP SWAP3 SWAP2 POP POP JUMP JUMPDEST PUSH1 0x0 PUSH1 0x20 DUP3 ADD SWAP1 POP DUP2 DUP2 SUB PUSH1 0x0 DUP4 ADD MSTORE PUSH2 0x28E2 DUP2 DUP5 PUSH2 0x288F JUMP JUMPDEST SWAP1 POP SWAP3 SWAP2 POP POP JUMP JUMPDEST PUSH1 0x0 DUP2 SWAP1 POP SWAP2 SWAP1 POP JUMP JUMPDEST PUSH2 0x28FD DUP2 PUSH2 0x28EA JUMP JUMPDEST DUP2 EQ PUSH2 0x2908 JUMPI PUSH1 0x0 DUP1 REVERT JUMPDEST POP JUMP JUMPDEST PUSH1 0x0 DUP2 CALLDATALOAD SWAP1 POP PUSH2 0x291A DUP2 PUSH2 0x28F4 JUMP JUMPDEST SWAP3 SWAP2 POP POP JUMP JUMPDEST PUSH1 0x0 PUSH1 0x20 DUP3 DUP5 SUB SLT ISZERO PUSH2 0x2936 JUMPI PUSH2 0x2935 PUSH2 0x2773 JUMP JUMPDEST JUMPDEST PUSH1 0x0 PUSH2 0x2944 DUP5 DUP3 DUP6 ADD PUSH2 0x290B JUMP JUMPDEST SWAP2 POP POP SWAP3 SWAP2 POP POP JUMP JUMPDEST PUSH1 0x0 PUSH20 0xFFFFFFFFFFFFFFFFFFFFFFFFFFFFFFFFFFFFFFFF DUP3 AND SWAP1 POP SWAP2 SWAP1 POP JUMP JUMPDEST PUSH1 0x0 PUSH2 0x2978 DUP3 PUSH2 0x294D JUMP JUMPDEST SWAP1 POP SWAP2 SWAP1 POP JUMP JUMPDEST PUSH2 0x2988 DUP2 PUSH2 0x296D JUMP JUMPDEST DUP3 MSTORE POP POP JUMP JUMPDEST PUSH1 0x0 PUSH1 0x20 DUP3 ADD SWAP1 POP PUSH2 0x29A3 PUSH1 0x0 DUP4 ADD DUP5 PUSH2 0x297F JUMP JUMPDEST SWAP3 SWAP2 POP POP JUMP JUMPDEST PUSH2 0x29B2 DUP2 PUSH2 0x296D JUMP JUMPDEST DUP2 EQ PUSH2 0x29BD JUMPI PUSH1 0x0 DUP1 REVERT JUMPDEST POP JUMP JUMPDEST PUSH1 0x0 DUP2 CALLDATALOAD SWAP1 POP PUSH2 0x29CF DUP2 PUSH2 0x29A9 JUMP JUMPDEST SWAP3 SWAP2 POP POP JUMP JUMPDEST PUSH1 0x0 DUP1 PUSH1 0x40 DUP4 DUP6 SUB SLT ISZERO PUSH2 0x29EC JUMPI PUSH2 0x29EB PUSH2 0x2773 JUMP JUMPDEST JUMPDEST PUSH1 0x0 PUSH2 0x29FA DUP6 DUP3 DUP7 ADD PUSH2 0x29C0 JUMP JUMPDEST SWAP3 POP POP PUSH1 0x20 PUSH2 0x2A0B DUP6 DUP3 DUP7 ADD PUSH2 0x290B JUMP JUMPDEST SWAP2 POP POP SWAP3 POP SWAP3 SWAP1 POP JUMP JUMPDEST PUSH1 0x0 PUSH1 0x20 DUP3 DUP5 SUB SLT ISZERO PUSH2 0x2A2B JUMPI PUSH2 0x2A2A PUSH2 0x2773 JUMP JUMPDEST JUMPDEST PUSH1 0x0 PUSH2 0x2A39 DUP5 DUP3 DUP6 ADD PUSH2 0x29C0 JUMP JUMPDEST SWAP2 POP POP SWAP3 SWAP2 POP POP JUMP JUMPDEST PUSH1 0x0 DUP1 PUSH1 0x0 PUSH1 0x60 DUP5 DUP7 SUB SLT ISZERO PUSH2 0x2A5B JUMPI PUSH2 0x2A5A PUSH2 0x2773 JUMP JUMPDEST JUMPDEST PUSH1 0x0 PUSH2 0x2A69 DUP7 DUP3 DUP8 ADD PUSH2 0x29C0 JUMP JUMPDEST SWAP4 POP POP PUSH1 0x20 PUSH2 0x2A7A DUP7 DUP3 DUP8 ADD PUSH2 0x29C0 JUMP JUMPDEST SWAP3 POP POP PUSH1 0x40 PUSH2 0x2A8B DUP7 DUP3 DUP8 ADD PUSH2 0x290B JUMP JUMPDEST SWAP2 POP POP SWAP3 POP SWAP3 POP SWAP3 JUMP JUMPDEST PUSH2 0x2A9E DUP2 PUSH2 0x28EA JUMP JUMPDEST DUP3 MSTORE POP POP JUMP JUMPDEST PUSH1 0x0 PUSH1 0x20 DUP3 ADD SWAP1 POP PUSH2 0x2AB9 PUSH1 0x0 DUP4 ADD DUP5 PUSH2 0x2A95 JUMP JUMPDEST SWAP3 SWAP2 POP POP JUMP JUMPDEST PUSH1 0x0 PUSH2 0x2ACA DUP3 PUSH2 0x294D JUMP JUMPDEST SWAP1 POP SWAP2 SWAP1 POP JUMP JUMPDEST PUSH2 0x2ADA DUP2 PUSH2 0x2ABF JUMP JUMPDEST DUP2 EQ PUSH2 0x2AE5 JUMPI PUSH1 0x0 DUP1 REVERT JUMPDEST POP JUMP JUMPDEST PUSH1 0x0 DUP2 CALLDATALOAD SWAP1 POP PUSH2 0x2AF7 DUP2 PUSH2 0x2AD1 JUMP JUMPDEST SWAP3 SWAP2 POP POP JUMP JUMPDEST PUSH1 0x0 PUSH1 0x20 DUP3 DUP5 SUB SLT ISZERO PUSH2 0x2B13 JUMPI PUSH2 0x2B12 PUSH2 0x2773 JUMP JUMPDEST JUMPDEST PUSH1 0x0 PUSH2 0x2B21 DUP5 DUP3 DUP6 ADD PUSH2 0x2AE8 JUMP JUMPDEST SWAP2 POP POP SWAP3 SWAP2 POP POP JUMP JUMPDEST PUSH1 0x0 DUP1 REVERT JUMPDEST PUSH1 0x0 DUP1 REVERT JUMPDEST PUSH32 0x4E487B7100000000000000000000000000000000000000000000000000000000 PUSH1 0x0 MSTORE PUSH1 0x41 PUSH1 0x4 MSTORE PUSH1 0x24 PUSH1 0x0 REVERT JUMPDEST PUSH2 0x2B6C DUP3 PUSH2 0x287E JUMP JUMPDEST DUP2 ADD DUP2 DUP2 LT PUSH8 0xFFFFFFFFFFFFFFFF DUP3 GT OR ISZERO PUSH2 0x2B8B JUMPI PUSH2 0x2B8A PUSH2 0x2B34 JUMP JUMPDEST JUMPDEST DUP1 PUSH1 0x40 MSTORE POP POP POP JUMP JUMPDEST PUSH1 0x0 PUSH2 0x2B9E PUSH2 0x2769 JUMP JUMPDEST SWAP1 POP PUSH2 0x2BAA DUP3 DUP3 PUSH2 0x2B63 JUMP JUMPDEST SWAP2 SWAP1 POP JUMP JUMPDEST PUSH1 0x0 PUSH8 0xFFFFFFFFFFFFFFFF DUP3 GT ISZERO PUSH2 0x2BCA JUMPI PUSH2 0x2BC9 PUSH2 0x2B34 JUMP JUMPDEST JUMPDEST PUSH2 0x2BD3 DUP3 PUSH2 0x287E JUMP JUMPDEST SWAP1 POP PUSH1 0x20 DUP2 ADD SWAP1 POP SWAP2 SWAP1 POP JUMP JUMPDEST DUP3 DUP2 DUP4 CALLDATACOPY PUSH1 0x0 DUP4 DUP4 ADD MSTORE POP POP POP JUMP JUMPDEST PUSH1 0x0 PUSH2 0x2C02 PUSH2 0x2BFD DUP5 PUSH2 0x2BAF JUMP JUMPDEST PUSH2 0x2B94 JUMP JUMPDEST SWAP1 POP DUP3 DUP2 MSTORE PUSH1 0x20 DUP2 ADD DUP5 DUP5 DUP5 ADD GT ISZERO PUSH2 0x2C1E JUMPI PUSH2 0x2C1D PUSH2 0x2B2F JUMP JUMPDEST JUMPDEST PUSH2 0x2C29 DUP5 DUP3 DUP6 PUSH2 0x2BE0 JUMP JUMPDEST POP SWAP4 SWAP3 POP POP POP JUMP JUMPDEST PUSH1 0x0 DUP3 PUSH1 0x1F DUP4 ADD SLT PUSH2 0x2C46 JUMPI PUSH2 0x2C45 PUSH2 0x2B2A JUMP JUMPDEST JUMPDEST DUP2 CALLDATALOAD PUSH2 0x2C56 DUP5 DUP3 PUSH1 0x20 DUP7 ADD PUSH2 0x2BEF JUMP JUMPDEST SWAP2 POP POP SWAP3 SWAP2 POP POP JUMP JUMPDEST PUSH1 0x0 PUSH1 0x20 DUP3 DUP5 SUB SLT ISZERO PUSH2 0x2C75 JUMPI PUSH2 0x2C74 PUSH2 0x2773 JUMP JUMPDEST JUMPDEST PUSH1 0x0 DUP3 ADD CALLDATALOAD PUSH8 0xFFFFFFFFFFFFFFFF DUP2 GT ISZERO PUSH2 0x2C93 JUMPI PUSH2 0x2C92 PUSH2 0x2778 JUMP JUMPDEST JUMPDEST PUSH2 0x2C9F DUP5 DUP3 DUP6 ADD PUSH2 0x2C31 JUMP JUMPDEST SWAP2 POP POP SWAP3 SWAP2 POP POP JUMP JUMPDEST PUSH2 0x2CB1 DUP2 PUSH2 0x2802 JUMP JUMPDEST DUP2 EQ PUSH2 0x2CBC JUMPI PUSH1 0x0 DUP1 REVERT JUMPDEST POP JUMP JUMPDEST PUSH1 0x0 DUP2 CALLDATALOAD SWAP1 POP PUSH2 0x2CCE DUP2 PUSH2 0x2CA8 JUMP JUMPDEST SWAP3 SWAP2 POP POP JUMP JUMPDEST PUSH1 0x0 DUP1 PUSH1 0x40 DUP4 DUP6 SUB SLT ISZERO PUSH2 0x2CEB JUMPI PUSH2 0x2CEA PUSH2 0x2773 JUMP JUMPDEST JUMPDEST PUSH1 0x0 PUSH2 0x2CF9 DUP6 DUP3 DUP7 ADD PUSH2 0x29C0 JUMP JUMPDEST SWAP3 POP POP PUSH1 0x20 PUSH2 0x2D0A DUP6 DUP3 DUP7 ADD PUSH2 0x2CBF JUMP JUMPDEST SWAP2 POP POP SWAP3 POP SWAP3 SWAP1 POP JUMP JUMPDEST PUSH1 0x0 PUSH8 0xFFFFFFFFFFFFFFFF DUP3 GT ISZERO PUSH2 0x2D2F JUMPI PUSH2 0x2D2E PUSH2 0x2B34 JUMP JUMPDEST JUMPDEST PUSH2 0x2D38 DUP3 PUSH2 0x287E JUMP JUMPDEST SWAP1 POP PUSH1 0x20 DUP2 ADD SWAP1 POP SWAP2 SWAP1 POP JUMP JUMPDEST PUSH1 0x0 PUSH2 0x2D58 PUSH2 0x2D53 DUP5 PUSH2 0x2D14 JUMP JUMPDEST PUSH2 0x2B94 JUMP JUMPDEST SWAP1 POP DUP3 DUP2 MSTORE PUSH1 0x20 DUP2 ADD DUP5 DUP5 DUP5 ADD GT ISZERO PUSH2 0x2D74 JUMPI PUSH2 0x2D73 PUSH2 0x2B2F JUMP JUMPDEST JUMPDEST PUSH2 0x2D7F DUP5 DUP3 DUP6 PUSH2 0x2BE0 JUMP JUMPDEST POP SWAP4 SWAP3 POP POP POP JUMP JUMPDEST PUSH1 0x0 DUP3 PUSH1 0x1F DUP4 ADD SLT PUSH2 0x2D9C JUMPI PUSH2 0x2D9B PUSH2 0x2B2A JUMP JUMPDEST JUMPDEST DUP2 CALLDATALOAD PUSH2 0x2DAC DUP5 DUP3 PUSH1 0x20 DUP7 ADD PUSH2 0x2D45 JUMP JUMPDEST SWAP2 POP POP SWAP3 SWAP2 POP POP JUMP JUMPDEST PUSH1 0x0 DUP1 PUSH1 0x0 DUP1 PUSH1 0x80 DUP6 DUP8 SUB SLT ISZERO PUSH2 0x2DCF JUMPI PUSH2 0x2DCE PUSH2 0x2773 JUMP JUMPDEST JUMPDEST PUSH1 0x0 PUSH2 0x2DDD DUP8 DUP3 DUP9 ADD PUSH2 0x29C0 JUMP JUMPDEST SWAP5 POP POP PUSH1 0x20 PUSH2 0x2DEE DUP8 DUP3 DUP9 ADD PUSH2 0x29C0 JUMP JUMPDEST SWAP4 POP POP PUSH1 0x40 PUSH2 0x2DFF DUP8 DUP3 DUP9 ADD PUSH2 0x290B JUMP JUMPDEST SWAP3 POP POP PUSH1 0x60 DUP6 ADD CALLDATALOAD PUSH8 0xFFFFFFFFFFFFFFFF DUP2 GT ISZERO PUSH2 0x2E20 JUMPI PUSH2 0x2E1F PUSH2 0x2778 JUMP JUMPDEST JUMPDEST PUSH2 0x2E2C DUP8 DUP3 DUP9 ADD PUSH2 0x2D87 JUMP JUMPDEST SWAP2 POP POP SWAP3 SWAP6 SWAP2 SWAP5 POP SWAP3 POP JUMP JUMPDEST PUSH1 0x0 DUP1 REVERT JUMPDEST PUSH1 0x0 DUP1 REVERT JUMPDEST PUSH1 0x0 DUP1 DUP4 PUSH1 0x1F DUP5 ADD SLT PUSH2 0x2E58 JUMPI PUSH2 0x2E57 PUSH2 0x2B2A JUMP JUMPDEST JUMPDEST DUP3 CALLDATALOAD SWAP1 POP PUSH8 0xFFFFFFFFFFFFFFFF DUP2 GT ISZERO PUSH2 0x2E75 JUMPI PUSH2 0x2E74 PUSH2 0x2E38 JUMP JUMPDEST JUMPDEST PUSH1 0x20 DUP4 ADD SWAP2 POP DUP4 PUSH1 0x1 DUP3 MUL DUP4 ADD GT ISZERO PUSH2 0x2E91 JUMPI PUSH2 0x2E90 PUSH2 0x2E3D JUMP JUMPDEST JUMPDEST SWAP3 POP SWAP3 SWAP1 POP JUMP JUMPDEST PUSH1 0x0 DUP1 PUSH1 0x20 DUP4 DUP6 SUB SLT ISZERO PUSH2 0x2EAF JUMPI PUSH2 0x2EAE PUSH2 0x2773 JUMP JUMPDEST JUMPDEST PUSH1 0x0 DUP4 ADD CALLDATALOAD PUSH8 0xFFFFFFFFFFFFFFFF DUP2 GT ISZERO PUSH2 0x2ECD JUMPI PUSH2 0x2ECC PUSH2 0x2778 JUMP JUMPDEST JUMPDEST PUSH2 0x2ED9 DUP6 DUP3 DUP7 ADD PUSH2 0x2E42 JUMP JUMPDEST SWAP3 POP SWAP3 POP POP SWAP3 POP SWAP3 SWAP1 POP JUMP JUMPDEST PUSH1 0x0 PUSH1 0xFF DUP3 AND SWAP1 POP SWAP2 SWAP1 POP JUMP JUMPDEST PUSH2 0x2EFB DUP2 PUSH2 0x2EE5 JUMP JUMPDEST DUP3 MSTORE POP POP JUMP JUMPDEST PUSH1 0x0 PUSH1 0x20 DUP3 ADD SWAP1 POP PUSH2 0x2F16 PUSH1 0x0 DUP4 ADD DUP5 PUSH2 0x2EF2 JUMP JUMPDEST SWAP3 SWAP2 POP POP JUMP JUMPDEST PUSH1 0x0 DUP1 PUSH1 0x40 DUP4 DUP6 SUB SLT ISZERO PUSH2 0x2F33 JUMPI PUSH2 0x2F32 PUSH2 0x2773 JUMP JUMPDEST JUMPDEST PUSH1 0x0 PUSH2 0x2F41 DUP6 DUP3 DUP7 ADD PUSH2 0x29C0 JUMP JUMPDEST SWAP3 POP POP PUSH1 0x20 PUSH2 0x2F52 DUP6 DUP3 DUP7 ADD PUSH2 0x29C0 JUMP JUMPDEST SWAP2 POP POP SWAP3 POP SWAP3 SWAP1 POP JUMP JUMPDEST PUSH2 0x2F65 DUP2 PUSH2 0x2EE5 JUMP JUMPDEST DUP2 EQ PUSH2 0x2F70 JUMPI PUSH1 0x0 DUP1 REVERT JUMPDEST POP JUMP JUMPDEST PUSH1 0x0 DUP2 CALLDATALOAD SWAP1 POP PUSH2 0x2F82 DUP2 PUSH2 0x2F5C JUMP JUMPDEST SWAP3 SWAP2 POP POP JUMP JUMPDEST PUSH1 0x0 DUP1 PUSH1 0x40 DUP4 DUP6 SUB SLT ISZERO PUSH2 0x2F9F JUMPI PUSH2 0x2F9E PUSH2 0x2773 JUMP JUMPDEST JUMPDEST PUSH1 0x0 PUSH2 0x2FAD DUP6 DUP3 DUP7 ADD PUSH2 0x290B JUMP JUMPDEST SWAP3 POP POP PUSH1 0x20 PUSH2 0x2FBE DUP6 DUP3 DUP7 ADD PUSH2 0x2F73 JUMP JUMPDEST SWAP2 POP POP SWAP3 POP SWAP3 SWAP1 POP JUMP JUMPDEST PUSH32 0x4E487B7100000000000000000000000000000000000000000000000000000000 PUSH1 0x0 MSTORE PUSH1 0x22 PUSH1 0x4 MSTORE PUSH1 0x24 PUSH1 0x0 REVERT JUMPDEST PUSH1 0x0 PUSH1 0x2 DUP3 DIV SWAP1 POP PUSH1 0x1 DUP3 AND DUP1 PUSH2 0x300F JUMPI PUSH1 0x7F DUP3 AND SWAP2 POP JUMPDEST PUSH1 0x20 DUP3 LT DUP2 SUB PUSH2 0x3022 JUMPI PUSH2 0x3021 PUSH2 0x2FC8 JUMP JUMPDEST JUMPDEST POP SWAP2 SWAP1 POP JUMP JUMPDEST PUSH1 0x0 PUSH1 0x60 DUP3 ADD SWAP1 POP PUSH2 0x303D PUSH1 0x0 DUP4 ADD DUP7 PUSH2 0x297F JUMP JUMPDEST PUSH2 0x304A PUSH1 0x20 DUP4 ADD DUP6 PUSH2 0x2A95 JUMP JUMPDEST PUSH2 0x3057 PUSH1 0x40 DUP4 ADD DUP5 PUSH2 0x297F JUMP JUMPDEST SWAP5 SWAP4 POP POP POP POP JUMP JUMPDEST PUSH32 0x696E76616C696420717479000000000000000000000000000000000000000000 PUSH1 0x0 DUP3 ADD MSTORE POP JUMP JUMPDEST PUSH1 0x0 PUSH2 0x3095 PUSH1 0xB DUP4 PUSH2 0x2843 JUMP JUMPDEST SWAP2 POP PUSH2 0x30A0 DUP3 PUSH2 0x305F JUMP JUMPDEST PUSH1 0x20 DUP3 ADD SWAP1 POP SWAP2 SWAP1 POP JUMP JUMPDEST PUSH1 0x0 PUSH1 0x20 DUP3 ADD SWAP1 POP DUP2 DUP2 SUB PUSH1 0x0 DUP4 ADD MSTORE PUSH2 0x30C4 DUP2 PUSH2 0x3088 JUMP JUMPDEST SWAP1 POP SWAP2 SWAP1 POP JUMP JUMPDEST PUSH32 0x4E487B7100000000000000000000000000000000000000000000000000000000 PUSH1 0x0 MSTORE PUSH1 0x11 PUSH1 0x4 MSTORE PUSH1 0x24 PUSH1 0x0 REVERT JUMPDEST PUSH1 0x0 PUSH2 0x3105 DUP3 PUSH2 0x28EA JUMP JUMPDEST SWAP2 POP PUSH2 0x3110 DUP4 PUSH2 0x28EA JUMP JUMPDEST SWAP3 POP DUP3 DUP3 ADD SWAP1 POP DUP1 DUP3 GT ISZERO PUSH2 0x3128 JUMPI PUSH2 0x3127 PUSH2 0x30CB JUMP JUMPDEST JUMPDEST SWAP3 SWAP2 POP POP JUMP JUMPDEST PUSH32 0x7075626C696320736F6C64206F75740000000000000000000000000000000000 PUSH1 0x0 DUP3 ADD MSTORE POP JUMP JUMPDEST PUSH1 0x0 PUSH2 0x3164 PUSH1 0xF DUP4 PUSH2 0x2843 JUMP JUMPDEST SWAP2 POP PUSH2 0x316F DUP3 PUSH2 0x312E JUMP JUMPDEST PUSH1 0x20 DUP3 ADD SWAP1 POP SWAP2 SWAP1 POP JUMP JUMPDEST PUSH1 0x0 PUSH1 0x20 DUP3 ADD SWAP1 POP DUP2 DUP2 SUB PUSH1 0x0 DUP4 ADD MSTORE PUSH2 0x3193 DUP2 PUSH2 0x3157 JUMP JUMPDEST SWAP1 POP SWAP2 SWAP1 POP JUMP JUMPDEST PUSH1 0x0 PUSH2 0x31A5 DUP3 PUSH2 0x28EA JUMP JUMPDEST SWAP2 POP PUSH2 0x31B0 DUP4 PUSH2 0x28EA JUMP JUMPDEST SWAP3 POP DUP3 DUP3 MUL PUSH2 0x31BE DUP2 PUSH2 0x28EA JUMP JUMPDEST SWAP2 POP DUP3 DUP3 DIV DUP5 EQ DUP4 ISZERO OR PUSH2 0x31D5 JUMPI PUSH2 0x31D4 PUSH2 0x30CB JUMP JUMPDEST JUMPDEST POP SWAP3 SWAP2 POP POP JUMP JUMPDEST PUSH32 0x696E636F7272656374207061796D656E74000000000000000000000000000000 PUSH1 0x0 DUP3 ADD MSTORE POP JUMP JUMPDEST PUSH1 0x0 PUSH2 0x3212 PUSH1 0x11 DUP4 PUSH2 0x2843 JUMP JUMPDEST SWAP2 POP PUSH2 0x321D DUP3 PUSH2 0x31DC JUMP JUMPDEST PUSH1 0x20 DUP3 ADD SWAP1 POP SWAP2 SWAP1 POP JUMP JUMPDEST PUSH1 0x0 PUSH1 0x20 DUP3 ADD SWAP1 POP DUP2 DUP2 SUB PUSH1 0x0 DUP4 ADD MSTORE PUSH2 0x3241 DUP2 PUSH2 0x3205 JUMP JUMPDEST SWAP1 POP SWAP2 SWAP1 POP JUMP JUMPDEST PUSH1 0x0 PUSH2 0x3253 DUP3 PUSH2 0x28EA JUMP JUMPDEST SWAP2 POP PUSH32 0xFFFFFFFFFFFFFFFFFFFFFFFFFFFFFFFFFFFFFFFFFFFFFFFFFFFFFFFFFFFFFFFF DUP3 SUB PUSH2 0x3285 JUMPI PUSH2 0x3284 PUSH2 0x30CB JUMP JUMPDEST JUMPDEST PUSH1 0x1 DUP3 ADD SWAP1 POP SWAP2 SWAP1 POP JUMP JUMPDEST PUSH32 0x696E76616C696420616464726573730000000000000000000000000000000000 PUSH1 0x0 DUP3 ADD MSTORE POP JUMP JUMPDEST PUSH1 0x0 PUSH2 0x32C6 PUSH1 0xF DUP4 PUSH2 0x2843 JUMP JUMPDEST SWAP2 POP PUSH2 0x32D1 DUP3 PUSH2 0x3290 JUMP JUMPDEST PUSH1 0x20 DUP3 ADD SWAP1 POP SWAP2 SWAP1 POP JUMP JUMPDEST PUSH1 0x0 PUSH1 0x20 DUP3 ADD SWAP1 POP DUP2 DUP2 SUB PUSH1 0x0 DUP4 ADD MSTORE PUSH2 0x32F5 DUP2 PUSH2 0x32B9 JUMP JUMPDEST SWAP1 POP SWAP2 SWAP1 POP JUMP JUMPDEST PUSH32 0x6E6F2066756E6473000000000000000000000000000000000000000000000000 PUSH1 0x0 DUP3 ADD MSTORE POP JUMP JUMPDEST PUSH1 0x0 PUSH2 0x3332 PUSH1 0x8 DUP4 PUSH2 0x2843 JUMP JUMPDEST SWAP2 POP PUSH2 0x333D DUP3 PUSH2 0x32FC JUMP JUMPDEST PUSH1 0x20 DUP3 ADD SWAP1 POP SWAP2 SWAP1 POP JUMP JUMPDEST PUSH1 0x0 PUSH1 0x20 DUP3 ADD SWAP1 POP DUP2 DUP2 SUB PUSH1 0x0 DUP4 ADD MSTORE PUSH2 0x3361 DUP2 PUSH2 0x3325 JUMP JUMPDEST SWAP1 POP SWAP2 SWAP1 POP JUMP JUMPDEST PUSH1 0x0 DUP2 SWAP1 POP DUP2 PUSH1 0x0 MSTORE PUSH1 0x20 PUSH1 0x0 KECCAK256 SWAP1 POP SWAP2 SWAP1 POP JUMP JUMPDEST PUSH1 0x0 PUSH1 0x20 PUSH1 0x1F DUP4 ADD DIV SWAP1 POP SWAP2 SWAP1 POP JUMP JUMPDEST PUSH1 0x0 DUP3 DUP3 SHL SWAP1 POP SWAP3 SWAP2 POP POP JUMP JUMPDEST PUSH1 0x0 PUSH1 0x8 DUP4 MUL PUSH2 0x33CA PUSH32 0xFFFFFFFFFFFFFFFFFFFFFFFFFFFFFFFFFFFFFFFFFFFFFFFFFFFFFFFFFFFFFFFF DUP3 PUSH2 0x338D JUMP JUMPDEST PUSH2 0x33D4 DUP7 DUP4 PUSH2 0x338D JUMP JUMPDEST SWAP6 POP DUP1 NOT DUP5 AND SWAP4 POP DUP1 DUP7 AND DUP5 OR SWAP3 POP POP POP SWAP4 SWAP3 POP POP POP JUMP JUMPDEST PUSH1 0x0 DUP2 SWAP1 POP SWAP2 SWAP1 POP JUMP JUMPDEST PUSH1 0x0 PUSH2 0x3411 PUSH2 0x340C PUSH2 0x3407 DUP5 PUSH2 0x28EA JUMP JUMPDEST PUSH2 0x33EC JUMP JUMPDEST PUSH2 0x28EA JUMP JUMPDEST SWAP1 POP SWAP2 SWAP1 POP JUMP JUMPDEST PUSH1 0x0 DUP2 SWAP1 POP SWAP2 SWAP1 POP JUMP JUMPDEST PUSH2 0x342B DUP4 PUSH2 0x33F6 JUMP JUMPDEST PUSH2 0x343F PUSH2 0x3437 DUP3 PUSH2 0x3418 JUMP JUMPDEST DUP5 DUP5 SLOAD PUSH2 0x339A JUMP JUMPDEST DUP3 SSTORE POP POP POP POP JUMP JUMPDEST PUSH1 0x0 SWAP1 JUMP JUMPDEST PUSH2 0x3454 PUSH2 0x3447 JUMP JUMPDEST PUSH2 0x345F DUP2 DUP5 DUP5 PUSH2 0x3422 JUMP JUMPDEST POP POP POP JUMP JUMPDEST JUMPDEST DUP2 DUP2 LT ISZERO PUSH2 0x3483 JUMPI PUSH2 0x3478 PUSH1 0x0 DUP3 PUSH2 0x344C JUMP JUMPDEST PUSH1 0x1 DUP2 ADD SWAP1 POP PUSH2 0x3465 JUMP JUMPDEST POP POP JUMP JUMPDEST PUSH1 0x1F DUP3 GT ISZERO PUSH2 0x34C8 JUMPI PUSH2 0x3499 DUP2 PUSH2 0x3368 JUMP JUMPDEST PUSH2 0x34A2 DUP5 PUSH2 0x337D JUMP JUMPDEST DUP2 ADD PUSH1 0x20 DUP6 LT ISZERO PUSH2 0x34B1 JUMPI DUP2 SWAP1 POP JUMPDEST PUSH2 0x34C5 PUSH2 0x34BD DUP6 PUSH2 0x337D JUMP JUMPDEST DUP4 ADD DUP3 PUSH2 0x3464 JUMP JUMPDEST POP POP JUMPDEST POP POP POP JUMP JUMPDEST PUSH1 0x0 DUP3 DUP3 SHR SWAP1 POP SWAP3 SWAP2 POP POP JUMP JUMPDEST PUSH1 0x0 PUSH2 0x34EB PUSH1 0x0 NOT DUP5 PUSH1 0x8 MUL PUSH2 0x34CD JUMP JUMPDEST NOT DUP1 DUP4 AND SWAP2 POP POP SWAP3 SWAP2 POP POP JUMP JUMPDEST PUSH1 0x0 PUSH2 0x3504 DUP4 DUP4 PUSH2 0x34DA JUMP JUMPDEST SWAP2 POP DUP3 PUSH1 0x2 MUL DUP3 OR SWAP1 POP SWAP3 SWAP2 POP POP JUMP JUMPDEST PUSH2 0x351D DUP3 PUSH2 0x2838 JUMP JUMPDEST PUSH8 0xFFFFFFFFFFFFFFFF DUP2 GT ISZERO PUSH2 0x3536 JUMPI PUSH2 0x3535 PUSH2 0x2B34 JUMP JUMPDEST JUMPDEST PUSH2 0x3540 DUP3 SLOAD PUSH2 0x2FF7 JUMP JUMPDEST PUSH2 0x354B DUP3 DUP3 DUP6 PUSH2 0x3487 JUMP JUMPDEST PUSH1 0x0 PUSH1 0x20 SWAP1 POP PUSH1 0x1F DUP4 GT PUSH1 0x1 DUP2 EQ PUSH2 0x357E JUMPI PUSH1 0x0 DUP5 ISZERO PUSH2 0x356C JUMPI DUP3 DUP8 ADD MLOAD SWAP1 POP JUMPDEST PUSH2 0x3576 DUP6 DUP3 PUSH2 0x34F8 JUMP JUMPDEST DUP7 SSTORE POP PUSH2 0x35DE JUMP JUMPDEST PUSH1 0x1F NOT DUP5 AND PUSH2 0x358C DUP7 PUSH2 0x3368 JUMP JUMPDEST PUSH1 0x0 JUMPDEST DUP3 DUP2 LT ISZERO PUSH2 0x35B4 JUMPI DUP5 DUP10 ADD MLOAD DUP3 SSTORE PUSH1 0x1 DUP3 ADD SWAP2 POP PUSH1 0x20 DUP6 ADD SWAP5 POP PUSH1 0x20 DUP2 ADD SWAP1 POP PUSH2 0x358F JUMP JUMPDEST DUP7 DUP4 LT ISZERO PUSH2 0x35D1 JUMPI DUP5 DUP10 ADD MLOAD PUSH2 0x35CD PUSH1 0x1F DUP10 AND DUP3 PUSH2 0x34DA JUMP JUMPDEST DUP4 SSTORE POP JUMPDEST PUSH1 0x1 PUSH1 0x2 DUP9 MUL ADD DUP9 SSTORE POP POP POP JUMPDEST POP POP POP POP POP POP JUMP JUMPDEST PUSH32 0x74727573746564207369676E6572206E6F742073657400000000000000000000 PUSH1 0x0 DUP3 ADD MSTORE POP JUMP JUMPDEST PUSH1 0x0 PUSH2 0x361C PUSH1 0x16 DUP4 PUSH2 0x2843 JUMP JUMPDEST SWAP2 POP PUSH2 0x3627 DUP3 PUSH2 0x35E6 JUMP JUMPDEST PUSH1 0x20 DUP3 ADD SWAP1 POP SWAP2 SWAP1 POP JUMP JUMPDEST PUSH1 0x0 PUSH1 0x20 DUP3 ADD SWAP1 POP DUP2 DUP2 SUB PUSH1 0x0 DUP4 ADD MSTORE PUSH2 0x364B DUP2 PUSH2 0x360F JUMP JUMPDEST SWAP1 POP SWAP2 SWAP1 POP JUMP JUMPDEST PUSH32 0x616C726561647920636C61696D6564206F6E2D636861696E0000000000000000 PUSH1 0x0 DUP3 ADD MSTORE POP JUMP JUMPDEST PUSH1 0x0 PUSH2 0x3688 PUSH1 0x18 DUP4 PUSH2 0x2843 JUMP JUMPDEST SWAP2 POP PUSH2 0x3693 DUP3 PUSH2 0x3652 JUMP JUMPDEST PUSH1 0x20 DUP3 ADD SWAP1 POP SWAP2 SWAP1 POP JUMP JUMPDEST PUSH1 0x0 PUSH1 0x20 DUP3 ADD SWAP1 POP DUP2 DUP2 SUB PUSH1 0x0 DUP4 ADD MSTORE PUSH2 0x36B7 DUP2 PUSH2 0x367B JUMP JUMPDEST SWAP1 POP SWAP2 SWAP1 POP JUMP JUMPDEST PUSH1 0x0 DUP2 PUSH1 0x60 SHL SWAP1 POP SWAP2 SWAP1 POP JUMP JUMPDEST PUSH1 0x0 PUSH2 0x36D6 DUP3 PUSH2 0x36BE JUMP JUMPDEST SWAP1 POP SWAP2 SWAP1 POP JUMP JUMPDEST PUSH1 0x0 PUSH2 0x36E8 DUP3 PUSH2 0x36CB JUMP JUMPDEST SWAP1 POP SWAP2 SWAP1 POP JUMP JUMPDEST PUSH2 0x3700 PUSH2 0x36FB DUP3 PUSH2 0x296D JUMP JUMPDEST PUSH2 0x36DD JUMP JUMPDEST DUP3 MSTORE POP POP JUMP JUMPDEST PUSH1 0x0 DUP2 SWAP1 POP SWAP2 SWAP1 POP JUMP JUMPDEST PUSH2 0x3721 PUSH2 0x371C DUP3 PUSH2 0x28EA JUMP JUMPDEST PUSH2 0x3706 JUMP JUMPDEST DUP3 MSTORE POP POP JUMP JUMPDEST PUSH1 0x0 PUSH2 0x3733 DUP3 DUP7 PUSH2 0x36EF JUMP JUMPDEST PUSH1 0x14 DUP3 ADD SWAP2 POP PUSH2 0x3743 DUP3 DUP6 PUSH2 0x3710 JUMP JUMPDEST PUSH1 0x20 DUP3 ADD SWAP2 POP PUSH2 0x3753 DUP3 DUP5 PUSH2 0x36EF JUMP JUMPDEST PUSH1 0x14 DUP3 ADD SWAP2 POP DUP2 SWAP1 POP SWAP5 SWAP4 POP POP POP POP JUMP JUMPDEST PUSH32 0x696E76616C6964207369676E6174757265000000000000000000000000000000 PUSH1 0x0 DUP3 ADD MSTORE POP JUMP JUMPDEST PUSH1 0x0 PUSH2 0x379A PUSH1 0x11 DUP4 PUSH2 0x2843 JUMP JUMPDEST SWAP2 POP PUSH2 0x37A5 DUP3 PUSH2 0x3764 JUMP JUMPDEST PUSH1 0x20 DUP3 ADD SWAP1 POP SWAP2 SWAP1 POP JUMP JUMPDEST PUSH1 0x0 PUSH1 0x20 DUP3 ADD SWAP1 POP DUP2 DUP2 SUB PUSH1 0x0 DUP4 ADD MSTORE PUSH2 0x37C9 DUP2 PUSH2 0x378D JUMP JUMPDEST SWAP1 POP SWAP2 SWAP1 POP JUMP JUMPDEST PUSH1 0x0 DUP2 SWAP1 POP SWAP3 SWAP2 POP POP JUMP JUMPDEST PUSH1 0x0 PUSH2 0x37E6 DUP3 PUSH2 0x2838 JUMP JUMPDEST PUSH2 0x37F0 DUP2 DUP6 PUSH2 0x37D0 JUMP JUMPDEST SWAP4 POP PUSH2 0x3800 DUP2 DUP6 PUSH1 0x20 DUP7 ADD PUSH2 0x2854 JUMP JUMPDEST DUP1 DUP5 ADD SWAP2 POP POP SWAP3 SWAP2 POP POP JUMP JUMPDEST PUSH1 0x0 PUSH2 0x3818 DUP3 DUP6 PUSH2 0x37DB JUMP JUMPDEST SWAP2 POP PUSH2 0x3824 DUP3 DUP5 PUSH2 0x37DB JUMP JUMPDEST SWAP2 POP DUP2 SWAP1 POP SWAP4 SWAP3 POP POP POP JUMP JUMPDEST PUSH32 0x696E76616C69642076617269616E740000000000000000000000000000000000 PUSH1 0x0 DUP3 ADD MSTORE POP JUMP JUMPDEST PUSH1 0x0 PUSH2 0x3866 PUSH1 0xF DUP4 PUSH2 0x2843 JUMP JUMPDEST SWAP2 POP PUSH2 0x3871 DUP3 PUSH2 0x3830 JUMP JUMPDEST PUSH1 0x20 DUP3 ADD SWAP1 POP SWAP2 SWAP1 POP JUMP JUMPDEST PUSH1 0x0 PUSH1 0x20 DUP3 ADD SWAP1 POP DUP2 DUP2 SUB PUSH1 0x0 DUP4 ADD MSTORE PUSH2 0x3895 DUP2 PUSH2 0x3859 JUMP JUMPDEST SWAP1 POP SWAP2 SWAP1 POP JUMP JUMPDEST PUSH32 0x6E6F74206F776E65720000000000000000000000000000000000000000000000 PUSH1 0x0 DUP3 ADD MSTORE POP JUMP JUMPDEST PUSH1 0x0 PUSH2 0x38D2 PUSH1 0x9 DUP4 PUSH2 0x2843 JUMP JUMPDEST SWAP2 POP PUSH2 0x38DD DUP3 PUSH2 0x389C JUMP JUMPDEST PUSH1 0x20 DUP3 ADD SWAP1 POP SWAP2 SWAP1 POP JUMP JUMPDEST PUSH1 0x0 PUSH1 0x20 DUP3 ADD SWAP1 POP DUP2 DUP2 SUB PUSH1 0x0 DUP4 ADD MSTORE PUSH2 0x3901 DUP2 PUSH2 0x38C5 JUMP JUMPDEST SWAP1 POP SWAP2 SWAP1 POP JUMP JUMPDEST PUSH32 0x6F6E6C79206E65757472616C20746F6B656E732063616E206265207472616E73 PUSH1 0x0 DUP3 ADD MSTORE PUSH32 0x666F726D65640000000000000000000000000000000000000000000000000000 PUSH1 0x20 DUP3 ADD MSTORE POP JUMP JUMPDEST PUSH1 0x0 PUSH2 0x3964 PUSH1 0x26 DUP4 PUSH2 0x2843 JUMP JUMPDEST SWAP2 POP PUSH2 0x396F DUP3 PUSH2 0x3908 JUMP JUMPDEST PUSH1 0x40 DUP3 ADD SWAP1 POP SWAP2 SWAP1 POP JUMP JUMPDEST PUSH1 0x0 PUSH1 0x20 DUP3 ADD SWAP1 POP DUP2 DUP2 SUB PUSH1 0x0 DUP4 ADD MSTORE PUSH2 0x3993 DUP2 PUSH2 0x3957 JUMP JUMPDEST SWAP1 POP SWAP2 SWAP1 POP JUMP JUMPDEST PUSH1 0x0 DUP2 MLOAD SWAP1 POP SWAP2 SWAP1 POP JUMP JUMPDEST PUSH1 0x0 DUP3 DUP3 MSTORE PUSH1 0x20 DUP3 ADD SWAP1 POP SWAP3 SWAP2 POP POP JUMP JUMPDEST PUSH1 0x0 PUSH2 0x39C1 DUP3 PUSH2 0x399A JUMP JUMPDEST PUSH2 0x39CB DUP2 DUP6 PUSH2 0x39A5 JUMP JUMPDEST SWAP4 POP PUSH2 0x39DB DUP2 DUP6 PUSH1 0x20 DUP7 ADD PUSH2 0x2854 JUMP JUMPDEST PUSH2 0x39E4 DUP2 PUSH2 0x287E JUMP JUMPDEST DUP5 ADD SWAP2 POP POP SWAP3 SWAP2 POP POP JUMP JUMPDEST PUSH1 0x0 PUSH1 0x80 DUP3 ADD SWAP1 POP PUSH2 0x3A04 PUSH1 0x0 DUP4 ADD DUP8 PUSH2 0x297F JUMP JUMPDEST PUSH2 0x3A11 PUSH1 0x20 DUP4 ADD DUP7 PUSH2 0x297F JUMP JUMPDEST PUSH2 0x3A1E PUSH1 0x40 DUP4 ADD DUP6 PUSH2 0x2A95 JUMP JUMPDEST DUP2 DUP2 SUB PUSH1 0x60 DUP4 ADD MSTORE PUSH2 0x3A30 DUP2 DUP5 PUSH2 0x39B6 JUMP JUMPDEST SWAP1 POP SWAP6 SWAP5 POP POP POP POP POP JUMP JUMPDEST PUSH1 0x0 DUP2 MLOAD SWAP1 POP PUSH2 0x3A4A DUP2 PUSH2 0x27A9 JUMP JUMPDEST SWAP3 SWAP2 POP POP JUMP JUMPDEST PUSH1 0x0 PUSH1 0x20 DUP3 DUP5 SUB SLT ISZERO PUSH2 0x3A66 JUMPI PUSH2 0x3A65 PUSH2 0x2773 JUMP JUMPDEST JUMPDEST PUSH1 0x0 PUSH2 0x3A74 DUP5 DUP3 DUP6 ADD PUSH2 0x3A3B JUMP JUMPDEST SWAP2 POP POP SWAP3 SWAP2 POP POP JUMP JUMPDEST PUSH1 0x0 PUSH1 0x40 DUP3 ADD SWAP1 POP PUSH2 0x3A92 PUSH1 0x0 DUP4 ADD DUP6 PUSH2 0x297F JUMP JUMPDEST PUSH2 0x3A9F PUSH1 0x20 DUP4 ADD DUP5 PUSH2 0x2A95 JUMP JUMPDEST SWAP4 SWAP3 POP POP POP JUMP JUMPDEST PUSH32 0x4E487B7100000000000000000000000000000000000000000000000000000000 PUSH1 0x0 MSTORE PUSH1 0x21 PUSH1 0x4 MSTORE PUSH1 0x24 PUSH1 0x0 REVERT JUMPDEST PUSH1 0x0 DUP2 SWAP1 POP SWAP2 SWAP1 POP JUMP JUMPDEST PUSH2 0x3AE8 DUP2 PUSH2 0x3AD5 JUMP JUMPDEST DUP3 MSTORE POP POP JUMP JUMPDEST PUSH1 0x0 PUSH1 0x20 DUP3 ADD SWAP1 POP PUSH2 0x3B03 PUSH1 0x0 DUP4 ADD DUP5 PUSH2 0x3ADF JUMP JUMPDEST SWAP3 SWAP2 POP POP JUMP JUMPDEST PUSH1 0x0 PUSH1 0x80 DUP3 ADD SWAP1 POP PUSH2 0x3B1E PUSH1 0x0 DUP4 ADD DUP8 PUSH2 0x3ADF JUMP JUMPDEST PUSH2 0x3B2B PUSH1 0x20 DUP4 ADD DUP7 PUSH2 0x2EF2 JUMP JUMPDEST PUSH2 0x3B38 PUSH1 0x40 DUP4 ADD DUP6 PUSH2 0x3ADF JUMP JUMPDEST PUSH2 0x3B45 PUSH1 0x60 DUP4 ADD DUP5 PUSH2 0x3ADF JUMP JUMPDEST SWAP6 SWAP5 POP POP POP POP POP JUMP INVALID LOG2 PUSH5 0x6970667358 0x22 SLT KECCAK256 ADD SIGNEXTEND 0x4A INVALID PUSH30 0x5218FC83B2DAE60F9B5FE21DE5C1618621F0A253DFC39B9A9EEE8F64736F PUSH13 0x63430008140033000000000000 "},"methodIdentifiers":{"approve(address,uint256)":"095ea7b3","balanceOf(address)":"70a08231","claimForSubscriber(bytes)":"bcea0fec","currentId()":"e00dd161","getApproved(uint256)":"081812fc","hasClaimedOnChain(address)":"1a02b69e","isApprovedForAll(address,address)":"e985e9c5","maxPublicSupply()":"26a74d8e","name()":"06fdde03","owner()":"8da5cb5b","ownerOf(uint256)":"6352211e","priceWei()":"b7ec2086","publicMint(uint256)":"2db11544","publicMinted()":"a4f4f8af","renounceOwnership()":"715018a6","safeTransferFrom(address,address,uint256)":"42842e0e","safeTransferFrom(address,address,uint256,bytes)":"b88d4fde","setApprovalForAll(address,bool)":"a22cb465","setBaseURI(string)":"55f804b3","setTrustedSigner(address)":"56a1c701","supportsInterface(bytes4)":"01ffc9a7","symbol()":"95d89b41","tokenURI(uint256)":"c87b56dd","tokenVariant(uint256)":"dd46edb8","transferFrom(address,address,uint256)":"23b872dd","transferOwnership(address)":"f2fde38b","transform(uint256,uint8)":"f78f647c","trustedSigner()":"f74d5480","withdraw(address)":"51cff8d9"}}}}}