{
  "_format": "hh-sol-artifact-1",
  "contractName": "NeutralHeart",
  "sourceName": "contracts/NeutralHeart.sol",
  "abi": [
    {
      "inputs": [
        {
          "internalType": "uint256",
          "name": "maxPublicSupply_",
          "type": "uint256"
        },
        {
          "internalType": "uint256",
          "name": "priceWei_",
          "type": "uint256"
        }
      ],
      "stateMutability": "nonpayable",
      "type": "constructor"
    },
    {
      "inputs": [],
      "name": "ECDSAInvalidSignature",
      "type": "error"
    },
    {
      "inputs": [
        {
          "internalType": "uint256",
          "name": "length",
          "type": "uint256"
        }
      ],
      "name": "ECDSAInvalidSignatureLength",
      "type": "error"
    },
    {
      "inputs": [
        {
          "internalType": "bytes32",
          "name": "s",
          "type": "bytes32"
        }
      ],
      "name": "ECDSAInvalidSignatureS",
      "type": "error"
    },
    {
      "inputs": [
        {
          "internalType": "uint256",
          "name": "numerator",
          "type": "uint256"
        },
        {
          "internalType": "uint256",
          "name": "denominator",
          "type": "uint256"
        }
      ],
      "name": "ERC2981InvalidDefaultRoyalty",
      "type": "error"
    },
    {
      "inputs": [
        {
          "internalType": "address",
          "name": "receiver",
          "type": "address"
        }
      ],
      "name": "ERC2981InvalidDefaultRoyaltyReceiver",
      "type": "error"
    },
    {
      "inputs": [
        {
          "internalType": "uint256",
          "name": "tokenId",
          "type": "uint256"
        },
        {
          "internalType": "uint256",
          "name": "numerator",
          "type": "uint256"
        },
        {
          "internalType": "uint256",
          "name": "denominator",
          "type": "uint256"
        }
      ],
      "name": "ERC2981InvalidTokenRoyalty",
      "type": "error"
    },
    {
      "inputs": [
        {
          "internalType": "uint256",
          "name": "tokenId",
          "type": "uint256"
        },
        {
          "internalType": "address",
          "name": "receiver",
          "type": "address"
        }
      ],
      "name": "ERC2981InvalidTokenRoyaltyReceiver",
      "type": "error"
    },
    {
      "inputs": [],
      "name": "ERC721EnumerableForbiddenBatchMint",
      "type": "error"
    },
    {
      "inputs": [
        {
          "internalType": "address",
          "name": "sender",
          "type": "address"
        },
        {
          "internalType": "uint256",
          "name": "tokenId",
          "type": "uint256"
        },
        {
          "internalType": "address",
          "name": "owner",
          "type": "address"
        }
      ],
      "name": "ERC721IncorrectOwner",
      "type": "error"
    },
    {
      "inputs": [
        {
          "internalType": "address",
          "name": "operator",
          "type": "address"
        },
        {
          "internalType": "uint256",
          "name": "tokenId",
          "type": "uint256"
        }
      ],
      "name": "ERC721InsufficientApproval",
      "type": "error"
    },
    {
      "inputs": [
        {
          "internalType": "address",
          "name": "approver",
          "type": "address"
        }
      ],
      "name": "ERC721InvalidApprover",
      "type": "error"
    },
    {
      "inputs": [
        {
          "internalType": "address",
          "name": "operator",
          "type": "address"
        }
      ],
      "name": "ERC721InvalidOperator",
      "type": "error"
    },
    {
      "inputs": [
        {
          "internalType": "address",
          "name": "owner",
          "type": "address"
        }
      ],
      "name": "ERC721InvalidOwner",
      "type": "error"
    },
    {
      "inputs": [
        {
          "internalType": "address",
          "name": "receiver",
          "type": "address"
        }
      ],
      "name": "ERC721InvalidReceiver",
      "type": "error"
    },
    {
      "inputs": [
        {
          "internalType": "address",
          "name": "sender",
          "type": "address"
        }
      ],
      "name": "ERC721InvalidSender",
      "type": "error"
    },
    {
      "inputs": [
        {
          "internalType": "uint256",
          "name": "tokenId",
          "type": "uint256"
        }
      ],
      "name": "ERC721NonexistentToken",
      "type": "error"
    },
    {
      "inputs": [
        {
          "internalType": "address",
          "name": "owner",
          "type": "address"
        },
        {
          "internalType": "uint256",
          "name": "index",
          "type": "uint256"
        }
      ],
      "name": "ERC721OutOfBoundsIndex",
      "type": "error"
    },
    {
      "inputs": [
        {
          "internalType": "address",
          "name": "owner",
          "type": "address"
        }
      ],
      "name": "OwnableInvalidOwner",
      "type": "error"
    },
    {
      "inputs": [
        {
          "internalType": "address",
          "name": "account",
          "type": "address"
        }
      ],
      "name": "OwnableUnauthorizedAccount",
      "type": "error"
    },
    {
      "inputs": [],
      "name": "ReentrancyGuardReentrantCall",
      "type": "error"
    },
    {
      "anonymous": false,
      "inputs": [
        {
          "indexed": true,
          "internalType": "address",
          "name": "owner",
          "type": "address"
        },
        {
          "indexed": true,
          "internalType": "address",
          "name": "approved",
          "type": "address"
        },
        {
          "indexed": true,
          "internalType": "uint256",
          "name": "tokenId",
          "type": "uint256"
        }
      ],
      "name": "Approval",
      "type": "event"
    },
    {
      "anonymous": false,
      "inputs": [
        {
          "indexed": true,
          "internalType": "address",
          "name": "owner",
          "type": "address"
        },
        {
          "indexed": true,
          "internalType": "address",
          "name": "operator",
          "type": "address"
        },
        {
          "indexed": false,
          "internalType": "bool",
          "name": "approved",
          "type": "bool"
        }
      ],
      "name": "ApprovalForAll",
      "type": "event"
    },
    {
      "anonymous": false,
      "inputs": [
        {
          "indexed": false,
          "internalType": "string",
          "name": "base",
          "type": "string"
        }
      ],
      "name": "BaseURISet",
      "type": "event"
    },
    {
      "anonymous": false,
      "inputs": [
        {
          "indexed": false,
          "internalType": "string",
          "name": "contractURI",
          "type": "string"
        }
      ],
      "name": "ContractURISet",
      "type": "event"
    },
    {
      "anonymous": false,
      "inputs": [
        {
          "indexed": true,
          "internalType": "address",
          "name": "previousOwner",
          "type": "address"
        },
        {
          "indexed": true,
          "internalType": "address",
          "name": "newOwner",
          "type": "address"
        }
      ],
      "name": "OwnershipTransferred",
      "type": "event"
    },
    {
      "anonymous": false,
      "inputs": [
        {
          "indexed": true,
          "internalType": "address",
          "name": "to",
          "type": "address"
        },
        {
          "indexed": true,
          "internalType": "uint256",
          "name": "tokenId",
          "type": "uint256"
        }
      ],
      "name": "PublicMint",
      "type": "event"
    },
    {
      "anonymous": false,
      "inputs": [
        {
          "indexed": true,
          "internalType": "address",
          "name": "to",
          "type": "address"
        },
        {
          "indexed": true,
          "internalType": "uint256",
          "name": "tokenId",
          "type": "uint256"
        }
      ],
      "name": "SubscriberClaim",
      "type": "event"
    },
    {
      "anonymous": false,
      "inputs": [
        {
          "indexed": true,
          "internalType": "address",
          "name": "from",
          "type": "address"
        },
        {
          "indexed": true,
          "internalType": "address",
          "name": "to",
          "type": "address"
        },
        {
          "indexed": true,
          "internalType": "uint256",
          "name": "tokenId",
          "type": "uint256"
        }
      ],
      "name": "Transfer",
      "type": "event"
    },
    {
      "anonymous": false,
      "inputs": [
        {
          "indexed": true,
          "internalType": "address",
          "name": "owner",
          "type": "address"
        },
        {
          "indexed": true,
          "internalType": "uint256",
          "name": "burnedId",
          "type": "uint256"
        },
        {
          "indexed": true,
          "internalType": "uint256",
          "name": "newId",
          "type": "uint256"
        },
        {
          "indexed": false,
          "internalType": "uint8",
          "name": "variant",
          "type": "uint8"
        }
      ],
      "name": "Transform",
      "type": "event"
    },
    {
      "anonymous": false,
      "inputs": [
        {
          "indexed": true,
          "internalType": "address",
          "name": "signer",
          "type": "address"
        }
      ],
      "name": "TrustedSignerSet",
      "type": "event"
    },
    {
      "anonymous": false,
      "inputs": [
        {
          "indexed": true,
          "internalType": "address",
          "name": "to",
          "type": "address"
        },
        {
          "indexed": false,
          "internalType": "uint256",
          "name": "amount",
          "type": "uint256"
        }
      ],
      "name": "Withdraw",
      "type": "event"
    },
    {
      "inputs": [
        {
          "internalType": "address",
          "name": "to",
          "type": "address"
        },
        {
          "internalType": "uint256",
          "name": "tokenId",
          "type": "uint256"
        }
      ],
      "name": "approve",
      "outputs": [],
      "stateMutability": "nonpayable",
      "type": "function"
    },
    {
      "inputs": [
        {
          "internalType": "address",
          "name": "owner",
          "type": "address"
        }
      ],
      "name": "balanceOf",
      "outputs": [
        {
          "internalType": "uint256",
          "name": "",
          "type": "uint256"
        }
      ],
      "stateMutability": "view",
      "type": "function"
    },
    {
      "inputs": [
        {
          "internalType": "bytes",
          "name": "signature",
          "type": "bytes"
        }
      ],
      "name": "claimForSubscriber",
      "outputs": [],
      "stateMutability": "nonpayable",
      "type": "function"
    },
    {
      "inputs": [],
      "name": "contractURI",
      "outputs": [
        {
          "internalType": "string",
          "name": "",
          "type": "string"
        }
      ],
      "stateMutability": "view",
      "type": "function"
    },
    {
      "inputs": [],
      "name": "currentId",
      "outputs": [
        {
          "internalType": "uint256",
          "name": "",
          "type": "uint256"
        }
      ],
      "stateMutability": "view",
      "type": "function"
    },
    {
      "inputs": [
        {
          "internalType": "uint256",
          "name": "tokenId",
          "type": "uint256"
        }
      ],
      "name": "getApproved",
      "outputs": [
        {
          "internalType": "address",
          "name": "",
          "type": "address"
        }
      ],
      "stateMutability": "view",
      "type": "function"
    },
    {
      "inputs": [
        {
          "internalType": "address",
          "name": "",
          "type": "address"
        }
      ],
      "name": "hasClaimedOnChain",
      "outputs": [
        {
          "internalType": "bool",
          "name": "",
          "type": "bool"
        }
      ],
      "stateMutability": "view",
      "type": "function"
    },
    {
      "inputs": [
        {
          "internalType": "address",
          "name": "owner",
          "type": "address"
        },
        {
          "internalType": "address",
          "name": "operator",
          "type": "address"
        }
      ],
      "name": "isApprovedForAll",
      "outputs": [
        {
          "internalType": "bool",
          "name": "",
          "type": "bool"
        }
      ],
      "stateMutability": "view",
      "type": "function"
    },
    {
      "inputs": [],
      "name": "maxPublicSupply",
      "outputs": [
        {
          "internalType": "uint256",
          "name": "",
          "type": "uint256"
        }
      ],
      "stateMutability": "view",
      "type": "function"
    },
    {
      "inputs": [],
      "name": "name",
      "outputs": [
        {
          "internalType": "string",
          "name": "",
          "type": "string"
        }
      ],
      "stateMutability": "view",
      "type": "function"
    },
    {
      "inputs": [],
      "name": "owner",
      "outputs": [
        {
          "internalType": "address",
          "name": "",
          "type": "address"
        }
      ],
      "stateMutability": "view",
      "type": "function"
    },
    {
      "inputs": [
        {
          "internalType": "uint256",
          "name": "tokenId",
          "type": "uint256"
        }
      ],
      "name": "ownerOf",
      "outputs": [
        {
          "internalType": "address",
          "name": "",
          "type": "address"
        }
      ],
      "stateMutability": "view",
      "type": "function"
    },
    {
      "inputs": [],
      "name": "priceWei",
      "outputs": [
        {
          "internalType": "uint256",
          "name": "",
          "type": "uint256"
        }
      ],
      "stateMutability": "view",
      "type": "function"
    },
    {
      "inputs": [
        {
          "internalType": "uint256",
          "name": "qty",
          "type": "uint256"
        }
      ],
      "name": "publicMint",
      "outputs": [],
      "stateMutability": "payable",
      "type": "function"
    },
    {
      "inputs": [],
      "name": "publicMinted",
      "outputs": [
        {
          "internalType": "uint256",
          "name": "",
          "type": "uint256"
        }
      ],
      "stateMutability": "view",
      "type": "function"
    },
    {
      "inputs": [],
      "name": "renounceOwnership",
      "outputs": [],
      "stateMutability": "nonpayable",
      "type": "function"
    },
    {
      "inputs": [
        {
          "internalType": "uint256",
          "name": "tokenId",
          "type": "uint256"
        },
        {
          "internalType": "uint256",
          "name": "salePrice",
          "type": "uint256"
        }
      ],
      "name": "royaltyInfo",
      "outputs": [
        {
          "internalType": "address",
          "name": "receiver",
          "type": "address"
        },
        {
          "internalType": "uint256",
          "name": "amount",
          "type": "uint256"
        }
      ],
      "stateMutability": "view",
      "type": "function"
    },
    {
      "inputs": [
        {
          "internalType": "address",
          "name": "from",
          "type": "address"
        },
        {
          "internalType": "address",
          "name": "to",
          "type": "address"
        },
        {
          "internalType": "uint256",
          "name": "tokenId",
          "type": "uint256"
        }
      ],
      "name": "safeTransferFrom",
      "outputs": [],
      "stateMutability": "nonpayable",
      "type": "function"
    },
    {
      "inputs": [
        {
          "internalType": "address",
          "name": "from",
          "type": "address"
        },
        {
          "internalType": "address",
          "name": "to",
          "type": "address"
        },
        {
          "internalType": "uint256",
          "name": "tokenId",
          "type": "uint256"
        },
        {
          "internalType": "bytes",
          "name": "data",
          "type": "bytes"
        }
      ],
      "name": "safeTransferFrom",
      "outputs": [],
      "stateMutability": "nonpayable",
      "type": "function"
    },
    {
      "inputs": [
        {
          "internalType": "address",
          "name": "operator",
          "type": "address"
        },
        {
          "internalType": "bool",
          "name": "approved",
          "type": "bool"
        }
      ],
      "name": "setApprovalForAll",
      "outputs": [],
      "stateMutability": "nonpayable",
      "type": "function"
    },
    {
      "inputs": [
        {
          "internalType": "string",
          "name": "b",
          "type": "string"
        }
      ],
      "name": "setBaseURI",
      "outputs": [],
      "stateMutability": "nonpayable",
      "type": "function"
    },
    {
      "inputs": [
        {
          "internalType": "string",
          "name": "uri",
          "type": "string"
        }
      ],
      "name": "setContractURI",
      "outputs": [],
      "stateMutability": "nonpayable",
      "type": "function"
    },
    {
      "inputs": [
        {
          "internalType": "address",
          "name": "receiver",
          "type": "address"
        },
        {
          "internalType": "uint96",
          "name": "feeNumerator",
          "type": "uint96"
        }
      ],
      "name": "setDefaultRoyalty",
      "outputs": [],
      "stateMutability": "nonpayable",
      "type": "function"
    },
    {
      "inputs": [
        {
          "internalType": "uint256",
          "name": "newPriceWei",
          "type": "uint256"
        }
      ],
      "name": "setPrice",
      "outputs": [],
      "stateMutability": "nonpayable",
      "type": "function"
    },
    {
      "inputs": [
        {
          "internalType": "address",
          "name": "s",
          "type": "address"
        }
      ],
      "name": "setTrustedSigner",
      "outputs": [],
      "stateMutability": "nonpayable",
      "type": "function"
    },
    {
      "inputs": [
        {
          "internalType": "bytes4",
          "name": "interfaceId",
          "type": "bytes4"
        }
      ],
      "name": "supportsInterface",
      "outputs": [
        {
          "internalType": "bool",
          "name": "",
          "type": "bool"
        }
      ],
      "stateMutability": "view",
      "type": "function"
    },
    {
      "inputs": [],
      "name": "symbol",
      "outputs": [
        {
          "internalType": "string",
          "name": "",
          "type": "string"
        }
      ],
      "stateMutability": "view",
      "type": "function"
    },
    {
      "inputs": [
        {
          "internalType": "uint256",
          "name": "index",
          "type": "uint256"
        }
      ],
      "name": "tokenByIndex",
      "outputs": [
        {
          "internalType": "uint256",
          "name": "",
          "type": "uint256"
        }
      ],
      "stateMutability": "view",
      "type": "function"
    },
    {
      "inputs": [
        {
          "internalType": "address",
          "name": "owner",
          "type": "address"
        },
        {
          "internalType": "uint256",
          "name": "index",
          "type": "uint256"
        }
      ],
      "name": "tokenOfOwnerByIndex",
      "outputs": [
        {
          "internalType": "uint256",
          "name": "",
          "type": "uint256"
        }
      ],
      "stateMutability": "view",
      "type": "function"
    },
    {
      "inputs": [
        {
          "internalType": "uint256",
          "name": "tokenId",
          "type": "uint256"
        }
      ],
      "name": "tokenURI",
      "outputs": [
        {
          "internalType": "string",
          "name": "",
          "type": "string"
        }
      ],
      "stateMutability": "view",
      "type": "function"
    },
    {
      "inputs": [
        {
          "internalType": "uint256",
          "name": "",
          "type": "uint256"
        }
      ],
      "name": "tokenVariant",
      "outputs": [
        {
          "internalType": "uint8",
          "name": "",
          "type": "uint8"
        }
      ],
      "stateMutability": "view",
      "type": "function"
    },
    {
      "inputs": [
        {
          "internalType": "address",
          "name": "owner",
          "type": "address"
        }
      ],
      "name": "tokensOfOwner",
      "outputs": [
        {
          "internalType": "uint256[]",
          "name": "",
          "type": "uint256[]"
        }
      ],
      "stateMutability": "view",
      "type": "function"
    },
    {
      "inputs": [],
      "name": "totalSupply",
      "outputs": [
        {
          "internalType": "uint256",
          "name": "",
          "type": "uint256"
        }
      ],
      "stateMutability": "view",
      "type": "function"
    },
    {
      "inputs": [
        {
          "internalType": "address",
          "name": "from",
          "type": "address"
        },
        {
          "internalType": "address",
          "name": "to",
          "type": "address"
        },
        {
          "internalType": "uint256",
          "name": "tokenId",
          "type": "uint256"
        }
      ],
      "name": "transferFrom",
      "outputs": [],
      "stateMutability": "nonpayable",
      "type": "function"
    },
    {
      "inputs": [
        {
          "internalType": "address",
          "name": "newOwner",
          "type": "address"
        }
      ],
      "name": "transferOwnership",
      "outputs": [],
      "stateMutability": "nonpayable",
      "type": "function"
    },
    {
      "inputs": [
        {
          "internalType": "uint256",
          "name": "tokenId",
          "type": "uint256"
        },
        {
          "internalType": "uint8",
          "name": "variant",
          "type": "uint8"
        }
      ],
      "name": "transform",
      "outputs": [],
      "stateMutability": "nonpayable",
      "type": "function"
    },
    {
      "inputs": [],
      "name": "trustedSigner",
      "outputs": [
        {
          "internalType": "address",
          "name": "",
          "type": "address"
        }
      ],
      "stateMutability": "view",
      "type": "function"
    },
    {
      "inputs": [
        {
          "internalType": "address payable",
          "name": "to",
          "type": "address"
        }
      ],
      "name": "withdraw",
      "outputs": [],
      "stateMutability": "nonpayable",
      "type": "function"
    }
  ],
  "bytecode": "0x60806040523480156200001157600080fd5b506040516200560b3803806200560b83398181016040528101906200003791906200027d565b336040518060400160405280601781526020017f4e65757472616c4865617274204e4654202832303235290000000000000000008152506040518060400160405280600681526020017f4e485254323500000000000000000000000000000000000000000000000000008152508160009081620000b5919062000534565b508060019081620000c7919062000534565b505050600073ffffffffffffffffffffffffffffffffffffffff168173ffffffffffffffffffffffffffffffffffffffff16036200013f5760006040517f1e4fbdf700000000000000000000000000000000000000000000000000000000815260040162000136919062000660565b60405180910390fd5b62000150816200017760201b60201c565b506001600b8190555081600f81905550806011819055506001600e8190555050506200067d565b6000600a60009054906101000a900473ffffffffffffffffffffffffffffffffffffffff16905081600a60006101000a81548173ffffffffffffffffffffffffffffffffffffffff021916908373ffffffffffffffffffffffffffffffffffffffff1602179055508173ffffffffffffffffffffffffffffffffffffffff168173ffffffffffffffffffffffffffffffffffffffff167f8be0079c531659141344cd1fd0a4f28419497f9722a3daafe3b4186f6b6457e060405160405180910390a35050565b600080fd5b6000819050919050565b620002578162000242565b81146200026357600080fd5b50565b60008151905062000277816200024c565b92915050565b600080604083850312156200029757620002966200023d565b5b6000620002a78582860162000266565b9250506020620002ba8582860162000266565b9150509250929050565b600081519050919050565b7f4e487b7100000000000000000000000000000000000000000000000000000000600052604160045260246000fd5b7f4e487b7100000000000000000000000000000000000000000000000000000000600052602260045260246000fd5b600060028204905060018216806200034657607f821691505b6020821081036200035c576200035b620002fe565b5b50919050565b60008190508160005260206000209050919050565b60006020601f8301049050919050565b600082821b905092915050565b600060088302620003c67fffffffffffffffffffffffffffffffffffffffffffffffffffffffffffffffff8262000387565b620003d2868362000387565b95508019841693508086168417925050509392505050565b6000819050919050565b6000620004156200040f620004098462000242565b620003ea565b62000242565b9050919050565b6000819050919050565b6200043183620003f4565b6200044962000440826200041c565b84845462000394565b825550505050565b600090565b6200046062000451565b6200046d81848462000426565b505050565b5b8181101562000495576200048960008262000456565b60018101905062000473565b5050565b601f821115620004e457620004ae8162000362565b620004b98462000377565b81016020851015620004c9578190505b620004e1620004d88562000377565b83018262000472565b50505b505050565b600082821c905092915050565b60006200050960001984600802620004e9565b1980831691505092915050565b6000620005248383620004f6565b9150826002028217905092915050565b6200053f82620002c4565b67ffffffffffffffff8111156200055b576200055a620002cf565b5b6200056782546200032d565b6200057482828562000499565b600060209050601f831160018114620005ac576000841562000597578287015190505b620005a3858262000516565b86555062000613565b601f198416620005bc8662000362565b60005b82811015620005e657848901518255600182019150602085019450602081019050620005bf565b8683101562000606578489015162000602601f891682620004f6565b8355505b6001600288020188555050505b505050505050565b600073ffffffffffffffffffffffffffffffffffffffff82169050919050565b600062000648826200061b565b9050919050565b6200065a816200063b565b82525050565b60006020820190506200067760008301846200064f565b92915050565b614f7e806200068d6000396000f3fe6080604052600436106102255760003560e01c8063715018a611610123578063b88d4fde116100ab578063e8a3d4851161006f578063e8a3d48514610841578063e985e9c51461086c578063f2fde38b146108a9578063f74d5480146108d2578063f78f647c146108fd57610225565b8063b88d4fde1461074a578063bcea0fec14610773578063c87b56dd1461079c578063dd46edb8146107d9578063e00dd1611461081657610225565b8063938e3d7b116100f2578063938e3d7b1461067757806395d89b41146106a0578063a22cb465146106cb578063a4f4f8af146106f4578063b7ec20861461071f57610225565b8063715018a6146105cf5780638462151c146105e65780638da5cb5b1461062357806391b7f5ed1461064e57610225565b80632a55205a116101b157806351cff8d91161017557806351cff8d9146104da57806355f804b31461050357806356a1c7011461052c5780636352211e1461055557806370a082311461059257610225565b80632a55205a146103dd5780632db115441461041b5780632f745c591461043757806342842e0e146104745780634f6ccce71461049d57610225565b8063095ea7b3116101f8578063095ea7b3146102f857806318160ddd146103215780631a02b69e1461034c57806323b872dd1461038957806326a74d8e146103b257610225565b806301ffc9a71461022a57806304634d8d1461026757806306fdde0314610290578063081812fc146102bb575b600080fd5b34801561023657600080fd5b50610251600480360381019061024c919061379b565b610926565b60405161025e91906137e3565b60405180910390f35b34801561027357600080fd5b5061028e600480360381019061028991906138a0565b610938565b005b34801561029c57600080fd5b506102a561094e565b6040516102b29190613970565b60405180910390f35b3480156102c757600080fd5b506102e260048036038101906102dd91906139c8565b6109e0565b6040516102ef9190613a04565b60405180910390f35b34801561030457600080fd5b5061031f600480360381019061031a9190613a1f565b6109fc565b005b34801561032d57600080fd5b50610336610a12565b6040516103439190613a6e565b60405180910390f35b34801561035857600080fd5b50610373600480360381019061036e9190613a89565b610a1f565b60405161038091906137e3565b60405180910390f35b34801561039557600080fd5b506103b060048036038101906103ab9190613ab6565b610a3f565b005b3480156103be57600080fd5b506103c7610b41565b6040516103d49190613a6e565b60405180910390f35b3480156103e957600080fd5b5061040460048036038101906103ff9190613b09565b610b47565b604051610412929190613b49565b60405180910390f35b610435600480360381019061043091906139c8565b610c77565b005b34801561044357600080fd5b5061045e60048036038101906104599190613a1f565b610e3d565b60405161046b9190613a6e565b60405180910390f35b34801561048057600080fd5b5061049b60048036038101906104969190613ab6565b610ee6565b005b3480156104a957600080fd5b506104c460048036038101906104bf91906139c8565b610f06565b6040516104d19190613a6e565b60405180910390f35b3480156104e657600080fd5b5061050160048036038101906104fc9190613bb0565b610f7c565b005b34801561050f57600080fd5b5061052a60048036038101906105259190613d12565b61114a565b005b34801561053857600080fd5b50610553600480360381019061054e9190613a89565b61119c565b005b34801561056157600080fd5b5061057c600480360381019061057791906139c8565b61122b565b6040516105899190613a04565b60405180910390f35b34801561059e57600080fd5b506105b960048036038101906105b49190613a89565b61123d565b6040516105c69190613a6e565b60405180910390f35b3480156105db57600080fd5b506105e46112f7565b005b3480156105f257600080fd5b5061060d60048036038101906106089190613a89565b61130b565b60405161061a9190613e19565b60405180910390f35b34801561062f57600080fd5b506106386113b9565b6040516106459190613a04565b60405180910390f35b34801561065a57600080fd5b50610675600480360381019061067091906139c8565b6113e3565b005b34801561068357600080fd5b5061069e60048036038101906106999190613d12565b6113f5565b005b3480156106ac57600080fd5b506106b5611447565b6040516106c29190613970565b60405180910390f35b3480156106d757600080fd5b506106f260048036038101906106ed9190613e67565b6114d9565b005b34801561070057600080fd5b506107096114ef565b6040516107169190613a6e565b60405180910390f35b34801561072b57600080fd5b506107346114f5565b6040516107419190613a6e565b60405180910390f35b34801561075657600080fd5b50610771600480360381019061076c9190613f48565b6114fb565b005b34801561077f57600080fd5b5061079a6004803603810190610795919061402b565b611520565b005b3480156107a857600080fd5b506107c360048036038101906107be91906139c8565b611862565b6040516107d09190613970565b60405180910390f35b3480156107e557600080fd5b5061080060048036038101906107fb91906139c8565b611a96565b60405161080d9190614094565b60405180910390f35b34801561082257600080fd5b5061082b611ab6565b6040516108389190613a6e565b60405180910390f35b34801561084d57600080fd5b50610856611abc565b6040516108639190613970565b60405180910390f35b34801561087857600080fd5b50610893600480360381019061088e91906140af565b611b4e565b6040516108a091906137e3565b60405180910390f35b3480156108b557600080fd5b506108d060048036038101906108cb9190613a89565b611be2565b005b3480156108de57600080fd5b506108e7611c68565b6040516108f49190613a04565b60405180910390f35b34801561090957600080fd5b50610924600480360381019061091f919061411b565b611c8e565b005b600061093182611e7d565b9050919050565b610940611ef7565b61094a8282611f7e565b5050565b60606000805461095d9061418a565b80601f01602080910402602001604051908101604052809291908181526020018280546109899061418a565b80156109d65780601f106109ab576101008083540402835291602001916109d6565b820191906000526020600020905b8154815290600101906020018083116109b957829003601f168201915b5050505050905090565b60006109eb82612120565b506109f5826121a8565b9050919050565b610a0e8282610a096121e5565b6121ed565b5050565b6000600880549050905090565b60136020528060005260406000206000915054906101000a900460ff1681565b600073ffffffffffffffffffffffffffffffffffffffff168273ffffffffffffffffffffffffffffffffffffffff1603610ab15760006040517f64a0ae92000000000000000000000000000000000000000000000000000000008152600401610aa89190613a04565b60405180910390fd5b6000610ac58383610ac06121e5565b6121ff565b90508373ffffffffffffffffffffffffffffffffffffffff168173ffffffffffffffffffffffffffffffffffffffff1614610b3b578382826040517f64283d7b000000000000000000000000000000000000000000000000000000008152600401610b32939291906141bb565b60405180910390fd5b50505050565b600f5481565b6000806000600d6000868152602001908152602001600020905060008160000160009054906101000a900473ffffffffffffffffffffffffffffffffffffffff16905060008260000160149054906101000a90046bffffffffffffffffffffffff169050600073ffffffffffffffffffffffffffffffffffffffff168273ffffffffffffffffffffffffffffffffffffffff1603610c2857600c60000160009054906101000a900473ffffffffffffffffffffffffffffffffffffffff169150600c60000160149054906101000a90046bffffffffffffffffffffffff1690505b6000610c32612272565b6bffffffffffffffffffffffff16826bffffffffffffffffffffffff1688610c5a9190614221565b610c649190614292565b9050828195509550505050509250929050565b610c7f61227c565b60018114610cc2576040517f08c379a0000000000000000000000000000000000000000000000000000000008152600401610cb99061430f565b60405180910390fd5b600f5481601054610cd3919061432f565b1115610d14576040517f08c379a0000000000000000000000000000000000000000000000000000000008152600401610d0b906143af565b60405180910390fd5b80601154610d229190614221565b3414610d63576040517f08c379a0000000000000000000000000000000000000000000000000000000008152600401610d5a9061441b565b60405180910390fd5b60005b81811015610e18576000600e6000815480929190610d839061443b565b919050559050610d9333826122c2565b60006014600083815260200190815260200160002060006101000a81548160ff021916908360ff160217905550803373ffffffffffffffffffffffffffffffffffffffff167f748a2986091c2034d6e93b6f44f771a79f0e1d6acd8a60c68c17d4e1e2feaed260405160405180910390a3508080610e109061443b565b915050610d66565b508060106000828254610e2b919061432f565b92505081905550610e3a6122e0565b50565b6000610e488361123d565b8210610e8d5782826040517fa57d13dc000000000000000000000000000000000000000000000000000000008152600401610e84929190613b49565b60405180910390fd5b600660008473ffffffffffffffffffffffffffffffffffffffff1673ffffffffffffffffffffffffffffffffffffffff168152602001908152602001600020600083815260200190815260200160002054905092915050565b610f01838383604051806020016040528060008152506114fb565b505050565b6000610f10610a12565b8210610f56576000826040517fa57d13dc000000000000000000000000000000000000000000000000000000008152600401610f4d929190613b49565b60405180910390fd5b60088281548110610f6a57610f69614483565b5b90600052602060002001549050919050565b610f84611ef7565b610f8c61227c565b600073ffffffffffffffffffffffffffffffffffffffff168173ffffffffffffffffffffffffffffffffffffffff1603610ffb576040517f08c379a0000000000000000000000000000000000000000000000000000000008152600401610ff2906144fe565b60405180910390fd5b600047905060008111611043576040517f08c379a000000000000000000000000000000000000000000000000000000000815260040161103a9061456a565b60405180910390fd5b60008273ffffffffffffffffffffffffffffffffffffffff1682604051611069906145bb565b60006040518083038185875af1925050503d80600081146110a6576040519150601f19603f3d011682016040523d82523d6000602084013e6110ab565b606091505b50509050806110ef576040517f08c379a00000000000000000000000000000000000000000000000000000000081526004016110e69061461c565b60405180910390fd5b8273ffffffffffffffffffffffffffffffffffffffff167f884edad9ce6fa2440d8a54cc123490eb96d2768479d49ff9c7366125a9424364836040516111359190613a6e565b60405180910390a250506111476122e0565b50565b611152611ef7565b806015908161116191906147e8565b507ff9c7803e94e0d3c02900d8a90893a6d5e90dd04d32a4cfe825520f82bf9f32f6816040516111919190613970565b60405180910390a150565b6111a4611ef7565b80601260006101000a81548173ffffffffffffffffffffffffffffffffffffffff021916908373ffffffffffffffffffffffffffffffffffffffff1602179055508073ffffffffffffffffffffffffffffffffffffffff167f65b80efdb610be9fc8e0cc1ab30c9f0b98b538c1392f298ec6ff69ae0768b74e60405160405180910390a250565b600061123682612120565b9050919050565b60008073ffffffffffffffffffffffffffffffffffffffff168273ffffffffffffffffffffffffffffffffffffffff16036112b05760006040517f89c62b640000000000000000000000000000000000000000000000000000000081526004016112a79190613a04565b60405180910390fd5b600360008373ffffffffffffffffffffffffffffffffffffffff1673ffffffffffffffffffffffffffffffffffffffff168152602001908152602001600020549050919050565b6112ff611ef7565b61130960006122ea565b565b606060006113188361123d565b905060008167ffffffffffffffff81111561133657611335613be7565b5b6040519080825280602002602001820160405280156113645781602001602082028036833780820191505090505b50905060005b828110156113ae5761137c8582610e3d565b82828151811061138f5761138e614483565b5b60200260200101818152505080806113a69061443b565b91505061136a565b508092505050919050565b6000600a60009054906101000a900473ffffffffffffffffffffffffffffffffffffffff16905090565b6113eb611ef7565b8060118190555050565b6113fd611ef7565b806016908161140c91906147e8565b507faf497693a87db12ca89131a31edbb3db4bb5702dfb284e8ae7427d185f09112d8160405161143c9190613970565b60405180910390a150565b6060600180546114569061418a565b80601f01602080910402602001604051908101604052809291908181526020018280546114829061418a565b80156114cf5780601f106114a4576101008083540402835291602001916114cf565b820191906000526020600020905b8154815290600101906020018083116114b257829003601f168201915b5050505050905090565b6114eb6114e46121e5565b83836123b0565b5050565b60105481565b60115481565b611506848484610a3f565b61151a6115116121e5565b8585858561251f565b50505050565b61152861227c565b600073ffffffffffffffffffffffffffffffffffffffff16601260009054906101000a900473ffffffffffffffffffffffffffffffffffffffff1673ffffffffffffffffffffffffffffffffffffffff16036115b9576040517f08c379a00000000000000000000000000000000000000000000000000000000081526004016115b090614906565b60405180910390fd5b601360003373ffffffffffffffffffffffffffffffffffffffff1673ffffffffffffffffffffffffffffffffffffffff16815260200190815260200160002060009054906101000a900460ff1615611646576040517f08c379a000000000000000000000000000000000000000000000000000000000815260040161163d90614972565b60405180910390fd5b600030463360405160200161165d939291906149fb565b6040516020818303038152906040528051906020012090506000611680826126d0565b905060006116d28286868080601f016020809104026020016040519081016040528093929190818152602001838380828437600081840152601f19601f82011690508083019250505050505050612706565b9050601260009054906101000a900473ffffffffffffffffffffffffffffffffffffffff1673ffffffffffffffffffffffffffffffffffffffff168173ffffffffffffffffffffffffffffffffffffffff1614611764576040517f08c379a000000000000000000000000000000000000000000000000000000000815260040161175b90614a84565b60405180910390fd5b6001601360003373ffffffffffffffffffffffffffffffffffffffff1673ffffffffffffffffffffffffffffffffffffffff16815260200190815260200160002060006101000a81548160ff0219169083151502179055506000600e60008154809291906117d19061443b565b9190505590506117e133826122c2565b60006014600083815260200190815260200160002060006101000a81548160ff021916908360ff160217905550803373ffffffffffffffffffffffffffffffffffffffff167fe9a10c23ea49d40011e019f115185f0bc29740208a504d35f951dca74ba37eac60405160405180910390a35050505061185e6122e0565b5050565b606061186d82612120565b506000611878612732565b905060006014600085815260200190815260200160002060009054906101000a900460ff16905060006040518060400160405280600c81526020017f6e65757472616c2e6a736f6e0000000000000000000000000000000000000000815250905060018260ff1603611921576040518060400160405280600a81526020017f616e67656c2e6a736f6e000000000000000000000000000000000000000000008152509050611966565b60028260ff1603611965576040518060400160405280600a81526020017f646576696c2e6a736f6e0000000000000000000000000000000000000000000081525090505b5b6000839050600081510361199f57816040516020016119859190614ae0565b604051602081830303815290604052945050505050611a91565b600081600183516119b09190614af7565b815181106119c1576119c0614483565b5b602001015160f81c60f81b90507f2f000000000000000000000000000000000000000000000000000000000000007effffffffffffffffffffffffffffffffffffffffffffffffffffffffffffff1916817effffffffffffffffffffffffffffffffffffffffffffffffffffffffffffff191603611a67578483604051602001611a4c929190614b2b565b60405160208183030381529060405295505050505050611a91565b8483604051602001611a7a929190614b9b565b604051602081830303815290604052955050505050505b919050565b60146020528060005260406000206000915054906101000a900460ff1681565b600e5481565b606060168054611acb9061418a565b80601f0160208091040260200160405190810160405280929190818152602001828054611af79061418a565b8015611b445780601f10611b1957610100808354040283529160200191611b44565b820191906000526020600020905b815481529060010190602001808311611b2757829003601f168201915b5050505050905090565b6000600560008473ffffffffffffffffffffffffffffffffffffffff1673ffffffffffffffffffffffffffffffffffffffff16815260200190815260200160002060008373ffffffffffffffffffffffffffffffffffffffff1673ffffffffffffffffffffffffffffffffffffffff16815260200190815260200160002060009054906101000a900460ff16905092915050565b611bea611ef7565b600073ffffffffffffffffffffffffffffffffffffffff168173ffffffffffffffffffffffffffffffffffffffff1603611c5c5760006040517f1e4fbdf7000000000000000000000000000000000000000000000000000000008152600401611c539190613a04565b60405180910390fd5b611c65816122ea565b50565b601260009054906101000a900473ffffffffffffffffffffffffffffffffffffffff1681565b611c9661227c565b60018160ff161480611cab575060028160ff16145b611cea576040517f08c379a0000000000000000000000000000000000000000000000000000000008152600401611ce190614c16565b60405180910390fd5b3373ffffffffffffffffffffffffffffffffffffffff16611d0a8361122b565b73ffffffffffffffffffffffffffffffffffffffff1614611d60576040517f08c379a0000000000000000000000000000000000000000000000000000000008152600401611d5790614c82565b60405180910390fd5b60006014600084815260200190815260200160002060009054906101000a900460ff1660ff1614611dc6576040517f08c379a0000000000000000000000000000000000000000000000000000000008152600401611dbd90614d14565b60405180910390fd5b611dcf826127c4565b6000600e6000815480929190611de49061443b565b919050559050611df433826122c2565b816014600083815260200190815260200160002060006101000a81548160ff021916908360ff16021790555080833373ffffffffffffffffffffffffffffffffffffffff167f598067bc48ef38b7785eda047c375b2d45f2b845404b58dcdfccf40e7f38d86985604051611e689190614094565b60405180910390a450611e796122e0565b5050565b60007f2a55205a000000000000000000000000000000000000000000000000000000007bffffffffffffffffffffffffffffffffffffffffffffffffffffffff1916827bffffffffffffffffffffffffffffffffffffffffffffffffffffffff19161480611ef05750611eef8261284a565b5b9050919050565b611eff6121e5565b73ffffffffffffffffffffffffffffffffffffffff16611f1d6113b9565b73ffffffffffffffffffffffffffffffffffffffff1614611f7c57611f406121e5565b6040517f118cdaa7000000000000000000000000000000000000000000000000000000008152600401611f739190613a04565b60405180910390fd5b565b6000611f88612272565b6bffffffffffffffffffffffff16905080826bffffffffffffffffffffffff161115611fed5781816040517f6f483d09000000000000000000000000000000000000000000000000000000008152600401611fe4929190614d65565b60405180910390fd5b600073ffffffffffffffffffffffffffffffffffffffff168373ffffffffffffffffffffffffffffffffffffffff160361205f5760006040517fb6d9900a0000000000000000000000000000000000000000000000000000000081526004016120569190613a04565b60405180910390fd5b60405180604001604052808473ffffffffffffffffffffffffffffffffffffffff168152602001836bffffffffffffffffffffffff16815250600c60008201518160000160006101000a81548173ffffffffffffffffffffffffffffffffffffffff021916908373ffffffffffffffffffffffffffffffffffffffff16021790555060208201518160000160146101000a8154816bffffffffffffffffffffffff02191690836bffffffffffffffffffffffff160217905550905050505050565b60008061212c836128c4565b9050600073ffffffffffffffffffffffffffffffffffffffff168173ffffffffffffffffffffffffffffffffffffffff160361219f57826040517f7e2732890000000000000000000000000000000000000000000000000000000081526004016121969190613a6e565b60405180910390fd5b80915050919050565b60006004600083815260200190815260200160002060009054906101000a900473ffffffffffffffffffffffffffffffffffffffff169050919050565b600033905090565b6121fa8383836001612901565b505050565b60008061220d858585612ac6565b9050600073ffffffffffffffffffffffffffffffffffffffff168573ffffffffffffffffffffffffffffffffffffffff1603612267576014600085815260200190815260200160002060006101000a81549060ff02191690555b809150509392505050565b6000612710905090565b6002600b54036122b8576040517f3ee5aeb500000000000000000000000000000000000000000000000000000000815260040160405180910390fd5b6002600b81905550565b6122dc828260405180602001604052806000815250612be3565b5050565b6001600b81905550565b6000600a60009054906101000a900473ffffffffffffffffffffffffffffffffffffffff16905081600a60006101000a81548173ffffffffffffffffffffffffffffffffffffffff021916908373ffffffffffffffffffffffffffffffffffffffff1602179055508173ffffffffffffffffffffffffffffffffffffffff168173ffffffffffffffffffffffffffffffffffffffff167f8be0079c531659141344cd1fd0a4f28419497f9722a3daafe3b4186f6b6457e060405160405180910390a35050565b600073ffffffffffffffffffffffffffffffffffffffff168273ffffffffffffffffffffffffffffffffffffffff160361242157816040517f5b08ba180000000000000000000000000000000000000000000000000000000081526004016124189190613a04565b60405180910390fd5b80600560008573ffffffffffffffffffffffffffffffffffffffff1673ffffffffffffffffffffffffffffffffffffffff16815260200190815260200160002060008473ffffffffffffffffffffffffffffffffffffffff1673ffffffffffffffffffffffffffffffffffffffff16815260200190815260200160002060006101000a81548160ff0219169083151502179055508173ffffffffffffffffffffffffffffffffffffffff168373ffffffffffffffffffffffffffffffffffffffff167f17307eab39ab6107e8899845ad3d59bd9653f200f220920489ca2b5937696c318360405161251291906137e3565b60405180910390a3505050565b60008373ffffffffffffffffffffffffffffffffffffffff163b11156126c9578273ffffffffffffffffffffffffffffffffffffffff1663150b7a02868685856040518563ffffffff1660e01b815260040161257e9493929190614de3565b6020604051808303816000875af19250505080156125ba57506040513d601f19601f820116820180604052508101906125b79190614e44565b60015b61263e573d80600081146125ea576040519150601f19603f3d011682016040523d82523d6000602084013e6125ef565b606091505b50600081510361263657836040517f64a0ae9200000000000000000000000000000000000000000000000000000000815260040161262d9190613a04565b60405180910390fd5b805160208201fd5b63150b7a0260e01b7bffffffffffffffffffffffffffffffffffffffffffffffffffffffff1916817bffffffffffffffffffffffffffffffffffffffffffffffffffffffff1916146126c757836040517f64a0ae920000000000000000000000000000000000000000000000000000000081526004016126be9190613a04565b60405180910390fd5b505b5050505050565b60007f19457468657265756d205369676e6564204d6573736167653a0a33320000000060005281601c52603c6000209050919050565b6000806000806127168686612c07565b9250925092506127268282612c63565b82935050505092915050565b6060601580546127419061418a565b80601f016020809104026020016040519081016040528092919081815260200182805461276d9061418a565b80156127ba5780601f1061278f576101008083540402835291602001916127ba565b820191906000526020600020905b81548152906001019060200180831161279d57829003601f168201915b5050505050905090565b60006127d360008360006121ff565b9050600073ffffffffffffffffffffffffffffffffffffffff168173ffffffffffffffffffffffffffffffffffffffff160361284657816040517f7e27328900000000000000000000000000000000000000000000000000000000815260040161283d9190613a6e565b60405180910390fd5b5050565b60007f780e9d63000000000000000000000000000000000000000000000000000000007bffffffffffffffffffffffffffffffffffffffffffffffffffffffff1916827bffffffffffffffffffffffffffffffffffffffffffffffffffffffff191614806128bd57506128bc82612dc7565b5b9050919050565b60006002600083815260200190815260200160002060009054906101000a900473ffffffffffffffffffffffffffffffffffffffff169050919050565b808061293a5750600073ffffffffffffffffffffffffffffffffffffffff168273ffffffffffffffffffffffffffffffffffffffff1614155b15612a6e57600061294a84612120565b9050600073ffffffffffffffffffffffffffffffffffffffff168373ffffffffffffffffffffffffffffffffffffffff16141580156129b557508273ffffffffffffffffffffffffffffffffffffffff168173ffffffffffffffffffffffffffffffffffffffff1614155b80156129c857506129c68184611b4e565b155b15612a0a57826040517fa9fbf51f000000000000000000000000000000000000000000000000000000008152600401612a019190613a04565b60405180910390fd5b8115612a6c57838573ffffffffffffffffffffffffffffffffffffffff168273ffffffffffffffffffffffffffffffffffffffff167f8c5be1e5ebec7d5bd14f71427d1e84f3dd0314c0f7b2291e5b200ac8c7c3b92560405160405180910390a45b505b836004600085815260200190815260200160002060006101000a81548173ffffffffffffffffffffffffffffffffffffffff021916908373ffffffffffffffffffffffffffffffffffffffff16021790555050505050565b600080612ad4858585612ea9565b9050600073ffffffffffffffffffffffffffffffffffffffff168173ffffffffffffffffffffffffffffffffffffffff1603612b1857612b13846130c3565b612b57565b8473ffffffffffffffffffffffffffffffffffffffff168173ffffffffffffffffffffffffffffffffffffffff1614612b5657612b55818561310c565b5b5b600073ffffffffffffffffffffffffffffffffffffffff168573ffffffffffffffffffffffffffffffffffffffff1603612b9957612b94846131f7565b612bd8565b8473ffffffffffffffffffffffffffffffffffffffff168173ffffffffffffffffffffffffffffffffffffffff1614612bd757612bd685856132c8565b5b5b809150509392505050565b612bed8383613353565b612c02612bf86121e5565b600085858561251f565b505050565b60008060006041845103612c4c5760008060006020870151925060408701519150606087015160001a9050612c3e8882858561344c565b955095509550505050612c5c565b60006002855160001b9250925092505b9250925092565b60006003811115612c7757612c76614e71565b5b826003811115612c8a57612c89614e71565b5b0315612dc35760016003811115612ca457612ca3614e71565b5b826003811115612cb757612cb6614e71565b5b03612cee576040517ff645eedf00000000000000000000000000000000000000000000000000000000815260040160405180910390fd5b60026003811115612d0257612d01614e71565b5b826003811115612d1557612d14614e71565b5b03612d5a578060001c6040517ffce698f7000000000000000000000000000000000000000000000000000000008152600401612d519190613a6e565b60405180910390fd5b600380811115612d6d57612d6c614e71565b5b826003811115612d8057612d7f614e71565b5b03612dc257806040517fd78bce0c000000000000000000000000000000000000000000000000000000008152600401612db99190614eb9565b60405180910390fd5b5b5050565b60007f80ac58cd000000000000000000000000000000000000000000000000000000007bffffffffffffffffffffffffffffffffffffffffffffffffffffffff1916827bffffffffffffffffffffffffffffffffffffffffffffffffffffffff19161480612e9257507f5b5e139f000000000000000000000000000000000000000000000000000000007bffffffffffffffffffffffffffffffffffffffffffffffffffffffff1916827bffffffffffffffffffffffffffffffffffffffffffffffffffffffff1916145b80612ea25750612ea182613540565b5b9050919050565b600080612eb5846128c4565b9050600073ffffffffffffffffffffffffffffffffffffffff168373ffffffffffffffffffffffffffffffffffffffff1614612ef757612ef68184866135aa565b5b600073ffffffffffffffffffffffffffffffffffffffff168173ffffffffffffffffffffffffffffffffffffffff1614612f8857612f39600085600080612901565b6001600360008373ffffffffffffffffffffffffffffffffffffffff1673ffffffffffffffffffffffffffffffffffffffff168152602001908152602001600020600082825403925050819055505b600073ffffffffffffffffffffffffffffffffffffffff168573ffffffffffffffffffffffffffffffffffffffff161461300b576001600360008773ffffffffffffffffffffffffffffffffffffffff1673ffffffffffffffffffffffffffffffffffffffff168152602001908152602001600020600082825401925050819055505b846002600086815260200190815260200160002060006101000a81548173ffffffffffffffffffffffffffffffffffffffff021916908373ffffffffffffffffffffffffffffffffffffffff160217905550838573ffffffffffffffffffffffffffffffffffffffff168273ffffffffffffffffffffffffffffffffffffffff167fddf252ad1be2c89b69c2b068fc378daa952ba7f163c4a11628f55a4df523b3ef60405160405180910390a4809150509392505050565b6008805490506009600083815260200190815260200160002081905550600881908060018154018082558091505060019003906000526020600020016000909190919091505550565b60006131178361123d565b90506000600760008481526020019081526020016000205490506000600660008673ffffffffffffffffffffffffffffffffffffffff1673ffffffffffffffffffffffffffffffffffffffff16815260200190815260200160002090508282146131c35760008160008581526020019081526020016000205490508082600085815260200190815260200160002081905550826007600083815260200190815260200160002081905550505b6007600085815260200190815260200160002060009055806000848152602001908152602001600020600090555050505050565b6000600160088054905061320b9190614af7565b905060006009600084815260200190815260200160002054905060006008838154811061323b5761323a614483565b5b90600052602060002001549050806008838154811061325d5761325c614483565b5b9060005260206000200181905550816009600083815260200190815260200160002081905550600960008581526020019081526020016000206000905560088054806132ac576132ab614ed4565b5b6001900381819060005260206000200160009055905550505050565b600060016132d58461123d565b6132df9190614af7565b905081600660008573ffffffffffffffffffffffffffffffffffffffff1673ffffffffffffffffffffffffffffffffffffffff168152602001908152602001600020600083815260200190815260200160002081905550806007600084815260200190815260200160002081905550505050565b600073ffffffffffffffffffffffffffffffffffffffff168273ffffffffffffffffffffffffffffffffffffffff16036133c55760006040517f64a0ae920000000000000000000000000000000000000000000000000000000081526004016133bc9190613a04565b60405180910390fd5b60006133d3838360006121ff565b9050600073ffffffffffffffffffffffffffffffffffffffff168173ffffffffffffffffffffffffffffffffffffffff16146134475760006040517f73c6ac6e00000000000000000000000000000000000000000000000000000000815260040161343e9190613a04565b60405180910390fd5b505050565b60008060007f7fffffffffffffffffffffffffffffff5d576e7357a4501ddfe92f46681b20a08460001c111561348c576000600385925092509250613536565b6000600188888888604051600081526020016040526040516134b19493929190614f03565b6020604051602081039080840390855afa1580156134d3573d6000803e3d6000fd5b505050602060405103519050600073ffffffffffffffffffffffffffffffffffffffff168173ffffffffffffffffffffffffffffffffffffffff160361352757600060016000801b93509350935050613536565b8060008060001b935093509350505b9450945094915050565b60007f01ffc9a7000000000000000000000000000000000000000000000000000000007bffffffffffffffffffffffffffffffffffffffffffffffffffffffff1916827bffffffffffffffffffffffffffffffffffffffffffffffffffffffff1916149050919050565b6135b583838361366e565b61366957600073ffffffffffffffffffffffffffffffffffffffff168373ffffffffffffffffffffffffffffffffffffffff160361362a57806040517f7e2732890000000000000000000000000000000000000000000000000000000081526004016136219190613a6e565b60405180910390fd5b81816040517f177e802f000000000000000000000000000000000000000000000000000000008152600401613660929190613b49565b60405180910390fd5b505050565b60008073ffffffffffffffffffffffffffffffffffffffff168373ffffffffffffffffffffffffffffffffffffffff161415801561372657508273ffffffffffffffffffffffffffffffffffffffff168473ffffffffffffffffffffffffffffffffffffffff1614806136e757506136e68484611b4e565b5b8061372557508273ffffffffffffffffffffffffffffffffffffffff1661370d836121a8565b73ffffffffffffffffffffffffffffffffffffffff16145b5b90509392505050565b6000604051905090565b600080fd5b600080fd5b60007fffffffff0000000000000000000000000000000000000000000000000000000082169050919050565b61377881613743565b811461378357600080fd5b50565b6000813590506137958161376f565b92915050565b6000602082840312156137b1576137b0613739565b5b60006137bf84828501613786565b91505092915050565b60008115159050919050565b6137dd816137c8565b82525050565b60006020820190506137f860008301846137d4565b92915050565b600073ffffffffffffffffffffffffffffffffffffffff82169050919050565b6000613829826137fe565b9050919050565b6138398161381e565b811461384457600080fd5b50565b60008135905061385681613830565b92915050565b60006bffffffffffffffffffffffff82169050919050565b61387d8161385c565b811461388857600080fd5b50565b60008135905061389a81613874565b92915050565b600080604083850312156138b7576138b6613739565b5b60006138c585828601613847565b92505060206138d68582860161388b565b9150509250929050565b600081519050919050565b600082825260208201905092915050565b60005b8381101561391a5780820151818401526020810190506138ff565b60008484015250505050565b6000601f19601f8301169050919050565b6000613942826138e0565b61394c81856138eb565b935061395c8185602086016138fc565b61396581613926565b840191505092915050565b6000602082019050818103600083015261398a8184613937565b905092915050565b6000819050919050565b6139a581613992565b81146139b057600080fd5b50565b6000813590506139c28161399c565b92915050565b6000602082840312156139de576139dd613739565b5b60006139ec848285016139b3565b91505092915050565b6139fe8161381e565b82525050565b6000602082019050613a1960008301846139f5565b92915050565b60008060408385031215613a3657613a35613739565b5b6000613a4485828601613847565b9250506020613a55858286016139b3565b9150509250929050565b613a6881613992565b82525050565b6000602082019050613a836000830184613a5f565b92915050565b600060208284031215613a9f57613a9e613739565b5b6000613aad84828501613847565b91505092915050565b600080600060608486031215613acf57613ace613739565b5b6000613add86828701613847565b9350506020613aee86828701613847565b9250506040613aff868287016139b3565b9150509250925092565b60008060408385031215613b2057613b1f613739565b5b6000613b2e858286016139b3565b9250506020613b3f858286016139b3565b9150509250929050565b6000604082019050613b5e60008301856139f5565b613b6b6020830184613a5f565b9392505050565b6000613b7d826137fe565b9050919050565b613b8d81613b72565b8114613b9857600080fd5b50565b600081359050613baa81613b84565b92915050565b600060208284031215613bc657613bc5613739565b5b6000613bd484828501613b9b565b91505092915050565b600080fd5b600080fd5b7f4e487b7100000000000000000000000000000000000000000000000000000000600052604160045260246000fd5b613c1f82613926565b810181811067ffffffffffffffff82111715613c3e57613c3d613be7565b5b80604052505050565b6000613c5161372f565b9050613c5d8282613c16565b919050565b600067ffffffffffffffff821115613c7d57613c7c613be7565b5b613c8682613926565b9050602081019050919050565b82818337600083830152505050565b6000613cb5613cb084613c62565b613c47565b905082815260208101848484011115613cd157613cd0613be2565b5b613cdc848285613c93565b509392505050565b600082601f830112613cf957613cf8613bdd565b5b8135613d09848260208601613ca2565b91505092915050565b600060208284031215613d2857613d27613739565b5b600082013567ffffffffffffffff811115613d4657613d4561373e565b5b613d5284828501613ce4565b91505092915050565b600081519050919050565b600082825260208201905092915050565b6000819050602082019050919050565b613d9081613992565b82525050565b6000613da28383613d87565b60208301905092915050565b6000602082019050919050565b6000613dc682613d5b565b613dd08185613d66565b9350613ddb83613d77565b8060005b83811015613e0c578151613df38882613d96565b9750613dfe83613dae565b925050600181019050613ddf565b5085935050505092915050565b60006020820190508181036000830152613e338184613dbb565b905092915050565b613e44816137c8565b8114613e4f57600080fd5b50565b600081359050613e6181613e3b565b92915050565b60008060408385031215613e7e57613e7d613739565b5b6000613e8c85828601613847565b9250506020613e9d85828601613e52565b9150509250929050565b600067ffffffffffffffff821115613ec257613ec1613be7565b5b613ecb82613926565b9050602081019050919050565b6000613eeb613ee684613ea7565b613c47565b905082815260208101848484011115613f0757613f06613be2565b5b613f12848285613c93565b509392505050565b600082601f830112613f2f57613f2e613bdd565b5b8135613f3f848260208601613ed8565b91505092915050565b60008060008060808587031215613f6257613f61613739565b5b6000613f7087828801613847565b9450506020613f8187828801613847565b9350506040613f92878288016139b3565b925050606085013567ffffffffffffffff811115613fb357613fb261373e565b5b613fbf87828801613f1a565b91505092959194509250565b600080fd5b600080fd5b60008083601f840112613feb57613fea613bdd565b5b8235905067ffffffffffffffff81111561400857614007613fcb565b5b60208301915083600182028301111561402457614023613fd0565b5b9250929050565b6000806020838503121561404257614041613739565b5b600083013567ffffffffffffffff8111156140605761405f61373e565b5b61406c85828601613fd5565b92509250509250929050565b600060ff82169050919050565b61408e81614078565b82525050565b60006020820190506140a96000830184614085565b92915050565b600080604083850312156140c6576140c5613739565b5b60006140d485828601613847565b92505060206140e585828601613847565b9150509250929050565b6140f881614078565b811461410357600080fd5b50565b600081359050614115816140ef565b92915050565b6000806040838503121561413257614131613739565b5b6000614140858286016139b3565b925050602061415185828601614106565b9150509250929050565b7f4e487b7100000000000000000000000000000000000000000000000000000000600052602260045260246000fd5b600060028204905060018216806141a257607f821691505b6020821081036141b5576141b461415b565b5b50919050565b60006060820190506141d060008301866139f5565b6141dd6020830185613a5f565b6141ea60408301846139f5565b949350505050565b7f4e487b7100000000000000000000000000000000000000000000000000000000600052601160045260246000fd5b600061422c82613992565b915061423783613992565b925082820261424581613992565b9150828204841483151761425c5761425b6141f2565b5b5092915050565b7f4e487b7100000000000000000000000000000000000000000000000000000000600052601260045260246000fd5b600061429d82613992565b91506142a883613992565b9250826142b8576142b7614263565b5b828204905092915050565b7f6f6e6c79203120746f6b656e2070657220747800000000000000000000000000600082015250565b60006142f96013836138eb565b9150614304826142c3565b602082019050919050565b60006020820190508181036000830152614328816142ec565b9050919050565b600061433a82613992565b915061434583613992565b925082820190508082111561435d5761435c6141f2565b5b92915050565b7f7075626c696320736f6c64206f75740000000000000000000000000000000000600082015250565b6000614399600f836138eb565b91506143a482614363565b602082019050919050565b600060208201905081810360008301526143c88161438c565b9050919050565b7f696e636f7272656374207061796d656e74000000000000000000000000000000600082015250565b60006144056011836138eb565b9150614410826143cf565b602082019050919050565b60006020820190508181036000830152614434816143f8565b9050919050565b600061444682613992565b91507fffffffffffffffffffffffffffffffffffffffffffffffffffffffffffffffff8203614478576144776141f2565b5b600182019050919050565b7f4e487b7100000000000000000000000000000000000000000000000000000000600052603260045260246000fd5b7f696e76616c696420616464726573730000000000000000000000000000000000600082015250565b60006144e8600f836138eb565b91506144f3826144b2565b602082019050919050565b60006020820190508181036000830152614517816144db565b9050919050565b7f6e6f2066756e6473000000000000000000000000000000000000000000000000600082015250565b60006145546008836138eb565b915061455f8261451e565b602082019050919050565b6000602082019050818103600083015261458381614547565b9050919050565b600081905092915050565b50565b60006145a560008361458a565b91506145b082614595565b600082019050919050565b60006145c682614598565b9150819050919050565b7f7769746864726177206661696c65640000000000000000000000000000000000600082015250565b6000614606600f836138eb565b9150614611826145d0565b602082019050919050565b60006020820190508181036000830152614635816145f9565b9050919050565b60008190508160005260206000209050919050565b60006020601f8301049050919050565b600082821b905092915050565b60006008830261469e7fffffffffffffffffffffffffffffffffffffffffffffffffffffffffffffffff82614661565b6146a88683614661565b95508019841693508086168417925050509392505050565b6000819050919050565b60006146e56146e06146db84613992565b6146c0565b613992565b9050919050565b6000819050919050565b6146ff836146ca565b61471361470b826146ec565b84845461466e565b825550505050565b600090565b61472861471b565b6147338184846146f6565b505050565b5b818110156147575761474c600082614720565b600181019050614739565b5050565b601f82111561479c5761476d8161463c565b61477684614651565b81016020851015614785578190505b61479961479185614651565b830182614738565b50505b505050565b600082821c905092915050565b60006147bf600019846008026147a1565b1980831691505092915050565b60006147d883836147ae565b9150826002028217905092915050565b6147f1826138e0565b67ffffffffffffffff81111561480a57614809613be7565b5b614814825461418a565b61481f82828561475b565b600060209050601f8311600181146148525760008415614840578287015190505b61484a85826147cc565b8655506148b2565b601f1984166148608661463c565b60005b8281101561488857848901518255600182019150602085019450602081019050614863565b868310156148a557848901516148a1601f8916826147ae565b8355505b6001600288020188555050505b505050505050565b7f74727573746564207369676e6572206e6f742073657400000000000000000000600082015250565b60006148f06016836138eb565b91506148fb826148ba565b602082019050919050565b6000602082019050818103600083015261491f816148e3565b9050919050565b7f616c726561647920636c61696d6564206f6e2d636861696e0000000000000000600082015250565b600061495c6018836138eb565b915061496782614926565b602082019050919050565b6000602082019050818103600083015261498b8161494f565b9050919050565b60008160601b9050919050565b60006149aa82614992565b9050919050565b60006149bc8261499f565b9050919050565b6149d46149cf8261381e565b6149b1565b82525050565b6000819050919050565b6149f56149f082613992565b6149da565b82525050565b6000614a0782866149c3565b601482019150614a1782856149e4565b602082019150614a2782846149c3565b601482019150819050949350505050565b7f696e76616c6964207369676e6174757265000000000000000000000000000000600082015250565b6000614a6e6011836138eb565b9150614a7982614a38565b602082019050919050565b60006020820190508181036000830152614a9d81614a61565b9050919050565b600081905092915050565b6000614aba826138e0565b614ac48185614aa4565b9350614ad48185602086016138fc565b80840191505092915050565b6000614aec8284614aaf565b915081905092915050565b6000614b0282613992565b9150614b0d83613992565b9250828203905081811115614b2557614b246141f2565b5b92915050565b6000614b378285614aaf565b9150614b438284614aaf565b91508190509392505050565b7f2f00000000000000000000000000000000000000000000000000000000000000600082015250565b6000614b85600183614aa4565b9150614b9082614b4f565b600182019050919050565b6000614ba78285614aaf565b9150614bb282614b78565b9150614bbe8284614aaf565b91508190509392505050565b7f696e76616c69642076617269616e740000000000000000000000000000000000600082015250565b6000614c00600f836138eb565b9150614c0b82614bca565b602082019050919050565b60006020820190508181036000830152614c2f81614bf3565b9050919050565b7f6e6f74206f776e65720000000000000000000000000000000000000000000000600082015250565b6000614c6c6009836138eb565b9150614c7782614c36565b602082019050919050565b60006020820190508181036000830152614c9b81614c5f565b9050919050565b7f6f6e6c79206e65757472616c20746f6b656e732063616e206265207472616e7360008201527f666f726d65640000000000000000000000000000000000000000000000000000602082015250565b6000614cfe6026836138eb565b9150614d0982614ca2565b604082019050919050565b60006020820190508181036000830152614d2d81614cf1565b9050919050565b6000614d4f614d4a614d458461385c565b6146c0565b613992565b9050919050565b614d5f81614d34565b82525050565b6000604082019050614d7a6000830185614d56565b614d876020830184613a5f565b9392505050565b600081519050919050565b600082825260208201905092915050565b6000614db582614d8e565b614dbf8185614d99565b9350614dcf8185602086016138fc565b614dd881613926565b840191505092915050565b6000608082019050614df860008301876139f5565b614e0560208301866139f5565b614e126040830185613a5f565b8181036060830152614e248184614daa565b905095945050505050565b600081519050614e3e8161376f565b92915050565b600060208284031215614e5a57614e59613739565b5b6000614e6884828501614e2f565b91505092915050565b7f4e487b7100000000000000000000000000000000000000000000000000000000600052602160045260246000fd5b6000819050919050565b614eb381614ea0565b82525050565b6000602082019050614ece6000830184614eaa565b92915050565b7f4e487b7100000000000000000000000000000000000000000000000000000000600052603160045260246000fd5b6000608082019050614f186000830187614eaa565b614f256020830186614085565b614f326040830185614eaa565b614f3f6060830184614eaa565b9594505050505056fea2646970667358221220cd2f99c935ddf93bee8abe64a6e30632ab1b3cac67dd72b76a5a6c0f8aab530c64736f6c63430008140033",
  "linkReferences": {},
  "deployedLinkReferences": {}
}