{
  "_format": "hh-sol-artifact-1",
  "contractName": "NeutralHeart",
  "sourceName": "contracts/NeutralHeart.sol",
  "abi": [
    {
      "inputs": [
        {
          "internalType": "string",
          "name": "name_",
          "type": "string"
        },
        {
          "internalType": "string",
          "name": "symbol_",
          "type": "string"
        },
        {
          "internalType": "uint256",
          "name": "maxPublicSupply_",
          "type": "uint256"
        },
        {
          "internalType": "uint256",
          "name": "priceWei_",
          "type": "uint256"
        }
      ],
      "stateMutability": "nonpayable",
      "type": "constructor"
    },
    {
      "inputs": [],
      "name": "ECDSAInvalidSignature",
      "type": "error"
    },
    {
      "inputs": [
        {
          "internalType": "uint256",
          "name": "length",
          "type": "uint256"
        }
      ],
      "name": "ECDSAInvalidSignatureLength",
      "type": "error"
    },
    {
      "inputs": [
        {
          "internalType": "bytes32",
          "name": "s",
          "type": "bytes32"
        }
      ],
      "name": "ECDSAInvalidSignatureS",
      "type": "error"
    },
    {
      "inputs": [
        {
          "internalType": "address",
          "name": "sender",
          "type": "address"
        },
        {
          "internalType": "uint256",
          "name": "tokenId",
          "type": "uint256"
        },
        {
          "internalType": "address",
          "name": "owner",
          "type": "address"
        }
      ],
      "name": "ERC721IncorrectOwner",
      "type": "error"
    },
    {
      "inputs": [
        {
          "internalType": "address",
          "name": "operator",
          "type": "address"
        },
        {
          "internalType": "uint256",
          "name": "tokenId",
          "type": "uint256"
        }
      ],
      "name": "ERC721InsufficientApproval",
      "type": "error"
    },
    {
      "inputs": [
        {
          "internalType": "address",
          "name": "approver",
          "type": "address"
        }
      ],
      "name": "ERC721InvalidApprover",
      "type": "error"
    },
    {
      "inputs": [
        {
          "internalType": "address",
          "name": "operator",
          "type": "address"
        }
      ],
      "name": "ERC721InvalidOperator",
      "type": "error"
    },
    {
      "inputs": [
        {
          "internalType": "address",
          "name": "owner",
          "type": "address"
        }
      ],
      "name": "ERC721InvalidOwner",
      "type": "error"
    },
    {
      "inputs": [
        {
          "internalType": "address",
          "name": "receiver",
          "type": "address"
        }
      ],
      "name": "ERC721InvalidReceiver",
      "type": "error"
    },
    {
      "inputs": [
        {
          "internalType": "address",
          "name": "sender",
          "type": "address"
        }
      ],
      "name": "ERC721InvalidSender",
      "type": "error"
    },
    {
      "inputs": [
        {
          "internalType": "uint256",
          "name": "tokenId",
          "type": "uint256"
        }
      ],
      "name": "ERC721NonexistentToken",
      "type": "error"
    },
    {
      "inputs": [
        {
          "internalType": "address",
          "name": "owner",
          "type": "address"
        }
      ],
      "name": "OwnableInvalidOwner",
      "type": "error"
    },
    {
      "inputs": [
        {
          "internalType": "address",
          "name": "account",
          "type": "address"
        }
      ],
      "name": "OwnableUnauthorizedAccount",
      "type": "error"
    },
    {
      "anonymous": false,
      "inputs": [
        {
          "indexed": true,
          "internalType": "address",
          "name": "owner",
          "type": "address"
        },
        {
          "indexed": true,
          "internalType": "address",
          "name": "approved",
          "type": "address"
        },
        {
          "indexed": true,
          "internalType": "uint256",
          "name": "tokenId",
          "type": "uint256"
        }
      ],
      "name": "Approval",
      "type": "event"
    },
    {
      "anonymous": false,
      "inputs": [
        {
          "indexed": true,
          "internalType": "address",
          "name": "owner",
          "type": "address"
        },
        {
          "indexed": true,
          "internalType": "address",
          "name": "operator",
          "type": "address"
        },
        {
          "indexed": false,
          "internalType": "bool",
          "name": "approved",
          "type": "bool"
        }
      ],
      "name": "ApprovalForAll",
      "type": "event"
    },
    {
      "anonymous": false,
      "inputs": [
        {
          "indexed": true,
          "internalType": "address",
          "name": "previousOwner",
          "type": "address"
        },
        {
          "indexed": true,
          "internalType": "address",
          "name": "newOwner",
          "type": "address"
        }
      ],
      "name": "OwnershipTransferred",
      "type": "event"
    },
    {
      "anonymous": false,
      "inputs": [
        {
          "indexed": true,
          "internalType": "address",
          "name": "to",
          "type": "address"
        },
        {
          "indexed": true,
          "internalType": "uint256",
          "name": "tokenId",
          "type": "uint256"
        }
      ],
      "name": "PublicMint",
      "type": "event"
    },
    {
      "anonymous": false,
      "inputs": [
        {
          "indexed": true,
          "internalType": "address",
          "name": "to",
          "type": "address"
        },
        {
          "indexed": true,
          "internalType": "uint256",
          "name": "tokenId",
          "type": "uint256"
        }
      ],
      "name": "SubscriberClaim",
      "type": "event"
    },
    {
      "anonymous": false,
      "inputs": [
        {
          "indexed": true,
          "internalType": "address",
          "name": "from",
          "type": "address"
        },
        {
          "indexed": true,
          "internalType": "address",
          "name": "to",
          "type": "address"
        },
        {
          "indexed": true,
          "internalType": "uint256",
          "name": "tokenId",
          "type": "uint256"
        }
      ],
      "name": "Transfer",
      "type": "event"
    },
    {
      "anonymous": false,
      "inputs": [
        {
          "indexed": true,
          "internalType": "address",
          "name": "owner",
          "type": "address"
        },
        {
          "indexed": true,
          "internalType": "uint256",
          "name": "burnedId",
          "type": "uint256"
        },
        {
          "indexed": true,
          "internalType": "uint256",
          "name": "newId",
          "type": "uint256"
        },
        {
          "indexed": false,
          "internalType": "uint8",
          "name": "variant",
          "type": "uint8"
        }
      ],
      "name": "Transform",
      "type": "event"
    },
    {
      "inputs": [
        {
          "internalType": "address",
          "name": "to",
          "type": "address"
        },
        {
          "internalType": "uint256",
          "name": "tokenId",
          "type": "uint256"
        }
      ],
      "name": "approve",
      "outputs": [],
      "stateMutability": "nonpayable",
      "type": "function"
    },
    {
      "inputs": [
        {
          "internalType": "address",
          "name": "owner",
          "type": "address"
        }
      ],
      "name": "balanceOf",
      "outputs": [
        {
          "internalType": "uint256",
          "name": "",
          "type": "uint256"
        }
      ],
      "stateMutability": "view",
      "type": "function"
    },
    {
      "inputs": [
        {
          "internalType": "bytes",
          "name": "signature",
          "type": "bytes"
        }
      ],
      "name": "claimForSubscriber",
      "outputs": [],
      "stateMutability": "nonpayable",
      "type": "function"
    },
    {
      "inputs": [],
      "name": "currentId",
      "outputs": [
        {
          "internalType": "uint256",
          "name": "",
          "type": "uint256"
        }
      ],
      "stateMutability": "view",
      "type": "function"
    },
    {
      "inputs": [
        {
          "internalType": "uint256",
          "name": "tokenId",
          "type": "uint256"
        }
      ],
      "name": "getApproved",
      "outputs": [
        {
          "internalType": "address",
          "name": "",
          "type": "address"
        }
      ],
      "stateMutability": "view",
      "type": "function"
    },
    {
      "inputs": [
        {
          "internalType": "address",
          "name": "",
          "type": "address"
        }
      ],
      "name": "hasClaimedOnChain",
      "outputs": [
        {
          "internalType": "bool",
          "name": "",
          "type": "bool"
        }
      ],
      "stateMutability": "view",
      "type": "function"
    },
    {
      "inputs": [
        {
          "internalType": "address",
          "name": "owner",
          "type": "address"
        },
        {
          "internalType": "address",
          "name": "operator",
          "type": "address"
        }
      ],
      "name": "isApprovedForAll",
      "outputs": [
        {
          "internalType": "bool",
          "name": "",
          "type": "bool"
        }
      ],
      "stateMutability": "view",
      "type": "function"
    },
    {
      "inputs": [],
      "name": "maxPublicSupply",
      "outputs": [
        {
          "internalType": "uint256",
          "name": "",
          "type": "uint256"
        }
      ],
      "stateMutability": "view",
      "type": "function"
    },
    {
      "inputs": [],
      "name": "name",
      "outputs": [
        {
          "internalType": "string",
          "name": "",
          "type": "string"
        }
      ],
      "stateMutability": "view",
      "type": "function"
    },
    {
      "inputs": [],
      "name": "owner",
      "outputs": [
        {
          "internalType": "address",
          "name": "",
          "type": "address"
        }
      ],
      "stateMutability": "view",
      "type": "function"
    },
    {
      "inputs": [
        {
          "internalType": "uint256",
          "name": "tokenId",
          "type": "uint256"
        }
      ],
      "name": "ownerOf",
      "outputs": [
        {
          "internalType": "address",
          "name": "",
          "type": "address"
        }
      ],
      "stateMutability": "view",
      "type": "function"
    },
    {
      "inputs": [],
      "name": "priceWei",
      "outputs": [
        {
          "internalType": "uint256",
          "name": "",
          "type": "uint256"
        }
      ],
      "stateMutability": "view",
      "type": "function"
    },
    {
      "inputs": [
        {
          "internalType": "uint256",
          "name": "qty",
          "type": "uint256"
        }
      ],
      "name": "publicMint",
      "outputs": [],
      "stateMutability": "payable",
      "type": "function"
    },
    {
      "inputs": [],
      "name": "publicMinted",
      "outputs": [
        {
          "internalType": "uint256",
          "name": "",
          "type": "uint256"
        }
      ],
      "stateMutability": "view",
      "type": "function"
    },
    {
      "inputs": [],
      "name": "renounceOwnership",
      "outputs": [],
      "stateMutability": "nonpayable",
      "type": "function"
    },
    {
      "inputs": [
        {
          "internalType": "address",
          "name": "from",
          "type": "address"
        },
        {
          "internalType": "address",
          "name": "to",
          "type": "address"
        },
        {
          "internalType": "uint256",
          "name": "tokenId",
          "type": "uint256"
        }
      ],
      "name": "safeTransferFrom",
      "outputs": [],
      "stateMutability": "nonpayable",
      "type": "function"
    },
    {
      "inputs": [
        {
          "internalType": "address",
          "name": "from",
          "type": "address"
        },
        {
          "internalType": "address",
          "name": "to",
          "type": "address"
        },
        {
          "internalType": "uint256",
          "name": "tokenId",
          "type": "uint256"
        },
        {
          "internalType": "bytes",
          "name": "data",
          "type": "bytes"
        }
      ],
      "name": "safeTransferFrom",
      "outputs": [],
      "stateMutability": "nonpayable",
      "type": "function"
    },
    {
      "inputs": [
        {
          "internalType": "address",
          "name": "operator",
          "type": "address"
        },
        {
          "internalType": "bool",
          "name": "approved",
          "type": "bool"
        }
      ],
      "name": "setApprovalForAll",
      "outputs": [],
      "stateMutability": "nonpayable",
      "type": "function"
    },
    {
      "inputs": [
        {
          "internalType": "string",
          "name": "b",
          "type": "string"
        }
      ],
      "name": "setBaseURI",
      "outputs": [],
      "stateMutability": "nonpayable",
      "type": "function"
    },
    {
      "inputs": [
        {
          "internalType": "uint256",
          "name": "newPriceWei",
          "type": "uint256"
        }
      ],
      "name": "setPrice",
      "outputs": [],
      "stateMutability": "nonpayable",
      "type": "function"
    },
    {
      "inputs": [
        {
          "internalType": "address",
          "name": "s",
          "type": "address"
        }
      ],
      "name": "setTrustedSigner",
      "outputs": [],
      "stateMutability": "nonpayable",
      "type": "function"
    },
    {
      "inputs": [
        {
          "internalType": "bytes4",
          "name": "interfaceId",
          "type": "bytes4"
        }
      ],
      "name": "supportsInterface",
      "outputs": [
        {
          "internalType": "bool",
          "name": "",
          "type": "bool"
        }
      ],
      "stateMutability": "view",
      "type": "function"
    },
    {
      "inputs": [],
      "name": "symbol",
      "outputs": [
        {
          "internalType": "string",
          "name": "",
          "type": "string"
        }
      ],
      "stateMutability": "view",
      "type": "function"
    },
    {
      "inputs": [
        {
          "internalType": "uint256",
          "name": "tokenId",
          "type": "uint256"
        }
      ],
      "name": "tokenURI",
      "outputs": [
        {
          "internalType": "string",
          "name": "",
          "type": "string"
        }
      ],
      "stateMutability": "view",
      "type": "function"
    },
    {
      "inputs": [
        {
          "internalType": "uint256",
          "name": "",
          "type": "uint256"
        }
      ],
      "name": "tokenVariant",
      "outputs": [
        {
          "internalType": "uint8",
          "name": "",
          "type": "uint8"
        }
      ],
      "stateMutability": "view",
      "type": "function"
    },
    {
      "inputs": [
        {
          "internalType": "address",
          "name": "from",
          "type": "address"
        },
        {
          "internalType": "address",
          "name": "to",
          "type": "address"
        },
        {
          "internalType": "uint256",
          "name": "tokenId",
          "type": "uint256"
        }
      ],
      "name": "transferFrom",
      "outputs": [],
      "stateMutability": "nonpayable",
      "type": "function"
    },
    {
      "inputs": [
        {
          "internalType": "address",
          "name": "newOwner",
          "type": "address"
        }
      ],
      "name": "transferOwnership",
      "outputs": [],
      "stateMutability": "nonpayable",
      "type": "function"
    },
    {
      "inputs": [
        {
          "internalType": "uint256",
          "name": "tokenId",
          "type": "uint256"
        },
        {
          "internalType": "uint8",
          "name": "variant",
          "type": "uint8"
        }
      ],
      "name": "transform",
      "outputs": [],
      "stateMutability": "nonpayable",
      "type": "function"
    },
    {
      "inputs": [],
      "name": "trustedSigner",
      "outputs": [
        {
          "internalType": "address",
          "name": "",
          "type": "address"
        }
      ],
      "stateMutability": "view",
      "type": "function"
    },
    {
      "inputs": [
        {
          "internalType": "address payable",
          "name": "to",
          "type": "address"
        }
      ],
      "name": "withdraw",
      "outputs": [],
      "stateMutability": "nonpayable",
      "type": "function"
    }
  ],
  "bytecode": "0x60806040523480156200001157600080fd5b50604051620043a2380380620043a283398181016040528101906200003791906200039b565b33848481600090816200004b91906200068c565b5080600190816200005d91906200068c565b505050600073ffffffffffffffffffffffffffffffffffffffff168173ffffffffffffffffffffffffffffffffffffffff1603620000d55760006040517f1e4fbdf7000000000000000000000000000000000000000000000000000000008152600401620000cc9190620007b8565b60405180910390fd5b620000e6816200010760201b60201c565b508160088190555080600a81905550600160078190555050505050620007d5565b6000600660009054906101000a900473ffffffffffffffffffffffffffffffffffffffff16905081600660006101000a81548173ffffffffffffffffffffffffffffffffffffffff021916908373ffffffffffffffffffffffffffffffffffffffff1602179055508173ffffffffffffffffffffffffffffffffffffffff168173ffffffffffffffffffffffffffffffffffffffff167f8be0079c531659141344cd1fd0a4f28419497f9722a3daafe3b4186f6b6457e060405160405180910390a35050565b6000604051905090565b600080fd5b600080fd5b600080fd5b600080fd5b6000601f19601f8301169050919050565b7f4e487b7100000000000000000000000000000000000000000000000000000000600052604160045260246000fd5b6200023682620001eb565b810181811067ffffffffffffffff82111715620002585762000257620001fc565b5b80604052505050565b60006200026d620001cd565b90506200027b82826200022b565b919050565b600067ffffffffffffffff8211156200029e576200029d620001fc565b5b620002a982620001eb565b9050602081019050919050565b60005b83811015620002d6578082015181840152602081019050620002b9565b60008484015250505050565b6000620002f9620002f38462000280565b62000261565b905082815260208101848484011115620003185762000317620001e6565b5b62000325848285620002b6565b509392505050565b600082601f830112620003455762000344620001e1565b5b815162000357848260208601620002e2565b91505092915050565b6000819050919050565b620003758162000360565b81146200038157600080fd5b50565b60008151905062000395816200036a565b92915050565b60008060008060808587031215620003b857620003b7620001d7565b5b600085015167ffffffffffffffff811115620003d957620003d8620001dc565b5b620003e7878288016200032d565b945050602085015167ffffffffffffffff8111156200040b576200040a620001dc565b5b62000419878288016200032d565b93505060406200042c8782880162000384565b92505060606200043f8782880162000384565b91505092959194509250565b600081519050919050565b7f4e487b7100000000000000000000000000000000000000000000000000000000600052602260045260246000fd5b600060028204905060018216806200049e57607f821691505b602082108103620004b457620004b362000456565b5b50919050565b60008190508160005260206000209050919050565b60006020601f8301049050919050565b600082821b905092915050565b6000600883026200051e7fffffffffffffffffffffffffffffffffffffffffffffffffffffffffffffffff82620004df565b6200052a8683620004df565b95508019841693508086168417925050509392505050565b6000819050919050565b60006200056d62000567620005618462000360565b62000542565b62000360565b9050919050565b6000819050919050565b62000589836200054c565b620005a1620005988262000574565b848454620004ec565b825550505050565b600090565b620005b8620005a9565b620005c58184846200057e565b505050565b5b81811015620005ed57620005e1600082620005ae565b600181019050620005cb565b5050565b601f8211156200063c576200060681620004ba565b6200061184620004cf565b8101602085101562000621578190505b620006396200063085620004cf565b830182620005ca565b50505b505050565b600082821c905092915050565b6000620006616000198460080262000641565b1980831691505092915050565b60006200067c83836200064e565b9150826002028217905092915050565b62000697826200044b565b67ffffffffffffffff811115620006b357620006b2620001fc565b5b620006bf825462000485565b620006cc828285620005f1565b600060209050601f831160018114620007045760008415620006ef578287015190505b620006fb85826200066e565b8655506200076b565b601f1984166200071486620004ba565b60005b828110156200073e5784890151825560018201915060208501945060208101905062000717565b868310156200075e57848901516200075a601f8916826200064e565b8355505b6001600288020188555050505b505050505050565b600073ffffffffffffffffffffffffffffffffffffffff82169050919050565b6000620007a08262000773565b9050919050565b620007b28162000793565b82525050565b6000602082019050620007cf6000830184620007a7565b92915050565b613bbd80620007e56000396000f3fe6080604052600436106101cd5760003560e01c80638da5cb5b116100f7578063bcea0fec11610095578063e985e9c511610064578063e985e9c514610677578063f2fde38b146106b4578063f74d5480146106dd578063f78f647c14610708576101cd565b8063bcea0fec146105a9578063c87b56dd146105d2578063dd46edb81461060f578063e00dd1611461064c576101cd565b8063a22cb465116100d1578063a22cb46514610501578063a4f4f8af1461052a578063b7ec208614610555578063b88d4fde14610580576101cd565b80638da5cb5b1461048257806391b7f5ed146104ad57806395d89b41146104d6576101cd565b80632db115441161016f57806356a1c7011161013e57806356a1c701146103c85780636352211e146103f157806370a082311461042e578063715018a61461046b576101cd565b80632db115441461033157806342842e0e1461034d57806351cff8d91461037657806355f804b31461039f576101cd565b8063095ea7b3116101ab578063095ea7b3146102775780631a02b69e146102a057806323b872dd146102dd57806326a74d8e14610306576101cd565b806301ffc9a7146101d257806306fdde031461020f578063081812fc1461023a575b600080fd5b3480156101de57600080fd5b506101f960048036038101906101f4919061280e565b610731565b6040516102069190612856565b60405180910390f35b34801561021b57600080fd5b50610224610813565b6040516102319190612901565b60405180910390f35b34801561024657600080fd5b50610261600480360381019061025c9190612959565b6108a5565b60405161026e91906129c7565b60405180910390f35b34801561028357600080fd5b5061029e60048036038101906102999190612a0e565b6108c1565b005b3480156102ac57600080fd5b506102c760048036038101906102c29190612a4e565b6108d7565b6040516102d49190612856565b60405180910390f35b3480156102e957600080fd5b5061030460048036038101906102ff9190612a7b565b6108f7565b005b34801561031257600080fd5b5061031b6109f9565b6040516103289190612add565b60405180910390f35b61034b60048036038101906103469190612959565b6109ff565b005b34801561035957600080fd5b50610374600480360381019061036f9190612a7b565b610bb5565b005b34801561038257600080fd5b5061039d60048036038101906103989190612b36565b610bd5565b005b3480156103ab57600080fd5b506103c660048036038101906103c19190612c98565b610cdf565b005b3480156103d457600080fd5b506103ef60048036038101906103ea9190612a4e565b610cfa565b005b3480156103fd57600080fd5b5061041860048036038101906104139190612959565b610d46565b60405161042591906129c7565b60405180910390f35b34801561043a57600080fd5b5061045560048036038101906104509190612a4e565b610d58565b6040516104629190612add565b60405180910390f35b34801561047757600080fd5b50610480610e12565b005b34801561048e57600080fd5b50610497610e26565b6040516104a491906129c7565b60405180910390f35b3480156104b957600080fd5b506104d460048036038101906104cf9190612959565b610e50565b005b3480156104e257600080fd5b506104eb610e62565b6040516104f89190612901565b60405180910390f35b34801561050d57600080fd5b5061052860048036038101906105239190612d0d565b610ef4565b005b34801561053657600080fd5b5061053f610f0a565b60405161054c9190612add565b60405180910390f35b34801561056157600080fd5b5061056a610f10565b6040516105779190612add565b60405180910390f35b34801561058c57600080fd5b506105a760048036038101906105a29190612dee565b610f16565b005b3480156105b557600080fd5b506105d060048036038101906105cb9190612ed1565b610f3b565b005b3480156105de57600080fd5b506105f960048036038101906105f49190612959565b61126d565b6040516106069190612901565b60405180910390f35b34801561061b57600080fd5b5061063660048036038101906106319190612959565b61139d565b6040516106439190612f3a565b60405180910390f35b34801561065857600080fd5b506106616113bd565b60405161066e9190612add565b60405180910390f35b34801561068357600080fd5b5061069e60048036038101906106999190612f55565b6113c3565b6040516106ab9190612856565b60405180910390f35b3480156106c057600080fd5b506106db60048036038101906106d69190612a4e565b611457565b005b3480156106e957600080fd5b506106f26114dd565b6040516106ff91906129c7565b60405180910390f35b34801561071457600080fd5b5061072f600480360381019061072a9190612fc1565b611503565b005b60007f80ac58cd000000000000000000000000000000000000000000000000000000007bffffffffffffffffffffffffffffffffffffffffffffffffffffffff1916827bffffffffffffffffffffffffffffffffffffffffffffffffffffffff191614806107fc57507f5b5e139f000000000000000000000000000000000000000000000000000000007bffffffffffffffffffffffffffffffffffffffffffffffffffffffff1916827bffffffffffffffffffffffffffffffffffffffffffffffffffffffff1916145b8061080c575061080b826116e2565b5b9050919050565b60606000805461082290613030565b80601f016020809104026020016040519081016040528092919081815260200182805461084e90613030565b801561089b5780601f106108705761010080835404028352916020019161089b565b820191906000526020600020905b81548152906001019060200180831161087e57829003601f168201915b5050505050905090565b60006108b08261174c565b506108ba826117d4565b9050919050565b6108d382826108ce611811565b611819565b5050565b600c6020528060005260406000206000915054906101000a900460ff1681565b600073ffffffffffffffffffffffffffffffffffffffff168273ffffffffffffffffffffffffffffffffffffffff16036109695760006040517f64a0ae9200000000000000000000000000000000000000000000000000000000815260040161096091906129c7565b60405180910390fd5b600061097d8383610978611811565b61182b565b90508373ffffffffffffffffffffffffffffffffffffffff168173ffffffffffffffffffffffffffffffffffffffff16146109f3578382826040517f64283d7b0000000000000000000000000000000000000000000000000000000081526004016109ea93929190613061565b60405180910390fd5b50505050565b60085481565b60018114610a42576040517f08c379a0000000000000000000000000000000000000000000000000000000008152600401610a39906130e4565b60405180910390fd5b60085481600954610a539190613133565b1115610a94576040517f08c379a0000000000000000000000000000000000000000000000000000000008152600401610a8b906131b3565b60405180910390fd5b80600a54610aa291906131d3565b3414610ae3576040517f08c379a0000000000000000000000000000000000000000000000000000000008152600401610ada90613261565b60405180910390fd5b60005b81811015610b9857600060076000815480929190610b0390613281565b919050559050610b133382611a45565b6000600d600083815260200190815260200160002060006101000a81548160ff021916908360ff160217905550803373ffffffffffffffffffffffffffffffffffffffff167f748a2986091c2034d6e93b6f44f771a79f0e1d6acd8a60c68c17d4e1e2feaed260405160405180910390a3508080610b9090613281565b915050610ae6565b508060096000828254610bab9190613133565b9250508190555050565b610bd083838360405180602001604052806000815250610f16565b505050565b610bdd611a63565b600073ffffffffffffffffffffffffffffffffffffffff168173ffffffffffffffffffffffffffffffffffffffff1603610c4c576040517f08c379a0000000000000000000000000000000000000000000000000000000008152600401610c4390613315565b60405180910390fd5b600047905060008111610c94576040517f08c379a0000000000000000000000000000000000000000000000000000000008152600401610c8b90613381565b60405180910390fd5b8173ffffffffffffffffffffffffffffffffffffffff166108fc829081150290604051600060405180830381858888f19350505050158015610cda573d6000803e3d6000fd5b505050565b610ce7611a63565b80600e9081610cf6919061354d565b5050565b610d02611a63565b80600b60006101000a81548173ffffffffffffffffffffffffffffffffffffffff021916908373ffffffffffffffffffffffffffffffffffffffff16021790555050565b6000610d518261174c565b9050919050565b60008073ffffffffffffffffffffffffffffffffffffffff168273ffffffffffffffffffffffffffffffffffffffff1603610dcb5760006040517f89c62b64000000000000000000000000000000000000000000000000000000008152600401610dc291906129c7565b60405180910390fd5b600360008373ffffffffffffffffffffffffffffffffffffffff1673ffffffffffffffffffffffffffffffffffffffff168152602001908152602001600020549050919050565b610e1a611a63565b610e246000611aea565b565b6000600660009054906101000a900473ffffffffffffffffffffffffffffffffffffffff16905090565b610e58611a63565b80600a8190555050565b606060018054610e7190613030565b80601f0160208091040260200160405190810160405280929190818152602001828054610e9d90613030565b8015610eea5780601f10610ebf57610100808354040283529160200191610eea565b820191906000526020600020905b815481529060010190602001808311610ecd57829003601f168201915b5050505050905090565b610f06610eff611811565b8383611bb0565b5050565b60095481565b600a5481565b610f218484846108f7565b610f35610f2c611811565b85858585611d1f565b50505050565b600073ffffffffffffffffffffffffffffffffffffffff16600b60009054906101000a900473ffffffffffffffffffffffffffffffffffffffff1673ffffffffffffffffffffffffffffffffffffffff1603610fcc576040517f08c379a0000000000000000000000000000000000000000000000000000000008152600401610fc39061366b565b60405180910390fd5b600c60003373ffffffffffffffffffffffffffffffffffffffff1673ffffffffffffffffffffffffffffffffffffffff16815260200190815260200160002060009054906101000a900460ff1615611059576040517f08c379a0000000000000000000000000000000000000000000000000000000008152600401611050906136d7565b60405180910390fd5b600030463360405160200161107093929190613760565b604051602081830303815290604052805190602001209050600061109382611ed0565b905060006110e58286868080601f016020809104026020016040519081016040528093929190818152602001838380828437600081840152601f19601f82011690508083019250505050505050611f06565b9050600b60009054906101000a900473ffffffffffffffffffffffffffffffffffffffff1673ffffffffffffffffffffffffffffffffffffffff168173ffffffffffffffffffffffffffffffffffffffff1614611177576040517f08c379a000000000000000000000000000000000000000000000000000000000815260040161116e906137e9565b60405180910390fd5b6001600c60003373ffffffffffffffffffffffffffffffffffffffff1673ffffffffffffffffffffffffffffffffffffffff16815260200190815260200160002060006101000a81548160ff0219169083151502179055506000600760008154809291906111e490613281565b9190505590506111f43382611a45565b6000600d600083815260200190815260200160002060006101000a81548160ff021916908360ff160217905550803373ffffffffffffffffffffffffffffffffffffffff167fe9a10c23ea49d40011e019f115185f0bc29740208a504d35f951dca74ba37eac60405160405180910390a3505050505050565b60606112788261174c565b506000611283611f32565b90506000600d600085815260200190815260200160002060009054906101000a900460ff16905060006040518060400160405280600c81526020017f6e65757472616c2e6a736f6e0000000000000000000000000000000000000000815250905060018260ff160361132c576040518060400160405280600a81526020017f616e67656c2e6a736f6e000000000000000000000000000000000000000000008152509050611371565b60028260ff1603611370576040518060400160405280600a81526020017f646576696c2e6a736f6e0000000000000000000000000000000000000000000081525090505b5b8281604051602001611384929190613845565b6040516020818303038152906040529350505050919050565b600d6020528060005260406000206000915054906101000a900460ff1681565b60075481565b6000600560008473ffffffffffffffffffffffffffffffffffffffff1673ffffffffffffffffffffffffffffffffffffffff16815260200190815260200160002060008373ffffffffffffffffffffffffffffffffffffffff1673ffffffffffffffffffffffffffffffffffffffff16815260200190815260200160002060009054906101000a900460ff16905092915050565b61145f611a63565b600073ffffffffffffffffffffffffffffffffffffffff168173ffffffffffffffffffffffffffffffffffffffff16036114d15760006040517f1e4fbdf70000000000000000000000000000000000000000000000000000000081526004016114c891906129c7565b60405180910390fd5b6114da81611aea565b50565b600b60009054906101000a900473ffffffffffffffffffffffffffffffffffffffff1681565b60018160ff161480611518575060028160ff16145b611557576040517f08c379a000000000000000000000000000000000000000000000000000000000815260040161154e906138b5565b60405180910390fd5b3373ffffffffffffffffffffffffffffffffffffffff1661157783610d46565b73ffffffffffffffffffffffffffffffffffffffff16146115cd576040517f08c379a00000000000000000000000000000000000000000000000000000000081526004016115c490613921565b60405180910390fd5b6000600d600084815260200190815260200160002060009054906101000a900460ff1660ff1614611633576040517f08c379a000000000000000000000000000000000000000000000000000000000815260040161162a906139b3565b60405180910390fd5b61163c82611fc4565b60006007600081548092919061165190613281565b9190505590506116613382611a45565b81600d600083815260200190815260200160002060006101000a81548160ff021916908360ff16021790555080833373ffffffffffffffffffffffffffffffffffffffff167f598067bc48ef38b7785eda047c375b2d45f2b845404b58dcdfccf40e7f38d869856040516116d59190612f3a565b60405180910390a4505050565b60007f01ffc9a7000000000000000000000000000000000000000000000000000000007bffffffffffffffffffffffffffffffffffffffffffffffffffffffff1916827bffffffffffffffffffffffffffffffffffffffffffffffffffffffff1916149050919050565b6000806117588361204a565b9050600073ffffffffffffffffffffffffffffffffffffffff168173ffffffffffffffffffffffffffffffffffffffff16036117cb57826040517f7e2732890000000000000000000000000000000000000000000000000000000081526004016117c29190612add565b60405180910390fd5b80915050919050565b60006004600083815260200190815260200160002060009054906101000a900473ffffffffffffffffffffffffffffffffffffffff169050919050565b600033905090565b6118268383836001612087565b505050565b6000806118378461204a565b9050600073ffffffffffffffffffffffffffffffffffffffff168373ffffffffffffffffffffffffffffffffffffffff16146118795761187881848661224c565b5b600073ffffffffffffffffffffffffffffffffffffffff168173ffffffffffffffffffffffffffffffffffffffff161461190a576118bb600085600080612087565b6001600360008373ffffffffffffffffffffffffffffffffffffffff1673ffffffffffffffffffffffffffffffffffffffff168152602001908152602001600020600082825403925050819055505b600073ffffffffffffffffffffffffffffffffffffffff168573ffffffffffffffffffffffffffffffffffffffff161461198d576001600360008773ffffffffffffffffffffffffffffffffffffffff1673ffffffffffffffffffffffffffffffffffffffff168152602001908152602001600020600082825401925050819055505b846002600086815260200190815260200160002060006101000a81548173ffffffffffffffffffffffffffffffffffffffff021916908373ffffffffffffffffffffffffffffffffffffffff160217905550838573ffffffffffffffffffffffffffffffffffffffff168273ffffffffffffffffffffffffffffffffffffffff167fddf252ad1be2c89b69c2b068fc378daa952ba7f163c4a11628f55a4df523b3ef60405160405180910390a4809150509392505050565b611a5f828260405180602001604052806000815250612310565b5050565b611a6b611811565b73ffffffffffffffffffffffffffffffffffffffff16611a89610e26565b73ffffffffffffffffffffffffffffffffffffffff1614611ae857611aac611811565b6040517f118cdaa7000000000000000000000000000000000000000000000000000000008152600401611adf91906129c7565b60405180910390fd5b565b6000600660009054906101000a900473ffffffffffffffffffffffffffffffffffffffff16905081600660006101000a81548173ffffffffffffffffffffffffffffffffffffffff021916908373ffffffffffffffffffffffffffffffffffffffff1602179055508173ffffffffffffffffffffffffffffffffffffffff168173ffffffffffffffffffffffffffffffffffffffff167f8be0079c531659141344cd1fd0a4f28419497f9722a3daafe3b4186f6b6457e060405160405180910390a35050565b600073ffffffffffffffffffffffffffffffffffffffff168273ffffffffffffffffffffffffffffffffffffffff1603611c2157816040517f5b08ba18000000000000000000000000000000000000000000000000000000008152600401611c1891906129c7565b60405180910390fd5b80600560008573ffffffffffffffffffffffffffffffffffffffff1673ffffffffffffffffffffffffffffffffffffffff16815260200190815260200160002060008473ffffffffffffffffffffffffffffffffffffffff1673ffffffffffffffffffffffffffffffffffffffff16815260200190815260200160002060006101000a81548160ff0219169083151502179055508173ffffffffffffffffffffffffffffffffffffffff168373ffffffffffffffffffffffffffffffffffffffff167f17307eab39ab6107e8899845ad3d59bd9653f200f220920489ca2b5937696c3183604051611d129190612856565b60405180910390a3505050565b60008373ffffffffffffffffffffffffffffffffffffffff163b1115611ec9578273ffffffffffffffffffffffffffffffffffffffff1663150b7a02868685856040518563ffffffff1660e01b8152600401611d7e9493929190613a28565b6020604051808303816000875af1925050508015611dba57506040513d601f19601f82011682018060405250810190611db79190613a89565b60015b611e3e573d8060008114611dea576040519150601f19603f3d011682016040523d82523d6000602084013e611def565b606091505b506000815103611e3657836040517f64a0ae92000000000000000000000000000000000000000000000000000000008152600401611e2d91906129c7565b60405180910390fd5b805160208201fd5b63150b7a0260e01b7bffffffffffffffffffffffffffffffffffffffffffffffffffffffff1916817bffffffffffffffffffffffffffffffffffffffffffffffffffffffff191614611ec757836040517f64a0ae92000000000000000000000000000000000000000000000000000000008152600401611ebe91906129c7565b60405180910390fd5b505b5050505050565b60007f19457468657265756d205369676e6564204d6573736167653a0a33320000000060005281601c52603c6000209050919050565b600080600080611f168686612334565b925092509250611f268282612390565b82935050505092915050565b6060600e8054611f4190613030565b80601f0160208091040260200160405190810160405280929190818152602001828054611f6d90613030565b8015611fba5780601f10611f8f57610100808354040283529160200191611fba565b820191906000526020600020905b815481529060010190602001808311611f9d57829003601f168201915b5050505050905090565b6000611fd3600083600061182b565b9050600073ffffffffffffffffffffffffffffffffffffffff168173ffffffffffffffffffffffffffffffffffffffff160361204657816040517f7e27328900000000000000000000000000000000000000000000000000000000815260040161203d9190612add565b60405180910390fd5b5050565b60006002600083815260200190815260200160002060009054906101000a900473ffffffffffffffffffffffffffffffffffffffff169050919050565b80806120c05750600073ffffffffffffffffffffffffffffffffffffffff168273ffffffffffffffffffffffffffffffffffffffff1614155b156121f45760006120d08461174c565b9050600073ffffffffffffffffffffffffffffffffffffffff168373ffffffffffffffffffffffffffffffffffffffff161415801561213b57508273ffffffffffffffffffffffffffffffffffffffff168173ffffffffffffffffffffffffffffffffffffffff1614155b801561214e575061214c81846113c3565b155b1561219057826040517fa9fbf51f00000000000000000000000000000000000000000000000000000000815260040161218791906129c7565b60405180910390fd5b81156121f257838573ffffffffffffffffffffffffffffffffffffffff168273ffffffffffffffffffffffffffffffffffffffff167f8c5be1e5ebec7d5bd14f71427d1e84f3dd0314c0f7b2291e5b200ac8c7c3b92560405160405180910390a45b505b836004600085815260200190815260200160002060006101000a81548173ffffffffffffffffffffffffffffffffffffffff021916908373ffffffffffffffffffffffffffffffffffffffff16021790555050505050565b6122578383836124f4565b61230b57600073ffffffffffffffffffffffffffffffffffffffff168373ffffffffffffffffffffffffffffffffffffffff16036122cc57806040517f7e2732890000000000000000000000000000000000000000000000000000000081526004016122c39190612add565b60405180910390fd5b81816040517f177e802f000000000000000000000000000000000000000000000000000000008152600401612302929190613ab6565b60405180910390fd5b505050565b61231a83836125b5565b61232f612325611811565b6000858585611d1f565b505050565b600080600060418451036123795760008060006020870151925060408701519150606087015160001a905061236b888285856126ae565b955095509550505050612389565b60006002855160001b9250925092505b9250925092565b600060038111156123a4576123a3613adf565b5b8260038111156123b7576123b6613adf565b5b03156124f057600160038111156123d1576123d0613adf565b5b8260038111156123e4576123e3613adf565b5b0361241b576040517ff645eedf00000000000000000000000000000000000000000000000000000000815260040160405180910390fd5b6002600381111561242f5761242e613adf565b5b82600381111561244257612441613adf565b5b03612487578060001c6040517ffce698f700000000000000000000000000000000000000000000000000000000815260040161247e9190612add565b60405180910390fd5b60038081111561249a57612499613adf565b5b8260038111156124ad576124ac613adf565b5b036124ef57806040517fd78bce0c0000000000000000000000000000000000000000000000000000000081526004016124e69190613b27565b60405180910390fd5b5b5050565b60008073ffffffffffffffffffffffffffffffffffffffff168373ffffffffffffffffffffffffffffffffffffffff16141580156125ac57508273ffffffffffffffffffffffffffffffffffffffff168473ffffffffffffffffffffffffffffffffffffffff16148061256d575061256c84846113c3565b5b806125ab57508273ffffffffffffffffffffffffffffffffffffffff16612593836117d4565b73ffffffffffffffffffffffffffffffffffffffff16145b5b90509392505050565b600073ffffffffffffffffffffffffffffffffffffffff168273ffffffffffffffffffffffffffffffffffffffff16036126275760006040517f64a0ae9200000000000000000000000000000000000000000000000000000000815260040161261e91906129c7565b60405180910390fd5b60006126358383600061182b565b9050600073ffffffffffffffffffffffffffffffffffffffff168173ffffffffffffffffffffffffffffffffffffffff16146126a95760006040517f73c6ac6e0000000000000000000000000000000000000000000000000000000081526004016126a091906129c7565b60405180910390fd5b505050565b60008060007f7fffffffffffffffffffffffffffffff5d576e7357a4501ddfe92f46681b20a08460001c11156126ee576000600385925092509250612798565b6000600188888888604051600081526020016040526040516127139493929190613b42565b6020604051602081039080840390855afa158015612735573d6000803e3d6000fd5b505050602060405103519050600073ffffffffffffffffffffffffffffffffffffffff168173ffffffffffffffffffffffffffffffffffffffff160361278957600060016000801b93509350935050612798565b8060008060001b935093509350505b9450945094915050565b6000604051905090565b600080fd5b600080fd5b60007fffffffff0000000000000000000000000000000000000000000000000000000082169050919050565b6127eb816127b6565b81146127f657600080fd5b50565b600081359050612808816127e2565b92915050565b600060208284031215612824576128236127ac565b5b6000612832848285016127f9565b91505092915050565b60008115159050919050565b6128508161283b565b82525050565b600060208201905061286b6000830184612847565b92915050565b600081519050919050565b600082825260208201905092915050565b60005b838110156128ab578082015181840152602081019050612890565b60008484015250505050565b6000601f19601f8301169050919050565b60006128d382612871565b6128dd818561287c565b93506128ed81856020860161288d565b6128f6816128b7565b840191505092915050565b6000602082019050818103600083015261291b81846128c8565b905092915050565b6000819050919050565b61293681612923565b811461294157600080fd5b50565b6000813590506129538161292d565b92915050565b60006020828403121561296f5761296e6127ac565b5b600061297d84828501612944565b91505092915050565b600073ffffffffffffffffffffffffffffffffffffffff82169050919050565b60006129b182612986565b9050919050565b6129c1816129a6565b82525050565b60006020820190506129dc60008301846129b8565b92915050565b6129eb816129a6565b81146129f657600080fd5b50565b600081359050612a08816129e2565b92915050565b60008060408385031215612a2557612a246127ac565b5b6000612a33858286016129f9565b9250506020612a4485828601612944565b9150509250929050565b600060208284031215612a6457612a636127ac565b5b6000612a72848285016129f9565b91505092915050565b600080600060608486031215612a9457612a936127ac565b5b6000612aa2868287016129f9565b9350506020612ab3868287016129f9565b9250506040612ac486828701612944565b9150509250925092565b612ad781612923565b82525050565b6000602082019050612af26000830184612ace565b92915050565b6000612b0382612986565b9050919050565b612b1381612af8565b8114612b1e57600080fd5b50565b600081359050612b3081612b0a565b92915050565b600060208284031215612b4c57612b4b6127ac565b5b6000612b5a84828501612b21565b91505092915050565b600080fd5b600080fd5b7f4e487b7100000000000000000000000000000000000000000000000000000000600052604160045260246000fd5b612ba5826128b7565b810181811067ffffffffffffffff82111715612bc457612bc3612b6d565b5b80604052505050565b6000612bd76127a2565b9050612be38282612b9c565b919050565b600067ffffffffffffffff821115612c0357612c02612b6d565b5b612c0c826128b7565b9050602081019050919050565b82818337600083830152505050565b6000612c3b612c3684612be8565b612bcd565b905082815260208101848484011115612c5757612c56612b68565b5b612c62848285612c19565b509392505050565b600082601f830112612c7f57612c7e612b63565b5b8135612c8f848260208601612c28565b91505092915050565b600060208284031215612cae57612cad6127ac565b5b600082013567ffffffffffffffff811115612ccc57612ccb6127b1565b5b612cd884828501612c6a565b91505092915050565b612cea8161283b565b8114612cf557600080fd5b50565b600081359050612d0781612ce1565b92915050565b60008060408385031215612d2457612d236127ac565b5b6000612d32858286016129f9565b9250506020612d4385828601612cf8565b9150509250929050565b600067ffffffffffffffff821115612d6857612d67612b6d565b5b612d71826128b7565b9050602081019050919050565b6000612d91612d8c84612d4d565b612bcd565b905082815260208101848484011115612dad57612dac612b68565b5b612db8848285612c19565b509392505050565b600082601f830112612dd557612dd4612b63565b5b8135612de5848260208601612d7e565b91505092915050565b60008060008060808587031215612e0857612e076127ac565b5b6000612e16878288016129f9565b9450506020612e27878288016129f9565b9350506040612e3887828801612944565b925050606085013567ffffffffffffffff811115612e5957612e586127b1565b5b612e6587828801612dc0565b91505092959194509250565b600080fd5b600080fd5b60008083601f840112612e9157612e90612b63565b5b8235905067ffffffffffffffff811115612eae57612ead612e71565b5b602083019150836001820283011115612eca57612ec9612e76565b5b9250929050565b60008060208385031215612ee857612ee76127ac565b5b600083013567ffffffffffffffff811115612f0657612f056127b1565b5b612f1285828601612e7b565b92509250509250929050565b600060ff82169050919050565b612f3481612f1e565b82525050565b6000602082019050612f4f6000830184612f2b565b92915050565b60008060408385031215612f6c57612f6b6127ac565b5b6000612f7a858286016129f9565b9250506020612f8b858286016129f9565b9150509250929050565b612f9e81612f1e565b8114612fa957600080fd5b50565b600081359050612fbb81612f95565b92915050565b60008060408385031215612fd857612fd76127ac565b5b6000612fe685828601612944565b9250506020612ff785828601612fac565b9150509250929050565b7f4e487b7100000000000000000000000000000000000000000000000000000000600052602260045260246000fd5b6000600282049050600182168061304857607f821691505b60208210810361305b5761305a613001565b5b50919050565b600060608201905061307660008301866129b8565b6130836020830185612ace565b61309060408301846129b8565b949350505050565b7f6f6e6c79203120746f6b656e2070657220747800000000000000000000000000600082015250565b60006130ce60138361287c565b91506130d982613098565b602082019050919050565b600060208201905081810360008301526130fd816130c1565b9050919050565b7f4e487b7100000000000000000000000000000000000000000000000000000000600052601160045260246000fd5b600061313e82612923565b915061314983612923565b925082820190508082111561316157613160613104565b5b92915050565b7f7075626c696320736f6c64206f75740000000000000000000000000000000000600082015250565b600061319d600f8361287c565b91506131a882613167565b602082019050919050565b600060208201905081810360008301526131cc81613190565b9050919050565b60006131de82612923565b91506131e983612923565b92508282026131f781612923565b9150828204841483151761320e5761320d613104565b5b5092915050565b7f696e636f7272656374207061796d656e74000000000000000000000000000000600082015250565b600061324b60118361287c565b915061325682613215565b602082019050919050565b6000602082019050818103600083015261327a8161323e565b9050919050565b600061328c82612923565b91507fffffffffffffffffffffffffffffffffffffffffffffffffffffffffffffffff82036132be576132bd613104565b5b600182019050919050565b7f696e76616c696420616464726573730000000000000000000000000000000000600082015250565b60006132ff600f8361287c565b915061330a826132c9565b602082019050919050565b6000602082019050818103600083015261332e816132f2565b9050919050565b7f6e6f2066756e6473000000000000000000000000000000000000000000000000600082015250565b600061336b60088361287c565b915061337682613335565b602082019050919050565b6000602082019050818103600083015261339a8161335e565b9050919050565b60008190508160005260206000209050919050565b60006020601f8301049050919050565b600082821b905092915050565b6000600883026134037fffffffffffffffffffffffffffffffffffffffffffffffffffffffffffffffff826133c6565b61340d86836133c6565b95508019841693508086168417925050509392505050565b6000819050919050565b600061344a61344561344084612923565b613425565b612923565b9050919050565b6000819050919050565b6134648361342f565b61347861347082613451565b8484546133d3565b825550505050565b600090565b61348d613480565b61349881848461345b565b505050565b5b818110156134bc576134b1600082613485565b60018101905061349e565b5050565b601f821115613501576134d2816133a1565b6134db846133b6565b810160208510156134ea578190505b6134fe6134f6856133b6565b83018261349d565b50505b505050565b600082821c905092915050565b600061352460001984600802613506565b1980831691505092915050565b600061353d8383613513565b9150826002028217905092915050565b61355682612871565b67ffffffffffffffff81111561356f5761356e612b6d565b5b6135798254613030565b6135848282856134c0565b600060209050601f8311600181146135b757600084156135a5578287015190505b6135af8582613531565b865550613617565b601f1984166135c5866133a1565b60005b828110156135ed578489015182556001820191506020850194506020810190506135c8565b8683101561360a5784890151613606601f891682613513565b8355505b6001600288020188555050505b505050505050565b7f74727573746564207369676e6572206e6f742073657400000000000000000000600082015250565b600061365560168361287c565b91506136608261361f565b602082019050919050565b6000602082019050818103600083015261368481613648565b9050919050565b7f616c726561647920636c61696d6564206f6e2d636861696e0000000000000000600082015250565b60006136c160188361287c565b91506136cc8261368b565b602082019050919050565b600060208201905081810360008301526136f0816136b4565b9050919050565b60008160601b9050919050565b600061370f826136f7565b9050919050565b600061372182613704565b9050919050565b613739613734826129a6565b613716565b82525050565b6000819050919050565b61375a61375582612923565b61373f565b82525050565b600061376c8286613728565b60148201915061377c8285613749565b60208201915061378c8284613728565b601482019150819050949350505050565b7f696e76616c6964207369676e6174757265000000000000000000000000000000600082015250565b60006137d360118361287c565b91506137de8261379d565b602082019050919050565b60006020820190508181036000830152613802816137c6565b9050919050565b600081905092915050565b600061381f82612871565b6138298185613809565b935061383981856020860161288d565b80840191505092915050565b60006138518285613814565b915061385d8284613814565b91508190509392505050565b7f696e76616c69642076617269616e740000000000000000000000000000000000600082015250565b600061389f600f8361287c565b91506138aa82613869565b602082019050919050565b600060208201905081810360008301526138ce81613892565b9050919050565b7f6e6f74206f776e65720000000000000000000000000000000000000000000000600082015250565b600061390b60098361287c565b9150613916826138d5565b602082019050919050565b6000602082019050818103600083015261393a816138fe565b9050919050565b7f6f6e6c79206e65757472616c20746f6b656e732063616e206265207472616e7360008201527f666f726d65640000000000000000000000000000000000000000000000000000602082015250565b600061399d60268361287c565b91506139a882613941565b604082019050919050565b600060208201905081810360008301526139cc81613990565b9050919050565b600081519050919050565b600082825260208201905092915050565b60006139fa826139d3565b613a0481856139de565b9350613a1481856020860161288d565b613a1d816128b7565b840191505092915050565b6000608082019050613a3d60008301876129b8565b613a4a60208301866129b8565b613a576040830185612ace565b8181036060830152613a6981846139ef565b905095945050505050565b600081519050613a83816127e2565b92915050565b600060208284031215613a9f57613a9e6127ac565b5b6000613aad84828501613a74565b91505092915050565b6000604082019050613acb60008301856129b8565b613ad86020830184612ace565b9392505050565b7f4e487b7100000000000000000000000000000000000000000000000000000000600052602160045260246000fd5b6000819050919050565b613b2181613b0e565b82525050565b6000602082019050613b3c6000830184613b18565b92915050565b6000608082019050613b576000830187613b18565b613b646020830186612f2b565b613b716040830185613b18565b613b7e6060830184613b18565b9594505050505056fea2646970667358221220965d70f8317fd8b90e0291c5c96e235ab40de289e5325ad33e2e6f8729997e9564736f6c63430008140033",
  "linkReferences": {},
  "deployedLinkReferences": {}
}