{
  "_format": "hh-sol-artifact-1",
  "contractName": "NeutralHeart",
  "sourceName": "contracts/NeutralHeart.sol",
  "abi": [
    {
      "inputs": [
        {
          "internalType": "string",
          "name": "name_",
          "type": "string"
        },
        {
          "internalType": "string",
          "name": "symbol_",
          "type": "string"
        },
        {
          "internalType": "uint256",
          "name": "maxPublicSupply_",
          "type": "uint256"
        },
        {
          "internalType": "uint256",
          "name": "priceWei_",
          "type": "uint256"
        }
      ],
      "stateMutability": "nonpayable",
      "type": "constructor"
    },
    {
      "inputs": [],
      "name": "ECDSAInvalidSignature",
      "type": "error"
    },
    {
      "inputs": [
        {
          "internalType": "uint256",
          "name": "length",
          "type": "uint256"
        }
      ],
      "name": "ECDSAInvalidSignatureLength",
      "type": "error"
    },
    {
      "inputs": [
        {
          "internalType": "bytes32",
          "name": "s",
          "type": "bytes32"
        }
      ],
      "name": "ECDSAInvalidSignatureS",
      "type": "error"
    },
    {
      "inputs": [
        {
          "internalType": "address",
          "name": "sender",
          "type": "address"
        },
        {
          "internalType": "uint256",
          "name": "tokenId",
          "type": "uint256"
        },
        {
          "internalType": "address",
          "name": "owner",
          "type": "address"
        }
      ],
      "name": "ERC721IncorrectOwner",
      "type": "error"
    },
    {
      "inputs": [
        {
          "internalType": "address",
          "name": "operator",
          "type": "address"
        },
        {
          "internalType": "uint256",
          "name": "tokenId",
          "type": "uint256"
        }
      ],
      "name": "ERC721InsufficientApproval",
      "type": "error"
    },
    {
      "inputs": [
        {
          "internalType": "address",
          "name": "approver",
          "type": "address"
        }
      ],
      "name": "ERC721InvalidApprover",
      "type": "error"
    },
    {
      "inputs": [
        {
          "internalType": "address",
          "name": "operator",
          "type": "address"
        }
      ],
      "name": "ERC721InvalidOperator",
      "type": "error"
    },
    {
      "inputs": [
        {
          "internalType": "address",
          "name": "owner",
          "type": "address"
        }
      ],
      "name": "ERC721InvalidOwner",
      "type": "error"
    },
    {
      "inputs": [
        {
          "internalType": "address",
          "name": "receiver",
          "type": "address"
        }
      ],
      "name": "ERC721InvalidReceiver",
      "type": "error"
    },
    {
      "inputs": [
        {
          "internalType": "address",
          "name": "sender",
          "type": "address"
        }
      ],
      "name": "ERC721InvalidSender",
      "type": "error"
    },
    {
      "inputs": [
        {
          "internalType": "uint256",
          "name": "tokenId",
          "type": "uint256"
        }
      ],
      "name": "ERC721NonexistentToken",
      "type": "error"
    },
    {
      "inputs": [
        {
          "internalType": "address",
          "name": "owner",
          "type": "address"
        }
      ],
      "name": "OwnableInvalidOwner",
      "type": "error"
    },
    {
      "inputs": [
        {
          "internalType": "address",
          "name": "account",
          "type": "address"
        }
      ],
      "name": "OwnableUnauthorizedAccount",
      "type": "error"
    },
    {
      "anonymous": false,
      "inputs": [
        {
          "indexed": true,
          "internalType": "address",
          "name": "owner",
          "type": "address"
        },
        {
          "indexed": true,
          "internalType": "address",
          "name": "approved",
          "type": "address"
        },
        {
          "indexed": true,
          "internalType": "uint256",
          "name": "tokenId",
          "type": "uint256"
        }
      ],
      "name": "Approval",
      "type": "event"
    },
    {
      "anonymous": false,
      "inputs": [
        {
          "indexed": true,
          "internalType": "address",
          "name": "owner",
          "type": "address"
        },
        {
          "indexed": true,
          "internalType": "address",
          "name": "operator",
          "type": "address"
        },
        {
          "indexed": false,
          "internalType": "bool",
          "name": "approved",
          "type": "bool"
        }
      ],
      "name": "ApprovalForAll",
      "type": "event"
    },
    {
      "anonymous": false,
      "inputs": [
        {
          "indexed": true,
          "internalType": "address",
          "name": "previousOwner",
          "type": "address"
        },
        {
          "indexed": true,
          "internalType": "address",
          "name": "newOwner",
          "type": "address"
        }
      ],
      "name": "OwnershipTransferred",
      "type": "event"
    },
    {
      "anonymous": false,
      "inputs": [
        {
          "indexed": true,
          "internalType": "address",
          "name": "to",
          "type": "address"
        },
        {
          "indexed": true,
          "internalType": "uint256",
          "name": "tokenId",
          "type": "uint256"
        }
      ],
      "name": "PublicMint",
      "type": "event"
    },
    {
      "anonymous": false,
      "inputs": [
        {
          "indexed": true,
          "internalType": "address",
          "name": "to",
          "type": "address"
        },
        {
          "indexed": true,
          "internalType": "uint256",
          "name": "tokenId",
          "type": "uint256"
        }
      ],
      "name": "SubscriberClaim",
      "type": "event"
    },
    {
      "anonymous": false,
      "inputs": [
        {
          "indexed": true,
          "internalType": "address",
          "name": "from",
          "type": "address"
        },
        {
          "indexed": true,
          "internalType": "address",
          "name": "to",
          "type": "address"
        },
        {
          "indexed": true,
          "internalType": "uint256",
          "name": "tokenId",
          "type": "uint256"
        }
      ],
      "name": "Transfer",
      "type": "event"
    },
    {
      "inputs": [
        {
          "internalType": "address",
          "name": "to",
          "type": "address"
        },
        {
          "internalType": "uint256",
          "name": "tokenId",
          "type": "uint256"
        }
      ],
      "name": "approve",
      "outputs": [],
      "stateMutability": "nonpayable",
      "type": "function"
    },
    {
      "inputs": [
        {
          "internalType": "address",
          "name": "owner",
          "type": "address"
        }
      ],
      "name": "balanceOf",
      "outputs": [
        {
          "internalType": "uint256",
          "name": "",
          "type": "uint256"
        }
      ],
      "stateMutability": "view",
      "type": "function"
    },
    {
      "inputs": [
        {
          "internalType": "bytes",
          "name": "signature",
          "type": "bytes"
        }
      ],
      "name": "claimForSubscriber",
      "outputs": [],
      "stateMutability": "nonpayable",
      "type": "function"
    },
    {
      "inputs": [],
      "name": "currentId",
      "outputs": [
        {
          "internalType": "uint256",
          "name": "",
          "type": "uint256"
        }
      ],
      "stateMutability": "view",
      "type": "function"
    },
    {
      "inputs": [
        {
          "internalType": "uint256",
          "name": "tokenId",
          "type": "uint256"
        }
      ],
      "name": "getApproved",
      "outputs": [
        {
          "internalType": "address",
          "name": "",
          "type": "address"
        }
      ],
      "stateMutability": "view",
      "type": "function"
    },
    {
      "inputs": [
        {
          "internalType": "address",
          "name": "",
          "type": "address"
        }
      ],
      "name": "hasClaimedOnChain",
      "outputs": [
        {
          "internalType": "bool",
          "name": "",
          "type": "bool"
        }
      ],
      "stateMutability": "view",
      "type": "function"
    },
    {
      "inputs": [
        {
          "internalType": "address",
          "name": "owner",
          "type": "address"
        },
        {
          "internalType": "address",
          "name": "operator",
          "type": "address"
        }
      ],
      "name": "isApprovedForAll",
      "outputs": [
        {
          "internalType": "bool",
          "name": "",
          "type": "bool"
        }
      ],
      "stateMutability": "view",
      "type": "function"
    },
    {
      "inputs": [],
      "name": "maxPublicSupply",
      "outputs": [
        {
          "internalType": "uint256",
          "name": "",
          "type": "uint256"
        }
      ],
      "stateMutability": "view",
      "type": "function"
    },
    {
      "inputs": [],
      "name": "name",
      "outputs": [
        {
          "internalType": "string",
          "name": "",
          "type": "string"
        }
      ],
      "stateMutability": "view",
      "type": "function"
    },
    {
      "inputs": [],
      "name": "owner",
      "outputs": [
        {
          "internalType": "address",
          "name": "",
          "type": "address"
        }
      ],
      "stateMutability": "view",
      "type": "function"
    },
    {
      "inputs": [
        {
          "internalType": "uint256",
          "name": "tokenId",
          "type": "uint256"
        }
      ],
      "name": "ownerOf",
      "outputs": [
        {
          "internalType": "address",
          "name": "",
          "type": "address"
        }
      ],
      "stateMutability": "view",
      "type": "function"
    },
    {
      "inputs": [],
      "name": "priceWei",
      "outputs": [
        {
          "internalType": "uint256",
          "name": "",
          "type": "uint256"
        }
      ],
      "stateMutability": "view",
      "type": "function"
    },
    {
      "inputs": [
        {
          "internalType": "uint256",
          "name": "qty",
          "type": "uint256"
        }
      ],
      "name": "publicMint",
      "outputs": [],
      "stateMutability": "payable",
      "type": "function"
    },
    {
      "inputs": [],
      "name": "publicMinted",
      "outputs": [
        {
          "internalType": "uint256",
          "name": "",
          "type": "uint256"
        }
      ],
      "stateMutability": "view",
      "type": "function"
    },
    {
      "inputs": [],
      "name": "renounceOwnership",
      "outputs": [],
      "stateMutability": "nonpayable",
      "type": "function"
    },
    {
      "inputs": [
        {
          "internalType": "address",
          "name": "from",
          "type": "address"
        },
        {
          "internalType": "address",
          "name": "to",
          "type": "address"
        },
        {
          "internalType": "uint256",
          "name": "tokenId",
          "type": "uint256"
        }
      ],
      "name": "safeTransferFrom",
      "outputs": [],
      "stateMutability": "nonpayable",
      "type": "function"
    },
    {
      "inputs": [
        {
          "internalType": "address",
          "name": "from",
          "type": "address"
        },
        {
          "internalType": "address",
          "name": "to",
          "type": "address"
        },
        {
          "internalType": "uint256",
          "name": "tokenId",
          "type": "uint256"
        },
        {
          "internalType": "bytes",
          "name": "data",
          "type": "bytes"
        }
      ],
      "name": "safeTransferFrom",
      "outputs": [],
      "stateMutability": "nonpayable",
      "type": "function"
    },
    {
      "inputs": [
        {
          "internalType": "address",
          "name": "operator",
          "type": "address"
        },
        {
          "internalType": "bool",
          "name": "approved",
          "type": "bool"
        }
      ],
      "name": "setApprovalForAll",
      "outputs": [],
      "stateMutability": "nonpayable",
      "type": "function"
    },
    {
      "inputs": [
        {
          "internalType": "string",
          "name": "b",
          "type": "string"
        }
      ],
      "name": "setBaseURI",
      "outputs": [],
      "stateMutability": "nonpayable",
      "type": "function"
    },
    {
      "inputs": [
        {
          "internalType": "address",
          "name": "s",
          "type": "address"
        }
      ],
      "name": "setTrustedSigner",
      "outputs": [],
      "stateMutability": "nonpayable",
      "type": "function"
    },
    {
      "inputs": [
        {
          "internalType": "bytes4",
          "name": "interfaceId",
          "type": "bytes4"
        }
      ],
      "name": "supportsInterface",
      "outputs": [
        {
          "internalType": "bool",
          "name": "",
          "type": "bool"
        }
      ],
      "stateMutability": "view",
      "type": "function"
    },
    {
      "inputs": [],
      "name": "symbol",
      "outputs": [
        {
          "internalType": "string",
          "name": "",
          "type": "string"
        }
      ],
      "stateMutability": "view",
      "type": "function"
    },
    {
      "inputs": [
        {
          "internalType": "uint256",
          "name": "tokenId",
          "type": "uint256"
        }
      ],
      "name": "tokenURI",
      "outputs": [
        {
          "internalType": "string",
          "name": "",
          "type": "string"
        }
      ],
      "stateMutability": "view",
      "type": "function"
    },
    {
      "inputs": [
        {
          "internalType": "address",
          "name": "from",
          "type": "address"
        },
        {
          "internalType": "address",
          "name": "to",
          "type": "address"
        },
        {
          "internalType": "uint256",
          "name": "tokenId",
          "type": "uint256"
        }
      ],
      "name": "transferFrom",
      "outputs": [],
      "stateMutability": "nonpayable",
      "type": "function"
    },
    {
      "inputs": [
        {
          "internalType": "address",
          "name": "newOwner",
          "type": "address"
        }
      ],
      "name": "transferOwnership",
      "outputs": [],
      "stateMutability": "nonpayable",
      "type": "function"
    },
    {
      "inputs": [],
      "name": "trustedSigner",
      "outputs": [
        {
          "internalType": "address",
          "name": "",
          "type": "address"
        }
      ],
      "stateMutability": "view",
      "type": "function"
    },
    {
      "inputs": [
        {
          "internalType": "address payable",
          "name": "to",
          "type": "address"
        }
      ],
      "name": "withdraw",
      "outputs": [],
      "stateMutability": "nonpayable",
      "type": "function"
    }
  ],
  "bytecode": "0x60806040523480156200001157600080fd5b5060405162003f9638038062003f9683398181016040528101906200003791906200039b565b33848481600090816200004b91906200068c565b5080600190816200005d91906200068c565b505050600073ffffffffffffffffffffffffffffffffffffffff168173ffffffffffffffffffffffffffffffffffffffff1603620000d55760006040517f1e4fbdf7000000000000000000000000000000000000000000000000000000008152600401620000cc9190620007b8565b60405180910390fd5b620000e6816200010760201b60201c565b508160088190555080600a81905550600160078190555050505050620007d5565b6000600660009054906101000a900473ffffffffffffffffffffffffffffffffffffffff16905081600660006101000a81548173ffffffffffffffffffffffffffffffffffffffff021916908373ffffffffffffffffffffffffffffffffffffffff1602179055508173ffffffffffffffffffffffffffffffffffffffff168173ffffffffffffffffffffffffffffffffffffffff167f8be0079c531659141344cd1fd0a4f28419497f9722a3daafe3b4186f6b6457e060405160405180910390a35050565b6000604051905090565b600080fd5b600080fd5b600080fd5b600080fd5b6000601f19601f8301169050919050565b7f4e487b7100000000000000000000000000000000000000000000000000000000600052604160045260246000fd5b6200023682620001eb565b810181811067ffffffffffffffff82111715620002585762000257620001fc565b5b80604052505050565b60006200026d620001cd565b90506200027b82826200022b565b919050565b600067ffffffffffffffff8211156200029e576200029d620001fc565b5b620002a982620001eb565b9050602081019050919050565b60005b83811015620002d6578082015181840152602081019050620002b9565b60008484015250505050565b6000620002f9620002f38462000280565b62000261565b905082815260208101848484011115620003185762000317620001e6565b5b62000325848285620002b6565b509392505050565b600082601f830112620003455762000344620001e1565b5b815162000357848260208601620002e2565b91505092915050565b6000819050919050565b620003758162000360565b81146200038157600080fd5b50565b60008151905062000395816200036a565b92915050565b60008060008060808587031215620003b857620003b7620001d7565b5b600085015167ffffffffffffffff811115620003d957620003d8620001dc565b5b620003e7878288016200032d565b945050602085015167ffffffffffffffff8111156200040b576200040a620001dc565b5b62000419878288016200032d565b93505060406200042c8782880162000384565b92505060606200043f8782880162000384565b91505092959194509250565b600081519050919050565b7f4e487b7100000000000000000000000000000000000000000000000000000000600052602260045260246000fd5b600060028204905060018216806200049e57607f821691505b602082108103620004b457620004b362000456565b5b50919050565b60008190508160005260206000209050919050565b60006020601f8301049050919050565b600082821b905092915050565b6000600883026200051e7fffffffffffffffffffffffffffffffffffffffffffffffffffffffffffffffff82620004df565b6200052a8683620004df565b95508019841693508086168417925050509392505050565b6000819050919050565b60006200056d62000567620005618462000360565b62000542565b62000360565b9050919050565b6000819050919050565b62000589836200054c565b620005a1620005988262000574565b848454620004ec565b825550505050565b600090565b620005b8620005a9565b620005c58184846200057e565b505050565b5b81811015620005ed57620005e1600082620005ae565b600181019050620005cb565b5050565b601f8211156200063c576200060681620004ba565b6200061184620004cf565b8101602085101562000621578190505b620006396200063085620004cf565b830182620005ca565b50505b505050565b600082821c905092915050565b6000620006616000198460080262000641565b1980831691505092915050565b60006200067c83836200064e565b9150826002028217905092915050565b62000697826200044b565b67ffffffffffffffff811115620006b357620006b2620001fc565b5b620006bf825462000485565b620006cc828285620005f1565b600060209050601f831160018114620007045760008415620006ef578287015190505b620006fb85826200066e565b8655506200076b565b601f1984166200071486620004ba565b60005b828110156200073e5784890151825560018201915060208501945060208101905062000717565b868310156200075e57848901516200075a601f8916826200064e565b8355505b6001600288020188555050505b505050505050565b600073ffffffffffffffffffffffffffffffffffffffff82169050919050565b6000620007a08262000773565b9050919050565b620007b28162000793565b82525050565b6000602082019050620007cf6000830184620007a7565b92915050565b6137b180620007e56000396000f3fe60806040526004361061019c5760003560e01c806370a08231116100ec578063b88d4fde1161008a578063e00dd16111610064578063e00dd161146105b5578063e985e9c5146105e0578063f2fde38b1461061d578063f74d5480146106465761019c565b8063b88d4fde14610526578063bcea0fec1461054f578063c87b56dd146105785761019c565b806395d89b41116100c657806395d89b411461047c578063a22cb465146104a7578063a4f4f8af146104d0578063b7ec2086146104fb5761019c565b806370a08231146103fd578063715018a61461043a5780638da5cb5b146104515761019c565b806326a74d8e1161015957806351cff8d91161013357806351cff8d91461034557806355f804b31461036e57806356a1c701146103975780636352211e146103c05761019c565b806326a74d8e146102d55780632db115441461030057806342842e0e1461031c5761019c565b806301ffc9a7146101a157806306fdde03146101de578063081812fc14610209578063095ea7b3146102465780631a02b69e1461026f57806323b872dd146102ac575b600080fd5b3480156101ad57600080fd5b506101c860048036038101906101c391906125c4565b610671565b6040516101d5919061260c565b60405180910390f35b3480156101ea57600080fd5b506101f3610753565b60405161020091906126b7565b60405180910390f35b34801561021557600080fd5b50610230600480360381019061022b919061270f565b6107e5565b60405161023d919061277d565b60405180910390f35b34801561025257600080fd5b5061026d600480360381019061026891906127c4565b610801565b005b34801561027b57600080fd5b5061029660048036038101906102919190612804565b610817565b6040516102a3919061260c565b60405180910390f35b3480156102b857600080fd5b506102d360048036038101906102ce9190612831565b610837565b005b3480156102e157600080fd5b506102ea610939565b6040516102f79190612893565b60405180910390f35b61031a6004803603810190610315919061270f565b61093f565b005b34801561032857600080fd5b50610343600480360381019061033e9190612831565b610ad5565b005b34801561035157600080fd5b5061036c600480360381019061036791906128ec565b610af5565b005b34801561037a57600080fd5b5061039560048036038101906103909190612a4e565b610bff565b005b3480156103a357600080fd5b506103be60048036038101906103b99190612804565b610c1a565b005b3480156103cc57600080fd5b506103e760048036038101906103e2919061270f565b610c66565b6040516103f4919061277d565b60405180910390f35b34801561040957600080fd5b50610424600480360381019061041f9190612804565b610c78565b6040516104319190612893565b60405180910390f35b34801561044657600080fd5b5061044f610d32565b005b34801561045d57600080fd5b50610466610d46565b604051610473919061277d565b60405180910390f35b34801561048857600080fd5b50610491610d70565b60405161049e91906126b7565b60405180910390f35b3480156104b357600080fd5b506104ce60048036038101906104c99190612ac3565b610e02565b005b3480156104dc57600080fd5b506104e5610e18565b6040516104f29190612893565b60405180910390f35b34801561050757600080fd5b50610510610e1e565b60405161051d9190612893565b60405180910390f35b34801561053257600080fd5b5061054d60048036038101906105489190612ba4565b610e24565b005b34801561055b57600080fd5b5061057660048036038101906105719190612c87565b610e49565b005b34801561058457600080fd5b5061059f600480360381019061059a919061270f565b61114e565b6040516105ac91906126b7565b60405180910390f35b3480156105c157600080fd5b506105ca6111b7565b6040516105d79190612893565b60405180910390f35b3480156105ec57600080fd5b5061060760048036038101906106029190612cd4565b6111bd565b604051610614919061260c565b60405180910390f35b34801561062957600080fd5b50610644600480360381019061063f9190612804565b611251565b005b34801561065257600080fd5b5061065b6112d7565b604051610668919061277d565b60405180910390f35b60007f80ac58cd000000000000000000000000000000000000000000000000000000007bffffffffffffffffffffffffffffffffffffffffffffffffffffffff1916827bffffffffffffffffffffffffffffffffffffffffffffffffffffffff1916148061073c57507f5b5e139f000000000000000000000000000000000000000000000000000000007bffffffffffffffffffffffffffffffffffffffffffffffffffffffff1916827bffffffffffffffffffffffffffffffffffffffffffffffffffffffff1916145b8061074c575061074b826112fd565b5b9050919050565b60606000805461076290612d43565b80601f016020809104026020016040519081016040528092919081815260200182805461078e90612d43565b80156107db5780601f106107b0576101008083540402835291602001916107db565b820191906000526020600020905b8154815290600101906020018083116107be57829003601f168201915b5050505050905090565b60006107f082611367565b506107fa826113ef565b9050919050565b610813828261080e61142c565b611434565b5050565b600c6020528060005260406000206000915054906101000a900460ff1681565b600073ffffffffffffffffffffffffffffffffffffffff168273ffffffffffffffffffffffffffffffffffffffff16036108a95760006040517f64a0ae920000000000000000000000000000000000000000000000000000000081526004016108a0919061277d565b60405180910390fd5b60006108bd83836108b861142c565b611446565b90508373ffffffffffffffffffffffffffffffffffffffff168173ffffffffffffffffffffffffffffffffffffffff1614610933578382826040517f64283d7b00000000000000000000000000000000000000000000000000000000815260040161092a93929190612d74565b60405180910390fd5b50505050565b60085481565b6000811180156109505750600a8111155b61098f576040517f08c379a000000000000000000000000000000000000000000000000000000000815260040161098690612df7565b60405180910390fd5b600854816009546109a09190612e46565b11156109e1576040517f08c379a00000000000000000000000000000000000000000000000000000000081526004016109d890612ec6565b60405180910390fd5b80600a546109ef9190612ee6565b3414610a30576040517f08c379a0000000000000000000000000000000000000000000000000000000008152600401610a2790612f74565b60405180910390fd5b60005b81811015610ab857600060076000815480929190610a5090612f94565b919050559050610a603382611660565b803373ffffffffffffffffffffffffffffffffffffffff167f748a2986091c2034d6e93b6f44f771a79f0e1d6acd8a60c68c17d4e1e2feaed260405160405180910390a3508080610ab090612f94565b915050610a33565b508060096000828254610acb9190612e46565b9250508190555050565b610af083838360405180602001604052806000815250610e24565b505050565b610afd61167e565b600073ffffffffffffffffffffffffffffffffffffffff168173ffffffffffffffffffffffffffffffffffffffff1603610b6c576040517f08c379a0000000000000000000000000000000000000000000000000000000008152600401610b6390613028565b60405180910390fd5b600047905060008111610bb4576040517f08c379a0000000000000000000000000000000000000000000000000000000008152600401610bab90613094565b60405180910390fd5b8173ffffffffffffffffffffffffffffffffffffffff166108fc829081150290604051600060405180830381858888f19350505050158015610bfa573d6000803e3d6000fd5b505050565b610c0761167e565b80600d9081610c169190613260565b5050565b610c2261167e565b80600b60006101000a81548173ffffffffffffffffffffffffffffffffffffffff021916908373ffffffffffffffffffffffffffffffffffffffff16021790555050565b6000610c7182611367565b9050919050565b60008073ffffffffffffffffffffffffffffffffffffffff168273ffffffffffffffffffffffffffffffffffffffff1603610ceb5760006040517f89c62b64000000000000000000000000000000000000000000000000000000008152600401610ce2919061277d565b60405180910390fd5b600360008373ffffffffffffffffffffffffffffffffffffffff1673ffffffffffffffffffffffffffffffffffffffff168152602001908152602001600020549050919050565b610d3a61167e565b610d446000611705565b565b6000600660009054906101000a900473ffffffffffffffffffffffffffffffffffffffff16905090565b606060018054610d7f90612d43565b80601f0160208091040260200160405190810160405280929190818152602001828054610dab90612d43565b8015610df85780601f10610dcd57610100808354040283529160200191610df8565b820191906000526020600020905b815481529060010190602001808311610ddb57829003601f168201915b5050505050905090565b610e14610e0d61142c565b83836117cb565b5050565b60095481565b600a5481565b610e2f848484610837565b610e43610e3a61142c565b8585858561193a565b50505050565b600073ffffffffffffffffffffffffffffffffffffffff16600b60009054906101000a900473ffffffffffffffffffffffffffffffffffffffff1673ffffffffffffffffffffffffffffffffffffffff1603610eda576040517f08c379a0000000000000000000000000000000000000000000000000000000008152600401610ed19061337e565b60405180910390fd5b600c60003373ffffffffffffffffffffffffffffffffffffffff1673ffffffffffffffffffffffffffffffffffffffff16815260200190815260200160002060009054906101000a900460ff1615610f67576040517f08c379a0000000000000000000000000000000000000000000000000000000008152600401610f5e906133ea565b60405180910390fd5b6000304633604051602001610f7e93929190613473565b6040516020818303038152906040528051906020012090506000610fa182611aeb565b90506000610ff38286868080601f016020809104026020016040519081016040528093929190818152602001838380828437600081840152601f19601f82011690508083019250505050505050611b21565b9050600b60009054906101000a900473ffffffffffffffffffffffffffffffffffffffff1673ffffffffffffffffffffffffffffffffffffffff168173ffffffffffffffffffffffffffffffffffffffff1614611085576040517f08c379a000000000000000000000000000000000000000000000000000000000815260040161107c906134fc565b60405180910390fd5b6001600c60003373ffffffffffffffffffffffffffffffffffffffff1673ffffffffffffffffffffffffffffffffffffffff16815260200190815260200160002060006101000a81548160ff0219169083151502179055506000600760008154809291906110f290612f94565b9190505590506111023382611660565b803373ffffffffffffffffffffffffffffffffffffffff167fe9a10c23ea49d40011e019f115185f0bc29740208a504d35f951dca74ba37eac60405160405180910390a3505050505050565b606061115982611367565b506000611164611b4d565b9050600081511161118457604051806020016040528060008152506111af565b8061118e84611bdf565b60405160200161119f929190613558565b6040516020818303038152906040525b915050919050565b60075481565b6000600560008473ffffffffffffffffffffffffffffffffffffffff1673ffffffffffffffffffffffffffffffffffffffff16815260200190815260200160002060008373ffffffffffffffffffffffffffffffffffffffff1673ffffffffffffffffffffffffffffffffffffffff16815260200190815260200160002060009054906101000a900460ff16905092915050565b61125961167e565b600073ffffffffffffffffffffffffffffffffffffffff168173ffffffffffffffffffffffffffffffffffffffff16036112cb5760006040517f1e4fbdf70000000000000000000000000000000000000000000000000000000081526004016112c2919061277d565b60405180910390fd5b6112d481611705565b50565b600b60009054906101000a900473ffffffffffffffffffffffffffffffffffffffff1681565b60007f01ffc9a7000000000000000000000000000000000000000000000000000000007bffffffffffffffffffffffffffffffffffffffffffffffffffffffff1916827bffffffffffffffffffffffffffffffffffffffffffffffffffffffff1916149050919050565b60008061137383611cad565b9050600073ffffffffffffffffffffffffffffffffffffffff168173ffffffffffffffffffffffffffffffffffffffff16036113e657826040517f7e2732890000000000000000000000000000000000000000000000000000000081526004016113dd9190612893565b60405180910390fd5b80915050919050565b60006004600083815260200190815260200160002060009054906101000a900473ffffffffffffffffffffffffffffffffffffffff169050919050565b600033905090565b6114418383836001611cea565b505050565b60008061145284611cad565b9050600073ffffffffffffffffffffffffffffffffffffffff168373ffffffffffffffffffffffffffffffffffffffff161461149457611493818486611eaf565b5b600073ffffffffffffffffffffffffffffffffffffffff168173ffffffffffffffffffffffffffffffffffffffff1614611525576114d6600085600080611cea565b6001600360008373ffffffffffffffffffffffffffffffffffffffff1673ffffffffffffffffffffffffffffffffffffffff168152602001908152602001600020600082825403925050819055505b600073ffffffffffffffffffffffffffffffffffffffff168573ffffffffffffffffffffffffffffffffffffffff16146115a8576001600360008773ffffffffffffffffffffffffffffffffffffffff1673ffffffffffffffffffffffffffffffffffffffff168152602001908152602001600020600082825401925050819055505b846002600086815260200190815260200160002060006101000a81548173ffffffffffffffffffffffffffffffffffffffff021916908373ffffffffffffffffffffffffffffffffffffffff160217905550838573ffffffffffffffffffffffffffffffffffffffff168273ffffffffffffffffffffffffffffffffffffffff167fddf252ad1be2c89b69c2b068fc378daa952ba7f163c4a11628f55a4df523b3ef60405160405180910390a4809150509392505050565b61167a828260405180602001604052806000815250611f73565b5050565b61168661142c565b73ffffffffffffffffffffffffffffffffffffffff166116a4610d46565b73ffffffffffffffffffffffffffffffffffffffff1614611703576116c761142c565b6040517f118cdaa70000000000000000000000000000000000000000000000000000000081526004016116fa919061277d565b60405180910390fd5b565b6000600660009054906101000a900473ffffffffffffffffffffffffffffffffffffffff16905081600660006101000a81548173ffffffffffffffffffffffffffffffffffffffff021916908373ffffffffffffffffffffffffffffffffffffffff1602179055508173ffffffffffffffffffffffffffffffffffffffff168173ffffffffffffffffffffffffffffffffffffffff167f8be0079c531659141344cd1fd0a4f28419497f9722a3daafe3b4186f6b6457e060405160405180910390a35050565b600073ffffffffffffffffffffffffffffffffffffffff168273ffffffffffffffffffffffffffffffffffffffff160361183c57816040517f5b08ba18000000000000000000000000000000000000000000000000000000008152600401611833919061277d565b60405180910390fd5b80600560008573ffffffffffffffffffffffffffffffffffffffff1673ffffffffffffffffffffffffffffffffffffffff16815260200190815260200160002060008473ffffffffffffffffffffffffffffffffffffffff1673ffffffffffffffffffffffffffffffffffffffff16815260200190815260200160002060006101000a81548160ff0219169083151502179055508173ffffffffffffffffffffffffffffffffffffffff168373ffffffffffffffffffffffffffffffffffffffff167f17307eab39ab6107e8899845ad3d59bd9653f200f220920489ca2b5937696c318360405161192d919061260c565b60405180910390a3505050565b60008373ffffffffffffffffffffffffffffffffffffffff163b1115611ae4578273ffffffffffffffffffffffffffffffffffffffff1663150b7a02868685856040518563ffffffff1660e01b815260040161199994939291906135d1565b6020604051808303816000875af19250505080156119d557506040513d601f19601f820116820180604052508101906119d29190613632565b60015b611a59573d8060008114611a05576040519150601f19603f3d011682016040523d82523d6000602084013e611a0a565b606091505b506000815103611a5157836040517f64a0ae92000000000000000000000000000000000000000000000000000000008152600401611a48919061277d565b60405180910390fd5b805160208201fd5b63150b7a0260e01b7bffffffffffffffffffffffffffffffffffffffffffffffffffffffff1916817bffffffffffffffffffffffffffffffffffffffffffffffffffffffff191614611ae257836040517f64a0ae92000000000000000000000000000000000000000000000000000000008152600401611ad9919061277d565b60405180910390fd5b505b5050505050565b60007f19457468657265756d205369676e6564204d6573736167653a0a33320000000060005281601c52603c6000209050919050565b600080600080611b318686611f97565b925092509250611b418282611ff3565b82935050505092915050565b6060600d8054611b5c90612d43565b80601f0160208091040260200160405190810160405280929190818152602001828054611b8890612d43565b8015611bd55780601f10611baa57610100808354040283529160200191611bd5565b820191906000526020600020905b815481529060010190602001808311611bb857829003601f168201915b5050505050905090565b606060006001611bee84612157565b01905060008167ffffffffffffffff811115611c0d57611c0c612923565b5b6040519080825280601f01601f191660200182016040528015611c3f5781602001600182028036833780820191505090505b509050600082602083010190505b600115611ca2578080600190039150507f3031323334353637383961626364656600000000000000000000000000000000600a86061a8153600a8581611c9657611c9561365f565b5b04945060008503611c4d575b819350505050919050565b60006002600083815260200190815260200160002060009054906101000a900473ffffffffffffffffffffffffffffffffffffffff169050919050565b8080611d235750600073ffffffffffffffffffffffffffffffffffffffff168273ffffffffffffffffffffffffffffffffffffffff1614155b15611e57576000611d3384611367565b9050600073ffffffffffffffffffffffffffffffffffffffff168373ffffffffffffffffffffffffffffffffffffffff1614158015611d9e57508273ffffffffffffffffffffffffffffffffffffffff168173ffffffffffffffffffffffffffffffffffffffff1614155b8015611db15750611daf81846111bd565b155b15611df357826040517fa9fbf51f000000000000000000000000000000000000000000000000000000008152600401611dea919061277d565b60405180910390fd5b8115611e5557838573ffffffffffffffffffffffffffffffffffffffff168273ffffffffffffffffffffffffffffffffffffffff167f8c5be1e5ebec7d5bd14f71427d1e84f3dd0314c0f7b2291e5b200ac8c7c3b92560405160405180910390a45b505b836004600085815260200190815260200160002060006101000a81548173ffffffffffffffffffffffffffffffffffffffff021916908373ffffffffffffffffffffffffffffffffffffffff16021790555050505050565b611eba8383836122aa565b611f6e57600073ffffffffffffffffffffffffffffffffffffffff168373ffffffffffffffffffffffffffffffffffffffff1603611f2f57806040517f7e273289000000000000000000000000000000000000000000000000000000008152600401611f269190612893565b60405180910390fd5b81816040517f177e802f000000000000000000000000000000000000000000000000000000008152600401611f6592919061368e565b60405180910390fd5b505050565b611f7d838361236b565b611f92611f8861142c565b600085858561193a565b505050565b60008060006041845103611fdc5760008060006020870151925060408701519150606087015160001a9050611fce88828585612464565b955095509550505050611fec565b60006002855160001b9250925092505b9250925092565b60006003811115612007576120066136b7565b5b82600381111561201a576120196136b7565b5b03156121535760016003811115612034576120336136b7565b5b826003811115612047576120466136b7565b5b0361207e576040517ff645eedf00000000000000000000000000000000000000000000000000000000815260040160405180910390fd5b60026003811115612092576120916136b7565b5b8260038111156120a5576120a46136b7565b5b036120ea578060001c6040517ffce698f70000000000000000000000000000000000000000000000000000000081526004016120e19190612893565b60405180910390fd5b6003808111156120fd576120fc6136b7565b5b8260038111156121105761210f6136b7565b5b0361215257806040517fd78bce0c00000000000000000000000000000000000000000000000000000000815260040161214991906136ff565b60405180910390fd5b5b5050565b600080600090507a184f03e93ff9f4daa797ed6e38ed64bf6a1f01000000000000000083106121b5577a184f03e93ff9f4daa797ed6e38ed64bf6a1f01000000000000000083816121ab576121aa61365f565b5b0492506040810190505b6d04ee2d6d415b85acef810000000083106121f2576d04ee2d6d415b85acef810000000083816121e8576121e761365f565b5b0492506020810190505b662386f26fc10000831061222157662386f26fc1000083816122175761221661365f565b5b0492506010810190505b6305f5e100831061224a576305f5e10083816122405761223f61365f565b5b0492506008810190505b612710831061226f5761271083816122655761226461365f565b5b0492506004810190505b6064831061229257606483816122885761228761365f565b5b0492506002810190505b600a83106122a1576001810190505b80915050919050565b60008073ffffffffffffffffffffffffffffffffffffffff168373ffffffffffffffffffffffffffffffffffffffff161415801561236257508273ffffffffffffffffffffffffffffffffffffffff168473ffffffffffffffffffffffffffffffffffffffff161480612323575061232284846111bd565b5b8061236157508273ffffffffffffffffffffffffffffffffffffffff16612349836113ef565b73ffffffffffffffffffffffffffffffffffffffff16145b5b90509392505050565b600073ffffffffffffffffffffffffffffffffffffffff168273ffffffffffffffffffffffffffffffffffffffff16036123dd5760006040517f64a0ae920000000000000000000000000000000000000000000000000000000081526004016123d4919061277d565b60405180910390fd5b60006123eb83836000611446565b9050600073ffffffffffffffffffffffffffffffffffffffff168173ffffffffffffffffffffffffffffffffffffffff161461245f5760006040517f73c6ac6e000000000000000000000000000000000000000000000000000000008152600401612456919061277d565b60405180910390fd5b505050565b60008060007f7fffffffffffffffffffffffffffffff5d576e7357a4501ddfe92f46681b20a08460001c11156124a457600060038592509250925061254e565b6000600188888888604051600081526020016040526040516124c99493929190613736565b6020604051602081039080840390855afa1580156124eb573d6000803e3d6000fd5b505050602060405103519050600073ffffffffffffffffffffffffffffffffffffffff168173ffffffffffffffffffffffffffffffffffffffff160361253f57600060016000801b9350935093505061254e565b8060008060001b935093509350505b9450945094915050565b6000604051905090565b600080fd5b600080fd5b60007fffffffff0000000000000000000000000000000000000000000000000000000082169050919050565b6125a18161256c565b81146125ac57600080fd5b50565b6000813590506125be81612598565b92915050565b6000602082840312156125da576125d9612562565b5b60006125e8848285016125af565b91505092915050565b60008115159050919050565b612606816125f1565b82525050565b600060208201905061262160008301846125fd565b92915050565b600081519050919050565b600082825260208201905092915050565b60005b83811015612661578082015181840152602081019050612646565b60008484015250505050565b6000601f19601f8301169050919050565b600061268982612627565b6126938185612632565b93506126a3818560208601612643565b6126ac8161266d565b840191505092915050565b600060208201905081810360008301526126d1818461267e565b905092915050565b6000819050919050565b6126ec816126d9565b81146126f757600080fd5b50565b600081359050612709816126e3565b92915050565b60006020828403121561272557612724612562565b5b6000612733848285016126fa565b91505092915050565b600073ffffffffffffffffffffffffffffffffffffffff82169050919050565b60006127678261273c565b9050919050565b6127778161275c565b82525050565b6000602082019050612792600083018461276e565b92915050565b6127a18161275c565b81146127ac57600080fd5b50565b6000813590506127be81612798565b92915050565b600080604083850312156127db576127da612562565b5b60006127e9858286016127af565b92505060206127fa858286016126fa565b9150509250929050565b60006020828403121561281a57612819612562565b5b6000612828848285016127af565b91505092915050565b60008060006060848603121561284a57612849612562565b5b6000612858868287016127af565b9350506020612869868287016127af565b925050604061287a868287016126fa565b9150509250925092565b61288d816126d9565b82525050565b60006020820190506128a86000830184612884565b92915050565b60006128b98261273c565b9050919050565b6128c9816128ae565b81146128d457600080fd5b50565b6000813590506128e6816128c0565b92915050565b60006020828403121561290257612901612562565b5b6000612910848285016128d7565b91505092915050565b600080fd5b600080fd5b7f4e487b7100000000000000000000000000000000000000000000000000000000600052604160045260246000fd5b61295b8261266d565b810181811067ffffffffffffffff8211171561297a57612979612923565b5b80604052505050565b600061298d612558565b90506129998282612952565b919050565b600067ffffffffffffffff8211156129b9576129b8612923565b5b6129c28261266d565b9050602081019050919050565b82818337600083830152505050565b60006129f16129ec8461299e565b612983565b905082815260208101848484011115612a0d57612a0c61291e565b5b612a188482856129cf565b509392505050565b600082601f830112612a3557612a34612919565b5b8135612a458482602086016129de565b91505092915050565b600060208284031215612a6457612a63612562565b5b600082013567ffffffffffffffff811115612a8257612a81612567565b5b612a8e84828501612a20565b91505092915050565b612aa0816125f1565b8114612aab57600080fd5b50565b600081359050612abd81612a97565b92915050565b60008060408385031215612ada57612ad9612562565b5b6000612ae8858286016127af565b9250506020612af985828601612aae565b9150509250929050565b600067ffffffffffffffff821115612b1e57612b1d612923565b5b612b278261266d565b9050602081019050919050565b6000612b47612b4284612b03565b612983565b905082815260208101848484011115612b6357612b6261291e565b5b612b6e8482856129cf565b509392505050565b600082601f830112612b8b57612b8a612919565b5b8135612b9b848260208601612b34565b91505092915050565b60008060008060808587031215612bbe57612bbd612562565b5b6000612bcc878288016127af565b9450506020612bdd878288016127af565b9350506040612bee878288016126fa565b925050606085013567ffffffffffffffff811115612c0f57612c0e612567565b5b612c1b87828801612b76565b91505092959194509250565b600080fd5b600080fd5b60008083601f840112612c4757612c46612919565b5b8235905067ffffffffffffffff811115612c6457612c63612c27565b5b602083019150836001820283011115612c8057612c7f612c2c565b5b9250929050565b60008060208385031215612c9e57612c9d612562565b5b600083013567ffffffffffffffff811115612cbc57612cbb612567565b5b612cc885828601612c31565b92509250509250929050565b60008060408385031215612ceb57612cea612562565b5b6000612cf9858286016127af565b9250506020612d0a858286016127af565b9150509250929050565b7f4e487b7100000000000000000000000000000000000000000000000000000000600052602260045260246000fd5b60006002820490506001821680612d5b57607f821691505b602082108103612d6e57612d6d612d14565b5b50919050565b6000606082019050612d89600083018661276e565b612d966020830185612884565b612da3604083018461276e565b949350505050565b7f696e76616c696420717479000000000000000000000000000000000000000000600082015250565b6000612de1600b83612632565b9150612dec82612dab565b602082019050919050565b60006020820190508181036000830152612e1081612dd4565b9050919050565b7f4e487b7100000000000000000000000000000000000000000000000000000000600052601160045260246000fd5b6000612e51826126d9565b9150612e5c836126d9565b9250828201905080821115612e7457612e73612e17565b5b92915050565b7f7075626c696320736f6c64206f75740000000000000000000000000000000000600082015250565b6000612eb0600f83612632565b9150612ebb82612e7a565b602082019050919050565b60006020820190508181036000830152612edf81612ea3565b9050919050565b6000612ef1826126d9565b9150612efc836126d9565b9250828202612f0a816126d9565b91508282048414831517612f2157612f20612e17565b5b5092915050565b7f696e636f7272656374207061796d656e74000000000000000000000000000000600082015250565b6000612f5e601183612632565b9150612f6982612f28565b602082019050919050565b60006020820190508181036000830152612f8d81612f51565b9050919050565b6000612f9f826126d9565b91507fffffffffffffffffffffffffffffffffffffffffffffffffffffffffffffffff8203612fd157612fd0612e17565b5b600182019050919050565b7f696e76616c696420616464726573730000000000000000000000000000000000600082015250565b6000613012600f83612632565b915061301d82612fdc565b602082019050919050565b6000602082019050818103600083015261304181613005565b9050919050565b7f6e6f2066756e6473000000000000000000000000000000000000000000000000600082015250565b600061307e600883612632565b915061308982613048565b602082019050919050565b600060208201905081810360008301526130ad81613071565b9050919050565b60008190508160005260206000209050919050565b60006020601f8301049050919050565b600082821b905092915050565b6000600883026131167fffffffffffffffffffffffffffffffffffffffffffffffffffffffffffffffff826130d9565b61312086836130d9565b95508019841693508086168417925050509392505050565b6000819050919050565b600061315d613158613153846126d9565b613138565b6126d9565b9050919050565b6000819050919050565b61317783613142565b61318b61318382613164565b8484546130e6565b825550505050565b600090565b6131a0613193565b6131ab81848461316e565b505050565b5b818110156131cf576131c4600082613198565b6001810190506131b1565b5050565b601f821115613214576131e5816130b4565b6131ee846130c9565b810160208510156131fd578190505b613211613209856130c9565b8301826131b0565b50505b505050565b600082821c905092915050565b600061323760001984600802613219565b1980831691505092915050565b60006132508383613226565b9150826002028217905092915050565b61326982612627565b67ffffffffffffffff81111561328257613281612923565b5b61328c8254612d43565b6132978282856131d3565b600060209050601f8311600181146132ca57600084156132b8578287015190505b6132c28582613244565b86555061332a565b601f1984166132d8866130b4565b60005b82811015613300578489015182556001820191506020850194506020810190506132db565b8683101561331d5784890151613319601f891682613226565b8355505b6001600288020188555050505b505050505050565b7f74727573746564207369676e6572206e6f742073657400000000000000000000600082015250565b6000613368601683612632565b915061337382613332565b602082019050919050565b600060208201905081810360008301526133978161335b565b9050919050565b7f616c726561647920636c61696d6564206f6e2d636861696e0000000000000000600082015250565b60006133d4601883612632565b91506133df8261339e565b602082019050919050565b60006020820190508181036000830152613403816133c7565b9050919050565b60008160601b9050919050565b60006134228261340a565b9050919050565b600061343482613417565b9050919050565b61344c6134478261275c565b613429565b82525050565b6000819050919050565b61346d613468826126d9565b613452565b82525050565b600061347f828661343b565b60148201915061348f828561345c565b60208201915061349f828461343b565b601482019150819050949350505050565b7f696e76616c6964207369676e6174757265000000000000000000000000000000600082015250565b60006134e6601183612632565b91506134f1826134b0565b602082019050919050565b60006020820190508181036000830152613515816134d9565b9050919050565b600081905092915050565b600061353282612627565b61353c818561351c565b935061354c818560208601612643565b80840191505092915050565b60006135648285613527565b91506135708284613527565b91508190509392505050565b600081519050919050565b600082825260208201905092915050565b60006135a38261357c565b6135ad8185613587565b93506135bd818560208601612643565b6135c68161266d565b840191505092915050565b60006080820190506135e6600083018761276e565b6135f3602083018661276e565b6136006040830185612884565b81810360608301526136128184613598565b905095945050505050565b60008151905061362c81612598565b92915050565b60006020828403121561364857613647612562565b5b60006136568482850161361d565b91505092915050565b7f4e487b7100000000000000000000000000000000000000000000000000000000600052601260045260246000fd5b60006040820190506136a3600083018561276e565b6136b06020830184612884565b9392505050565b7f4e487b7100000000000000000000000000000000000000000000000000000000600052602160045260246000fd5b6000819050919050565b6136f9816136e6565b82525050565b600060208201905061371460008301846136f0565b92915050565b600060ff82169050919050565b6137308161371a565b82525050565b600060808201905061374b60008301876136f0565b6137586020830186613727565b61376560408301856136f0565b61377260608301846136f0565b9594505050505056fea2646970667358221220d9f79035f8e432a4f385b38d8acf87dba920a30c2fc2ffffb84478fd72d9a96164736f6c63430008140033",
  "linkReferences": {},
  "deployedLinkReferences": {}
}