{
  "_format": "hh-sol-artifact-1",
  "contractName": "NeutralHeart",
  "sourceName": "contracts/NeutralHeart.sol",
  "abi": [
    {
      "inputs": [
        {
          "internalType": "string",
          "name": "name_",
          "type": "string"
        },
        {
          "internalType": "string",
          "name": "symbol_",
          "type": "string"
        },
        {
          "internalType": "uint256",
          "name": "maxPublicSupply_",
          "type": "uint256"
        },
        {
          "internalType": "uint256",
          "name": "priceWei_",
          "type": "uint256"
        }
      ],
      "stateMutability": "nonpayable",
      "type": "constructor"
    },
    {
      "inputs": [],
      "name": "ECDSAInvalidSignature",
      "type": "error"
    },
    {
      "inputs": [
        {
          "internalType": "uint256",
          "name": "length",
          "type": "uint256"
        }
      ],
      "name": "ECDSAInvalidSignatureLength",
      "type": "error"
    },
    {
      "inputs": [
        {
          "internalType": "bytes32",
          "name": "s",
          "type": "bytes32"
        }
      ],
      "name": "ECDSAInvalidSignatureS",
      "type": "error"
    },
    {
      "inputs": [
        {
          "internalType": "address",
          "name": "sender",
          "type": "address"
        },
        {
          "internalType": "uint256",
          "name": "tokenId",
          "type": "uint256"
        },
        {
          "internalType": "address",
          "name": "owner",
          "type": "address"
        }
      ],
      "name": "ERC721IncorrectOwner",
      "type": "error"
    },
    {
      "inputs": [
        {
          "internalType": "address",
          "name": "operator",
          "type": "address"
        },
        {
          "internalType": "uint256",
          "name": "tokenId",
          "type": "uint256"
        }
      ],
      "name": "ERC721InsufficientApproval",
      "type": "error"
    },
    {
      "inputs": [
        {
          "internalType": "address",
          "name": "approver",
          "type": "address"
        }
      ],
      "name": "ERC721InvalidApprover",
      "type": "error"
    },
    {
      "inputs": [
        {
          "internalType": "address",
          "name": "operator",
          "type": "address"
        }
      ],
      "name": "ERC721InvalidOperator",
      "type": "error"
    },
    {
      "inputs": [
        {
          "internalType": "address",
          "name": "owner",
          "type": "address"
        }
      ],
      "name": "ERC721InvalidOwner",
      "type": "error"
    },
    {
      "inputs": [
        {
          "internalType": "address",
          "name": "receiver",
          "type": "address"
        }
      ],
      "name": "ERC721InvalidReceiver",
      "type": "error"
    },
    {
      "inputs": [
        {
          "internalType": "address",
          "name": "sender",
          "type": "address"
        }
      ],
      "name": "ERC721InvalidSender",
      "type": "error"
    },
    {
      "inputs": [
        {
          "internalType": "uint256",
          "name": "tokenId",
          "type": "uint256"
        }
      ],
      "name": "ERC721NonexistentToken",
      "type": "error"
    },
    {
      "inputs": [
        {
          "internalType": "address",
          "name": "owner",
          "type": "address"
        }
      ],
      "name": "OwnableInvalidOwner",
      "type": "error"
    },
    {
      "inputs": [
        {
          "internalType": "address",
          "name": "account",
          "type": "address"
        }
      ],
      "name": "OwnableUnauthorizedAccount",
      "type": "error"
    },
    {
      "anonymous": false,
      "inputs": [
        {
          "indexed": true,
          "internalType": "address",
          "name": "owner",
          "type": "address"
        },
        {
          "indexed": true,
          "internalType": "address",
          "name": "approved",
          "type": "address"
        },
        {
          "indexed": true,
          "internalType": "uint256",
          "name": "tokenId",
          "type": "uint256"
        }
      ],
      "name": "Approval",
      "type": "event"
    },
    {
      "anonymous": false,
      "inputs": [
        {
          "indexed": true,
          "internalType": "address",
          "name": "owner",
          "type": "address"
        },
        {
          "indexed": true,
          "internalType": "address",
          "name": "operator",
          "type": "address"
        },
        {
          "indexed": false,
          "internalType": "bool",
          "name": "approved",
          "type": "bool"
        }
      ],
      "name": "ApprovalForAll",
      "type": "event"
    },
    {
      "anonymous": false,
      "inputs": [
        {
          "indexed": true,
          "internalType": "address",
          "name": "previousOwner",
          "type": "address"
        },
        {
          "indexed": true,
          "internalType": "address",
          "name": "newOwner",
          "type": "address"
        }
      ],
      "name": "OwnershipTransferred",
      "type": "event"
    },
    {
      "anonymous": false,
      "inputs": [
        {
          "indexed": true,
          "internalType": "address",
          "name": "to",
          "type": "address"
        },
        {
          "indexed": true,
          "internalType": "uint256",
          "name": "tokenId",
          "type": "uint256"
        }
      ],
      "name": "PublicMint",
      "type": "event"
    },
    {
      "anonymous": false,
      "inputs": [
        {
          "indexed": true,
          "internalType": "address",
          "name": "to",
          "type": "address"
        },
        {
          "indexed": true,
          "internalType": "uint256",
          "name": "tokenId",
          "type": "uint256"
        }
      ],
      "name": "SubscriberClaim",
      "type": "event"
    },
    {
      "anonymous": false,
      "inputs": [
        {
          "indexed": true,
          "internalType": "address",
          "name": "from",
          "type": "address"
        },
        {
          "indexed": true,
          "internalType": "address",
          "name": "to",
          "type": "address"
        },
        {
          "indexed": true,
          "internalType": "uint256",
          "name": "tokenId",
          "type": "uint256"
        }
      ],
      "name": "Transfer",
      "type": "event"
    },
    {
      "anonymous": false,
      "inputs": [
        {
          "indexed": true,
          "internalType": "address",
          "name": "owner",
          "type": "address"
        },
        {
          "indexed": true,
          "internalType": "uint256",
          "name": "burnedId",
          "type": "uint256"
        },
        {
          "indexed": true,
          "internalType": "uint256",
          "name": "newId",
          "type": "uint256"
        },
        {
          "indexed": false,
          "internalType": "uint8",
          "name": "variant",
          "type": "uint8"
        }
      ],
      "name": "Transform",
      "type": "event"
    },
    {
      "inputs": [
        {
          "internalType": "address",
          "name": "to",
          "type": "address"
        },
        {
          "internalType": "uint256",
          "name": "tokenId",
          "type": "uint256"
        }
      ],
      "name": "approve",
      "outputs": [],
      "stateMutability": "nonpayable",
      "type": "function"
    },
    {
      "inputs": [
        {
          "internalType": "address",
          "name": "owner",
          "type": "address"
        }
      ],
      "name": "balanceOf",
      "outputs": [
        {
          "internalType": "uint256",
          "name": "",
          "type": "uint256"
        }
      ],
      "stateMutability": "view",
      "type": "function"
    },
    {
      "inputs": [
        {
          "internalType": "bytes",
          "name": "signature",
          "type": "bytes"
        }
      ],
      "name": "claimForSubscriber",
      "outputs": [],
      "stateMutability": "nonpayable",
      "type": "function"
    },
    {
      "inputs": [],
      "name": "currentId",
      "outputs": [
        {
          "internalType": "uint256",
          "name": "",
          "type": "uint256"
        }
      ],
      "stateMutability": "view",
      "type": "function"
    },
    {
      "inputs": [
        {
          "internalType": "uint256",
          "name": "tokenId",
          "type": "uint256"
        }
      ],
      "name": "getApproved",
      "outputs": [
        {
          "internalType": "address",
          "name": "",
          "type": "address"
        }
      ],
      "stateMutability": "view",
      "type": "function"
    },
    {
      "inputs": [
        {
          "internalType": "address",
          "name": "",
          "type": "address"
        }
      ],
      "name": "hasClaimedOnChain",
      "outputs": [
        {
          "internalType": "bool",
          "name": "",
          "type": "bool"
        }
      ],
      "stateMutability": "view",
      "type": "function"
    },
    {
      "inputs": [
        {
          "internalType": "address",
          "name": "owner",
          "type": "address"
        },
        {
          "internalType": "address",
          "name": "operator",
          "type": "address"
        }
      ],
      "name": "isApprovedForAll",
      "outputs": [
        {
          "internalType": "bool",
          "name": "",
          "type": "bool"
        }
      ],
      "stateMutability": "view",
      "type": "function"
    },
    {
      "inputs": [],
      "name": "maxPublicSupply",
      "outputs": [
        {
          "internalType": "uint256",
          "name": "",
          "type": "uint256"
        }
      ],
      "stateMutability": "view",
      "type": "function"
    },
    {
      "inputs": [],
      "name": "name",
      "outputs": [
        {
          "internalType": "string",
          "name": "",
          "type": "string"
        }
      ],
      "stateMutability": "view",
      "type": "function"
    },
    {
      "inputs": [],
      "name": "owner",
      "outputs": [
        {
          "internalType": "address",
          "name": "",
          "type": "address"
        }
      ],
      "stateMutability": "view",
      "type": "function"
    },
    {
      "inputs": [
        {
          "internalType": "uint256",
          "name": "tokenId",
          "type": "uint256"
        }
      ],
      "name": "ownerOf",
      "outputs": [
        {
          "internalType": "address",
          "name": "",
          "type": "address"
        }
      ],
      "stateMutability": "view",
      "type": "function"
    },
    {
      "inputs": [],
      "name": "priceWei",
      "outputs": [
        {
          "internalType": "uint256",
          "name": "",
          "type": "uint256"
        }
      ],
      "stateMutability": "view",
      "type": "function"
    },
    {
      "inputs": [
        {
          "internalType": "uint256",
          "name": "qty",
          "type": "uint256"
        }
      ],
      "name": "publicMint",
      "outputs": [],
      "stateMutability": "payable",
      "type": "function"
    },
    {
      "inputs": [],
      "name": "publicMinted",
      "outputs": [
        {
          "internalType": "uint256",
          "name": "",
          "type": "uint256"
        }
      ],
      "stateMutability": "view",
      "type": "function"
    },
    {
      "inputs": [],
      "name": "renounceOwnership",
      "outputs": [],
      "stateMutability": "nonpayable",
      "type": "function"
    },
    {
      "inputs": [
        {
          "internalType": "address",
          "name": "from",
          "type": "address"
        },
        {
          "internalType": "address",
          "name": "to",
          "type": "address"
        },
        {
          "internalType": "uint256",
          "name": "tokenId",
          "type": "uint256"
        }
      ],
      "name": "safeTransferFrom",
      "outputs": [],
      "stateMutability": "nonpayable",
      "type": "function"
    },
    {
      "inputs": [
        {
          "internalType": "address",
          "name": "from",
          "type": "address"
        },
        {
          "internalType": "address",
          "name": "to",
          "type": "address"
        },
        {
          "internalType": "uint256",
          "name": "tokenId",
          "type": "uint256"
        },
        {
          "internalType": "bytes",
          "name": "data",
          "type": "bytes"
        }
      ],
      "name": "safeTransferFrom",
      "outputs": [],
      "stateMutability": "nonpayable",
      "type": "function"
    },
    {
      "inputs": [
        {
          "internalType": "address",
          "name": "operator",
          "type": "address"
        },
        {
          "internalType": "bool",
          "name": "approved",
          "type": "bool"
        }
      ],
      "name": "setApprovalForAll",
      "outputs": [],
      "stateMutability": "nonpayable",
      "type": "function"
    },
    {
      "inputs": [
        {
          "internalType": "string",
          "name": "b",
          "type": "string"
        }
      ],
      "name": "setBaseURI",
      "outputs": [],
      "stateMutability": "nonpayable",
      "type": "function"
    },
    {
      "inputs": [
        {
          "internalType": "address",
          "name": "s",
          "type": "address"
        }
      ],
      "name": "setTrustedSigner",
      "outputs": [],
      "stateMutability": "nonpayable",
      "type": "function"
    },
    {
      "inputs": [
        {
          "internalType": "bytes4",
          "name": "interfaceId",
          "type": "bytes4"
        }
      ],
      "name": "supportsInterface",
      "outputs": [
        {
          "internalType": "bool",
          "name": "",
          "type": "bool"
        }
      ],
      "stateMutability": "view",
      "type": "function"
    },
    {
      "inputs": [],
      "name": "symbol",
      "outputs": [
        {
          "internalType": "string",
          "name": "",
          "type": "string"
        }
      ],
      "stateMutability": "view",
      "type": "function"
    },
    {
      "inputs": [
        {
          "internalType": "uint256",
          "name": "tokenId",
          "type": "uint256"
        }
      ],
      "name": "tokenURI",
      "outputs": [
        {
          "internalType": "string",
          "name": "",
          "type": "string"
        }
      ],
      "stateMutability": "view",
      "type": "function"
    },
    {
      "inputs": [
        {
          "internalType": "uint256",
          "name": "",
          "type": "uint256"
        }
      ],
      "name": "tokenVariant",
      "outputs": [
        {
          "internalType": "uint8",
          "name": "",
          "type": "uint8"
        }
      ],
      "stateMutability": "view",
      "type": "function"
    },
    {
      "inputs": [
        {
          "internalType": "address",
          "name": "from",
          "type": "address"
        },
        {
          "internalType": "address",
          "name": "to",
          "type": "address"
        },
        {
          "internalType": "uint256",
          "name": "tokenId",
          "type": "uint256"
        }
      ],
      "name": "transferFrom",
      "outputs": [],
      "stateMutability": "nonpayable",
      "type": "function"
    },
    {
      "inputs": [
        {
          "internalType": "address",
          "name": "newOwner",
          "type": "address"
        }
      ],
      "name": "transferOwnership",
      "outputs": [],
      "stateMutability": "nonpayable",
      "type": "function"
    },
    {
      "inputs": [
        {
          "internalType": "uint256",
          "name": "tokenId",
          "type": "uint256"
        },
        {
          "internalType": "uint8",
          "name": "variant",
          "type": "uint8"
        }
      ],
      "name": "transform",
      "outputs": [],
      "stateMutability": "nonpayable",
      "type": "function"
    },
    {
      "inputs": [],
      "name": "trustedSigner",
      "outputs": [
        {
          "internalType": "address",
          "name": "",
          "type": "address"
        }
      ],
      "stateMutability": "view",
      "type": "function"
    },
    {
      "inputs": [
        {
          "internalType": "address payable",
          "name": "to",
          "type": "address"
        }
      ],
      "name": "withdraw",
      "outputs": [],
      "stateMutability": "nonpayable",
      "type": "function"
    }
  ],
  "bytecode": "0x60806040523480156200001157600080fd5b50604051620043693803806200436983398181016040528101906200003791906200039b565b33848481600090816200004b91906200068c565b5080600190816200005d91906200068c565b505050600073ffffffffffffffffffffffffffffffffffffffff168173ffffffffffffffffffffffffffffffffffffffff1603620000d55760006040517f1e4fbdf7000000000000000000000000000000000000000000000000000000008152600401620000cc9190620007b8565b60405180910390fd5b620000e6816200010760201b60201c565b508160088190555080600a81905550600160078190555050505050620007d5565b6000600660009054906101000a900473ffffffffffffffffffffffffffffffffffffffff16905081600660006101000a81548173ffffffffffffffffffffffffffffffffffffffff021916908373ffffffffffffffffffffffffffffffffffffffff1602179055508173ffffffffffffffffffffffffffffffffffffffff168173ffffffffffffffffffffffffffffffffffffffff167f8be0079c531659141344cd1fd0a4f28419497f9722a3daafe3b4186f6b6457e060405160405180910390a35050565b6000604051905090565b600080fd5b600080fd5b600080fd5b600080fd5b6000601f19601f8301169050919050565b7f4e487b7100000000000000000000000000000000000000000000000000000000600052604160045260246000fd5b6200023682620001eb565b810181811067ffffffffffffffff82111715620002585762000257620001fc565b5b80604052505050565b60006200026d620001cd565b90506200027b82826200022b565b919050565b600067ffffffffffffffff8211156200029e576200029d620001fc565b5b620002a982620001eb565b9050602081019050919050565b60005b83811015620002d6578082015181840152602081019050620002b9565b60008484015250505050565b6000620002f9620002f38462000280565b62000261565b905082815260208101848484011115620003185762000317620001e6565b5b62000325848285620002b6565b509392505050565b600082601f830112620003455762000344620001e1565b5b815162000357848260208601620002e2565b91505092915050565b6000819050919050565b620003758162000360565b81146200038157600080fd5b50565b60008151905062000395816200036a565b92915050565b60008060008060808587031215620003b857620003b7620001d7565b5b600085015167ffffffffffffffff811115620003d957620003d8620001dc565b5b620003e7878288016200032d565b945050602085015167ffffffffffffffff8111156200040b576200040a620001dc565b5b62000419878288016200032d565b93505060406200042c8782880162000384565b92505060606200043f8782880162000384565b91505092959194509250565b600081519050919050565b7f4e487b7100000000000000000000000000000000000000000000000000000000600052602260045260246000fd5b600060028204905060018216806200049e57607f821691505b602082108103620004b457620004b362000456565b5b50919050565b60008190508160005260206000209050919050565b60006020601f8301049050919050565b600082821b905092915050565b6000600883026200051e7fffffffffffffffffffffffffffffffffffffffffffffffffffffffffffffffff82620004df565b6200052a8683620004df565b95508019841693508086168417925050509392505050565b6000819050919050565b60006200056d62000567620005618462000360565b62000542565b62000360565b9050919050565b6000819050919050565b62000589836200054c565b620005a1620005988262000574565b848454620004ec565b825550505050565b600090565b620005b8620005a9565b620005c58184846200057e565b505050565b5b81811015620005ed57620005e1600082620005ae565b600181019050620005cb565b5050565b601f8211156200063c576200060681620004ba565b6200061184620004cf565b8101602085101562000621578190505b620006396200063085620004cf565b830182620005ca565b50505b505050565b600082821c905092915050565b6000620006616000198460080262000641565b1980831691505092915050565b60006200067c83836200064e565b9150826002028217905092915050565b62000697826200044b565b67ffffffffffffffff811115620006b357620006b2620001fc565b5b620006bf825462000485565b620006cc828285620005f1565b600060209050601f831160018114620007045760008415620006ef578287015190505b620006fb85826200066e565b8655506200076b565b601f1984166200071486620004ba565b60005b828110156200073e5784890151825560018201915060208501945060208101905062000717565b868310156200075e57848901516200075a601f8916826200064e565b8355505b6001600288020188555050505b505050505050565b600073ffffffffffffffffffffffffffffffffffffffff82169050919050565b6000620007a08262000773565b9050919050565b620007b28162000793565b82525050565b6000602082019050620007cf6000830184620007a7565b92915050565b613b8480620007e56000396000f3fe6080604052600436106101c25760003560e01c8063715018a6116100f7578063bcea0fec11610095578063e985e9c511610064578063e985e9c514610643578063f2fde38b14610680578063f74d5480146106a9578063f78f647c146106d4576101c2565b8063bcea0fec14610575578063c87b56dd1461059e578063dd46edb8146105db578063e00dd16114610618576101c2565b8063a22cb465116100d1578063a22cb465146104cd578063a4f4f8af146104f6578063b7ec208614610521578063b88d4fde1461054c576101c2565b8063715018a6146104605780638da5cb5b1461047757806395d89b41146104a2576101c2565b80632db115441161016457806355f804b31161013e57806355f804b31461039457806356a1c701146103bd5780636352211e146103e657806370a0823114610423576101c2565b80632db115441461032657806342842e0e1461034257806351cff8d91461036b576101c2565b8063095ea7b3116101a0578063095ea7b31461026c5780631a02b69e1461029557806323b872dd146102d257806326a74d8e146102fb576101c2565b806301ffc9a7146101c757806306fdde0314610204578063081812fc1461022f575b600080fd5b3480156101d357600080fd5b506101ee60048036038101906101e991906127d5565b6106fd565b6040516101fb919061281d565b60405180910390f35b34801561021057600080fd5b506102196107df565b60405161022691906128c8565b60405180910390f35b34801561023b57600080fd5b5061025660048036038101906102519190612920565b610871565b604051610263919061298e565b60405180910390f35b34801561027857600080fd5b50610293600480360381019061028e91906129d5565b61088d565b005b3480156102a157600080fd5b506102bc60048036038101906102b79190612a15565b6108a3565b6040516102c9919061281d565b60405180910390f35b3480156102de57600080fd5b506102f960048036038101906102f49190612a42565b6108c3565b005b34801561030757600080fd5b506103106109c5565b60405161031d9190612aa4565b60405180910390f35b610340600480360381019061033b9190612920565b6109cb565b005b34801561034e57600080fd5b5061036960048036038101906103649190612a42565b610b8e565b005b34801561037757600080fd5b50610392600480360381019061038d9190612afd565b610bae565b005b3480156103a057600080fd5b506103bb60048036038101906103b69190612c5f565b610cb8565b005b3480156103c957600080fd5b506103e460048036038101906103df9190612a15565b610cd3565b005b3480156103f257600080fd5b5061040d60048036038101906104089190612920565b610d1f565b60405161041a919061298e565b60405180910390f35b34801561042f57600080fd5b5061044a60048036038101906104459190612a15565b610d31565b6040516104579190612aa4565b60405180910390f35b34801561046c57600080fd5b50610475610deb565b005b34801561048357600080fd5b5061048c610dff565b604051610499919061298e565b60405180910390f35b3480156104ae57600080fd5b506104b7610e29565b6040516104c491906128c8565b60405180910390f35b3480156104d957600080fd5b506104f460048036038101906104ef9190612cd4565b610ebb565b005b34801561050257600080fd5b5061050b610ed1565b6040516105189190612aa4565b60405180910390f35b34801561052d57600080fd5b50610536610ed7565b6040516105439190612aa4565b60405180910390f35b34801561055857600080fd5b50610573600480360381019061056e9190612db5565b610edd565b005b34801561058157600080fd5b5061059c60048036038101906105979190612e98565b610f02565b005b3480156105aa57600080fd5b506105c560048036038101906105c09190612920565b611234565b6040516105d291906128c8565b60405180910390f35b3480156105e757600080fd5b5061060260048036038101906105fd9190612920565b611364565b60405161060f9190612f01565b60405180910390f35b34801561062457600080fd5b5061062d611384565b60405161063a9190612aa4565b60405180910390f35b34801561064f57600080fd5b5061066a60048036038101906106659190612f1c565b61138a565b604051610677919061281d565b60405180910390f35b34801561068c57600080fd5b506106a760048036038101906106a29190612a15565b61141e565b005b3480156106b557600080fd5b506106be6114a4565b6040516106cb919061298e565b60405180910390f35b3480156106e057600080fd5b506106fb60048036038101906106f69190612f88565b6114ca565b005b60007f80ac58cd000000000000000000000000000000000000000000000000000000007bffffffffffffffffffffffffffffffffffffffffffffffffffffffff1916827bffffffffffffffffffffffffffffffffffffffffffffffffffffffff191614806107c857507f5b5e139f000000000000000000000000000000000000000000000000000000007bffffffffffffffffffffffffffffffffffffffffffffffffffffffff1916827bffffffffffffffffffffffffffffffffffffffffffffffffffffffff1916145b806107d857506107d7826116a9565b5b9050919050565b6060600080546107ee90612ff7565b80601f016020809104026020016040519081016040528092919081815260200182805461081a90612ff7565b80156108675780601f1061083c57610100808354040283529160200191610867565b820191906000526020600020905b81548152906001019060200180831161084a57829003601f168201915b5050505050905090565b600061087c82611713565b506108868261179b565b9050919050565b61089f828261089a6117d8565b6117e0565b5050565b600c6020528060005260406000206000915054906101000a900460ff1681565b600073ffffffffffffffffffffffffffffffffffffffff168273ffffffffffffffffffffffffffffffffffffffff16036109355760006040517f64a0ae9200000000000000000000000000000000000000000000000000000000815260040161092c919061298e565b60405180910390fd5b600061094983836109446117d8565b6117f2565b90508373ffffffffffffffffffffffffffffffffffffffff168173ffffffffffffffffffffffffffffffffffffffff16146109bf578382826040517f64283d7b0000000000000000000000000000000000000000000000000000000081526004016109b693929190613028565b60405180910390fd5b50505050565b60085481565b6000811180156109dc5750600a8111155b610a1b576040517f08c379a0000000000000000000000000000000000000000000000000000000008152600401610a12906130ab565b60405180910390fd5b60085481600954610a2c91906130fa565b1115610a6d576040517f08c379a0000000000000000000000000000000000000000000000000000000008152600401610a649061317a565b60405180910390fd5b80600a54610a7b919061319a565b3414610abc576040517f08c379a0000000000000000000000000000000000000000000000000000000008152600401610ab390613228565b60405180910390fd5b60005b81811015610b7157600060076000815480929190610adc90613248565b919050559050610aec3382611a0c565b6000600d600083815260200190815260200160002060006101000a81548160ff021916908360ff160217905550803373ffffffffffffffffffffffffffffffffffffffff167f748a2986091c2034d6e93b6f44f771a79f0e1d6acd8a60c68c17d4e1e2feaed260405160405180910390a3508080610b6990613248565b915050610abf565b508060096000828254610b8491906130fa565b9250508190555050565b610ba983838360405180602001604052806000815250610edd565b505050565b610bb6611a2a565b600073ffffffffffffffffffffffffffffffffffffffff168173ffffffffffffffffffffffffffffffffffffffff1603610c25576040517f08c379a0000000000000000000000000000000000000000000000000000000008152600401610c1c906132dc565b60405180910390fd5b600047905060008111610c6d576040517f08c379a0000000000000000000000000000000000000000000000000000000008152600401610c6490613348565b60405180910390fd5b8173ffffffffffffffffffffffffffffffffffffffff166108fc829081150290604051600060405180830381858888f19350505050158015610cb3573d6000803e3d6000fd5b505050565b610cc0611a2a565b80600e9081610ccf9190613514565b5050565b610cdb611a2a565b80600b60006101000a81548173ffffffffffffffffffffffffffffffffffffffff021916908373ffffffffffffffffffffffffffffffffffffffff16021790555050565b6000610d2a82611713565b9050919050565b60008073ffffffffffffffffffffffffffffffffffffffff168273ffffffffffffffffffffffffffffffffffffffff1603610da45760006040517f89c62b64000000000000000000000000000000000000000000000000000000008152600401610d9b919061298e565b60405180910390fd5b600360008373ffffffffffffffffffffffffffffffffffffffff1673ffffffffffffffffffffffffffffffffffffffff168152602001908152602001600020549050919050565b610df3611a2a565b610dfd6000611ab1565b565b6000600660009054906101000a900473ffffffffffffffffffffffffffffffffffffffff16905090565b606060018054610e3890612ff7565b80601f0160208091040260200160405190810160405280929190818152602001828054610e6490612ff7565b8015610eb15780601f10610e8657610100808354040283529160200191610eb1565b820191906000526020600020905b815481529060010190602001808311610e9457829003601f168201915b5050505050905090565b610ecd610ec66117d8565b8383611b77565b5050565b60095481565b600a5481565b610ee88484846108c3565b610efc610ef36117d8565b85858585611ce6565b50505050565b600073ffffffffffffffffffffffffffffffffffffffff16600b60009054906101000a900473ffffffffffffffffffffffffffffffffffffffff1673ffffffffffffffffffffffffffffffffffffffff1603610f93576040517f08c379a0000000000000000000000000000000000000000000000000000000008152600401610f8a90613632565b60405180910390fd5b600c60003373ffffffffffffffffffffffffffffffffffffffff1673ffffffffffffffffffffffffffffffffffffffff16815260200190815260200160002060009054906101000a900460ff1615611020576040517f08c379a00000000000000000000000000000000000000000000000000000000081526004016110179061369e565b60405180910390fd5b600030463360405160200161103793929190613727565b604051602081830303815290604052805190602001209050600061105a82611e97565b905060006110ac8286868080601f016020809104026020016040519081016040528093929190818152602001838380828437600081840152601f19601f82011690508083019250505050505050611ecd565b9050600b60009054906101000a900473ffffffffffffffffffffffffffffffffffffffff1673ffffffffffffffffffffffffffffffffffffffff168173ffffffffffffffffffffffffffffffffffffffff161461113e576040517f08c379a0000000000000000000000000000000000000000000000000000000008152600401611135906137b0565b60405180910390fd5b6001600c60003373ffffffffffffffffffffffffffffffffffffffff1673ffffffffffffffffffffffffffffffffffffffff16815260200190815260200160002060006101000a81548160ff0219169083151502179055506000600760008154809291906111ab90613248565b9190505590506111bb3382611a0c565b6000600d600083815260200190815260200160002060006101000a81548160ff021916908360ff160217905550803373ffffffffffffffffffffffffffffffffffffffff167fe9a10c23ea49d40011e019f115185f0bc29740208a504d35f951dca74ba37eac60405160405180910390a3505050505050565b606061123f82611713565b50600061124a611ef9565b90506000600d600085815260200190815260200160002060009054906101000a900460ff16905060006040518060400160405280600c81526020017f6e65757472616c2e6a736f6e0000000000000000000000000000000000000000815250905060018260ff16036112f3576040518060400160405280600a81526020017f616e67656c2e6a736f6e000000000000000000000000000000000000000000008152509050611338565b60028260ff1603611337576040518060400160405280600a81526020017f646576696c2e6a736f6e0000000000000000000000000000000000000000000081525090505b5b828160405160200161134b92919061380c565b6040516020818303038152906040529350505050919050565b600d6020528060005260406000206000915054906101000a900460ff1681565b60075481565b6000600560008473ffffffffffffffffffffffffffffffffffffffff1673ffffffffffffffffffffffffffffffffffffffff16815260200190815260200160002060008373ffffffffffffffffffffffffffffffffffffffff1673ffffffffffffffffffffffffffffffffffffffff16815260200190815260200160002060009054906101000a900460ff16905092915050565b611426611a2a565b600073ffffffffffffffffffffffffffffffffffffffff168173ffffffffffffffffffffffffffffffffffffffff16036114985760006040517f1e4fbdf700000000000000000000000000000000000000000000000000000000815260040161148f919061298e565b60405180910390fd5b6114a181611ab1565b50565b600b60009054906101000a900473ffffffffffffffffffffffffffffffffffffffff1681565b60018160ff1614806114df575060028160ff16145b61151e576040517f08c379a00000000000000000000000000000000000000000000000000000000081526004016115159061387c565b60405180910390fd5b3373ffffffffffffffffffffffffffffffffffffffff1661153e83610d1f565b73ffffffffffffffffffffffffffffffffffffffff1614611594576040517f08c379a000000000000000000000000000000000000000000000000000000000815260040161158b906138e8565b60405180910390fd5b6000600d600084815260200190815260200160002060009054906101000a900460ff1660ff16146115fa576040517f08c379a00000000000000000000000000000000000000000000000000000000081526004016115f19061397a565b60405180910390fd5b61160382611f8b565b60006007600081548092919061161890613248565b9190505590506116283382611a0c565b81600d600083815260200190815260200160002060006101000a81548160ff021916908360ff16021790555080833373ffffffffffffffffffffffffffffffffffffffff167f598067bc48ef38b7785eda047c375b2d45f2b845404b58dcdfccf40e7f38d8698560405161169c9190612f01565b60405180910390a4505050565b60007f01ffc9a7000000000000000000000000000000000000000000000000000000007bffffffffffffffffffffffffffffffffffffffffffffffffffffffff1916827bffffffffffffffffffffffffffffffffffffffffffffffffffffffff1916149050919050565b60008061171f83612011565b9050600073ffffffffffffffffffffffffffffffffffffffff168173ffffffffffffffffffffffffffffffffffffffff160361179257826040517f7e2732890000000000000000000000000000000000000000000000000000000081526004016117899190612aa4565b60405180910390fd5b80915050919050565b60006004600083815260200190815260200160002060009054906101000a900473ffffffffffffffffffffffffffffffffffffffff169050919050565b600033905090565b6117ed838383600161204e565b505050565b6000806117fe84612011565b9050600073ffffffffffffffffffffffffffffffffffffffff168373ffffffffffffffffffffffffffffffffffffffff16146118405761183f818486612213565b5b600073ffffffffffffffffffffffffffffffffffffffff168173ffffffffffffffffffffffffffffffffffffffff16146118d15761188260008560008061204e565b6001600360008373ffffffffffffffffffffffffffffffffffffffff1673ffffffffffffffffffffffffffffffffffffffff168152602001908152602001600020600082825403925050819055505b600073ffffffffffffffffffffffffffffffffffffffff168573ffffffffffffffffffffffffffffffffffffffff1614611954576001600360008773ffffffffffffffffffffffffffffffffffffffff1673ffffffffffffffffffffffffffffffffffffffff168152602001908152602001600020600082825401925050819055505b846002600086815260200190815260200160002060006101000a81548173ffffffffffffffffffffffffffffffffffffffff021916908373ffffffffffffffffffffffffffffffffffffffff160217905550838573ffffffffffffffffffffffffffffffffffffffff168273ffffffffffffffffffffffffffffffffffffffff167fddf252ad1be2c89b69c2b068fc378daa952ba7f163c4a11628f55a4df523b3ef60405160405180910390a4809150509392505050565b611a268282604051806020016040528060008152506122d7565b5050565b611a326117d8565b73ffffffffffffffffffffffffffffffffffffffff16611a50610dff565b73ffffffffffffffffffffffffffffffffffffffff1614611aaf57611a736117d8565b6040517f118cdaa7000000000000000000000000000000000000000000000000000000008152600401611aa6919061298e565b60405180910390fd5b565b6000600660009054906101000a900473ffffffffffffffffffffffffffffffffffffffff16905081600660006101000a81548173ffffffffffffffffffffffffffffffffffffffff021916908373ffffffffffffffffffffffffffffffffffffffff1602179055508173ffffffffffffffffffffffffffffffffffffffff168173ffffffffffffffffffffffffffffffffffffffff167f8be0079c531659141344cd1fd0a4f28419497f9722a3daafe3b4186f6b6457e060405160405180910390a35050565b600073ffffffffffffffffffffffffffffffffffffffff168273ffffffffffffffffffffffffffffffffffffffff1603611be857816040517f5b08ba18000000000000000000000000000000000000000000000000000000008152600401611bdf919061298e565b60405180910390fd5b80600560008573ffffffffffffffffffffffffffffffffffffffff1673ffffffffffffffffffffffffffffffffffffffff16815260200190815260200160002060008473ffffffffffffffffffffffffffffffffffffffff1673ffffffffffffffffffffffffffffffffffffffff16815260200190815260200160002060006101000a81548160ff0219169083151502179055508173ffffffffffffffffffffffffffffffffffffffff168373ffffffffffffffffffffffffffffffffffffffff167f17307eab39ab6107e8899845ad3d59bd9653f200f220920489ca2b5937696c3183604051611cd9919061281d565b60405180910390a3505050565b60008373ffffffffffffffffffffffffffffffffffffffff163b1115611e90578273ffffffffffffffffffffffffffffffffffffffff1663150b7a02868685856040518563ffffffff1660e01b8152600401611d4594939291906139ef565b6020604051808303816000875af1925050508015611d8157506040513d601f19601f82011682018060405250810190611d7e9190613a50565b60015b611e05573d8060008114611db1576040519150601f19603f3d011682016040523d82523d6000602084013e611db6565b606091505b506000815103611dfd57836040517f64a0ae92000000000000000000000000000000000000000000000000000000008152600401611df4919061298e565b60405180910390fd5b805160208201fd5b63150b7a0260e01b7bffffffffffffffffffffffffffffffffffffffffffffffffffffffff1916817bffffffffffffffffffffffffffffffffffffffffffffffffffffffff191614611e8e57836040517f64a0ae92000000000000000000000000000000000000000000000000000000008152600401611e85919061298e565b60405180910390fd5b505b5050505050565b60007f19457468657265756d205369676e6564204d6573736167653a0a33320000000060005281601c52603c6000209050919050565b600080600080611edd86866122fb565b925092509250611eed8282612357565b82935050505092915050565b6060600e8054611f0890612ff7565b80601f0160208091040260200160405190810160405280929190818152602001828054611f3490612ff7565b8015611f815780601f10611f5657610100808354040283529160200191611f81565b820191906000526020600020905b815481529060010190602001808311611f6457829003601f168201915b5050505050905090565b6000611f9a60008360006117f2565b9050600073ffffffffffffffffffffffffffffffffffffffff168173ffffffffffffffffffffffffffffffffffffffff160361200d57816040517f7e2732890000000000000000000000000000000000000000000000000000000081526004016120049190612aa4565b60405180910390fd5b5050565b60006002600083815260200190815260200160002060009054906101000a900473ffffffffffffffffffffffffffffffffffffffff169050919050565b80806120875750600073ffffffffffffffffffffffffffffffffffffffff168273ffffffffffffffffffffffffffffffffffffffff1614155b156121bb57600061209784611713565b9050600073ffffffffffffffffffffffffffffffffffffffff168373ffffffffffffffffffffffffffffffffffffffff161415801561210257508273ffffffffffffffffffffffffffffffffffffffff168173ffffffffffffffffffffffffffffffffffffffff1614155b80156121155750612113818461138a565b155b1561215757826040517fa9fbf51f00000000000000000000000000000000000000000000000000000000815260040161214e919061298e565b60405180910390fd5b81156121b957838573ffffffffffffffffffffffffffffffffffffffff168273ffffffffffffffffffffffffffffffffffffffff167f8c5be1e5ebec7d5bd14f71427d1e84f3dd0314c0f7b2291e5b200ac8c7c3b92560405160405180910390a45b505b836004600085815260200190815260200160002060006101000a81548173ffffffffffffffffffffffffffffffffffffffff021916908373ffffffffffffffffffffffffffffffffffffffff16021790555050505050565b61221e8383836124bb565b6122d257600073ffffffffffffffffffffffffffffffffffffffff168373ffffffffffffffffffffffffffffffffffffffff160361229357806040517f7e27328900000000000000000000000000000000000000000000000000000000815260040161228a9190612aa4565b60405180910390fd5b81816040517f177e802f0000000000000000000000000000000000000000000000000000000081526004016122c9929190613a7d565b60405180910390fd5b505050565b6122e1838361257c565b6122f66122ec6117d8565b6000858585611ce6565b505050565b600080600060418451036123405760008060006020870151925060408701519150606087015160001a905061233288828585612675565b955095509550505050612350565b60006002855160001b9250925092505b9250925092565b6000600381111561236b5761236a613aa6565b5b82600381111561237e5761237d613aa6565b5b03156124b7576001600381111561239857612397613aa6565b5b8260038111156123ab576123aa613aa6565b5b036123e2576040517ff645eedf00000000000000000000000000000000000000000000000000000000815260040160405180910390fd5b600260038111156123f6576123f5613aa6565b5b82600381111561240957612408613aa6565b5b0361244e578060001c6040517ffce698f70000000000000000000000000000000000000000000000000000000081526004016124459190612aa4565b60405180910390fd5b60038081111561246157612460613aa6565b5b82600381111561247457612473613aa6565b5b036124b657806040517fd78bce0c0000000000000000000000000000000000000000000000000000000081526004016124ad9190613aee565b60405180910390fd5b5b5050565b60008073ffffffffffffffffffffffffffffffffffffffff168373ffffffffffffffffffffffffffffffffffffffff161415801561257357508273ffffffffffffffffffffffffffffffffffffffff168473ffffffffffffffffffffffffffffffffffffffff1614806125345750612533848461138a565b5b8061257257508273ffffffffffffffffffffffffffffffffffffffff1661255a8361179b565b73ffffffffffffffffffffffffffffffffffffffff16145b5b90509392505050565b600073ffffffffffffffffffffffffffffffffffffffff168273ffffffffffffffffffffffffffffffffffffffff16036125ee5760006040517f64a0ae920000000000000000000000000000000000000000000000000000000081526004016125e5919061298e565b60405180910390fd5b60006125fc838360006117f2565b9050600073ffffffffffffffffffffffffffffffffffffffff168173ffffffffffffffffffffffffffffffffffffffff16146126705760006040517f73c6ac6e000000000000000000000000000000000000000000000000000000008152600401612667919061298e565b60405180910390fd5b505050565b60008060007f7fffffffffffffffffffffffffffffff5d576e7357a4501ddfe92f46681b20a08460001c11156126b557600060038592509250925061275f565b6000600188888888604051600081526020016040526040516126da9493929190613b09565b6020604051602081039080840390855afa1580156126fc573d6000803e3d6000fd5b505050602060405103519050600073ffffffffffffffffffffffffffffffffffffffff168173ffffffffffffffffffffffffffffffffffffffff160361275057600060016000801b9350935093505061275f565b8060008060001b935093509350505b9450945094915050565b6000604051905090565b600080fd5b600080fd5b60007fffffffff0000000000000000000000000000000000000000000000000000000082169050919050565b6127b28161277d565b81146127bd57600080fd5b50565b6000813590506127cf816127a9565b92915050565b6000602082840312156127eb576127ea612773565b5b60006127f9848285016127c0565b91505092915050565b60008115159050919050565b61281781612802565b82525050565b6000602082019050612832600083018461280e565b92915050565b600081519050919050565b600082825260208201905092915050565b60005b83811015612872578082015181840152602081019050612857565b60008484015250505050565b6000601f19601f8301169050919050565b600061289a82612838565b6128a48185612843565b93506128b4818560208601612854565b6128bd8161287e565b840191505092915050565b600060208201905081810360008301526128e2818461288f565b905092915050565b6000819050919050565b6128fd816128ea565b811461290857600080fd5b50565b60008135905061291a816128f4565b92915050565b60006020828403121561293657612935612773565b5b60006129448482850161290b565b91505092915050565b600073ffffffffffffffffffffffffffffffffffffffff82169050919050565b60006129788261294d565b9050919050565b6129888161296d565b82525050565b60006020820190506129a3600083018461297f565b92915050565b6129b28161296d565b81146129bd57600080fd5b50565b6000813590506129cf816129a9565b92915050565b600080604083850312156129ec576129eb612773565b5b60006129fa858286016129c0565b9250506020612a0b8582860161290b565b9150509250929050565b600060208284031215612a2b57612a2a612773565b5b6000612a39848285016129c0565b91505092915050565b600080600060608486031215612a5b57612a5a612773565b5b6000612a69868287016129c0565b9350506020612a7a868287016129c0565b9250506040612a8b8682870161290b565b9150509250925092565b612a9e816128ea565b82525050565b6000602082019050612ab96000830184612a95565b92915050565b6000612aca8261294d565b9050919050565b612ada81612abf565b8114612ae557600080fd5b50565b600081359050612af781612ad1565b92915050565b600060208284031215612b1357612b12612773565b5b6000612b2184828501612ae8565b91505092915050565b600080fd5b600080fd5b7f4e487b7100000000000000000000000000000000000000000000000000000000600052604160045260246000fd5b612b6c8261287e565b810181811067ffffffffffffffff82111715612b8b57612b8a612b34565b5b80604052505050565b6000612b9e612769565b9050612baa8282612b63565b919050565b600067ffffffffffffffff821115612bca57612bc9612b34565b5b612bd38261287e565b9050602081019050919050565b82818337600083830152505050565b6000612c02612bfd84612baf565b612b94565b905082815260208101848484011115612c1e57612c1d612b2f565b5b612c29848285612be0565b509392505050565b600082601f830112612c4657612c45612b2a565b5b8135612c56848260208601612bef565b91505092915050565b600060208284031215612c7557612c74612773565b5b600082013567ffffffffffffffff811115612c9357612c92612778565b5b612c9f84828501612c31565b91505092915050565b612cb181612802565b8114612cbc57600080fd5b50565b600081359050612cce81612ca8565b92915050565b60008060408385031215612ceb57612cea612773565b5b6000612cf9858286016129c0565b9250506020612d0a85828601612cbf565b9150509250929050565b600067ffffffffffffffff821115612d2f57612d2e612b34565b5b612d388261287e565b9050602081019050919050565b6000612d58612d5384612d14565b612b94565b905082815260208101848484011115612d7457612d73612b2f565b5b612d7f848285612be0565b509392505050565b600082601f830112612d9c57612d9b612b2a565b5b8135612dac848260208601612d45565b91505092915050565b60008060008060808587031215612dcf57612dce612773565b5b6000612ddd878288016129c0565b9450506020612dee878288016129c0565b9350506040612dff8782880161290b565b925050606085013567ffffffffffffffff811115612e2057612e1f612778565b5b612e2c87828801612d87565b91505092959194509250565b600080fd5b600080fd5b60008083601f840112612e5857612e57612b2a565b5b8235905067ffffffffffffffff811115612e7557612e74612e38565b5b602083019150836001820283011115612e9157612e90612e3d565b5b9250929050565b60008060208385031215612eaf57612eae612773565b5b600083013567ffffffffffffffff811115612ecd57612ecc612778565b5b612ed985828601612e42565b92509250509250929050565b600060ff82169050919050565b612efb81612ee5565b82525050565b6000602082019050612f166000830184612ef2565b92915050565b60008060408385031215612f3357612f32612773565b5b6000612f41858286016129c0565b9250506020612f52858286016129c0565b9150509250929050565b612f6581612ee5565b8114612f7057600080fd5b50565b600081359050612f8281612f5c565b92915050565b60008060408385031215612f9f57612f9e612773565b5b6000612fad8582860161290b565b9250506020612fbe85828601612f73565b9150509250929050565b7f4e487b7100000000000000000000000000000000000000000000000000000000600052602260045260246000fd5b6000600282049050600182168061300f57607f821691505b60208210810361302257613021612fc8565b5b50919050565b600060608201905061303d600083018661297f565b61304a6020830185612a95565b613057604083018461297f565b949350505050565b7f696e76616c696420717479000000000000000000000000000000000000000000600082015250565b6000613095600b83612843565b91506130a08261305f565b602082019050919050565b600060208201905081810360008301526130c481613088565b9050919050565b7f4e487b7100000000000000000000000000000000000000000000000000000000600052601160045260246000fd5b6000613105826128ea565b9150613110836128ea565b9250828201905080821115613128576131276130cb565b5b92915050565b7f7075626c696320736f6c64206f75740000000000000000000000000000000000600082015250565b6000613164600f83612843565b915061316f8261312e565b602082019050919050565b6000602082019050818103600083015261319381613157565b9050919050565b60006131a5826128ea565b91506131b0836128ea565b92508282026131be816128ea565b915082820484148315176131d5576131d46130cb565b5b5092915050565b7f696e636f7272656374207061796d656e74000000000000000000000000000000600082015250565b6000613212601183612843565b915061321d826131dc565b602082019050919050565b6000602082019050818103600083015261324181613205565b9050919050565b6000613253826128ea565b91507fffffffffffffffffffffffffffffffffffffffffffffffffffffffffffffffff8203613285576132846130cb565b5b600182019050919050565b7f696e76616c696420616464726573730000000000000000000000000000000000600082015250565b60006132c6600f83612843565b91506132d182613290565b602082019050919050565b600060208201905081810360008301526132f5816132b9565b9050919050565b7f6e6f2066756e6473000000000000000000000000000000000000000000000000600082015250565b6000613332600883612843565b915061333d826132fc565b602082019050919050565b6000602082019050818103600083015261336181613325565b9050919050565b60008190508160005260206000209050919050565b60006020601f8301049050919050565b600082821b905092915050565b6000600883026133ca7fffffffffffffffffffffffffffffffffffffffffffffffffffffffffffffffff8261338d565b6133d4868361338d565b95508019841693508086168417925050509392505050565b6000819050919050565b600061341161340c613407846128ea565b6133ec565b6128ea565b9050919050565b6000819050919050565b61342b836133f6565b61343f61343782613418565b84845461339a565b825550505050565b600090565b613454613447565b61345f818484613422565b505050565b5b818110156134835761347860008261344c565b600181019050613465565b5050565b601f8211156134c85761349981613368565b6134a28461337d565b810160208510156134b1578190505b6134c56134bd8561337d565b830182613464565b50505b505050565b600082821c905092915050565b60006134eb600019846008026134cd565b1980831691505092915050565b600061350483836134da565b9150826002028217905092915050565b61351d82612838565b67ffffffffffffffff81111561353657613535612b34565b5b6135408254612ff7565b61354b828285613487565b600060209050601f83116001811461357e576000841561356c578287015190505b61357685826134f8565b8655506135de565b601f19841661358c86613368565b60005b828110156135b45784890151825560018201915060208501945060208101905061358f565b868310156135d157848901516135cd601f8916826134da565b8355505b6001600288020188555050505b505050505050565b7f74727573746564207369676e6572206e6f742073657400000000000000000000600082015250565b600061361c601683612843565b9150613627826135e6565b602082019050919050565b6000602082019050818103600083015261364b8161360f565b9050919050565b7f616c726561647920636c61696d6564206f6e2d636861696e0000000000000000600082015250565b6000613688601883612843565b915061369382613652565b602082019050919050565b600060208201905081810360008301526136b78161367b565b9050919050565b60008160601b9050919050565b60006136d6826136be565b9050919050565b60006136e8826136cb565b9050919050565b6137006136fb8261296d565b6136dd565b82525050565b6000819050919050565b61372161371c826128ea565b613706565b82525050565b600061373382866136ef565b6014820191506137438285613710565b60208201915061375382846136ef565b601482019150819050949350505050565b7f696e76616c6964207369676e6174757265000000000000000000000000000000600082015250565b600061379a601183612843565b91506137a582613764565b602082019050919050565b600060208201905081810360008301526137c98161378d565b9050919050565b600081905092915050565b60006137e682612838565b6137f081856137d0565b9350613800818560208601612854565b80840191505092915050565b600061381882856137db565b915061382482846137db565b91508190509392505050565b7f696e76616c69642076617269616e740000000000000000000000000000000000600082015250565b6000613866600f83612843565b915061387182613830565b602082019050919050565b6000602082019050818103600083015261389581613859565b9050919050565b7f6e6f74206f776e65720000000000000000000000000000000000000000000000600082015250565b60006138d2600983612843565b91506138dd8261389c565b602082019050919050565b60006020820190508181036000830152613901816138c5565b9050919050565b7f6f6e6c79206e65757472616c20746f6b656e732063616e206265207472616e7360008201527f666f726d65640000000000000000000000000000000000000000000000000000602082015250565b6000613964602683612843565b915061396f82613908565b604082019050919050565b6000602082019050818103600083015261399381613957565b9050919050565b600081519050919050565b600082825260208201905092915050565b60006139c18261399a565b6139cb81856139a5565b93506139db818560208601612854565b6139e48161287e565b840191505092915050565b6000608082019050613a04600083018761297f565b613a11602083018661297f565b613a1e6040830185612a95565b8181036060830152613a3081846139b6565b905095945050505050565b600081519050613a4a816127a9565b92915050565b600060208284031215613a6657613a65612773565b5b6000613a7484828501613a3b565b91505092915050565b6000604082019050613a92600083018561297f565b613a9f6020830184612a95565b9392505050565b7f4e487b7100000000000000000000000000000000000000000000000000000000600052602160045260246000fd5b6000819050919050565b613ae881613ad5565b82525050565b6000602082019050613b036000830184613adf565b92915050565b6000608082019050613b1e6000830187613adf565b613b2b6020830186612ef2565b613b386040830185613adf565b613b456060830184613adf565b9594505050505056fea2646970667358221220010b4afe7d5218fc83b2dae60f9b5fe21de5c1618621f0a253dfc39b9a9eee8f64736f6c63430008140033",
  "linkReferences": {},
  "deployedLinkReferences": {}
}