{
  "_format": "hh-sol-artifact-1",
  "contractName": "SoulChoiceGenesis",
  "sourceName": "contracts/NeutralHeartGenesis.sol",
  "abi": [
    {
      "inputs": [],
      "stateMutability": "nonpayable",
      "type": "constructor"
    },
    {
      "inputs": [],
      "name": "ERC721EnumerableForbiddenBatchMint",
      "type": "error"
    },
    {
      "inputs": [
        {
          "internalType": "address",
          "name": "sender",
          "type": "address"
        },
        {
          "internalType": "uint256",
          "name": "tokenId",
          "type": "uint256"
        },
        {
          "internalType": "address",
          "name": "owner",
          "type": "address"
        }
      ],
      "name": "ERC721IncorrectOwner",
      "type": "error"
    },
    {
      "inputs": [
        {
          "internalType": "address",
          "name": "operator",
          "type": "address"
        },
        {
          "internalType": "uint256",
          "name": "tokenId",
          "type": "uint256"
        }
      ],
      "name": "ERC721InsufficientApproval",
      "type": "error"
    },
    {
      "inputs": [
        {
          "internalType": "address",
          "name": "approver",
          "type": "address"
        }
      ],
      "name": "ERC721InvalidApprover",
      "type": "error"
    },
    {
      "inputs": [
        {
          "internalType": "address",
          "name": "operator",
          "type": "address"
        }
      ],
      "name": "ERC721InvalidOperator",
      "type": "error"
    },
    {
      "inputs": [
        {
          "internalType": "address",
          "name": "owner",
          "type": "address"
        }
      ],
      "name": "ERC721InvalidOwner",
      "type": "error"
    },
    {
      "inputs": [
        {
          "internalType": "address",
          "name": "receiver",
          "type": "address"
        }
      ],
      "name": "ERC721InvalidReceiver",
      "type": "error"
    },
    {
      "inputs": [
        {
          "internalType": "address",
          "name": "sender",
          "type": "address"
        }
      ],
      "name": "ERC721InvalidSender",
      "type": "error"
    },
    {
      "inputs": [
        {
          "internalType": "uint256",
          "name": "tokenId",
          "type": "uint256"
        }
      ],
      "name": "ERC721NonexistentToken",
      "type": "error"
    },
    {
      "inputs": [
        {
          "internalType": "address",
          "name": "owner",
          "type": "address"
        },
        {
          "internalType": "uint256",
          "name": "index",
          "type": "uint256"
        }
      ],
      "name": "ERC721OutOfBoundsIndex",
      "type": "error"
    },
    {
      "inputs": [
        {
          "internalType": "address",
          "name": "owner",
          "type": "address"
        }
      ],
      "name": "OwnableInvalidOwner",
      "type": "error"
    },
    {
      "inputs": [
        {
          "internalType": "address",
          "name": "account",
          "type": "address"
        }
      ],
      "name": "OwnableUnauthorizedAccount",
      "type": "error"
    },
    {
      "anonymous": false,
      "inputs": [
        {
          "indexed": true,
          "internalType": "address",
          "name": "owner",
          "type": "address"
        },
        {
          "indexed": true,
          "internalType": "address",
          "name": "approved",
          "type": "address"
        },
        {
          "indexed": true,
          "internalType": "uint256",
          "name": "tokenId",
          "type": "uint256"
        }
      ],
      "name": "Approval",
      "type": "event"
    },
    {
      "anonymous": false,
      "inputs": [
        {
          "indexed": true,
          "internalType": "address",
          "name": "owner",
          "type": "address"
        },
        {
          "indexed": true,
          "internalType": "address",
          "name": "operator",
          "type": "address"
        },
        {
          "indexed": false,
          "internalType": "bool",
          "name": "approved",
          "type": "bool"
        }
      ],
      "name": "ApprovalForAll",
      "type": "event"
    },
    {
      "anonymous": false,
      "inputs": [
        {
          "indexed": true,
          "internalType": "address",
          "name": "previousOwner",
          "type": "address"
        },
        {
          "indexed": true,
          "internalType": "address",
          "name": "newOwner",
          "type": "address"
        }
      ],
      "name": "OwnershipTransferred",
      "type": "event"
    },
    {
      "anonymous": false,
      "inputs": [
        {
          "indexed": true,
          "internalType": "address",
          "name": "from",
          "type": "address"
        },
        {
          "indexed": true,
          "internalType": "address",
          "name": "to",
          "type": "address"
        },
        {
          "indexed": true,
          "internalType": "uint256",
          "name": "tokenId",
          "type": "uint256"
        }
      ],
      "name": "Transfer",
      "type": "event"
    },
    {
      "inputs": [],
      "name": "MAX_SUPPLY",
      "outputs": [
        {
          "internalType": "uint256",
          "name": "",
          "type": "uint256"
        }
      ],
      "stateMutability": "view",
      "type": "function"
    },
    {
      "inputs": [
        {
          "internalType": "address",
          "name": "to",
          "type": "address"
        },
        {
          "internalType": "uint256",
          "name": "tokenId",
          "type": "uint256"
        }
      ],
      "name": "approve",
      "outputs": [],
      "stateMutability": "nonpayable",
      "type": "function"
    },
    {
      "inputs": [
        {
          "internalType": "address",
          "name": "owner",
          "type": "address"
        }
      ],
      "name": "balanceOf",
      "outputs": [
        {
          "internalType": "uint256",
          "name": "",
          "type": "uint256"
        }
      ],
      "stateMutability": "view",
      "type": "function"
    },
    {
      "inputs": [],
      "name": "baseURI",
      "outputs": [
        {
          "internalType": "string",
          "name": "",
          "type": "string"
        }
      ],
      "stateMutability": "view",
      "type": "function"
    },
    {
      "inputs": [
        {
          "internalType": "uint256",
          "name": "tokenId",
          "type": "uint256"
        }
      ],
      "name": "getApproved",
      "outputs": [
        {
          "internalType": "address",
          "name": "",
          "type": "address"
        }
      ],
      "stateMutability": "view",
      "type": "function"
    },
    {
      "inputs": [
        {
          "internalType": "address",
          "name": "owner",
          "type": "address"
        },
        {
          "internalType": "address",
          "name": "operator",
          "type": "address"
        }
      ],
      "name": "isApprovedForAll",
      "outputs": [
        {
          "internalType": "bool",
          "name": "",
          "type": "bool"
        }
      ],
      "stateMutability": "view",
      "type": "function"
    },
    {
      "inputs": [],
      "name": "mint",
      "outputs": [],
      "stateMutability": "payable",
      "type": "function"
    },
    {
      "inputs": [],
      "name": "name",
      "outputs": [
        {
          "internalType": "string",
          "name": "",
          "type": "string"
        }
      ],
      "stateMutability": "view",
      "type": "function"
    },
    {
      "inputs": [],
      "name": "owner",
      "outputs": [
        {
          "internalType": "address",
          "name": "",
          "type": "address"
        }
      ],
      "stateMutability": "view",
      "type": "function"
    },
    {
      "inputs": [
        {
          "internalType": "uint256",
          "name": "tokenId",
          "type": "uint256"
        }
      ],
      "name": "ownerOf",
      "outputs": [
        {
          "internalType": "address",
          "name": "",
          "type": "address"
        }
      ],
      "stateMutability": "view",
      "type": "function"
    },
    {
      "inputs": [],
      "name": "priceWei",
      "outputs": [
        {
          "internalType": "uint256",
          "name": "",
          "type": "uint256"
        }
      ],
      "stateMutability": "view",
      "type": "function"
    },
    {
      "inputs": [],
      "name": "renounceOwnership",
      "outputs": [],
      "stateMutability": "nonpayable",
      "type": "function"
    },
    {
      "inputs": [
        {
          "internalType": "address",
          "name": "from",
          "type": "address"
        },
        {
          "internalType": "address",
          "name": "to",
          "type": "address"
        },
        {
          "internalType": "uint256",
          "name": "tokenId",
          "type": "uint256"
        }
      ],
      "name": "safeTransferFrom",
      "outputs": [],
      "stateMutability": "nonpayable",
      "type": "function"
    },
    {
      "inputs": [
        {
          "internalType": "address",
          "name": "from",
          "type": "address"
        },
        {
          "internalType": "address",
          "name": "to",
          "type": "address"
        },
        {
          "internalType": "uint256",
          "name": "tokenId",
          "type": "uint256"
        },
        {
          "internalType": "bytes",
          "name": "data",
          "type": "bytes"
        }
      ],
      "name": "safeTransferFrom",
      "outputs": [],
      "stateMutability": "nonpayable",
      "type": "function"
    },
    {
      "inputs": [
        {
          "internalType": "address",
          "name": "operator",
          "type": "address"
        },
        {
          "internalType": "bool",
          "name": "approved",
          "type": "bool"
        }
      ],
      "name": "setApprovalForAll",
      "outputs": [],
      "stateMutability": "nonpayable",
      "type": "function"
    },
    {
      "inputs": [
        {
          "internalType": "string",
          "name": "uri",
          "type": "string"
        }
      ],
      "name": "setBaseURI",
      "outputs": [],
      "stateMutability": "nonpayable",
      "type": "function"
    },
    {
      "inputs": [
        {
          "internalType": "bytes4",
          "name": "interfaceId",
          "type": "bytes4"
        }
      ],
      "name": "supportsInterface",
      "outputs": [
        {
          "internalType": "bool",
          "name": "",
          "type": "bool"
        }
      ],
      "stateMutability": "view",
      "type": "function"
    },
    {
      "inputs": [],
      "name": "symbol",
      "outputs": [
        {
          "internalType": "string",
          "name": "",
          "type": "string"
        }
      ],
      "stateMutability": "view",
      "type": "function"
    },
    {
      "inputs": [
        {
          "internalType": "uint256",
          "name": "index",
          "type": "uint256"
        }
      ],
      "name": "tokenByIndex",
      "outputs": [
        {
          "internalType": "uint256",
          "name": "",
          "type": "uint256"
        }
      ],
      "stateMutability": "view",
      "type": "function"
    },
    {
      "inputs": [
        {
          "internalType": "address",
          "name": "owner",
          "type": "address"
        },
        {
          "internalType": "uint256",
          "name": "index",
          "type": "uint256"
        }
      ],
      "name": "tokenOfOwnerByIndex",
      "outputs": [
        {
          "internalType": "uint256",
          "name": "",
          "type": "uint256"
        }
      ],
      "stateMutability": "view",
      "type": "function"
    },
    {
      "inputs": [
        {
          "internalType": "uint256",
          "name": "tokenId",
          "type": "uint256"
        }
      ],
      "name": "tokenURI",
      "outputs": [
        {
          "internalType": "string",
          "name": "",
          "type": "string"
        }
      ],
      "stateMutability": "view",
      "type": "function"
    },
    {
      "inputs": [],
      "name": "totalSupply",
      "outputs": [
        {
          "internalType": "uint256",
          "name": "",
          "type": "uint256"
        }
      ],
      "stateMutability": "view",
      "type": "function"
    },
    {
      "inputs": [
        {
          "internalType": "address",
          "name": "from",
          "type": "address"
        },
        {
          "internalType": "address",
          "name": "to",
          "type": "address"
        },
        {
          "internalType": "uint256",
          "name": "tokenId",
          "type": "uint256"
        }
      ],
      "name": "transferFrom",
      "outputs": [],
      "stateMutability": "nonpayable",
      "type": "function"
    },
    {
      "inputs": [
        {
          "internalType": "address",
          "name": "newOwner",
          "type": "address"
        }
      ],
      "name": "transferOwnership",
      "outputs": [],
      "stateMutability": "nonpayable",
      "type": "function"
    }
  ],
  "bytecode": "0x6080604052670de0b6b3a7640000600c553480156200001d57600080fd5b50336040518060400160405280601781526020017f536f756c43686f6963652047656e6573697320323032350000000000000000008152506040518060400160405280600881526020017f534f554c4347323500000000000000000000000000000000000000000000000081525081600090816200009c91906200047e565b508060019081620000ae91906200047e565b505050600073ffffffffffffffffffffffffffffffffffffffff168173ffffffffffffffffffffffffffffffffffffffff1603620001265760006040517f1e4fbdf70000000000000000000000000000000000000000000000000000000081526004016200011d9190620005aa565b60405180910390fd5b62000137816200013e60201b60201c565b50620005c7565b6000600a60009054906101000a900473ffffffffffffffffffffffffffffffffffffffff16905081600a60006101000a81548173ffffffffffffffffffffffffffffffffffffffff021916908373ffffffffffffffffffffffffffffffffffffffff1602179055508173ffffffffffffffffffffffffffffffffffffffff168173ffffffffffffffffffffffffffffffffffffffff167f8be0079c531659141344cd1fd0a4f28419497f9722a3daafe3b4186f6b6457e060405160405180910390a35050565b600081519050919050565b7f4e487b7100000000000000000000000000000000000000000000000000000000600052604160045260246000fd5b7f4e487b7100000000000000000000000000000000000000000000000000000000600052602260045260246000fd5b600060028204905060018216806200028657607f821691505b6020821081036200029c576200029b6200023e565b5b50919050565b60008190508160005260206000209050919050565b60006020601f8301049050919050565b600082821b905092915050565b600060088302620003067fffffffffffffffffffffffffffffffffffffffffffffffffffffffffffffffff82620002c7565b620003128683620002c7565b95508019841693508086168417925050509392505050565b6000819050919050565b6000819050919050565b60006200035f6200035962000353846200032a565b62000334565b6200032a565b9050919050565b6000819050919050565b6200037b836200033e565b620003936200038a8262000366565b848454620002d4565b825550505050565b600090565b620003aa6200039b565b620003b781848462000370565b505050565b5b81811015620003df57620003d3600082620003a0565b600181019050620003bd565b5050565b601f8211156200042e57620003f881620002a2565b6200040384620002b7565b8101602085101562000413578190505b6200042b6200042285620002b7565b830182620003bc565b50505b505050565b600082821c905092915050565b6000620004536000198460080262000433565b1980831691505092915050565b60006200046e838362000440565b9150826002028217905092915050565b620004898262000204565b67ffffffffffffffff811115620004a557620004a46200020f565b5b620004b182546200026d565b620004be828285620003e3565b600060209050601f831160018114620004f65760008415620004e1578287015190505b620004ed858262000460565b8655506200055d565b601f1984166200050686620002a2565b60005b82811015620005305784890151825560018201915060208501945060208101905062000509565b868310156200055057848901516200054c601f89168262000440565b8355505b6001600288020188555050505b505050505050565b600073ffffffffffffffffffffffffffffffffffffffff82169050919050565b6000620005928262000565565b9050919050565b620005a48162000585565b82525050565b6000602082019050620005c1600083018462000599565b92915050565b6130f580620005d76000396000f3fe60806040526004361061014b5760003560e01c80636352211e116100b6578063a22cb4651161006f578063a22cb46514610485578063b7ec2086146104ae578063b88d4fde146104d9578063c87b56dd14610502578063e985e9c51461053f578063f2fde38b1461057c5761014b565b80636352211e146103735780636c0360eb146103b057806370a08231146103db578063715018a6146104185780638da5cb5b1461042f57806395d89b411461045a5761014b565b806323b872dd1161010857806323b872dd146102535780632f745c591461027c57806332cb6b0c146102b957806342842e0e146102e45780634f6ccce71461030d57806355f804b31461034a5761014b565b806301ffc9a71461015057806306fdde031461018d578063081812fc146101b8578063095ea7b3146101f55780631249c58b1461021e57806318160ddd14610228575b600080fd5b34801561015c57600080fd5b5061017760048036038101906101729190612181565b6105a5565b60405161018491906121c9565b60405180910390f35b34801561019957600080fd5b506101a26105b7565b6040516101af9190612274565b60405180910390f35b3480156101c457600080fd5b506101df60048036038101906101da91906122cc565b610649565b6040516101ec919061233a565b60405180910390f35b34801561020157600080fd5b5061021c60048036038101906102179190612381565b610665565b005b61022661067b565b005b34801561023457600080fd5b5061023d610729565b60405161024a91906123d0565b60405180910390f35b34801561025f57600080fd5b5061027a600480360381019061027591906123eb565b610736565b005b34801561028857600080fd5b506102a3600480360381019061029e9190612381565b610838565b6040516102b091906123d0565b60405180910390f35b3480156102c557600080fd5b506102ce6108e1565b6040516102db91906123d0565b60405180910390f35b3480156102f057600080fd5b5061030b600480360381019061030691906123eb565b6108e7565b005b34801561031957600080fd5b50610334600480360381019061032f91906122cc565b610907565b60405161034191906123d0565b60405180910390f35b34801561035657600080fd5b50610371600480360381019061036c9190612573565b61097d565b005b34801561037f57600080fd5b5061039a600480360381019061039591906122cc565b610998565b6040516103a7919061233a565b60405180910390f35b3480156103bc57600080fd5b506103c56109aa565b6040516103d29190612274565b60405180910390f35b3480156103e757600080fd5b5061040260048036038101906103fd91906125bc565b610a38565b60405161040f91906123d0565b60405180910390f35b34801561042457600080fd5b5061042d610af2565b005b34801561043b57600080fd5b50610444610b06565b604051610451919061233a565b60405180910390f35b34801561046657600080fd5b5061046f610b30565b60405161047c9190612274565b60405180910390f35b34801561049157600080fd5b506104ac60048036038101906104a79190612615565b610bc2565b005b3480156104ba57600080fd5b506104c3610bd8565b6040516104d091906123d0565b60405180910390f35b3480156104e557600080fd5b5061050060048036038101906104fb91906126f6565b610bde565b005b34801561050e57600080fd5b50610529600480360381019061052491906122cc565b610c03565b6040516105369190612274565b60405180910390f35b34801561054b57600080fd5b5061056660048036038101906105619190612779565b610cea565b60405161057391906121c9565b60405180910390f35b34801561058857600080fd5b506105a3600480360381019061059e91906125bc565b610d7e565b005b60006105b082610e04565b9050919050565b6060600080546105c6906127e8565b80601f01602080910402602001604051908101604052809291908181526020018280546105f2906127e8565b801561063f5780601f106106145761010080835404028352916020019161063f565b820191906000526020600020905b81548152906001019060200180831161062257829003601f168201915b5050505050905090565b600061065482610e7e565b5061065e82610f06565b9050919050565b6106778282610672610f43565b610f4b565b5050565b6103e8610686610729565b106106c6576040517f08c379a00000000000000000000000000000000000000000000000000000000081526004016106bd90612865565b60405180910390fd5b600c54341461070a576040517f08c379a0000000000000000000000000000000000000000000000000000000008152600401610701906128d1565b60405180910390fd5b610727336001610718610729565b6107229190612920565b610f5d565b565b6000600880549050905090565b600073ffffffffffffffffffffffffffffffffffffffff168273ffffffffffffffffffffffffffffffffffffffff16036107a85760006040517f64a0ae9200000000000000000000000000000000000000000000000000000000815260040161079f919061233a565b60405180910390fd5b60006107bc83836107b7610f43565b610f7b565b90508373ffffffffffffffffffffffffffffffffffffffff168173ffffffffffffffffffffffffffffffffffffffff1614610832578382826040517f64283d7b00000000000000000000000000000000000000000000000000000000815260040161082993929190612954565b60405180910390fd5b50505050565b600061084383610a38565b82106108885782826040517fa57d13dc00000000000000000000000000000000000000000000000000000000815260040161087f92919061298b565b60405180910390fd5b600660008473ffffffffffffffffffffffffffffffffffffffff1673ffffffffffffffffffffffffffffffffffffffff168152602001908152602001600020600083815260200190815260200160002054905092915050565b6103e881565b61090283838360405180602001604052806000815250610bde565b505050565b6000610911610729565b8210610957576000826040517fa57d13dc00000000000000000000000000000000000000000000000000000000815260040161094e92919061298b565b60405180910390fd5b6008828154811061096b5761096a6129b4565b5b90600052602060002001549050919050565b610985610f91565b80600b90816109949190612b8f565b5050565b60006109a382610e7e565b9050919050565b600b80546109b7906127e8565b80601f01602080910402602001604051908101604052809291908181526020018280546109e3906127e8565b8015610a305780601f10610a0557610100808354040283529160200191610a30565b820191906000526020600020905b815481529060010190602001808311610a1357829003601f168201915b505050505081565b60008073ffffffffffffffffffffffffffffffffffffffff168273ffffffffffffffffffffffffffffffffffffffff1603610aab5760006040517f89c62b64000000000000000000000000000000000000000000000000000000008152600401610aa2919061233a565b60405180910390fd5b600360008373ffffffffffffffffffffffffffffffffffffffff1673ffffffffffffffffffffffffffffffffffffffff168152602001908152602001600020549050919050565b610afa610f91565b610b046000611018565b565b6000600a60009054906101000a900473ffffffffffffffffffffffffffffffffffffffff16905090565b606060018054610b3f906127e8565b80601f0160208091040260200160405190810160405280929190818152602001828054610b6b906127e8565b8015610bb85780601f10610b8d57610100808354040283529160200191610bb8565b820191906000526020600020905b815481529060010190602001808311610b9b57829003601f168201915b5050505050905090565b610bd4610bcd610f43565b83836110de565b5050565b600c5481565b610be9848484610736565b610bfd610bf4610f43565b8585858561124d565b50505050565b60603073ffffffffffffffffffffffffffffffffffffffff16636352211e836040518263ffffffff1660e01b8152600401610c3e91906123d0565b602060405180830381865afa925050508015610c7857506040513d601f19601f82011682018060405250810190610c759190612c76565b60015b610cb7576040517f08c379a0000000000000000000000000000000000000000000000000000000008152600401610cae90612cef565b60405180910390fd5b50600b610cc3836113fe565b604051602001610cd4929190612e66565b6040516020818303038152906040529050919050565b6000600560008473ffffffffffffffffffffffffffffffffffffffff1673ffffffffffffffffffffffffffffffffffffffff16815260200190815260200160002060008373ffffffffffffffffffffffffffffffffffffffff1673ffffffffffffffffffffffffffffffffffffffff16815260200190815260200160002060009054906101000a900460ff16905092915050565b610d86610f91565b600073ffffffffffffffffffffffffffffffffffffffff168173ffffffffffffffffffffffffffffffffffffffff1603610df85760006040517f1e4fbdf7000000000000000000000000000000000000000000000000000000008152600401610def919061233a565b60405180910390fd5b610e0181611018565b50565b60007f780e9d63000000000000000000000000000000000000000000000000000000007bffffffffffffffffffffffffffffffffffffffffffffffffffffffff1916827bffffffffffffffffffffffffffffffffffffffffffffffffffffffff19161480610e775750610e768261155e565b5b9050919050565b600080610e8a83611640565b9050600073ffffffffffffffffffffffffffffffffffffffff168173ffffffffffffffffffffffffffffffffffffffff1603610efd57826040517f7e273289000000000000000000000000000000000000000000000000000000008152600401610ef491906123d0565b60405180910390fd5b80915050919050565b60006004600083815260200190815260200160002060009054906101000a900473ffffffffffffffffffffffffffffffffffffffff169050919050565b600033905090565b610f58838383600161167d565b505050565b610f77828260405180602001604052806000815250611842565b5050565b6000610f88848484611866565b90509392505050565b610f99610f43565b73ffffffffffffffffffffffffffffffffffffffff16610fb7610b06565b73ffffffffffffffffffffffffffffffffffffffff161461101657610fda610f43565b6040517f118cdaa700000000000000000000000000000000000000000000000000000000815260040161100d919061233a565b60405180910390fd5b565b6000600a60009054906101000a900473ffffffffffffffffffffffffffffffffffffffff16905081600a60006101000a81548173ffffffffffffffffffffffffffffffffffffffff021916908373ffffffffffffffffffffffffffffffffffffffff1602179055508173ffffffffffffffffffffffffffffffffffffffff168173ffffffffffffffffffffffffffffffffffffffff167f8be0079c531659141344cd1fd0a4f28419497f9722a3daafe3b4186f6b6457e060405160405180910390a35050565b600073ffffffffffffffffffffffffffffffffffffffff168273ffffffffffffffffffffffffffffffffffffffff160361114f57816040517f5b08ba18000000000000000000000000000000000000000000000000000000008152600401611146919061233a565b60405180910390fd5b80600560008573ffffffffffffffffffffffffffffffffffffffff1673ffffffffffffffffffffffffffffffffffffffff16815260200190815260200160002060008473ffffffffffffffffffffffffffffffffffffffff1673ffffffffffffffffffffffffffffffffffffffff16815260200190815260200160002060006101000a81548160ff0219169083151502179055508173ffffffffffffffffffffffffffffffffffffffff168373ffffffffffffffffffffffffffffffffffffffff167f17307eab39ab6107e8899845ad3d59bd9653f200f220920489ca2b5937696c318360405161124091906121c9565b60405180910390a3505050565b60008373ffffffffffffffffffffffffffffffffffffffff163b11156113f7578273ffffffffffffffffffffffffffffffffffffffff1663150b7a02868685856040518563ffffffff1660e01b81526004016112ac9493929190612ef5565b6020604051808303816000875af19250505080156112e857506040513d601f19601f820116820180604052508101906112e59190612f56565b60015b61136c573d8060008114611318576040519150601f19603f3d011682016040523d82523d6000602084013e61131d565b606091505b50600081510361136457836040517f64a0ae9200000000000000000000000000000000000000000000000000000000815260040161135b919061233a565b60405180910390fd5b805160208201fd5b63150b7a0260e01b7bffffffffffffffffffffffffffffffffffffffffffffffffffffffff1916817bffffffffffffffffffffffffffffffffffffffffffffffffffffffff1916146113f557836040517f64a0ae920000000000000000000000000000000000000000000000000000000081526004016113ec919061233a565b60405180910390fd5b505b5050505050565b606060008203611445576040518060400160405280600181526020017f30000000000000000000000000000000000000000000000000000000000000008152509050611559565b600082905060005b6000821461147757808061146090612f83565b915050600a826114709190612ffa565b915061144d565b60008167ffffffffffffffff81111561149357611492612448565b5b6040519080825280601f01601f1916602001820160405280156114c55781602001600182028036833780820191505090505b5090505b60008514611552576001826114de919061302b565b9150600a856114ed919061305f565b60306114f99190612920565b60f81b81838151811061150f5761150e6129b4565b5b60200101907effffffffffffffffffffffffffffffffffffffffffffffffffffffffffffff1916908160001a905350600a8561154b9190612ffa565b94506114c9565b8093505050505b919050565b60007f80ac58cd000000000000000000000000000000000000000000000000000000007bffffffffffffffffffffffffffffffffffffffffffffffffffffffff1916827bffffffffffffffffffffffffffffffffffffffffffffffffffffffff1916148061162957507f5b5e139f000000000000000000000000000000000000000000000000000000007bffffffffffffffffffffffffffffffffffffffffffffffffffffffff1916827bffffffffffffffffffffffffffffffffffffffffffffffffffffffff1916145b80611639575061163882611983565b5b9050919050565b60006002600083815260200190815260200160002060009054906101000a900473ffffffffffffffffffffffffffffffffffffffff169050919050565b80806116b65750600073ffffffffffffffffffffffffffffffffffffffff168273ffffffffffffffffffffffffffffffffffffffff1614155b156117ea5760006116c684610e7e565b9050600073ffffffffffffffffffffffffffffffffffffffff168373ffffffffffffffffffffffffffffffffffffffff161415801561173157508273ffffffffffffffffffffffffffffffffffffffff168173ffffffffffffffffffffffffffffffffffffffff1614155b801561174457506117428184610cea565b155b1561178657826040517fa9fbf51f00000000000000000000000000000000000000000000000000000000815260040161177d919061233a565b60405180910390fd5b81156117e857838573ffffffffffffffffffffffffffffffffffffffff168273ffffffffffffffffffffffffffffffffffffffff167f8c5be1e5ebec7d5bd14f71427d1e84f3dd0314c0f7b2291e5b200ac8c7c3b92560405160405180910390a45b505b836004600085815260200190815260200160002060006101000a81548173ffffffffffffffffffffffffffffffffffffffff021916908373ffffffffffffffffffffffffffffffffffffffff16021790555050505050565b61184c83836119ed565b611861611857610f43565b600085858561124d565b505050565b600080611874858585611ae6565b9050600073ffffffffffffffffffffffffffffffffffffffff168173ffffffffffffffffffffffffffffffffffffffff16036118b8576118b384611d00565b6118f7565b8473ffffffffffffffffffffffffffffffffffffffff168173ffffffffffffffffffffffffffffffffffffffff16146118f6576118f58185611d49565b5b5b600073ffffffffffffffffffffffffffffffffffffffff168573ffffffffffffffffffffffffffffffffffffffff16036119395761193484611e34565b611978565b8473ffffffffffffffffffffffffffffffffffffffff168173ffffffffffffffffffffffffffffffffffffffff1614611977576119768585611f05565b5b5b809150509392505050565b60007f01ffc9a7000000000000000000000000000000000000000000000000000000007bffffffffffffffffffffffffffffffffffffffffffffffffffffffff1916827bffffffffffffffffffffffffffffffffffffffffffffffffffffffff1916149050919050565b600073ffffffffffffffffffffffffffffffffffffffff168273ffffffffffffffffffffffffffffffffffffffff1603611a5f5760006040517f64a0ae92000000000000000000000000000000000000000000000000000000008152600401611a56919061233a565b60405180910390fd5b6000611a6d83836000610f7b565b9050600073ffffffffffffffffffffffffffffffffffffffff168173ffffffffffffffffffffffffffffffffffffffff1614611ae15760006040517f73c6ac6e000000000000000000000000000000000000000000000000000000008152600401611ad8919061233a565b60405180910390fd5b505050565b600080611af284611640565b9050600073ffffffffffffffffffffffffffffffffffffffff168373ffffffffffffffffffffffffffffffffffffffff1614611b3457611b33818486611f90565b5b600073ffffffffffffffffffffffffffffffffffffffff168173ffffffffffffffffffffffffffffffffffffffff1614611bc557611b7660008560008061167d565b6001600360008373ffffffffffffffffffffffffffffffffffffffff1673ffffffffffffffffffffffffffffffffffffffff168152602001908152602001600020600082825403925050819055505b600073ffffffffffffffffffffffffffffffffffffffff168573ffffffffffffffffffffffffffffffffffffffff1614611c48576001600360008773ffffffffffffffffffffffffffffffffffffffff1673ffffffffffffffffffffffffffffffffffffffff168152602001908152602001600020600082825401925050819055505b846002600086815260200190815260200160002060006101000a81548173ffffffffffffffffffffffffffffffffffffffff021916908373ffffffffffffffffffffffffffffffffffffffff160217905550838573ffffffffffffffffffffffffffffffffffffffff168273ffffffffffffffffffffffffffffffffffffffff167fddf252ad1be2c89b69c2b068fc378daa952ba7f163c4a11628f55a4df523b3ef60405160405180910390a4809150509392505050565b6008805490506009600083815260200190815260200160002081905550600881908060018154018082558091505060019003906000526020600020016000909190919091505550565b6000611d5483610a38565b90506000600760008481526020019081526020016000205490506000600660008673ffffffffffffffffffffffffffffffffffffffff1673ffffffffffffffffffffffffffffffffffffffff1681526020019081526020016000209050828214611e005760008160008581526020019081526020016000205490508082600085815260200190815260200160002081905550826007600083815260200190815260200160002081905550505b6007600085815260200190815260200160002060009055806000848152602001908152602001600020600090555050505050565b60006001600880549050611e48919061302b565b9050600060096000848152602001908152602001600020549050600060088381548110611e7857611e776129b4565b5b906000526020600020015490508060088381548110611e9a57611e996129b4565b5b906000526020600020018190555081600960008381526020019081526020016000208190555060096000858152602001908152602001600020600090556008805480611ee957611ee8613090565b5b6001900381819060005260206000200160009055905550505050565b60006001611f1284610a38565b611f1c919061302b565b905081600660008573ffffffffffffffffffffffffffffffffffffffff1673ffffffffffffffffffffffffffffffffffffffff168152602001908152602001600020600083815260200190815260200160002081905550806007600084815260200190815260200160002081905550505050565b611f9b838383612054565b61204f57600073ffffffffffffffffffffffffffffffffffffffff168373ffffffffffffffffffffffffffffffffffffffff160361201057806040517f7e27328900000000000000000000000000000000000000000000000000000000815260040161200791906123d0565b60405180910390fd5b81816040517f177e802f00000000000000000000000000000000000000000000000000000000815260040161204692919061298b565b60405180910390fd5b505050565b60008073ffffffffffffffffffffffffffffffffffffffff168373ffffffffffffffffffffffffffffffffffffffff161415801561210c57508273ffffffffffffffffffffffffffffffffffffffff168473ffffffffffffffffffffffffffffffffffffffff1614806120cd57506120cc8484610cea565b5b8061210b57508273ffffffffffffffffffffffffffffffffffffffff166120f383610f06565b73ffffffffffffffffffffffffffffffffffffffff16145b5b90509392505050565b6000604051905090565b600080fd5b600080fd5b60007fffffffff0000000000000000000000000000000000000000000000000000000082169050919050565b61215e81612129565b811461216957600080fd5b50565b60008135905061217b81612155565b92915050565b6000602082840312156121975761219661211f565b5b60006121a58482850161216c565b91505092915050565b60008115159050919050565b6121c3816121ae565b82525050565b60006020820190506121de60008301846121ba565b92915050565b600081519050919050565b600082825260208201905092915050565b60005b8381101561221e578082015181840152602081019050612203565b60008484015250505050565b6000601f19601f8301169050919050565b6000612246826121e4565b61225081856121ef565b9350612260818560208601612200565b6122698161222a565b840191505092915050565b6000602082019050818103600083015261228e818461223b565b905092915050565b6000819050919050565b6122a981612296565b81146122b457600080fd5b50565b6000813590506122c6816122a0565b92915050565b6000602082840312156122e2576122e161211f565b5b60006122f0848285016122b7565b91505092915050565b600073ffffffffffffffffffffffffffffffffffffffff82169050919050565b6000612324826122f9565b9050919050565b61233481612319565b82525050565b600060208201905061234f600083018461232b565b92915050565b61235e81612319565b811461236957600080fd5b50565b60008135905061237b81612355565b92915050565b600080604083850312156123985761239761211f565b5b60006123a68582860161236c565b92505060206123b7858286016122b7565b9150509250929050565b6123ca81612296565b82525050565b60006020820190506123e560008301846123c1565b92915050565b6000806000606084860312156124045761240361211f565b5b60006124128682870161236c565b93505060206124238682870161236c565b9250506040612434868287016122b7565b9150509250925092565b600080fd5b600080fd5b7f4e487b7100000000000000000000000000000000000000000000000000000000600052604160045260246000fd5b6124808261222a565b810181811067ffffffffffffffff8211171561249f5761249e612448565b5b80604052505050565b60006124b2612115565b90506124be8282612477565b919050565b600067ffffffffffffffff8211156124de576124dd612448565b5b6124e78261222a565b9050602081019050919050565b82818337600083830152505050565b6000612516612511846124c3565b6124a8565b90508281526020810184848401111561253257612531612443565b5b61253d8482856124f4565b509392505050565b600082601f83011261255a5761255961243e565b5b813561256a848260208601612503565b91505092915050565b6000602082840312156125895761258861211f565b5b600082013567ffffffffffffffff8111156125a7576125a6612124565b5b6125b384828501612545565b91505092915050565b6000602082840312156125d2576125d161211f565b5b60006125e08482850161236c565b91505092915050565b6125f2816121ae565b81146125fd57600080fd5b50565b60008135905061260f816125e9565b92915050565b6000806040838503121561262c5761262b61211f565b5b600061263a8582860161236c565b925050602061264b85828601612600565b9150509250929050565b600067ffffffffffffffff8211156126705761266f612448565b5b6126798261222a565b9050602081019050919050565b600061269961269484612655565b6124a8565b9050828152602081018484840111156126b5576126b4612443565b5b6126c08482856124f4565b509392505050565b600082601f8301126126dd576126dc61243e565b5b81356126ed848260208601612686565b91505092915050565b600080600080608085870312156127105761270f61211f565b5b600061271e8782880161236c565b945050602061272f8782880161236c565b9350506040612740878288016122b7565b925050606085013567ffffffffffffffff81111561276157612760612124565b5b61276d878288016126c8565b91505092959194509250565b600080604083850312156127905761278f61211f565b5b600061279e8582860161236c565b92505060206127af8582860161236c565b9150509250929050565b7f4e487b7100000000000000000000000000000000000000000000000000000000600052602260045260246000fd5b6000600282049050600182168061280057607f821691505b602082108103612813576128126127b9565b5b50919050565b7f536f6c64206f7574000000000000000000000000000000000000000000000000600082015250565b600061284f6008836121ef565b915061285a82612819565b602082019050919050565b6000602082019050818103600083015261287e81612842565b9050919050565b7f496e636f7272656374207061796d656e74000000000000000000000000000000600082015250565b60006128bb6011836121ef565b91506128c682612885565b602082019050919050565b600060208201905081810360008301526128ea816128ae565b9050919050565b7f4e487b7100000000000000000000000000000000000000000000000000000000600052601160045260246000fd5b600061292b82612296565b915061293683612296565b925082820190508082111561294e5761294d6128f1565b5b92915050565b6000606082019050612969600083018661232b565b61297660208301856123c1565b612983604083018461232b565b949350505050565b60006040820190506129a0600083018561232b565b6129ad60208301846123c1565b9392505050565b7f4e487b7100000000000000000000000000000000000000000000000000000000600052603260045260246000fd5b60008190508160005260206000209050919050565b60006020601f8301049050919050565b600082821b905092915050565b600060088302612a457fffffffffffffffffffffffffffffffffffffffffffffffffffffffffffffffff82612a08565b612a4f8683612a08565b95508019841693508086168417925050509392505050565b6000819050919050565b6000612a8c612a87612a8284612296565b612a67565b612296565b9050919050565b6000819050919050565b612aa683612a71565b612aba612ab282612a93565b848454612a15565b825550505050565b600090565b612acf612ac2565b612ada818484612a9d565b505050565b5b81811015612afe57612af3600082612ac7565b600181019050612ae0565b5050565b601f821115612b4357612b14816129e3565b612b1d846129f8565b81016020851015612b2c578190505b612b40612b38856129f8565b830182612adf565b50505b505050565b600082821c905092915050565b6000612b6660001984600802612b48565b1980831691505092915050565b6000612b7f8383612b55565b9150826002028217905092915050565b612b98826121e4565b67ffffffffffffffff811115612bb157612bb0612448565b5b612bbb82546127e8565b612bc6828285612b02565b600060209050601f831160018114612bf95760008415612be7578287015190505b612bf18582612b73565b865550612c59565b601f198416612c07866129e3565b60005b82811015612c2f57848901518255600182019150602085019450602081019050612c0a565b86831015612c4c5784890151612c48601f891682612b55565b8355505b6001600288020188555050505b505050505050565b600081519050612c7081612355565b92915050565b600060208284031215612c8c57612c8b61211f565b5b6000612c9a84828501612c61565b91505092915050565b7f4e6f74206d696e74656400000000000000000000000000000000000000000000600082015250565b6000612cd9600a836121ef565b9150612ce482612ca3565b602082019050919050565b60006020820190508181036000830152612d0881612ccc565b9050919050565b600081905092915050565b60008154612d27816127e8565b612d318186612d0f565b94506001821660008114612d4c5760018114612d6157612d94565b60ff1983168652811515820286019350612d94565b612d6a856129e3565b60005b83811015612d8c57815481890152600182019150602081019050612d6d565b838801955050505b50505092915050565b7f2f00000000000000000000000000000000000000000000000000000000000000600082015250565b6000612dd3600183612d0f565b9150612dde82612d9d565b600182019050919050565b6000612df4826121e4565b612dfe8185612d0f565b9350612e0e818560208601612200565b80840191505092915050565b7f2e6a736f6e000000000000000000000000000000000000000000000000000000600082015250565b6000612e50600583612d0f565b9150612e5b82612e1a565b600582019050919050565b6000612e728285612d1a565b9150612e7d82612dc6565b9150612e898284612de9565b9150612e9482612e43565b91508190509392505050565b600081519050919050565b600082825260208201905092915050565b6000612ec782612ea0565b612ed18185612eab565b9350612ee1818560208601612200565b612eea8161222a565b840191505092915050565b6000608082019050612f0a600083018761232b565b612f17602083018661232b565b612f2460408301856123c1565b8181036060830152612f368184612ebc565b905095945050505050565b600081519050612f5081612155565b92915050565b600060208284031215612f6c57612f6b61211f565b5b6000612f7a84828501612f41565b91505092915050565b6000612f8e82612296565b91507fffffffffffffffffffffffffffffffffffffffffffffffffffffffffffffffff8203612fc057612fbf6128f1565b5b600182019050919050565b7f4e487b7100000000000000000000000000000000000000000000000000000000600052601260045260246000fd5b600061300582612296565b915061301083612296565b9250826130205761301f612fcb565b5b828204905092915050565b600061303682612296565b915061304183612296565b9250828203905081811115613059576130586128f1565b5b92915050565b600061306a82612296565b915061307583612296565b92508261308557613084612fcb565b5b828206905092915050565b7f4e487b7100000000000000000000000000000000000000000000000000000000600052603160045260246000fdfea2646970667358221220286a8ac639df0c3838b68507a18570266d2d171c6f81572a6edafe997afc0d5264736f6c63430008140033",
  "linkReferences": {},
  "deployedLinkReferences": {}
}