{
  "_format": "hh-sol-artifact-1",
  "contractName": "MinimalBaseURI",
  "sourceName": "contracts/MinimalBaseURI.sol",
  "abi": [
    {
      "inputs": [],
      "stateMutability": "nonpayable",
      "type": "constructor"
    },
    {
      "inputs": [],
      "name": "baseURI",
      "outputs": [
        {
          "internalType": "string",
          "name": "",
          "type": "string"
        }
      ],
      "stateMutability": "view",
      "type": "function"
    },
    {
      "inputs": [],
      "name": "owner",
      "outputs": [
        {
          "internalType": "address",
          "name": "",
          "type": "address"
        }
      ],
      "stateMutability": "view",
      "type": "function"
    },
    {
      "inputs": [
        {
          "internalType": "string",
          "name": "uri",
          "type": "string"
        }
      ],
      "name": "setBaseURI",
      "outputs": [],
      "stateMutability": "nonpayable",
      "type": "function"
    }
  ],
  "bytecode": "0x608060405234801561001057600080fd5b5033600160006101000a81548173ffffffffffffffffffffffffffffffffffffffff021916908373ffffffffffffffffffffffffffffffffffffffff160217905550610784806100616000396000f3fe608060405234801561001057600080fd5b50600436106100415760003560e01c806355f804b3146100465780636c0360eb146100625780638da5cb5b14610080575b600080fd5b610060600480360381019061005b9190610267565b61009e565b005b61006a610144565b6040516100779190610344565b60405180910390f35b6100886101d2565b60405161009591906103a7565b60405180910390f35b600160009054906101000a900473ffffffffffffffffffffffffffffffffffffffff1673ffffffffffffffffffffffffffffffffffffffff163373ffffffffffffffffffffffffffffffffffffffff161461012e576040517f08c379a00000000000000000000000000000000000000000000000000000000081526004016101259061040e565b60405180910390fd5b81816000918261013f92919061067e565b505050565b6000805461015190610497565b80601f016020809104026020016040519081016040528092919081815260200182805461017d90610497565b80156101ca5780601f1061019f576101008083540402835291602001916101ca565b820191906000526020600020905b8154815290600101906020018083116101ad57829003601f168201915b505050505081565b600160009054906101000a900473ffffffffffffffffffffffffffffffffffffffff1681565b600080fd5b600080fd5b600080fd5b600080fd5b600080fd5b60008083601f84011261022757610226610202565b5b8235905067ffffffffffffffff81111561024457610243610207565b5b6020830191508360018202830111156102605761025f61020c565b5b9250929050565b6000806020838503121561027e5761027d6101f8565b5b600083013567ffffffffffffffff81111561029c5761029b6101fd565b5b6102a885828601610211565b92509250509250929050565b600081519050919050565b600082825260208201905092915050565b60005b838110156102ee5780820151818401526020810190506102d3565b60008484015250505050565b6000601f19601f8301169050919050565b6000610316826102b4565b61032081856102bf565b93506103308185602086016102d0565b610339816102fa565b840191505092915050565b6000602082019050818103600083015261035e818461030b565b905092915050565b600073ffffffffffffffffffffffffffffffffffffffff82169050919050565b600061039182610366565b9050919050565b6103a181610386565b82525050565b60006020820190506103bc6000830184610398565b92915050565b7f6e6f74206f776e65720000000000000000000000000000000000000000000000600082015250565b60006103f86009836102bf565b9150610403826103c2565b602082019050919050565b60006020820190508181036000830152610427816103eb565b9050919050565b600082905092915050565b7f4e487b7100000000000000000000000000000000000000000000000000000000600052604160045260246000fd5b7f4e487b7100000000000000000000000000000000000000000000000000000000600052602260045260246000fd5b600060028204905060018216806104af57607f821691505b6020821081036104c2576104c1610468565b5b50919050565b60008190508160005260206000209050919050565b60006020601f8301049050919050565b600082821b905092915050565b60006008830261052a7fffffffffffffffffffffffffffffffffffffffffffffffffffffffffffffffff826104ed565b61053486836104ed565b95508019841693508086168417925050509392505050565b6000819050919050565b6000819050919050565b600061057b6105766105718461054c565b610556565b61054c565b9050919050565b6000819050919050565b61059583610560565b6105a96105a182610582565b8484546104fa565b825550505050565b600090565b6105be6105b1565b6105c981848461058c565b505050565b5b818110156105ed576105e26000826105b6565b6001810190506105cf565b5050565b601f82111561063257610603816104c8565b61060c846104dd565b8101602085101561061b578190505b61062f610627856104dd565b8301826105ce565b50505b505050565b600082821c905092915050565b600061065560001984600802610637565b1980831691505092915050565b600061066e8383610644565b9150826002028217905092915050565b610688838361042e565b67ffffffffffffffff8111156106a1576106a0610439565b5b6106ab8254610497565b6106b68282856105f1565b6000601f8311600181146106e557600084156106d3578287013590505b6106dd8582610662565b865550610745565b601f1984166106f3866104c8565b60005b8281101561071b578489013582556001820191506020850194506020810190506106f6565b868310156107385784890135610734601f891682610644565b8355505b6001600288020188555050505b5050505050505056fea26469706673582212207cf6473c60ef33822ec68f65358fcdd33ba2f9005486a4f510674b23fc26325264736f6c63430008140033",
  "linkReferences": {},
  "deployedLinkReferences": {}
}